:020000040800F2
:10000000D0680020C5020008311100082D0F00083B
:10001000691000082F0B0008871F0008000000006F
:100020000000000000000000000000002D02000899
:100030006B0D00080000000071020008E7140008C2
:10004000DF020008DF020008DF020008DF0200080C
:10005000DF020008DF020008DF020008DF020008FC
:10006000DF020008DF020008DF020008350B00088D
:10007000DF020008DF020008DF020008DF020008DC
:10008000DF020008DF020008DF020008DF020008CC
:10009000DF020008DF020008DF020008DF020008BC
:1000A000DF020008DF020008DF020008DF020008AC
:1000B000DF020008DF020008DF020008DF0200089C
:1000C000DF020008DF020008DF020008DF0200088C
:1000D000DF020008491D0008DF020008DF020008F7
:1000E000DF020008DF020008DF020008DF0200086C
:1000F000DF020008DF02000839180008DF020008EC
:10010000DF020008DF020008DF020008DF0200084B
:10011000DF020008DF020008DF020008DF0200083B
:10012000DF020008DF020008DF020008DF0200082B
:1001300000F002F800F06BF80AA090E8000C82448E
:100140008344AAF10107DA4501D100F060F8AFF26B
:10015000090EBAE80F0013F0010F18BFFB1A43F0A5
:1001600001031847C8680000E86800000A444FF01F
:10017000000C10F8013B13F0070408BF10F8014B06
:100180001D1108BF10F8015B641E05D010F8016B4B
:10019000641E01F8016BF9D113F0080F1EBF10F8AF
:1001A000014BAD1C0C1B09D16D1E58BF01F801CBD2
:1001B000FAD505E014F8016B01F8016B6D1EF9D555
:1001C0009142D6D37047000000230024002500266A
:1001D000103A28BF78C1FBD8520728BF30C148BFAA
:1001E0000B607047642900F0EB80752900F0E8800F
:1001F000782900F02181632900F00283732900F03F
:100200000783002070471FB51FBD10B510BD00F05B
:100210006DFB1146FFF7F7FF02F008F900F08BFBCA
:1002200003B4FFF7F2FF03BC01F0B6FE224B1968DE
:100230000868B0E8F00F80F30988BFF36F8F4FF0C4
:10024000000080F311884EF00D0E70470000000092
:1002500006480068006880F3088862B661B6BFF39C
:100260004F8FBFF36F8F00DF00BF00BF08ED00E0CE
:10027000EFF30980BFF36F8F0F4B1A6820E9F00F7F
:10028000106008B54FF0500080F31188BFF34F8F16
:10029000BFF36F8F05F0CCFA4FF0000080F31188A8
:1002A000BDE8084019680868B0E8F00F80F30988D5
:1002B000BFF36F8F704700BF44000020EFF305804D
:1002C000704700000948804709480047FEE7FEE7FD
:1002D000FEE7FEE7FEE7FEE7FEE7FEE7FEE7FEE7F6
:1002E00004480549054A064B70470000F914000808
:1002F00031010008D0620020D0680020D0640020C6
:10030000D0640020704700000FB4044910B503AA60
:10031000029800F081FA10BC5DF814FB1C0000206C
:1003200070B5044685690068C10601D5302600E035
:100330002026C00707D070BDD4E901213046904780
:10034000206A401C20626D1EF6D570BD70B5044653
:1003500085690078C00707D170BDD4E9012120204C
:100360009047206A401C20626D1EF6D570BD70B5A6
:100370000C460546012A05D02878800600D5EA6992
:10038000002302E0012305E05B1C934202D2E05C03
:100390000028F9D1A869E618C01AA861286A18448B
:1003A00028622846FFF7BCFF04E0D5E9012114F8D4
:1003B000010B9047B442F8D32846FFF7C7FF70BD42
:1003C0002DE9F0410646002410687529314616A52E
:1003D00010D0AFF30080002802DA404213A507E0F6
:1003E00031688A0701D512A502E0490704D511A595
:1003F000012401E0AFF3008000210A2206F1240766
:1004000009E0B0FBF2FCB0FBF2F302FB1C00303061
:1004100078541846491C0028F3D123462A46304612
:10042000BDE8F04100F070B9000000002D000000B0
:100430002B0000002000000070B504460D46214648
:100440001068AFF300802188090502D50F4A7A446D
:1004500002E00E4A7A440E32002104F1240305E042
:1004600000F00F060009965D5E54491C0028F7D184
:1004700020780023000704D5702D02D009B1022393
:1004800011322046BDE8704000F03EB9966400008D
:100490002DE9F05F894604464FF0000ADFF874B199
:1004A000FB44C0F820A02046E1688847002874D0AB
:1004B000252806D0D4E901219047206A401C2062FB
:1004C000F1E700265F462046E16888472028054678
:1004D00007DB312D05D2781910F8200C08B106433E
:1004E000F1E7B00701D526F00406C4F81CA00027E8
:1004F000C4F818A02A2D09D0284601F046FD38B3CB
:1005000004EB8708303DC8F8185019E059F8041B6F
:10051000204604EB87029161E1688847012F054678
:1005200018D1E069002820DA26F020061DE0D8F86E
:10053000180000EB800005EB40003038C8F81800C8
:100540002046E1688847054601F01FFD0028EED1EE
:10055000012F0AD02E2D08D12046E16888477F1C44
:100560000546022F46F02006C4DBA069002803DA06
:10057000404246F00106A061F00701D026F01006C7
:100580006C2D0BD0682D09D04C2D39D06A2D35D06B
:10059000742D35D07A2D33D016E038E0E1682F463F
:1005A00020468847B842054609D16C2F26D04FF423
:1005B0008060E168064320468847054604E06C2FCA
:1005C0001AD04FF4807006430DB3A5F141001928ED
:1005D00002D8203546F400664A4629462046266061
:1005E0004E46FFF7FFFD80B101280BD0F61D26F027
:1005F000070000F1080956E74020E4E78020D8E72B
:100600000020D6E706F104094DE7284652E7206AA4
:10061000BDE8F09F6C640000032A40F2308010F0C7
:10062000030C00F0158011F8013BBCF1020F62448D
:1006300098BF11F801CB00F8013B38BF11F8013B1E
:10064000A2F1040298BF00F801CB38BF00F8013BCB
:1006500011F0030300F0F280083AC0F0088051F86E
:10066000043B083A51F804CBA0E80810F5E7121D46
:100670005CBF51F8043B40F8043BAFF30080D20765
:1006800024BF11F8013B11F801CB48BF11F8012B31
:1006900024BF00F8013B00F801CB48BF00F8012B54
:1006A000704702F0FF0343EA032242EA024200F0ED
:1006B000F9B84FF0000200B513469446964620392B
:1006C00022BFA0E80C50A0E80C50B1F12001BFF40B
:1006D000F7AF090728BFA0E80C5048BF0CC05DF871
:1006E00004EB890028BF40F8042B08BF704748BFBF
:1006F00020F8022B11F0804F18BF00F8012B704733
:1007000070477047704770472DE9F0470D4699468E
:100710009246044600F124080168880604D5E06981
:1007200021F01001216000E00120A84201DD471BFB
:1007300000E00027A1697A1902EB0900081AA061FC
:100740002078C00602D42046FFF7EAFD002608E024
:10075000D4E901211AF806009047206A401C761C53
:1007600020624E45F4DB2078C0060AD52046FFF70C
:10077000D7FD06E0D4E9012130209047206A401CD3
:100780002062381EA7F10107F4DC07E0D4E901215B
:1007900018F805009047206A401C2062281EA5F129
:1007A0000105F3DC2046FFF7D1FD2078000602D5D5
:1007B0000220BDE8F0870120FBE7000001694A1C28
:1007C00002610878704700B58FB0CDE90131002192
:1007D000059105497944CDE9031011466846FFF7B4
:1007E00057FE0FB000BD0000E5FFFFFF10B54369E5
:1007F00013B1AFF3008001E0FFF7B9FD012010BD98
:10080000127800F124010A7000224A700122EDE7FB
:1008100011684FF0FF32E9E7074B70B50D467B4496
:10082000FFF7D1FF0446284600F05CF810B14FF006
:10083000FF3070BD204670BDEF1B000010B5203AA0
:10084000C0F00B80B1E81850203AA0E81850B1E889
:100850001850A0E81850BFF4F5AF5FEA027C24BF3F
:10086000B1E81850A0E8185044BF18C918C0BDE836
:1008700010405FEA827C24BF51F8043B40F8043BFF
:1008800008BF7047D20728BF31F8023B48BF11F8B4
:10089000012B28BF20F8023B48BF00F8012B70470E
:1008A0004FF000020429C0F0128010F0030C3FF456
:1008B00002AFCCF1040CBCF1020F18BF00F8012B01
:1008C000A8BF20F8022BA1EB0C01FFF7F4BE5FEAF2
:1008D000C17C24BF00F8012B00F8012B48BF00F8B1
:1008E000012B7047007B00F080007047754600F0D8
:1008F00029F8AE4605006946534620F007008546B4
:1009000018B020B5FFF7ECFCBDE820404FF0000622
:100910004FF000074FF000084FF0000B21F00701E7
:10092000AC46ACE8C009ACE8C009ACE8C009ACE82A
:10093000C0098D4670470446AFF300802046FFF79C
:100940006FFC0000004870476C62002021B1826893
:1009500042F00102826003E0826822F001028260BC
:10096000704721B1826842F48072826003E082683D
:1009700022F480728260704710B5044612488442A7
:1009800008D10121401500F053FC0021601500F052
:100990004FFC17E00D48844208D10121001500F0FA
:1009A00047FC0021201500F043FC0BE0084884427E
:1009B00008D10121C80300F03BFC00214FF40040A6
:1009C00000F036FC10BD000000240140002801406A
:1009D000003C0140014600208A6802F004020AB18E
:1009E000012000E000207047014600208A6802F0E4
:1009F00008020AB1012000E00020704730B502462D
:100A00000020002350680F4C20400D790C6844EA08
:100A100005242043506090680B4C2040D1E90254DB
:100A20002C434D7944EA450420439060D06A20F479
:100A300070000C7C641EE4B2234340EA0350D06291
:100A400030BD0000FFFEF0FFFDF7F1FFF0B50446FA
:100A50000D4600200021092D11DDE068A5F10A06F0
:100A600006EB4607072606FA07F18843A5F10A06B2
:100A700006EB460603FA06F10843E0600CE0206945
:100A800005EB4507072606FA07F1884305EB4506FF
:100A900003FA06F108432061072A0FDA606B561E3D
:100AA00006EB86071F2606FA07F18843561E06EB5B
:100AB000860605FA06F10843606322E00D2A0FDA84
:100AC000206BD61F06EB86071F2606FA07F1884320
:100AD000D61F06EB860605FA06F10843206310E0F0
:100AE000E06AA2F10D0606EB86071F2606FA07F15B
:100AF0008843A2F10D0606EB860605FA06F10843C7
:100B0000E062F0BD816841F008018160704721B169
:100B1000826842F4A002826003E0826822F4A002AC
:100B200082607047816841F004018160704700BFB6
:100B3000FEE700001CB500200190022000F0D8F86C
:100B400001280FD1022000F013F800210648FFF71A
:100B5000FDFE01A800230222012100900348006845
:100B600005F070FB1CBD0000002401403400002093
:100B700000F0805111B10349086001E0024948606A
:100B800070470000040402400000024021B10268E6
:100B900042F00102026004E002684FF6FE731A4060
:100BA0000260704701684FF6FE721140016000213B
:100BB000016041608160C1604B49884208D14A4967
:100BC0000839496841F00F01474A083A51608AE004
:100BD00045491431884208D143490839496841F0F0
:100BE000F001414A083A51607DE03F49283188428E
:100BF00008D13D490839496841F470613A4A083AD8
:100C0000516070E038493C31884208D13649083992
:100C1000496841F47041344A083A516063E032490E
:100C20005031884208D130490839496841F470216F
:100C30002D4A083A516056E02B496431884208D168
:100C400029490839496841F47001274A083A516036
:100C500049E025497831884208D123490839496853
:100C600041F07061204A083A51603CE01F498842D7
:100C700006D1011F096841F00F01021F116032E027
:100C80001A491431884208D11849091F096841F0EE
:100C9000F001164A121F116025E0144928318842DC
:100CA00008D11249091F096841F470610F4A121FE7
:100CB000116018E00D493C31884208D10B49091FE9
:100CC000096841F47041094A121F11600BE007499D
:100CD0005031884207D10549091F096841F4702144
:100CE000024A121F116070470800024008040240C7
:100CF00001460020002201F0805313B1054B1A6811
:100D000001E0054B1A6802EA01030BB1012000E083
:100D10000020704700040240000002401AB103683E
:100D20000B43036002E003688B430360704710B518
:100D30000022026847F6F0739A430C6A8B682343DB
:100D40000C6923434C6923438C692343CC692343B7
:100D50004C6A23438C6A23431A430260CB68436086
:100D60000B6883604B68C36010BD70472DE9F0418C
:100D7000024600250026002000230024002791F8C9
:100D800003C00CF00F0591F803C00CF0100CBCF17F
:100D9000000F03D091F802C04CEA050591F800C09D
:100DA000BCF1000F31D0146800202BE04FF0010C93
:100DB0000CFA00F3B1F800C00CEA03069E4220D101
:100DC00083004FF00F0C0CFA03F7BC4305FA03FC49
:100DD0004CEA040491F803C0BCF1280F06D14FF08F
:100DE000010C0CFA00FCC2F814C00AE091F803C030
:100DF000BCF1480F05D14FF0010C0CFA00FCC2F811
:100E000010C0401C0828D1D31460B1F800C0BCF158
:100E1000FF0F34DD546800202EE000F1080C4FF085
:100E2000010808FA0CF3B1F800C00CEA03069E4270
:100E300021D183004FF00F0C0CFA03F7BC4305FAE5
:100E400003FC4CEA040491F803C0BCF1280F05D15F
:100E500000F1080C08FA0CF8C2F8148091F803C0ED
:100E6000BCF1480F07D100F1080C4FF0010808FA57
:100E70000CF8C2F81080401C0828CED35460BDE89E
:100E8000F0810000F0B50A4600230024002100256F
:100E900000F00046B6F1004F02D11D4EF16901E0AD
:100EA0001B4E7168C0F3034583B200F44016B6F5DB
:100EB000401F08D121F07061154E766826F07066EB
:100EC000134F7E6012E000F48016B6F5801F06D145
:100ED000032606FA05F4A14341F0706106E0460DD1
:100EE000360103FA06F6B14341F0706122B1460DB6
:100EF000360103FA06F6314300F00046B6F1004F22
:100F000002D1034EF16101E0014E7160F0BD0000BD
:100F1000000001404161704701617047024B0ECBF8
:100F200080E80E0070470000780E002000BFFEE74A
:100F300010B500200F4908600F48006820F070408D
:100F40000D4908600846006840F0405008600020E5
:100F50000A49C1F89C01022001F06EF80120054900
:100F60000860022001F068F800200449C1F89801E7
:100F700010BD000098812142000C014000802142F8
:100F800010B500200F4908600F48006820F070403D
:100F90000D4908600846006840F040500860012094
:100FA0000A49C1F89C01022001F046F801200549D8
:100FB0000860022001F040F800200449C1F89801BF
:100FC00010BD000098812142000C014000802142A8
:100FD00010B50F48006820F070400D4908600846C1
:100FE000006840F04050086001200A4908600A4942
:100FF000C1F89801042001F01FF80020054908609D
:10100000042001F019F800200349C1F8980110BD2F
:10101000000C01409C8121420080214210B50F4804
:10102000006820F070400D4908600846006840F0F4
:101030004050086000200A4908600A49C1F89C0134
:10104000042000F0F9FF0120054908600549C1F8B6
:101050009C01042000F0F0FF10BD0000000C0140D6
:10106000988121420080214200BFFEE72DE9F04F28
:1010700085B004468B4691469A4602A8FFF74EFF7C
:101080003C21A068A0FB01306168591840F10003C1
:101090004FF47A7C0022A1FB0C0E03FB0CE301FB56
:1010A00002332188451843EB02063C210498A0FB3B
:1010B000013103981A1841F1000C4FF47A730021A2
:1010C000A2FB030E0CFB03E302FB0133BDF8081087
:1010D000471843F100083C20ABFB002012EB09014C
:1010E00040F1000C4FF47A730022A1FB030E0CFBBD
:1010F00003E301FB02320346104613EB0A0240F100
:101100000000CDE900207B1B68EB0601DDE9000251
:10111000C01A8A410AD20498A06003986060BDF8A2
:1011200008002080012005B0BDE8F08F0020FAE71C
:101130007047000070B5002100230F22C47804B36B
:10114000154C246804F4E064C4F5E064210AC1F19C
:101150000403CA40447804FA03F18478144021431C
:1011600009010E4C0678A155047804F01F050124EE
:10117000AC4005786D11AD0005F1E025C5F80041E2
:1011800009E0047804F01F050124AC40044D067802
:10119000761145F8264070BD0CED00E000E400E05B
:1011A00080E100E002490143024A116070470000FB
:1011B0000000FA050CED00E001460020034A5068EB
:1011C00020F4404008435060704700000010024087
:1011D00029B1064A52690243044B5A6104E0034AAA
:1011E00052698243014B5A6170470000001002406F
:1011F00029B1064AD2690243044BDA6104E0034A8A
:10120000D2698243014BDA6170470000001002404E
:1012100029B1064A92690243044B9A6104E0034AE9
:1012200092698243014B9A617047000000100240AE
:1012300029B1064AD2680243044BDA6004E0034A4B
:10124000D2688243014BDA60704700000010024010
:1012500030B500210022002400232D4D6D6805F0DB
:101260000C0121B1042905D0082923D105E0294D1D
:10127000056022E0274D05601FE0254D6D6805F4EF
:101280007012234D6D6805F48034022505EB9242FF
:101290001CB9214D554305600BE01D4D6D6805F4EB
:1012A00000351DB11C4D5543056002E0194D5543F5
:1012B000056002E0174D056000BF00BF144D6D686A
:1012C00005F0F0010909154D6B5C0568DD404560CE
:1012D0000F4D6D6805F4E061090A104D6B5C4568BF
:1012E000DD4085600A4D6D6805F46051C90A0B4DFB
:1012F0006B5C4568DD40C560054D6D6805F4404197
:10130000890B074D6B5CC568B5FBF3F5056130BD16
:101310000010024000127A0000093D00B8000020D1
:10132000C800002010B500F001F810BD0CB5002079
:10133000019000903348006840F4803031490860E3
:1013400000BF3048006800F4003000900198401C55
:101350000190009818B90198B0F5A06FF1D1294813
:10136000006800F4003010B10120009001E000207E
:1013700000900098012843D12348006840F01000F5
:10138000214908600846006820F00300086008460C
:10139000006840F0020008601A4840681949486037
:1013A0000846406848600846406840F480604860ED
:1013B0000846406820F47C1048600846406840F4C5
:1013C000E81048600846006840F08070086000BF80
:1013D0000C48006800F000700028F9D00948406807
:1013E00020F00300074948600846406840F00200CA
:1013F000486000BF0348406800F00C000828F9D19D
:101400000CBD000000100240002002402DE9FF4FFB
:1014100085B09A46DDE9124902A8FFF77FFD3C211D
:101420000798A0FB01300699591840F100004FF4CD
:101430007A7C0022A1FB0C3B00FB0CB001FB0200FC
:10144000BDF814105D1840EB02063C210498A0FB87
:10145000013103981A1841F1000361464FF0000C66
:10146000A2FB010B03FB01B102FB0C13BDF808103A
:10147000471843EB0C083C20AAFB00100A1940F166
:10148000000C4FF47A730021A2FB030B0CFB03B397
:1014900002FB0133024612EB090243EB0100CDE9E6
:1014A00000207B1B68EB0600DDE90012C91A8241AF
:1014B00003D2012009B0BDE8F08F0020FAE704282C
:1014C00008D14FF0E021096941F004014FF0E0221A
:1014D000116107E04FF0E021096921F004014FF0AC
:1014E000E0221161704710B504F056FF012801D0C9
:1014F00004F02CFB10BD000010B51348006840F04C
:1015000001001149086008464068104908400E492A
:101510004860084600680E4908400B4908600846C4
:10152000006820F4802008600846406820F4FE002F
:1015300048604FF41F008860FFF7F4FE4FF0006032
:101540000449086010BD0000001002400000FFF8D0
:10155000FFFFF6FE08ED00E0F0B50C461546002250
:101560000021068C4FF6FE773E400684028B018CEC
:101570004FF60C7632407E1C06EA03162E433243A9
:10158000104EB0420ED0104EB0420BD0B0F1804F92
:1015900008D00E4EB04205D00D4EB04202D00D4ED6
:1015A000B04206D14FF6FD76314044F0010631439A
:1015B00005E04FF6F576314044F0010631430283F1
:1015C0000184F0BD002C01400034014000040040C3
:1015D00000080040000C0040F0B50C461546002203
:1015E00000210026078C4FF6EF7C07EA0C070784E2
:1015F000028B018C4FF6FF7707EA041640F6FF478F
:101600003A404FF6FF7707EA03373A434FF6FF7742
:1016100007EA05273A43114FB8420ED0104FB8429F
:101620000BD0B0F1804F08D00E4FB84205D00E4F0E
:10163000B84202D00D4FB84206D14FF6DF7739409D
:1016400046F01007394305E04FF65F77394044F024
:101650001007394302830184F0BD0000002C0140D3
:10166000003401400004004000080040000C00402D
:10167000F0B50C461546002200210026078C4FF6D7
:10168000FF6C07EA0C070784828B018C4FF6FF770B
:1016900007EA04264FF60C773A404FF6FF7707EA41
:1016A00003172F433A43114FB8420ED0104FB842A0
:1016B0000BD0B0F1804F08D00E4FB84205D00E4F7E
:1016C000B84202D00D4FB84206D14FF6FF5739400D
:1016D00046F48077394305E04FF2FF57394044F430
:1016E0008077394382830184F0BD0000002C0140E3
:1016F000003401400004004000080040000C00409D
:10170000F0B50C461546002200210026078C4EF647
:10171000FF7C07EA0C070784828B018C4FF6FF776A
:1017200007EA043640F6FF473A404FF6FF7707EAEC
:1017300005273A434FF6FF7707EA03373A43114F3D
:10174000B8420ED0104FB8420BD0B0F1804F08D045
:101750000E4FB84205D00E4FB84202D00D4FB842DE
:1017600006D14DF6FF77394046F48057394305E0FE
:1017700047F6FF57394044F4805739438283018448
:10178000F0BD0000002C0140003401400004004086
:1017900000080040000C004030B589B005460C46FA
:1017A00001210420FFF734FD01210820FFF720FD6F
:1017B0000220ADF8200018208DF8230003208DF8BA
:1017C000220008A91648FFF7D1FA681E80B2ADF8CA
:1017D0001800601E80B2ADF814000020ADF81A00A9
:1017E000ADF8160005A90F4800F05CFA6020ADF8CE
:1017F00004000120ADF806000020ADF80C00ADF8A3
:101800000A0001A9074800F015F90821054800F071
:1018100063F90121034800F08FF809B030BD0000E2
:1018200000080140000C004010B5082140F2F31000
:10183000FFF7B2FF10BD000010B51021074800F0FF
:1018400087F8012808D11021044800F072F80448F4
:101850000068401C0249086010BD000000340140CF
:101860000000002030B589B005460C46012110204B
:10187000FFF7CEFC01214803FFF7CAFC4FF40070CC
:10188000ADF8200018208DF8230003208DF82200E9
:1018900008A92248FFF76AFA681E80B2ADF818005E
:1018A000601E80B2ADF814000020ADF81A00ADF84B
:1018B000160005A91A4800F0F5F90C20ADF804004F
:1018C0000220ADF806000120ADF808000020ADF8B8
:1018D0000A00ADF80C0001A9114800F04BF81021E6
:1018E0000F4800F026F8012210210D4800F098F86A
:1018F0002E208DF810000D208DF8110000208DF89D
:10190000120001208DF8130004A8FFF713FC012139
:10191000034800F011F809B030BD0000001001408C
:101920000034014010B547214FF6FE70FFF79AFFD3
:1019300010BDCA430282704721B1028842F0010201
:10194000028004E002884FF6FE731A40028070475E
:1019500030B50246002000230024158A05EA010361
:10196000958905EA010413B10CB1012000E00020C3
:1019700030BD000070B505460C46244885420ED0A7
:10198000234885420BD0B5F1804F08D021488542CD
:1019900005D02148854202D02048854200D100E090
:1019A00000BF208850B92389A28861882846FFF7A4
:1019B000D3FDE188284600F049F925E02088042875
:1019C0000AD12389A28861882846FFF705FEE188AD
:1019D000284600F044F917E0208808280AD1238916
:1019E000A28861882846FFF743FEE188284600F078
:1019F00043F909E02389A28861882846FFF780FE21
:101A0000E188284600F041F970BD0000002C01403B
:101A1000003401400004004000080040000C004079
:101A20001AB183890B43838102E083898B438381CD
:101A30007047000070B5002400220023058C4FF68B
:101A4000EF7635400584028C8388048B48F6FF7559
:101A50002C404FF6FF452C400D884FF6FF7606EAE6
:101A600005252C434FF6DF752A400D8906EA05153A
:101A70002A434D8806EA05152A43154DA84202D08F
:101A8000144DA8421DD14FF67F752A404D894FF65F
:101A9000FF7606EA05152A434FF6BF752A408D8862
:101AA00006EA05152A434FF6FF352B404FF2FF7526
:101AB0002B408D8906EA85052B43CD8906EA8505ED
:101AC0002B4383800483CD880587028470BD00008A
:101AD000002C0140003401400A460021018B4FF2E6
:101AE000FF7319404FF6FF7303EA02231943018382
:101AF0007047000070B5002400220023058C4FF6CB
:101B0000FF6635400584028C8388848B4FF68F7581
:101B10002C404FF6FC752C400D882C434FF6FF559A
:101B20002A400D894FF6FF7606EA05252A434D889F
:101B300006EA05252A43154DA84202D0144DA842B5
:101B40001DD14FF2FF752A404D894FF6FF7606EA08
:101B500005252A434FF6FF352A408D8806EA0525DC
:101B60002A434EF6FF752B404DF6FF752B408D89AD
:101B700006EA05152B43CD8906EA05152B4383801C
:101B80008483CD888587028470BD0000002C0140CD
:101B9000003401400A460021818B4FF6F77319404B
:101BA000114381837047000070B500220023002498
:101BB000058C4EF6FF7635400584038C8488828B35
:101BC00048F6FF752A404FF6FF452A400D884FF62C
:101BD000FF7606EA05252A434DF6FF752B400D8951
:101BE00006EA05352B434D8806EA05352B430B4D98
:101BF000A84202D00A4DA84208D14BF6FF752C40EE
:101C00008D894FF6FF7606EA85152C438480828302
:101C1000CD88A0F84050038470BD0000002C014026
:101C2000003401400A460021818B4FF2FF731940B6
:101C30004FF6FF7303EA022319438183704701873C
:101C4000704781877047A0F840107047028B4FF6AD
:101C5000F3731A400283028B0A4302837047028B9C
:101C60004FF2FF331A400283028B4FF6FF7303EAF1
:101C700001231A4302837047828B4FF6F3731A4095
:101C80008283828B0A4382837047828B4FF2FF33B9
:101C90001A408283828B4FF6FF7303EA01231A43B3
:101CA00082837047002202881D4B98420ED01D4B44
:101CB00098420BD0B0F1804F08D01B4B984205D012
:101CC0001A4B984202D01A4B984204D14FF68F73A8
:101CD0001A404B881A43174B984207D0164B98422C
:101CE00004D04FF6FF431A40CB881A4302808B88FA
:101CF00083850B8803850A4B98420BD0094B984289
:101D000008D00E4B984205D00D4B984202D00D4B97
:101D1000984201D10B7A0386012383827047000029
:101D2000002C014000340140000400400008004045
:101D3000000C004000100040001400400040014032
:101D4000004401400048014010B540F225512148AF
:101D500000F058F8C0B1204800785A2839DA1D48F8
:101D600000F00CF9C1B21D480078C0EB001000EB88
:101D700040001B4A02EB4002174803780078401CE1
:101D8000154C2070D15424E040F22441114800F059
:101D900039F8F0B10F4800880E48001D00880E4841
:101DA000007810490D4A127888540C480078401C7D
:101DB000052801D1002002E008480078401C0749AE
:101DC000087009480078401C074908700020024943
:101DD000087010BD003801402E0000202C000020AB
:101DE000B60C0020240000202D00002021B18289A3
:101DF00042F40052828104E082894DF6FF731A405A
:101E00008281704770B5024600240023002500201F
:101E100040F66A16B14200D100BFC1F3421501F08D
:101E20001F03012606FA03F3012D02D196893340E0
:101E300006E0022D02D1168A334001E0968A334033
:101E40000C12012606FA04F41688344013B10CB1C2
:101E5000012000E0002070BDF0B5034600240026FC
:101E60000025002040F66A17B94200D100BF18468D
:101E7000C1F3421401F01F06012707FA06F5012CF1
:101E800001D10C3004E0022C01D1103000E01430FC
:101E90001AB107682F43076002E00768AF43076085
:101EA000F0BD00002DE9F04786B005460E4600243F
:101EB000A24600BFA1460027B08900B100BF2F464F
:101EC0002C8A4CF6FF700440F08804432C82AC89C5
:101ED0004EF6F3100440B0883189084371890843F5
:101EE0000443AC81AC8A4FF6FF400440B089044300
:101EF000AC8201A8FFF7ACF91F48874202D1DDF898
:101F000010A001E0DDF80CA0A88900F4004040B169
:101F10000AEBCA0000EB0A1031684900B0FBF1F887
:101F200007E00AEBCA0000EB0A1031688900B0FB39
:101F3000F1F86420B8FBF0F004012009642101FBF2
:101F40001089A88900F4004040B1322000EBC9009C
:101F5000B0FBF1F000F00700044308E0322000EB92
:101F600009106421B0FBF1F000F00F0004432C8154
:101F700006B0BDE8F08700000038014001468888BF
:101F8000C0F30800704700BFFEE730380A2801D2CE
:101F9000012070470020704700BF704710B5042033
:101FA000FFF78DFA104800681049B0FBF1F01049B6
:101FB00008700D4800680D49B0FBF1F44FF47A70D9
:101FC000444301200B4908804FF0E020006940F0B5
:101FD00002004FF0E021086108464461006940F0CA
:101FE0000100086110BD00000400002040420F0005
:101FF000180000201A00002070B5044604F0CCF947
:10200000012810D00B480088844206D30948008874
:10201000B4FBF0F5284603F097FA06480088B4FBB5
:10202000F0F100FB11444FF47A7104FB01F000F071
:1020300003F870BD1A00002070B5034600224FF06F
:10204000E02675690D4E367803FB06F44FF0E02666
:10205000B16910E04FF0E026B06988420BD08842A9
:1020600002D20E1A324402E02E1A0E4432440146C5
:10207000A24200D300E0EDE700BF70BD18000020D1
:102080000EB56E48007830B1012814D003287BD0FB
:1020900004287AD1B5E06A48006808B100200EBD76
:1020A0006846FEF73BFF67489DE80E000EC0012022
:1020B0006249087000BF6248006808B90020EEE776
:1020C000142000210B46CDE900105E4807C8FFF739
:1020D0009DF918B9002059490870E0E70020062151
:1020E0000346CDE90010574807C8FFF78FF90128CC
:1020F00004D10020514908700620D0E700200521B6
:102100000346CDE900104F4807C8FFF77FF90128C3
:1021100004D10020494908700520C0E700200421AF
:102120000346CDE90010474807C8FFF76FF90128BB
:1021300004D10020414908700420B0E700200321A9
:102140000346CDE900103F4807C8FFF75FF90128B3
:1021500004D10020394908700320A0E700200221A3
:102160000346CDE90010374807C8FFF74FF968B9B3
:102170006846FEF7D3FE33489DE80E000EC00320EC
:102180002E49087000208AE71AE052E00020012161
:102190000346CDE900102B4807C8FFF737F958B9B7
:1021A0006846FEF7BBFE27489DE80E000EC00320E0
:1021B00022490870002072E700202049087000BF03
:1021C0001F48006890B14FF4967000210B46CDE98E
:1021D00000101C4807C8FFF719F9012804D1002096
:1021E0001649087002205AE7002058E76846FEF7B3
:1021F00095FE14489DE80E000EC004200F4908709B
:1022000018E00F48006808B9002048E700200221C4
:102210000346CDE900100B4807C8FFF7F7F820B9CF
:10222000002006490870072039E70020034908709C
:1022300035E700BF00BF002031E70000300000207C
:102240001C812242D40E00200EB56E48007830B1B9
:10225000012814D003287BD004287AD1B5E06A483D
:10226000006808B100200EBD6846FEF757FE6748BB
:102270009DE80E000EC001206249087000BF624850
:10228000006808B90020EEE7142000210B46CDE9D4
:1022900000105E4807C8FFF7B9F818B9002059497F
:1022A0000870E0E7002006210346CDE900105748FA
:1022B00007C8FFF7ABF8012804D100205149087086
:1022C0000620D0E7002005210346CDE900104F4845
:1022D00007C8FFF79BF8012804D10020494908707E
:1022E0000520C0E7002004210346CDE9001047483F
:1022F00007C8FFF78BF8012804D100204149087076
:102300000420B0E7002003210346CDE900103F4838
:1023100007C8FFF77BF8012804D10020394908706D
:102320000320A0E7002002210346CDE90010374832
:1023300007C8FFF76BF868B96846FEF7EFFD33484A
:102340009DE80E000EC003202E49087000208AE789
:102350001AE052E0002001210346CDE900102B488D
:1023600007C8FFF753F858B96846FEF7D7FD274866
:102370009DE80E000EC0032022490870002072E77D
:1023800000202049087000BF1F48006890B14FF43A
:10239000967000210B46CDE900101C4807C8FFF7D6
:1023A00035F8012804D100201649087002205AE7A8
:1023B000002058E76846FEF7B1FD14489DE80E007E
:1023C0000EC004200F49087018E00F48006808B9D3
:1023D000002048E7002002210346CDE900100B4809
:1023E00007C8FFF713F820B9002006490870072036
:1023F00039E700200349087035E700BF00BF00201F
:1024000031E700003100002010812142E00E002061
:1024100000BF054A128802F04002002AF9D0C2B279
:10242000014B1B1D1A807047003801401CB54FF44A
:102430004070FEF7B7FE0B484168A820884703F0BC
:102440002DF80020012103468022CDE9001006A1CD
:10245000084803F0C7FE03F041F803F08BF90020B1
:102460001CBD0000180100207461736B315F746142
:10247000736B00000D3100082DE9F04105460E4652
:102480001C4807681C480068001D02F00BF850B992
:102490001948006890F82C100120884017490968F5
:1024A000814316480160681C38B936B1124801688A
:1024B000091D134802F032FD1AE07C190E4800682D
:1024C0004460BC4207D20C480168091D0D480068F1
:1024D00002F00AFD0CE008480168091D0A4800687E
:1024E00002F002FD09480068844201D207480460F6
:1024F000BDE8F08158000020440000205C0000206E
:10250000301200204C000020480000207400002001
:1025100010B5044602F00EFD24480068401C234913
:1025200008602348006840B92148046008460068F4
:1025300001280DD100F0EEF90AE01E48006838B914
:102540001B480068C06AE16A884201D818480460E4
:1025500019480068401C1849086008460068606413
:1025600094F82C1001208840144909680843134945
:102570000860E16A01EB8101114A02EB8100211D33
:1025800002F0CCFC02F01AFD0A48006868B1084865
:102590000068C06AE16A884207D24FF0805009495A
:1025A0000860BFF34F8FBFF36F8F10BD5400002042
:1025B0004400002060000020700000205C0000202B
:1025C000600F002004ED00E010B502F0B3FC1048ED
:1025D0000068D0B90F4802F077FC0F4802F074FC95
:1025E0000C480E4908600C480D4908600022102173
:1025F000052003F0C7FA064908600846006820B1C4
:1026000008A10348006802F0C9FE02F0D7FC10BD23
:102610008800002044120020581200208000002072
:1026200084000020546D72510000000070B523E05A
:1026300003F0F6F81348006808B9012000E0002014
:10264000054604F035F8BDB902F074FC0D48C068C9
:10265000C468201D01F026FF0B480068401E0A498F
:1026600008600A480068401E0849086002F0A6FC9D
:10267000204600F060F800BF044800680028D7D169
:1026800070BD00001C1200205400002050000020EB
:1026900070B504460D46206C70B1216CE0680844AA
:1026A000E0606168E068884201D32068E060284605
:1026B000226CE168FDF7B0FF70BD2DE9F0410446E2
:1026C0000F4615464FF00008A66B206C40B92068F5
:1026D00060BB606803F026FF80460020606025E054
:1026E0007DB93946226CA068FDF796FF216CA06881
:1026F0000844A060D4E90110884217D32068A06084
:1027000014E03946226CE068FDF786FF216CE06832
:10271000401AE0602168E068884203D2216C60685A
:10272000401AE060022D01D106B1761E701CA06334
:102730004046BDE8F08110B50446206B02F076FCFF
:10274000204602F073FC10BD0146084A1268126868
:102750000AB9012200E000220A600A6822B9034A8D
:102760001268D268106800E00020704780000020E6
:1027700030B54FF4A043174800F007042CB1C01D3A
:1027800020F00700134C041B1B1B0246124C226056
:102790000024114D6C60D018083820F007000F4C51
:1027A000206000240D4D2D686C600C4D2D682C6050
:1027B0001146441A4C60094C24680C60084D4C6862
:1027C0002C60084D4C682C604FF00044064D2C6086
:1027D00030BD00006C120020940000209C000020FE
:1027E000A4000020A0000020A800002000BFFFF7E8
:1027F0001DFF064800680128F9D94FF080500449B0
:102800000860BFF34F8FBFF36F8FF0E7600F0020BA
:1028100004ED00E02DE9F04106460D4617469846C6
:10282000069C0DB9246000E02760E6632564012161
:10283000204603F0C5FA84F850800020A064BDE86B
:10284000F08100002DE9F05F82460F4690469B46DE
:102850000A9E0C9C4FEA8801A522206BFDF721FF00
:10286000A8F10100216B01EB800929F0070909F0AB
:10287000070008B9012000E0002028B940F22B32FF
:102880001BA120A0FDF740FD002507E0795D04F1C4
:1028900034004155785D00B902E06D1C102DF5D370
:1028A00000BF002143200155202E00D31F26E662E1
:1028B000E66400202065201D02F013FB04F11800DF
:1028C00002F00FFB2461C6F12000A06164620020C9
:1028D000606584F858005A465146484600F000FCAE
:1028E00020600B9808B10B980460BDE8F09F0000D1
:1028F0002E2E5C4672656552544F535C7461736B47
:10290000732E63004572726F723A25732C25640D25
:102910000A00000010B5002407E004EB84010F4A10
:1029200002EB810002F0D0FA641C202CF5D30C4895
:1029300002F0CAFA0B4802F0C7FA0B4802F0C4FAD8
:102940000A4802F0C1FA0A4802F0BEFA04480949EE
:10295000086004480849086010BD0000600F0020AE
:10296000E0110020F4110020081200201C120020A9
:1029700030120020480000204C00002010B5014615
:10298000164800E0006803688B42FBD302464368A8
:1029900013448B4204D143684C682344436001468E
:1029A0000A464B6813440468A34211D10C4C0368D7
:1029B0002468A34208D04B680468646823444B60D1
:1029C00003681B680B6005E0054B1B680B6001E0AA
:1029D00003680B60884200D0016010BD94000020A5
:1029E0009C0000202DE9F04104460D4616461F4686
:1029F0004FF0000865602461B5420CD8F01BA16956
:102A0000884202D34FF0010811E0211D09480068F7
:102A100002F06AFA0BE0BE4204D2BD4202D34FF08C
:102A2000010804E0211D0448006802F05DFA4046F8
:102A3000BDE8F081840000208000002070B50546CC
:102A400002F078FAA86B08B9012400E0002402F033
:102A5000B5FA204670BD70B5054602F06BFAA86B5A
:102A6000E96B884201D1012400E0002402F0A6FABB
:102A7000204670BD2DE9F3410D460098846C002777
:102A80002CB940F6CE121AA11EA0FDF73DFCA06B9A
:102A9000E16B884201D2012000E0002028B940F615
:102AA000CF1213A117A0FDF72FFCA06BE16B88429A
:102AB0001BD294F945602A4669462046FFF7FDFD82
:102AC0000746701C60B9606A08B9012000E0002068
:102AD00050B904F1240003F091FD28B1012703E06F
:102AE000701C40B284F8450000BF3846BDE8FC8148
:102AF0002E2E5C4672656552544F535C7175657538
:102B0000652E63004572726F723A25732C25640D31
:102B10000A000000F8B505460F4613480068C06873
:102B2000C468201D01F0BEFCE069012818D1A0692D
:102B300041192B463A462046FFF754FF80B100204A
:102B400003462A4601460090204603F07BFE0646D7
:102B50002EB94FF4027205A10AA0FDF7D5FB00BF04
:102B60002046616A8847F8BD800000202E2E5C4612
:102B700072656552544F535C74696D6572732E6350
:102B8000000000004572726F723A25732C25640DA7
:102B90000A000000F0B587B070E0039800280CDA56
:102BA00004AE2EB940F2E7223AA140A0FDF7ACFBFB
:102BB000D6E90020B168904700BF039800285DDB8C
:102BC000059C606908B9012000E0002010B9201DB3
:102BD00001F068FC02A800F0C7F8054603980A282F
:102BE0004AD2DFE800F00905072C2E4506082D2FF4
:102BF00000BF00BF00BF00BF0498A2698118034650
:102C00002A462046FFF7EEFEC0B12046616A88479B
:102C1000E069012812D1002000900498A1694218AF
:102C200000231946204603F00DFE07462FB940F257
:102C3000213218A11DA0FDF767FB00BF1DE000BFFA
:102C40001BE000BF0498A061A06908B1012000E06A
:102C5000002028B94FF44E720EA114A0FDF754FBCA
:102C6000A06941192B462A462046FFF7BBFE04E027
:102C7000204602F0DBF900E000BF00BF00231A4647
:102C800003A90E48006802F0B7FF002885D107B0FD
:102C9000F0BD00002E2E5C4672656552544F535CA9
:102CA00074696D6572732E63000000004572726F67
:102CB000723A25732C25640D0A000000880000205C
:102CC000F8B505460C4602F0ABFD684600F04CF83E
:102CD0000646009820BB44B9B54206D803F0E8FC8C
:102CE00031462846FFF716FF1CE03CB10E4800684D
:102CF000006808B9012000E000200446A91B224614
:102D00000A48006802F060FB03F0D2FC50B94FF0B3
:102D1000805007490860BFF34F8FBFF36F8F01E00A
:102D200003F0C6FCF8BD00008400002088000020ED
:102D300004ED00E00A490968096809B9012100E0C9
:102D4000002121B14FF0FF31064A116006E004492D
:102D50000968C968C868034A416811607047000083
:102D6000480000207400002070B5044603F024FBE6
:102D7000054607480068854204D200F00BF80120A0
:102D8000206001E00020206001480560284670BDF9
:102D9000900000202DE9F8432DE021480068C0682C
:102DA00005681F480068C068C468201D01F07AFBF0
:102DB0002046616A8847E06901281CD1A06946194C
:102DC000AE4207D966602461211D1548006802F0F3
:102DD0008BF810E0002003462A460146009020466A
:102DE00003F030FD07462FB940F292320DA113A037
:102DF000FDF78AFA00BF0A480068006808B9012098
:102E000000E000200028C8D00548D0F800800F4816
:102E10000068034908600D48C0F80080BDE8F883E9
:102E2000800000202E2E5C4672656552544F535C24
:102E300074696D6572732E63000000004572726FD5
:102E4000723A25732C25640D0A00000084000020CE
:102E50000B480068401C08B9012000E0002020B9A0
:102E6000F42208A112A0FDF74FFA00BF502080F312
:102E70001188BFF34F8FBFF36F8F00BF00BFFEE716
:102E8000AC0000202E2E5C4672656552544F535C98
:102E9000706F727461626C655C525644535C41524F
:102EA0004D5F434D335C706F72742E630000000001
:102EB0004572726F723A25732C25640D0A0000006A
:102EC00008B500BF6846FFF73FFC0446204600995E
:102ED000FFF7F6FEFFF75EFEF4E770B5044602F07A
:102EE00029F894F945501AE0A06C38B10021204629
:102EF000FFF7C0FD88B102F061FB0EE0606A08B91F
:102F0000012000E0002038B904F1240003F076FB32
:102F100018B102F053FB00E003E0681E45B2002D3B
:102F2000E2DC00BFFF2084F8450002F047F802F021
:102F300001F894F9445010E0206908B9012000E03C
:102F4000002048B904F1100003F058FB08B102F06A
:102F500035FB681E45B200E001E0002DECDC00BF4F
:102F6000FF2084F8440002F029F870BD2DE9F041FB
:102F700004464FF0000802F053FC3E48006808B9D0
:102F8000FFF7F6FB3C480068204000285FD1A4B161
:102F9000083404F0070080B104F00700C0F1080015
:102FA000044404F0070008B9012000E0002020B923
:102FB000BF2232A13BA0FDF7A7F9002C47D03D4826
:102FC0000068844243D83C4E3046056801E02E46F6
:102FD0002D686868A04202D228680028F7D12548E9
:102FE0000068854233D0306800F1080828683060F6
:102FF0006868001B102813D92F1907F0070008B9BB
:10300000012000E0002020B9EC221CA125A0FDF742
:103010007BF96868001B78606C603846FFF7AEFC8F
:10302000244968680968081A224908600846006847
:1030300022490968884203D21E4800681F49086077
:103040000D4968680968084368600020286003F03B
:103050002FFB08F0070008B9012000E0002028B984
:103060004FF4967205A10FA0FDF74EF94046BDE85A
:10307000F08100009C000020A80000202E2E5C465D
:1030800072656552544F535C706F727461626C6507
:103090005C4D656D4D616E675C686561705F342E77
:1030A000630000004572726F723A25732C25640D1F
:1030B0000A000000A000002094000020A4000020CE
:1030C0000648006830B10549096801F15000096DF2
:1030D000491C01600148006870470000440000205E
:1030E000001F4FF080730360001F21F00103036095
:1030F000001F034B03601438026020387047000043
:10310000512E000801460868704700001FB50121D4
:103110002420FEF77DF801214820FEF779F84FF4CE
:103120008070ADF8000010208DF8030003208DF8AA
:10313000020069462D48FDF719FE4FF40050ADF826
:10314000000069462A48FDF711FE0320ADF8000093
:1031500069462848FDF70AFE01212648FDF7DAFEF8
:1031600002212448FDF7D6FE9020ADF80000694604
:103170002148FDF7FBFD38E000230522194601A890
:10318000FDF774FF012804D11C4801681CA0FDF75D
:10319000BBF801211748FDF7BFFE02211548FDF7D6
:1031A000BBFE012002F0D0F901211248FDF7B2FE6A
:1031B00002211048FDF7AEFE012002F0C5F91021F2
:1031C0000D48FDF7A7FE80210B48FDF7A3FE032065
:1031D00002F0BAF910210848FDF79EFE802106484A
:1031E000FDF79AFE012002F0AFF9C5E700080140A3
:1031F00000140140000C01400018014000000020B4
:10320000636F756E74202564200D0A0070B5044646
:103210000025FDF7DDFED42001F04AFD00F04CF85A
:10322000204601F045FD00F047F8FDF7D1FED5201E
:1032300001F03EFD00F040F8002000F005F80546E2
:10324000FDF7ECFE284670BD70B505460024174812
:10325000006820F07040154908600846006840F09A
:1032600000400860002616E0002011490860022096
:10327000FEF7E2FE01200F49C1F898016006040E36
:103280000B487C38006808B1601CC4B20120FEF70E
:10329000D3FE701CC6B2082EE6DB15B9FDF770FE32
:1032A00001E0FDF745FE204670BD0000000C014026
:1032B000988121420080214210B500241448006802
:1032C00020F07040124908600846006840F0004055
:1032D000086001200F490860FEF7AEFE01200E498C
:1032E000C1F89801FEF7A8FE07E0601CC4B2FA2CF2
:1032F00003DDFDF793FE012010BD0648803800680D
:103300000028F2D10349091F086000BFF4E700005C
:10331000000C01409C8121420080214270B506468C
:103320000D4601F007FE18480068406D88B901207D
:103330001549096881F858005DB101212846FFF759
:103340009BF84FF0805011490860BFF34F8FBFF3D7
:103350006F8F01F033FE01F0EDFD0B480068446D06
:103360004CB126B1002008490968486503E0601E99
:1033700005490968486500200349096881F8580033
:1033800001F01CFE204670BD4400002004ED00E06A
:1033900030B595B0054613AB12AA09A9284600F02E
:1033A00039FA044614B1204615B030BD00201490FF
:1033B00026E0224909689DF8502001EBC20113ABB9
:1033C00011AA486801A900F025FA04460CB120466C
:1033D000EAE709A901A800F0CBFC60B99DF8440018
:1033E0009DF84810884201DD0220DDE79DF850007D
:1033F000124988750AE09DF85000401CC0B2149034
:103400000E48007D9DF850108842D2DC00BF0B486A
:10341000007D9DF85010884201D10420C4E714A912
:10342000284600F0D7FA04460CB12046BCE79DF8C8
:103430005000024948750020B6E70000180100203E
:103440002DE9F0419AB09C48847D007DA04202DCC9
:103450001AB0BDE8F0819849096801EBC40106ABD8
:1034600007AA486808A900F0D5F908A993A0FCF7B5
:103470004BFF002644E09048008B0121B1400840FA
:10348000D8B122218FA0FCF73FFF304600F028FB87
:1034900089492431471839468BA0FCF735FF222192
:1034A00088A0FCF731FF304600F01AFB8249243136
:1034B000084410A941F8260018E0304600F010FB3F
:1034C0007D492431085810A941F826007A48C07D6A
:1034D00030B910A850F826107CA0FCF715FF05E0C5
:1034E00010A850F826107AA0FCF70EFF9DF81C00DB
:1034F000401EB04202D078A0FCF706FF701CC6B296
:103500009DF81C008642B6DB74A0FCF7FDFE00F0BF
:103510002FFB6948407D0B280DD2DFE800F0060D37
:10352000151E27323F4E5F7287006349096851F8C4
:1035300034008047054690E05F4A126852F8341024
:1035400010988847054688E05B4B1B6853F8342089
:10355000DDE91001904705467FE0574F3F6857F877
:10356000343010A807C89847054676E0DFF848C110
:10357000DCF800C05CF8347010A80FC8B8470546E6
:103580006BE01498DFF830C10090DCF800C05CF804
:10359000347010A80FC8B84705465EE0DDE9140195
:1035A000DFF814C1CDE90001DCF800C05CF834702C
:1035B00010A80FC8B84705464FE0DDE91412169869
:1035C000DFF8F4C0CDE900120290DCF800C05CF82E
:1035D000347010A80FC8B84705463EE0DDE9142353
:1035E000DDE91610DFF8D0C0CDE90023CDE90210E7
:1035F000DCF800C05CF8347010A80FC8B847054666
:103600002BE0DDE91523DDE91710CDE90123CDE934
:1036100003101498DFF8A0C00090DCF800C05CF83C
:10362000347010A80FC8B847054616E0DDE9162328
:10363000DDE91810CDE90223CDE90410DDE914011C
:10364000DFF874C0CDE90001DCF800C05CF834702C
:1036500010A80FC8B847054600BF00BF00F050FAD9
:103660009DF8180001280CD11348C07D20B92946C7
:103670001BA0FCF749FE07E029461BA0FCF744FE0F
:1036800002E018A0FCF740FE0B4890F8EC0088B16F
:103690000948D0F8F0000A21B0FBF1F201FB120753
:1036A0000548D0F8F000B0FBF1F83A46414611A0C9
:1036B000FCF72AFE00BFCBE6180100200D0A257397
:1036C000280000002563000025730000256C7500AC
:1036D00030582558000000002C0000002900000090
:1036E0003D256C753B0D0A003D305825583B0D0AB1
:1036F0000000000046756E6374696F6E2052756E2F
:103700002054696D653A25642E2531646D730D0A68
:1037100000000000F0B503461546002000220026F8
:10372000002455E01F782C2F01D104B901221F7805
:10373000292F01D01F780FB904B94AE0002E34D1E7
:103740001F78302F02DB1F78392F11DD1F78612F92
:1037500002DB1F78662F0BDD1F78412F02DB1F78FD
:10376000462F05DD1F78582F02D01F78782F0CD1F7
:1037700002B12EE01F78612F03DB1F78203F0F700E
:1037800001E01F780F70491C1FE01F78222F04D121
:1037900002B11EE00126012417E01F78202F14D06B
:1037A0001F782C2F11D0FF2613E01F78222F00D175
:1037B000002402B10DE044B11F785C2F02D15B1CE4
:1037C000471CF8B21F780F70491C471CF8B25B1CED
:1037D000A8E700BF00270F702E70F0BD10B504469B
:1037E000002010700BE020780870641C491C1078D1
:1037F000401C10701078984201DB012010BD207829
:10380000202802D020780028EDD10020087000BFC9
:10381000F4E700002DE9FF4F85B080468946002778
:10382000002004900390012002904FF0000B00252F
:1038300044461DE02078202816D005F07F0005289A
:1038400012DA0DB945F0800505F07F00042803D198
:1038500020782A2800D00EE0207805F07F010DF8AE
:103860000100681CC5B202E0852D00D103E0641C94
:1038700020780028DED100BF8DB1002005F07F0147
:103880000DF8010051A1684600F072FA18B9002144
:103890000898017002E001210898017000254FF09E
:1038A000000A444614E0641C0AF1010000F0FF0A1B
:1038B0002078202802D020782A2809D1204600F03C
:1038C000E7F90646282E03D02A2E01D0CDF810A005
:1038D0002078282802D020780028E4D14446049893
:1038E00010B10498401C04444FF0000A002654E034
:1038F000207810B94FF0010A50E02078282803D131
:1039000016B9781CC7B213E02078292808D13EB92F
:1039100017B1781EC7B201E04FF0010A47B93DE088
:103920002078222804D10EB9012000E000200646AC
:1039300047B9207820282FD0207889F8000009F195
:10394000010929E020782C2804D101200290681C6C
:10395000C5B214E02078202811D0207828280ED075
:103960004DB9BBF1050F06DA20780DF80B000BF10D
:10397000010000F0FF0B0298401CC0B20290012F22
:103980000AD10298022807D10298401CC0B20290C6
:103990000398401CC0B20390641CA9E700BF0398C1
:1039A000012809D100200DF80B0008A1684600F09D
:1039B000DFF908B9002003900799039808700020E8
:1039C00089F80000504609B0BDE8F08F766F696451
:1039D000000000002DE9F043B5B005460F46002475
:1039E000002604E000213D488155701CC6B20A2E15
:1039F000F8DB06E06D1C287818B9012035B0BDE869
:103A0000F08328782828F5D16D1C61E034AA694636
:103A10002846FFF77FFE064635449DF8D00020B1CA
:103A2000012827D0FF284CD149E09DF8000000B3C1
:103A300033A9684600F037F906460EB10220DDE7EB
:103A4000204600F04DF825490A31339A0A50A1F179
:103A50002400008B0121A140884320491A390883A2
:103A600004211E480155601CC4B20A2C01DD03204C
:103A7000C4E726E0684600F097F9401C00F0FF0814
:103A8000204600F02DF815490A3100EB010949469E
:103A9000684600F07EF911481A38018B0120A040D9
:103AA000014388B20D491A3908830C4800F8048094
:103AB000601CC4B20A2C01DD03209FE701E0022054
:103AC0009CE700BF2878292801D0287800B900E0B9
:103AD0009CE700BF3C70002090E70000320100200E
:103AE00002460020002105E0044B5B5C0344D8B291
:103AF0004B1CD9B29142F7DB704700003201002025
:103B00000548D0F8F000401C0349C1F8F000084611
:103B1000D0F8F00070470000180100201CB50446E2
:103B2000002002210346C822CDE9001003A1084865
:103B300002F058FB01200749C8751CBD7655736D0E
:103B400061727454696D65725461736B000000009A
:103B5000B15900081801002010B50246012000E00C
:103B600050430B00A1F10104E1B2F9D110BD0000F6
:103B700000200249C1F8F000704700001801002041
:103B800070B53048007800285BD02F482F4909785D
:103B9000445C00202D490978C1EB011101EB410182
:103BA0002B4A02EB41010855284A1278C2EB021257
:103BB00002EB4202264B03EB4200264A91688847FB
:103BC00005461DB92349C868804729E01F4909787F
:103BD000C1EB011101EB41011D4A02EB410000F074
:103BE000EFF80446012C00D02546CDB1012D06D0BA
:103BF000022D08D0032D0AD0042D10D10BE016A001
:103C0000FCF782FB0BE017A0FCF77EFB07E018A097
:103C1000FCF77AFB03E019A0FCF776FB00BF00BFBE
:103C20000A480078401C052801D1002002E007481E
:103C30000078401C0549087002480078401E014980
:103C4000087070BD2D000020240000202A000020F4
:103C5000B60C002018010020BAAFCAFDB4EDCEF3B7
:103C6000210D0A00B2CECAFDB4EDCEF3210D0A003B
:103C7000B2CECAFDCCABB6E0210D0A00CEB4D5D28F
:103C8000B5BDC6A5C5E4B5C4BAAFCAFD210D0A00CD
:103C90000146491C00E0491C0878202801D1002970
:103CA000F9D1087870472DE9F04307460E46002504
:103CB0004FF00A083C46002030601FE02078392889
:103CC00002DC207830280ADA2078462802DC2078C6
:103CD000412804DA2078582809D1012D07D120780D
:103CE000412801DB4FF01008681CC5B205E02078C0
:103CF00000B904E00120BDE8F083641CDEE700BFEA
:103D00003C46B8F1100F0FD1032D01DA0220F2E783
:103D10002078302806D16078582803D1A41CA81E2A
:103D2000C5B204E00320E6E70DB90420E3E71BE099
:103D30000DB1681EC5B22078392806DC20783028FD
:103D400003DB2078A0F1300902E02078A0F13709E8
:103D500029464046FFF700FF316809FB001030603C
:103D6000641C207800B900E0E2E700BF0020C2E751
:103D700002460AE010780B78984201D00120704783
:103D8000107800B902E0521C491CF3E700BF002084
:103D9000F5E706E002780A70027802B902E0401CFA
:103DA000491CF7E700BF70470146002005E00A788C
:103DB00002B903E0421CD0B2491CF8E700BF7047CB
:103DC00010B58CB004461E230BAA03A92046FFF7AA
:103DD00005FD0090009810B101200CB010BD9DF8B9
:103DE0002C00044400200B900EE040489DF82C204D
:103DF00050F8221003A8FFF7BBFF00B908E09DF8B8
:103E00002C00401CC0B20B909DF82C000728ECD36E
:103E100000BF9DF82C00072863D2DFE800F00405FE
:103E20003C5E6564630000BF31A0FCF76DFA31A011
:103E3000FCF76AFA3FA0FCF767FA4EA0FCF764FAB9
:103E40005CA0FCF761FA6BA0FCF75EFA79A0FCF7C6
:103E50005BFA86A0FCF758FA8BA0FCF755FA90A005
:103E6000FCF752FA94A0FCF74FFA99A0FCF74CFA31
:103E70009EA0FCF749FAA4A0FCF746FAB0A0FCF714
:103E800043FABDA0FCF740FAC8A0FCF73DFAD4A065
:103E9000FCF73AFA9AE216A0FCF736FAE0A0FCF733
:103EA00033FA00200B900EE0ED4800689DF82C20BE
:103EB00000EBC2004168EBA0FCF726FA9DF82C004D
:103EC000401CC0B20B90E648007D9DF82C10884243
:103ED000EADC07A0FCF718FA78E205A0FCF714FA70
:103EE000C4E171E245E219E2ECE10000CC000020FF
:103EF0000D0A00002D2D2D2D2D2D2D2D2D2D2D2D8F
:103F00002D2D2D2D2D2D2D2D2D2D2D2D55534D415F
:103F100052542056332E312D2D2D2D2D2D2D2D2D5E
:103F20002D2D2D2D2D2D2D2D2D2D2D2D2D2D2D20CE
:103F30000D0A00002020202055534D415254CAC77D
:103F4000D3C9414C49454E54454BBFAAB7A2B5C44D
:103F5000D2BBB8F6C1E9C7C9B5C4B4AEBFDAB5F7CC
:103F6000CAD4BBA5BDBBD7E9BCFE2CCDA8B9FD20EA
:103F70000D0A0000CBFC2CC4E3BFC9D2D4CDA8B934
:103F8000FDB4AEBFDAD6FACAD6B5F7D3C3B3CCD038
:103F9000F2C0EFC3E6B5C4C8CEBACEBAAFCAFD2CE4
:103FA000B2A2D6B4D0D02ED2F2B4CB2CC4E3BFC9C7
:103FB0000D0A0000D2D4CBE6D2E2B8FCB8C4BAAF46
:103FC000CAFDB5C4CAE4C8EBB2CECAFD28D6A7B3B1
:103FD000D6CAFDD7D62831302F3136BDF8D6C629FE
:103FE000A1A2D7D6B7FBB4AEA1A2BAAFCAFDC8EBA7
:103FF0000D0A0000BFDAB5D8D6B7B5C8D7F7CEAA34
:10400000B2CECAFD292CB5A5B8F6BAAFCAFDD7EE17
:10401000B6E0D6A7B3D63130B8F6CAE4C8EBB2CE14
:10402000CAFD2CB2A2D6A7B3D6BAAFCAFDB7B52087
:104030000D0A0000BBD8D6B5CFD4CABE2ED0C2D48C
:10404000F6B2CECAFDCFD4CABEBDF8D6C6C9E8D630
:10405000C3B9A6C4DC2CD0C2D4F6BDF8D6C6D7AA44
:10406000BBBBB9A6C4DC2E0D0A000000BCBCCAF55F
:10407000D6A7B3D63A7777772E6F70656E6564767C
:104080002E636F6D0D0A000055534D415254D3D02D
:1040900037B8F6CFB5CDB3C3FCC1EE3A0D0A000078
:1040A0003F3A202020202020BBF1C8A1B0EFD6FA53
:1040B000D0C5CFA20D0A000068656C703A202020A0
:1040C000BBF1C8A1B0EFD6FAD0C5CFA20D0A00004F
:1040D0006C6973743A202020BFC9D3C3B5C4BAAF8A
:1040E000CAFDC1D0B1ED0D0A0A00000069643A2092
:1040F00020202020BFC9D3C3BAAFCAFDB5C44944EC
:10410000C1D0B1ED0D0A0A006865783A2020202060
:10411000B2CECAFD3136BDF8D6C6CFD4CABE2CBA8F
:10412000F3B8FABFD5B8F12BCAFDD7D6BCB4D6B414
:10413000D0D0BDF8D6C6D7AABBBB0D0A0A00000076
:104140006465633A20202020B2CECAFD3130BDF82C
:10415000D6C6CFD4CABE2CBAF3B8FABFD5B8F12BA5
:10416000CAFDD7D6BCB4D6B4D0D0BDF8D6C6D7AA6F
:10417000BBBB0D0A0A00000072756E74696D653A6A
:10418000312CBFAAC6F4BAAFCAFDD4CBD0D0BCC6BE
:10419000CAB13B302CB9D8B1D5BAAFCAFDD4CBD057
:1041A000D0BCC6CAB13B0D0A0A000000C7EBB0B4D0
:1041B000D5D5B3CCD0F2B1E0D0B4B8F1CABDCAE421
:1041C000C8EBBAAFCAFDC3FBBCB0B2CECAFDB2A247
:1041D000D2D4BBD8B3B5BCFCBDE1CAF82E0D0A00E1
:1041E0002D2D2D2D2D2D2D2D2D2D2D2D2D2D2D2DFF
:1041F0002D2D2D2D2D2D2D2D2D2D414C49454E5440
:10420000454B2D2D2D2D2D2D2D2D2D2D2D2D2D2DA8
:104210002D2D2D2D2D2D2D2D2D2D2D200D0A000078
:104220002D2D2D2D2D2D2D2D2D2D2D2D2D2D2D2DBE
:104230002D2D2D2D2D2D2D2D2DBAAFCAFDC7E5B558
:10424000A52D2D2D2D2D2D2D2D2D2D2D2D2D2D2D26
:104250002D2D2D2D2D2D2D2D2D2D2D2D200D0A000B
:104260001801002025730D0A0000000059A0FCF77A
:104270004BF800200B901AE0664909689DF82C2045
:1042800001EBC20101AB02AA486803A9FFF7C2FA19
:10429000604800689DF82C1050F8312003A95EA0FA
:1042A000FCF732F89DF82C00401CC0B20B90594826
:1042B000007D9DF82C108842DEDCAFF2CC30FCF79C
:1042C00023F883E0AFF2D830FCF71EF80BAA03A95D
:1042D0002046FFF71FFA9DF82C00C8B9694603A8CD
:1042E000FFF7E1FC0B909DF82C0020B94FA000993E
:1042F000FCF70AF80EE09DF82C00042801D00220FB
:104300006BE54DA0FCF700F801204249C87501E0BB
:10431000022062E547A0FBF7F7FF57E045A0FBF757
:10432000F3FF0BAA03A92046FFF7F4F99DF82C0030
:10433000C8B9694603A8FFF7B6FC0B909DF82C009E
:1043400020B942A00099FBF7DFFF0EE09DF82C009A
:10435000042801D0022040E53FA0FBF7D5FF002054
:104360002C49C87501E0022037E532A0FBF7CCFFED
:104370002CE030A0FBF7C8FF0BAA03A92046FFF7EB
:10438000C9F99DF82C00C8B9694603A8FFF78BFC52
:104390000B909DF82C0078B91E49009881F8EC002C
:1043A000084690F8EC0018B130A0FBF7ADFF07E02D
:1043B00035A0FBF7A9FF03E002200EE502200CE583
:1043C0001CA0FBF7A1FF01E0012006E500BF0020D3
:1043D00003E500002D2D2D2D2D2D2D2D2D2D2D2DD9
:1043E0002D2D2D2D2D2D2D2D2D2D2D2D2DBAAFCA51
:1043F000FD204944202D2D2D2D2D2D2D2D2D2D2D04
:104400002D2D2D2D2D2D2D2D2D2D2D2D2D2D2D2DDC
:10441000200D0A00180100202573206964206973AB
:104420003A0D0A3058253038580D0A004845583A98
:10443000305825580D0A00003136BDF8D6C6B2CE28
:10444000CAFDCFD4CABE210D0A0000004445433A3C
:10445000256C750D0A0000003130BDF8D6C6B2CE0D
:10446000CAFDCFD4CABE210D0A00000052756E20CD
:1044700054696D652043616C63756C6174696F6E1E
:10448000204F4E0D0A00000052756E2054696D6574
:104490002043616C63756C6174696F6E204F464692
:1044A0000D0A000001460A69D1E901309860D1E99E
:1044B000010358605068884201D18868506000202C
:1044C00008611068401E10601068704701210B4899
:1044D000FCF71DFB11E04FF0FF310020FEF71EFF3F
:1044E00058B10749074800F0FBFA01210348FCF7DF
:1044F0002DFA01210148FCF70AFBECE700240140FA
:1045000038000020F80E002000B593B001211020E3
:10451000FCF77EFE01210420FCF77AFE012148020F
:10452000FCF776FE01210846FCF752FE3F20ADF86D
:10453000480000208DF84B0003208DF84A0012A996
:104540006348FCF713FCFD20ADF8480012A9614850
:10455000FCF70CFC4FF40040FCF72EFE5E48FCF725
:104560000BFA00200D9001208DF838008DF83900ED
:104570004FF460200F90002010900D208DF8440023
:104580000DA95548FCF73AFA0723012200215248A9
:10459000FCF75CFA0723022211464F48FCF756FA53
:1045A0000723032211464C48FCF750FA0723042244
:1045B00011464948FCF74AFA0723052211464648A6
:1045C000FCF744FA0723062211464348FCF73EFA5B
:1045D00007231A4619464048FCF738FA07230822F1
:1045E0000A213D48FCF732FA072309220B213A48F9
:1045F000FCF72CFA07230A220C213748FCF726FA8D
:1046000007230B220D213448FCF720FA07230C2244
:104610000E213148FCF71AFA07230D220F212E48EC
:10462000FCF714FA01212C48FCF79BF901212A48D8
:10463000FCF78CF92848FCF765FA00BF2648FCF720
:10464000D3F90028FAD12448FCF76CFA00BF2248BD
:10465000FCF7C0F90028FAD12048FCF7A3FA1E485D
:104660004C3002901E4803900020049027200590B3
:10467000002006908020079040000890800009905C
:1046800020200A9000020B9000200C9002A91348F1
:10469000FCF74DFB01211148FCF778FA0220FCF7EA
:1046A00067FA012202210D48FCF738FB0B208DF838
:1046B00004000D208DF8050000208DF80600012073
:1046C0008DF8070001A8FCF735FD13B000BD000010
:1046D0000010014000080140002401400800024091
:1046E000840E002010B500F029F900F0DFF901F088
:1046F000A1F901F067F901F081F900F0B9FE00F0CD
:10470000ABF901200149086010BD0000BC812242C4
:1047100010B52CA0FBF7F8FD2B4801882BA0FBF768
:10472000F3FD294881882EA0FBF7EEFD2648C189BC
:104730002FA0FBF7E9FD2448018A31A0FBF7E4FD37
:104740002148418A32A0FBF7DFFD1F48818A34A04F
:10475000FBF7DAFD1C48C18836A0FBF7D5FD1A48E7
:10476000818938A0FBF7D0FD1748C18A39A0FBF733
:10477000CBFD1548018B3BA0FBF7C6FD3E480188E9
:104780003EA0FBF7C1FD1048418842A0FBF7BCFDED
:104790000D48018946A0FBF7B7FD0B4841894BA0A6
:1047A000FBF7B2FD344841884FA0FBF7ADFD32481E
:1047B000818854A0FBF7A8FD2F48C18858A0FBF7BB
:1047C000A3FD10BD0D0A0000840E002034D1A131DC
:1047D0006164633030202564200D0A0D0A0000005A
:1047E000B1DFCBA26164633033202564200D0A0061
:1047F000B7E7BBFA6164633130202564200D0A00FD
:10480000D7F3C2D66164633131202564200D0A00DC
:10481000D3D2C2D66164633132202564200D0A00F0
:10482000B9F6CBA26164633133202564200D0A0DF3
:104830000A000000B5F4C2E46164633034202564EA
:10484000200D0A00B5F4C2E46164633037202564AA
:10485000200D0A00B5F4C2E461646331342025649C
:10486000200D0A00B5F4C2E461646331352025648B
:10487000200D0A0D0A000000380000206164634129
:104880006C6F6E675F45646765202564200D0A0DB7
:104890000A000000B5E7C1F76164633032202020D0
:1048A0002020202020202020202564200D0A000028
:1048B000494241546164633035202020202020206B
:1048C00020202020202564200D0A0000B5E7C1BF6C
:1048D00061646330362020202020202020202020EA
:1048E000202564200D0A00006164634261747465D0
:1048F000727950696E3320202020202020256420EA
:104900000D0A0000616463506F77657243686970D7
:104910004941445020202020202564200D0A000019
:1049200061646352656368617267655374616E6444
:1049300020202020202564200D0A000008B5012138
:104940004020FCF765FC4020ADF8000010208DF8F9
:10495000030003208DF8020069460448FCF706FABC
:1049600040210248FCF7D6FA08BD000000180140BB
:1049700070B505460C46FCF72BFBD42000F098F9E7
:10498000FEF79AFC284600F093F9FEF795FC2046C6
:1049900000F08EF9FEF790FCFCF740FB0A20FDF7D3
:1049A0002BFB70BD70B5FDF76BFB0446FDF74CFCAF
:1049B00005466CB1214609A0FBF7A6FC072C02D1E5
:1049C00001200B490860032C02D10020084908602F
:1049D0001DB1294607A0FBF797FC70BD6275747482
:1049E0006F6E7374617465312025640D0A000000D8
:1049F00098012342627574746F6E737461746532CA
:104A00002025640D0A00000030B58BB005460C4629
:104A100001210846FCF7DCFB0D48FCF7C3F80D4804
:104A2000009001950020029003940490802005904E
:104A300000200690079008904FF4805009900020C5
:104A40000A9069460248FCF772F90BB030BD0000CD
:104A5000440002400438014008B501212020FCF741
:104A6000D7FB4FF40040ADF8000010208DF8030094
:104A700003208DF8020069460148FCF777F908BD6C
:104A80000014014070B504460D461CB101200549D3
:104A9000086002E000200349086029460248FDF74B
:104AA000CEF870BD88012342000C004008B50121FA
:104AB0004020FCF7ADFB0420ADF8000010208DF87D
:104AC000030003208DF8020069460448FCF74EF904
:104AD00004210248FCF71EFA08BD0000001801403E
:104AE0002DE9F043A1B007468846342114A8FBF70E
:104AF000E0FD50216846FBF7DCFD002417E00025AF
:104B000011E004EB840000EBC400584901EB4000C5
:104B100030F8150005EB45016A4602EB410121F82A
:104B20001400681C45B20D2DEBDB601C44B2032C55
:104B3000E5DB002635E001242FE006EB4600694660
:104B400001EB400030F81490601E45B210E006EB17
:104B50004600694601EB400030F8151006EB4600B0
:104B60006A4602EB4002681C22F81010681E45B22B
:104B7000002D08DB06EB4600694601EB400030F8EB
:104B800015004845E3DC06EB4600694601EB4001B1
:104B9000681C21F81090601C44B2032CCDDB701C03
:104BA00046B20D2EC7DB00241AE001250FE004EB0E
:104BB0004400694601EB400030F8150014A951F893
:104BC0002410084414A941F82400681C45B2022DA1
:104BD000EDDB14A830F8240027F81400601C44B260
:104BE0000D2CE2DB2248007830B1012812D00228D7
:104BF0001ED0032835D128E03888A8F8000001200D
:104C00001C49086000201C49C1F8A4010120184972
:104C1000087027E03888A8F80200002015490860CD
:104C200001201549C1F8A40102201149087019E0BA
:104C30003888A8F8040001200E4908600E49C1F820
:104C4000A40103200A4908700CE03888A8F806007F
:104C50000020084908600849C1F8A4010449087007
:104C600000E000BF00BF21B0BDE8F083840E00204B
:104C700040000020AC8122420080224208B5012180
:104C80000820FCF7C5FAC020ADF8000010208DF810
:104C9000030003208DF8020069460448FCF766F81B
:104CA000C0210248FCF738F908BD0000000C0140A3
:104CB00070B504461848006820F070401649086036
:104CC0000846006840F04050086000201349086022
:104CD00000251EE0E00920B101201049091D0860EF
:104CE00003E000200D49091D08606006040E022043
:104CF000FDF7A2F90120094908600220FDF79CF99F
:104D000000200749C1F898010220FDF795F9681CB9
:104D1000C5B2082DDEDB70BD000C01409881214238
:104D20000080214208B501210820FCF771FA012119
:104D30002020FCF76DFA01210846FCF769FA1020E3
:104D4000ADF8000048208DF8030003208DF8020024
:104D500069460B48FCF70AF88020ADF80000694668
:104D60000848FCF703F810210548FCF7D5F8802126
:104D70000448FCF7D1F801210348FCF783F808BD8B
:104D8000000C0140001401400002300000B589B061
:104D900001210820FCF73CFA01210846FCF728FA1B
:104DA00001210846FCF734FA40F60840ADF820002F
:104DB00018208DF8230003208DF8220008A923482D
:104DC000FBF7D4FF01212248FCF75CF801212148C0
:104DD000FCF758F86320ADF818004720ADF8140030
:104DE0000020ADF81A00ADF8160005A94FF080407C
:104DF000FCF758FF6020ADF804000120ADF8060074
:104E00000020ADF80C00ADF80A0001A94FF0804079
:104E1000FCF710FE01A94FF08040FCF76BFE01A9E2
:104E20004FF08040FCF7C0FE0821C806FCF754FE96
:104E30000821C806FCF7AEFE0821C806FCF7F2FE02
:104E400001218807FCF778FD09B000BD000C014086
:104E5000000230000003180010B532230022114672
:104E60001648FCF703F9012827D1154800780528D2
:104E700003DD01201349087005E01148007810B9DE
:104E80000020104908700F48007828B10C480078BD
:104E9000401E0B49087004E009480078401C08498E
:104EA00008700748007800F0D7FA0548007800F04D
:104EB000DDFD0348007800F0ECFD10BDEC0E002095
:104EC000320000203300002000F1080141604FF063
:104ED000FF31816000F10801C160016100210160C2
:104EE000704700210161704710B502460B685C1CD9
:104EF0000CB9106907E002F1080000E0406844685E
:104F000024689C42FAD944684C604C68A16088606F
:104F100041600A611468641C146010BD42684A60F4
:104F200093688B60936859609160086103685B1CAB
:104F30000360704710B500BF502080F31188BFF3A5
:104F40004F8FBFF36F8F00BF0B480068401C0A49AA
:104F500008600846006801280DD108480068C0B202
:104F600008B9012000E0002028B94FF4BD7204A167
:104F70000EA0FBF7C9F910BDAC00002004ED00E065
:104F80002E2E5C4672656552544F535C706F72747E
:104F900061626C655C525644535C41524D5F434DB7
:104FA000335C706F72742E63000000004572726F84
:104FB000723A25732C25640D0A00000010B50B48C9
:104FC000006828B940F2811209A114A0FBF79CF9EE
:104FD00006480068401E054908600846006820B978
:104FE000002080F3118800BF00BF10BDAC0000207E
:104FF0002E2E5C4672656552544F535C706F72740E
:1050000061626C655C525644535C41524D5F434D46
:10501000335C706F72742E63000000004572726F13
:10502000723A25732C25640D0A00000070B50646FF
:105030003546002E35D0083D2C461A49606809686F
:10504000084008B1012000E0002028B94FF4A07208
:1050500015A11FA0FBF758F9206808B9012000E04E
:10506000002028B940F241120FA119A0FBF74CF91A
:105070000C4960680968084098B1206888B90949F6
:10508000606809688843606000F0CAFB1449606882
:1050900009680844124908602046FDF76FFC01F0DA
:1050A00007FB70BDA80000202E2E5C46726565527D
:1050B000544F535C706F727461626C655C4D656DCA
:1050C0004D616E675C686561705F342E630000003F
:1050D0004572726F723A25732C25640D0A00000028
:1050E000A0000020064800684FF47A71B0FBF1F090
:1050F000401E4FF0E0214861072008617047000022
:105100000400002070B5FBF7D9F80546102D11D327
:1051100005F1E02090F8F04310480078844201DB6C
:10512000012000E0002028B940F2A9220CA117A01C
:10513000FBF7EAF81948006800F4E06018490968CC
:10514000884201D8012000E0002028B940F2B922AD
:1051500003A10EA0FBF7D8F870BD0000B00000203E
:105160002E2E5C4672656552544F535C706F72749C
:1051700061626C655C525644535C41524D5F434DD5
:10518000335C706F72742E63000000004572726FA2
:10519000723A25732C25640D0A0000000CED00E026
:1051A000B400002010B50023022219460148FBF785
:1051B0005DFF10BD140F002010B50020FEF726F88B
:1051C0000446214641A0FBF79FF80120FEF71EF898
:1051D0000446214641A0FBF797F80220FEF716F897
:1051E0000446214640A0FBF78FF80320FEF70EF897
:1051F000044621463FA0FBF787F80420FEF706F897
:10520000044621463EA0FBF77FF80520FDF7FEFF90
:10521000044621463DA0FBF777F80620FDF7F6FF90
:10522000044621463CA0FBF76FF80720FDF7EEFF90
:10523000044621463BA0FBF767F80920FDF7E6FF8F
:10524000044621463AA0FBF75FF80A20FDF7DEFF8F
:105250000446214639A0FBF757F80B20FDF7D6FF8F
:105260000446214638A0FBF74FF80C20FDF7CEFF8F
:105270000446214637A0FBF747F80D20FDF7C6FF8F
:105280000446214636A0FBF73FF80E20FDF7BEFF8F
:105290000446214635A0FBF737F80F20FDF7B6FF8F
:1052A0000446214634A0FBF72FF81020FDF7AEFF8F
:1052B0000446214633A0FBF727F81120FDF7A6FF8F
:1052C0000446214632A0FBF71FF810BD0D0A5B30E3
:1052D00030485D252332780D0A0000005B303148EC
:1052E0005D252332780D0A005B3032485D2523327C
:1052F000780D0A005B3033485D252332780D0A00B3
:105300005B3034485D252332780D0A005B30354828
:105310005D252332780D0A005B3036485D25233247
:10532000780D0A005B3037485D252332780D0A007E
:105330005B3039485D252332780D0A005B304148E7
:105340005D252332780D0A005B3042485D2523320B
:10535000780D0A005B3043485D252332780D0A0042
:105360005B3044485D252332780D0A005B304548A8
:105370005D252332780D0A005B3046485D252332D7
:10538000780D0A005B3130485D252332780D0A0024
:105390005B3131485D252332780D0A00024600203A
:1053A0000BE0084B53F8303033B9064B43F830105C
:1053B00003EBC0035A6002E0401C0828F1D300BF91
:1053C00070470000200F00202DE9F04105460E46F1
:1053D00017462C46FFF7AEFD94F94400401C10B967
:1053E000002084F8440094F94500401C10B90020C6
:1053F00084F84500FFF7E2FDA06B28B93A46314634
:1054000004F1240000F00AF92046FDF766FDBDE82E
:10541000F08100000E4800880E49097808440C49C4
:10542000088008460088B0F57A7F0FDB00200880EE
:1054300008464068401C4860084640683C2805D340
:105440000020486008468068401C88607047000063
:10545000780E00202F00002010B50446642C00DDDB
:10546000642421464FF08040FCF7E9FB10BD0000AA
:1054700008B501212020FBF7CBFE4FF42060ADF8EA
:10548000000010208DF8030003208DF8020069460B
:105490000148FBF76BFC08BD0014014010B5FCF798
:1054A0007DFD00F06FFAFFF771FCFFF73BFCFFF7A3
:1054B00019F9FCF7B9F9FFF727F8FCF733FAFFF70A
:1054C000DDFB10BD08E0FFF76DFAFFF7C5FCFFF745
:1054D00069FE052000F038F8F5E700001CB5002053
:1054E000012103464FF49B72CDE9001007A10D483E
:1054F00000F078FE0C48012100234FF49B72CDE9A7
:1055000000100AA10F4800F06DFE1CBD53797374A2
:10551000656D4861726477617265576F726B546133
:10552000736B0000C55400083400002076414443EA
:105530004461746150726F63657373696E6754611F
:10554000736B0000CD44000870B504460025ACB173
:105550000F48006808B9012000E0002028B940F297
:10556000CF420CA110A0FAF7CFFE00F059F90021AC
:105570002046FCF781FF01F09BF805463DB94FF04E
:1055800080500D490860BFF34F8FBFF36F8F70BD20
:105590007C0000202E2E5C4672656552544F535C91
:1055A0007461736B732E63004572726F723A257368
:1055B0002C25640D0A00000004ED00E001200149E3
:1055C000086070476800002070B504460D462CB98D
:1055D00040F6063207A10CA0FAF796FE0E480168C5
:1055E00018312046FFF780FC01212846FCF744FFD4
:1055F00070BD00002E2E5C4672656552544F535CA0
:105600007461736B732E63004572726F723A257307
:105610002C25640D0A0000004400002070B50546EA
:105620000E4614462DB940F6313209A10DA0FAF705
:105630006BFE1048016818312846FFF76FFC0CB16B
:105640004FF0FF3621463046FCF716FF70BD0000D4
:105650002E2E5C4672656552544F535C7461736BB9
:10566000732E63004572726F723A25732C25640D98
:105670000A0000004400002070B505462C46002DAD
:105680004BD02649E06A0968C96A884245D2A069B8
:1056900000F0004028B921480068C06AC0F120002D
:1056A000A061E16A01EB81011D4A02EB81016069A1
:1056B000884201D1012000E0002050B3201DFEF7F8
:1056C000F1FE78B9E06A00EB8000154951F820003E
:1056D00040B994F82C100120884012490968814390
:1056E000104801600D480068C06AE06294F82C1010
:1056F000012088400B49096808430A490860E16AAB
:1057000001EB8101064A02EB8100211DFFF706FC37
:1057100003E002480068C06AE06270BD44000020F7
:10572000600F00205C00002010B504462CB940F644
:10573000C13205A109A0FAF7E7FD0C480068206016
:105740000B480068606010BD2E2E5C467265655285
:10575000544F535C7461736B732E63004572726FA8
:10576000723A25732C25640D0A0000006C0000209D
:10577000580000201CB51A4800210B468222CDE9B2
:10578000001018A1194800F02DFD0446012C02D18B
:1057900001F01EF80446012C15D100BF502080F303
:1057A0001188BFF34F8FBFF36F8F00BF4FF0FF30F3
:1057B0000F49086001200F49086000200E49086069
:1057C00000F074F90BE0601C08B1012000E000203B
:1057D00028B940F2847209A10DA0FAF795FD1CBD0D
:1057E0007800002049444C4500000000ED270008E7
:1057F0007400002060000020580000202E2E5C461F
:1058000072656552544F535C7461736B732E630001
:105810004572726F723A25732C25640D0A000000E0
:1058200002480068401C0149086070477C00002065
:1058300010B51B48006818B101201A4908602DE016
:1058400000201849086018480068B0FA80F0C0F1DC
:105850001F0404EB8400154951F8200008B1012011
:1058600000E0002028B940F6F62211A115A0FAF7B1
:105870004BFD04EB84010D4A02EB8100416849684D
:10588000416000F1080142688A4202D141684968DA
:1058900041604168C9680F4A116000BF10BD000037
:1058A0007C000020680000205C000020600F0020C9
:1058B0002E2E5C4672656552544F535C7461736B57
:1058C000732E63004572726F723A25732C25640D36
:1058D0000A0000004400002010B586B004460121F3
:1058E00044F20400FBF794FC4FF40070ADF8140090
:1058F00003208DF8160018208DF8170005A91F4801
:10590000FBF734FA4FF48060ADF8140004208DF8F2
:10591000170005A91948FBF729FA25208DF8000082
:1059200003208DF801008DF8020001208DF803009E
:105930006846FBF7FFFB01940020ADF80800ADF8C6
:105940000A00ADF80C00ADF810000C20ADF80E0008
:1059500001A90B48FCF7A6FA012240F2255108489C
:10596000FCF77AFA012240F224410548FCF774FA68
:1059700001210348FCF73AFA06B010BD00080140C7
:105980000038014010B54FF4E130FFF7A5FF06499C
:105990000978C1EB011101EB4101044A02EB41001E
:1059A0005A21FFF731F810BD200000200C02002022
:1059B00005E00349086980471420FFF7C5FDF8E7B3
:1059C0001801002008B501214020FBF721FC4FF40D
:1059D0008070ADF8000010208DF8030003208DF8D2
:1059E000020069460448FBF7C1F94FF48071024890
:1059F000FBF792FA08BD00000018014008B501212C
:105A00000420FBF705FC4FF40060ADF80000102007
:105A10008DF8030003208DF8020069460448FBF767
:105A2000A5F94FF400610248FBF776FA08BD0000C3
:105A30000008014008B501211020FBF7E9FB4FF4F5
:105A40008070ADF8000010208DF8030003208DF861
:105A5000020069460448FBF789F94FF48071024857
:105A6000FBF75AFA08BD00000010014010B50446CB
:105A7000642C00DD642421464FF08040FCF7E1F8FF
:105A800010BD70B504460D4629462046FEF770FF4E
:105A900070BD10B50446642C00DD642421464FF02F
:105AA0008040FCF7D0F810BD016070471CB522485B
:105AB000014609780191FF210246117001460978DB
:105AC00000919DF8001001F050011C4A117007214F
:105AD0001B4A116009E01A490968491E184A1160F9
:105AE0009DF800104906090E00919DF8001001F084
:105AF00080018029EFD0124909680902104A11601B
:105B00001146098801F4E06111600B4A0199117096
:105B10000C48006840F470000A49086008460068B4
:105B200040F070400860FFF7DDFA00200649086089
:105B3000FAF78EFB00201CBD00E400E0B00000205E
:105B4000B400002020ED00E0AC00002010B500BF44
:105B5000502080F31188BFF34F8FBFF36F8F00BFCA
:105B600000F030FC18B14FF0805005490860FFF795
:105B700051FC00BF002080F3118800BF10BD000061
:105B800004ED00E02DE9F84305460E4690460DB1C0
:105B9000012000E0002028B94FF4C4720DA112A02A
:105BA000FAF7B2FB0EB9002701E005FB06F707F193
:105BB0005400FDF7DBF9044644B104F154094346AF
:105BC0004A46314628460094FCF724FE2046BDE8AC
:105BD000F88300002E2E5C4672656552544F535C6C
:105BE00071756575652E63004572726F723A257323
:105BF0002C25640D0A0000002DE9FF4782B0054600
:105C00000E461F464FF0000A2C462CB940F2DC42EB
:105C100061A166A0FAF778FB0EB9206C08B90120E3
:105C200000E0002028B940F2DD425BA15FA0FAF756
:105C30006BFB00F0B1FB08B9049808B9012000E043
:105C4000002028B94FF49C6253A158A0FAF75CFBDE
:105C500000BFFFF76FF9D4F83890B9F1000F3DD0CD
:105C6000D4F80C8031462046FCF712FDDFB9A9F1CB
:105C70000100A063206810B9FDF722FA6060206976
:105C800008B9012000E0002010BB04F1100000F072
:105C9000B5FCE8B14FF0805048490860BFF34F8F22
:105CA000BFF36F8F14E0C4F80C80606A08B901205C
:105CB00000E0002060B904F1240000F09FFC38B13E
:105CC0004FF080503D490860BFF34F8FBFF36F8F97
:105CD000FFF774F9012006B0BDE8F087049818B901
:105CE000FFF76CF90020F6E7BAF1000F04D168461F
:105CF000FFF71AFD4FF0010AFFF760F9FFF790FD7B
:105D0000FFF718F994F94400401C10B9002084F8FA
:105D1000440094F94500401C10B9002084F8450067
:105D2000FFF74CF904A9684600F00CFA40BB204686
:105D3000FCF784FEF0B1206830B9FFF7FBF860682B
:105D4000FFF79AFCFFF73AF904F124000499FFF7F2
:105D50003BFC2046FDF7C1F800F0AAFC00287FF4C8
:105D600078AF4FF0805015490860BFF34F8FBFF3F5
:105D70006F8F6EE72046FDF7B0F800F099FC68E7FA
:105D80002046FDF7AAF800F093FC2046FCF756FEEB
:105D90000028EED000209EE72E2E5C4672656552EC
:105DA000544F535C71756575652E63004572726F53
:105DB000723A25732C25640D0A00000004ED00E002
:105DC00070B505460E462C462CB940F21B121EA19A
:105DD00022A0FAF799FAFFF7ADF8D4E90F1220687C
:105DE00001FB020060600020A0632068A060E06BFF
:105DF000401E226C216800FB0210E060FF2084F846
:105E0000440084F845009EB9206908B9012000E0EB
:105E10000020A8B904F1100000F0F0FB80B14FF0B1
:105E2000805012490860BFF34F8FBFF36F8F07E0B8
:105E300004F11000FFF748F804F12400FFF744F8DC
:105E4000FFF7BCF8012070BD2E2E5C4672656552CE
:105E5000544F535C71756575652E63004572726FA2
:105E6000723A25732C25640D0A00000004ED00E051
:105E70002DE9FF4383B0064688461D464FF00009D2
:105E800034462CB940F2D92260A165A0FAF73CFA59
:105E9000B8F1000F01D1206C08B9012000E000200A
:105EA00028B940F2DA2259A15DA0FAF72DFA022DA5
:105EB00002D1E06B012801D1012000E0002028B9C7
:105EC00040F2DB2251A156A0FAF71EFA00F064FA64
:105ED00008B9059808B9012000E0002028B940F26F
:105EE000DE224AA14EA0FAF70FFA00BFFFF722F810
:105EF000A06BE16B884201D3022D38D12A4641467E
:105F00002046FCF7DAFB0746A06C68B1294620461C
:105F1000FCF7B0FD28B34FF0805045490860BFF34F
:105F20004F8FBFF36F8F1CE0606A08B9012000E05B
:105F3000002068B904F1240000F060FB88B14FF044
:105F400080503B490860BFF34F8FBFF36F8F08E06D
:105F50003FB14FF0805036490860BFF34F8FBFF319
:105F60006F8FFFF72BF8012007B0BDE8F08305988D
:105F700018B9FFF723F80020F6E7B9F1000F04D1B4
:105F800001A8FFF7D1FB4FF00109FFF717F8FFF762
:105F900047FCFEF7CFFF94F94400401C10B90020E5
:105FA00084F8440094F94500401C10B9002084F89E
:105FB0004500FFF703F805A901A800F0C3F8F0B900
:105FC0002046FCF748FDA0B104F110000599FFF749
:105FD000FBFA2046FCF781FF00F06AFB002885D120
:105FE0004FF0805012490860BFF34F8FBFF36F8F9F
:105FF0007CE72046FCF771FF00F05AFB76E720466D
:10600000FCF76BFF00F054FB0020ADE72E2E5C4642
:1060100072656552544F535C71756575652E6300EA
:106020004572726F723A25732C25640D0A000000C8
:1060300004ED00E02DE9F05F80468A4615461E46D5
:1060400044462CB940F29F3235A13AA0FAF75CF9E8
:10605000BAF1000F01D1206C08B9012000E0002046
:1060600028B94FF468722EA132A0FAF74DF9022E2A
:1060700002D1E06B012801D1012000E0002028B905
:1060800040F2A13226A12BA0FAF73EF9FFF73AF829
:1060900000BF5021EFF3118081F31188BFF34F8FC0
:1060A000BFF36F8F00BF0746A06BE16B884201D33F
:1060B000022E2BD194F945B0324651462046FCF7CA
:1060C000FCFA0BF10100C8B9A06C40B13146204682
:1060D000FCF7D0FCB8B1B5B10120286013E0606ACC
:1060E00008B9012000E0002068B904F1240000F0A4
:1060F00085FA40B13DB10120286004E00BF10100B8
:1061000040B284F845004FF0010901E04FF000096A
:1061100000BF87F3118800BF4846BDE8F09F00002C
:106120002E2E5C4672656552544F535C71756575D1
:10613000652E63004572726F723A25732C25640DCB
:106140000A0000002DE9F04104460D462CB940F646
:10615000CB3219A11DA0FAF7D7F82DB940F6CC32F1
:1061600015A11AA0FAF7D0F8FEF7E4FE1B4807685D
:106170002868401C08B9002619E0194920680968F8
:10618000884204D06068B84201D801260FE06068F8
:10619000381A2968884209D228686168791A401A31
:1061A00028602046FFF7C0FA002600E00126FEF72F
:1061B00005FF3046BDE8F0812E2E5C4672656552C3
:1061C000544F535C7461736B732E63004572726F2E
:1061D000723A25732C25640D0A0000005800002037
:1061E0006C0000202DE9FF4F85B080468946174698
:1061F000DDE912ABB800FCF7B9FE064656B15C20EB
:10620000FCF7B4FE04460CB1266304E03046FEF70A
:106210000DFF00E000247CB10020CDE900ABCDE90A
:1062200002403A4649464046089BFCF70BFB204695
:10623000FCF76EF9012501E04FF0FF35284609B063
:10624000BDE8F08F2DE9F84F07460E469046994677
:10625000DDF828B0012000902FB941F268123FA16B
:1062600043A0FAF751F8FEF74DFF3C4600BF50211E
:10627000EFF3118081F31188BFF34F8FBFF36F8F5E
:1062800000BF0546B9F1000F02D0606DC9F80000EB
:1062900094F858A0022084F85800B8F1050F17D2DE
:1062A000DFE808F01503070B0D00606D30436065F3
:1062B0000EE0606D401C60650AE0666508E0BAF1BA
:1062C000020F01D0666501E00020009000E000BFF1
:1062D00000BFBAF1010F39D1A06A08B9012000E06E
:1062E000002028B941F2AF121CA121A0FAF70CF846
:1062F00023480068A8B9201DFEF7D4F894F82C10A4
:10630000012088401F49096808431E490860E16A66
:1063100001EB81011C4A02EB8100211DFEF7FEFD0D
:1063200004E004F118011948FEF7F8FD1849E06A85
:106330000968C96A884209D9BBF1000F03D001205E
:10634000CBF8000002E001201249086000BF85F38D
:10635000118800BF0098BDE8F88F00002E2E5C4623
:1063600072656552544F535C7461736B732E630096
:106370004572726F723A25732C25640D0A00000075
:106380007C0000205C000020600F0020081200202C
:1063900044000020680000200549096809B901206F
:1063A00005E00449096809B9022000E000207047AF
:1063B000600000207C000020014908687047000050
:1063C000580000202DE9F0414FF0000841480068D6
:1063D000002872D140480068451C3F480560EDB96F
:1063E0003E480068006808B9012000E0002028B994
:1063F00040F6D9123AA13FA0F9F786FF374807685F
:1064000040480068354908603E4807603E480068DB
:10641000401C3D490860FCF78DFC00BF3B4800680C
:1064200085423CD300BF2D480068006808B90120B0
:1064300000E0002020B14FF0FF30344908602DE02B
:1064400026480068C068C4686668B54202D22F4812
:10645000066023E0201DFEF725F8A06A18B104F1BC
:106460001800FEF71FF894F82C10012088402849E6
:106470000968084326490860E16A01EB8101254A61
:1064800002EB8100211DFEF749FD2349E06A0968FE
:10649000C96A8842C7D34FF00108C4E700BF1E484D
:1064A0000068C06A00EB80001A4951F820000128FA
:1064B00001D94FF0010805E0FFE718480068401CCB
:1064C000164908601648006808B14FF001084046B8
:1064D000BDE8F0817C00002058000020480000202A
:1064E0002E2E5C4672656552544F535C7461736B1B
:1064F000732E63004572726F723A25732C25640DFA
:106500000A0000004C0000206C00002074000020F5
:106510005C000020600F0020440000206400002088
:106520006800002070B505462C460026002D4BD093
:1065300026480068844201D1012000E0002028B9EB
:1065400040F6C76222A127A0F9F7DEFE206D28B928
:1065500040F6C9621EA123A0F9F7D6FE206D401EA9
:106560002065E16CE06A88422ED0206D60BB201D62
:10657000FDF798FF78B9E06A00EB80001D4951F8FB
:10658000200040B994F82C10012088401A4909686D
:10659000814319480160E06CE062E06AC0F12000CC
:1065A000A06194F82C100120884013490968084321
:1065B00011490860E16A01EB81010E4A02EB81009A
:1065C000211DFEF7ABFC0126304670BD44000020C3
:1065D0002E2E5C4672656552544F535C7461736B2A
:1065E000732E63004572726F723A25732C25640D09
:1065F0000A000000600F00205C00002070B5064615
:10660000F068C4682CB940F661321AA11EA0F9F7EF
:106610007BFE04F11800FDF745FF1F480068A8B98C
:10662000201DFDF73FFF94F82C10012088401B49E6
:106630000968084319490860E16A01EB8101184AB9
:1066400002EB8100211DFEF769FC04E004F1180152
:106650001448FEF763FC1449E06A0968C96A884275
:1066600004D9012501201149086000E000252846D1
:1066700070BD00002E2E5C4672656552544F535C0F
:106680007461736B732E63004572726F723A257377
:106690002C25640D0A0000007C0000205C00002016
:1066A000600F002008120020440000206800002035
:1066B00070B5002400263448006828B94FF4FD6204
:1066C00032A137A0F9F720FEFEF734FC2E4800680F
:1066D000401E2D4908600846006800284FD1344804
:1066E000006800284BD024E03248C068C46804F138
:1066F0001800FDF7D7FE201DFDF7D4FE94F82C10EE
:10670000012088402C49096808432B490860E16A48
:1067100001EB8101294A02EB8100211DFEF7FEFBFE
:106720002749E06A0968C96A884202D301202549DD
:1067300008602048006808B9012000E00020002817
:10674000D2D00CB1FCF7F6FA1F48056865B100BF5E
:10675000FFF738FE10B101201A4908606D1E002DA8
:10676000F6D10020184908601648006838B10126A3
:10677000300716490860BFF34F8FBFF36F8FFEF7E6
:106780001DFC304670BD00007C0000202E2E5C46B3
:1067900072656552544F535C7461736B732E630062
:1067A0004572726F723A25732C25640D0A00000041
:1067B00054000020081200205C000020600F002020
:1067C00044000020680000206400002004ED00E088
:1067D0001CB50024FBF7F8FE0B48006858B10B48C5
:1067E0001F2100234FF48272CDE9001008A10A484E
:1067F000FFF7F8FC04462CB940F2331207A10DA0B4
:10680000F9F782FD20461CBD880000208C00002086
:10681000546D722053766300C12E00082E2E5C4604
:1068200072656552544F535C74696D6572732E6363
:10683000000000004572726F723A25732C25640DBA
:106840000A0000002DE9FF4704460D4616461F4684
:10685000DDF830804FF000092CB94FF4D37217A146
:106860001CA0F9F751FD1F48006810B30095019670
:106870000294062D15DAFFF78FFD022808D10023B8
:106880004246694617480068FFF7F2FA814610E071
:1068900000231A46694613480068FFF7E9FA814663
:1068A00007E000233A4669460E480068FFF7C2FB3E
:1068B0008146484604B0BDE8F08700002E2E5C46B5
:1068C00072656552544F535C74696D6572732E63C3
:1068D000000000004572726F723A25732C25640D1A
:1068E0000A0000008800002030313233343536375A
:1068F0003839414243444546403058003031323304
:106900003435363738396162636465664030780003
:106910000400000800000000000000020001000068
:10692000100000003F00000064656300696400001F
:1069300072756E74696D650068656C7000000000AA
:106940006C6973740000000068657800766F696494
:10695000207646414E5F5465737428753820437421
:106960006C50696E5374612C753136204379636CB9
:1069700065305F3439392900766F69642076577243
:106980006974655F427132343737335F52656769C6
:106990007374657228753820616464722C753820B0
:1069A0006461746129000000766F6964207650721A
:1069B000696E74665F414C4C5F52656769737465BC
:1069C000725F4270323437373328766F696429003A
:1069D000766F69642076416C6C5F41445F566F6CE2
:1069E00075655072696E746628766F696429000057
:1069F000766F69642077726974655F616464722878
:106A000075333220616464722C7533322076616C88
:106A10002900000075333220726561645F6164642F
:106A20007228753332206164647229004C6A000850
:106A3000000000200C0200006C010008C46A00087D
:106A40000C020020C4660000C80100085184A24A5C
:106A5000040009170102030406070809027C011A51
:106A6000AA01B98D19AC69B0170204060824691B84
:106A70000838041A40041A2C041A48041A28041A64
:106A800030041305311408146A1408A95A1B08F0BD
:106A90001013854A1B084C081311471B08D0081314
:106AA000B9511B08A8081A83201A780822E8142074
:106AB0001D3B14089133140841341B08810C1A063D
:046AC0007301DC0082
:04000005080002C528
:00000001FF
