:020000040800F2
:10000000906E0020DD020008E92C0008E52A0008B7
:10001000212C0008611E0008F942000800000000C1
:100020000000000000000000000000004502000881
:10003000312400080000000089020008FB3100089C
:10004000F7020008F7020008F7020008F7020008AC
:10005000F7020008F7020008F7020008352500083B
:1000600089250008DD250008F7020008651E000844
:10007000F7020008F7020008F7020008F70200087C
:10008000F7020008F7020008F7020008F70200086C
:10009000F7020008F7020008F7020008112600081E
:1000A000F7020008F7020008F7020008AD34000864
:1000B000F7020008F7020008F7020008F70200083C
:1000C000F7020008F7020008F7020008F70200082C
:1000D000F702000825400008F7020008F7020008B0
:1000E000B1240008F7020008F7020008F702000830
:1000F000F7020008F702000805390008F7020008B7
:10010000F7020008F7020008F7020008F7020008EB
:10011000F7020008F7020008D9380008F7020008C3
:10012000F7020008F7020008F7020008F7020008CB
:1001300000F002F800F076F80AA090E8000C824483
:100140008344AAF10107DA4501D100F06BF8AFF260
:10015000090EBAE80F0013F0010F18BFFB1A43F0A5
:100160000103184790D60000B0D600000A444FF0B3
:10017000000C10F8013B13F0070408BF10F8014B06
:100180001D1108BF10F8015B641E05D010F8016B4B
:10019000641E01F8016BF9D113F0080F1EBF10F8AF
:1001A000014BAD1C0C1B09D16D1E58BF01F801CBD2
:1001B000FAD505E014F8016B01F8016B6D1EF9D555
:1001C0009142D6D37047000000230024002500266A
:1001D000103A28BF78C1FBD8520728BF30C148BFAA
:1001E0000B60704766290DF00C80642900F0F480E4
:1001F000752900F0F180782900F02A81632900F048
:100200001985732900F01E85002070471FB500F086
:1002100083FD0400002000210BF038FFE0601FBDCB
:1002200010B510BD00F07CFE1146FFF7EFFF04F0A3
:10023000BFFD00F09AFE03B4FFF7F2FF03BC04F029
:10024000DAF80000224B19680868B0E8F00F80F374
:100250000988BFF36F8F4FF0000080F311884EF0D4
:100260000D0E70470000000006480068006880F32B
:10027000088862B661B6BFF34F8FBFF36F8F00DFA0
:1002800000BF00BF08ED00E0EFF30980BFF36F8F00
:100290000F4B1A6820E9F00F106008B54FF05000BE
:1002A00080F31188BFF34F8FBFF36F8F0AF00EFCFE
:1002B0004FF0000080F31188BDE808401968086815
:1002C000B0E8F00F80F30988BFF36F8F704700BF6D
:1002D000E8000020EFF305807047000009488047E0
:1002E00009480047FEE7FEE7FEE7FEE7FEE7FEE718
:1002F000FEE7FEE7FEE7FEE704480549054A064B30
:10030000704700000D32000831010008906800209D
:10031000906E0020906A0020906A002070470000D4
:100320000FB4044910B503AA029800F08FFC10BC6A
:100330005DF814FB1800002070B50446856900685C
:10034000C10601D5302600E02026C00707D070BDC9
:10035000D4E9012130469047206A401C20626D1E7E
:10036000F6D570BD70B5044685690078C00707D121
:1003700070BDD4E9012120209047206A401C2062F2
:100380006D1EF6D570BD70B50C460546012A05D028
:100390002878800600D5EA69002302E0012305E001
:1003A0005B1C934202D2E05C0028F9D1A869E618F0
:1003B000C01AA861286A184428622846FFF7BCFFC3
:1003C00004E0D5E9012114F8010B9047B442F8D3B9
:1003D0002846FFF7C7FF70BD2DE9F041064600240F
:1003E00010687529314616A510D0AFF3008000289B
:1003F00002DA404213A507E031688A0701D512A549
:1004000002E0490704D511A5012401E0AFF3008003
:1004100000210A2206F1240709E0B0FBF2FCB0FB40
:10042000F2F302FB1C00303078541846491C0028B7
:10043000F3D123462A463046BDE8F04100F070B9BA
:10044000000000002D0000002B0000002000000034
:1004500070B504460D4621461068AFF30080218830
:10046000090502D50F4A7A4402E00E4A7A440E3258
:10047000002104F1240305E000F00F060009965D59
:100480005E54491C0028F7D120780023000704D5CA
:10049000702D02D009B1022311322046BDE8704010
:1004A00000F03EB98CCE00002DE9F05F894604468D
:1004B0004FF0000ADFF874B1FB44C0F820A02046DA
:1004C000E1688847002874D0252806D0D4E90121A6
:1004D0009047206A401C2062F1E700265F462046D4
:1004E000E16888472028054607DB312D05D27819B9
:1004F00010F8200C08B10643F1E7B00701D526F04B
:100500000406C4F81CA00027C4F818A02A2D09D09E
:10051000284603F069FF38B304EB8708303DC8F87C
:10052000185019E059F8041B204604EB870291612A
:10053000E1688847012F054618D1E069002820DAD4
:1005400026F020061DE0D8F8180000EB800005EB2F
:1005500040003038C8F818002046E1688847054652
:1005600003F042FF0028EED1012F0AD02E2D08D132
:100570002046E16888477F1C0546022F46F020068A
:10058000C4DBA069002803DA404246F00106A061FE
:10059000F00701D026F010066C2D0BD0682D09D085
:1005A0004C2D39D06A2D35D0742D35D07A2D33D0DD
:1005B00016E038E0E1682F4620468847B8420546F5
:1005C00009D16C2F26D04FF48060E16806432046A5
:1005D0008847054604E06C2F1AD04FF4807006431C
:1005E0000DB3A5F14100192802D8203546F4006664
:1005F0004A462946204626604E46FFF7F3FD80B165
:1006000001280BD0F61D26F0070000F1080956E777
:100610004020E4E78020D8E70020D6E706F104096F
:100620004DE7284652E7206ABDE8F09F62CE000001
:10063000032A40F2308010F0030C00F0158011F80E
:10064000013BBCF1020F624498BF11F801CB00F8E6
:10065000013B38BF11F8013BA2F1040298BF00F83A
:1006600001CB38BF00F8013B11F0030300F0008319
:10067000083AC0F0088051F8043B083A51F804CB1E
:10068000A0E80810F5E7121D5CBF51F8043B40F8E4
:10069000043BAFF30080D20724BF11F8013B11F8EF
:1006A00001CB48BF11F8012B24BF00F8013B00F833
:1006B00001CB48BF00F8012B704702F0FF0343EA6B
:1006C000032242EA024200F007BB4FF0000200B5ED
:1006D000134694469646203922BFA0E80C50A0E865
:1006E0000C50B1F12001BFF4F7AF090728BFA0E813
:1006F0000C5048BF0CC05DF804EB890028BF40F8DF
:10070000042B08BF704748BF20F8022B11F0804F20
:1007100018BF00F8012B704770477047704770474B
:100720002DE9F0470D4699469246044600F124080B
:100730000168880604D5E06921F01001216000E01D
:100740000120A84201DD471B00E00027A1697A19BA
:1007500002EB0900081AA0612078C00602D42046E6
:10076000FFF7EAFD002608E0D4E901211AF80600A7
:100770009047206A401C761C20624E45F4DB2078AE
:10078000C0060AD52046FFF7D7FD06E0D4E90121CF
:1007900030209047206A401C2062381EA7F10107D4
:1007A000F4DC07E0D4E9012118F805009047206A3D
:1007B000401C2062281EA5F10105F3DC2046FFF74E
:1007C000D1FD2078000602D50220BDE8F087012087
:1007D000FBE770472DE9FF4F0C461E464FF0FF37F1
:1007E0008BB0D2E90001DDF860800A908A46C1F33F
:1007F0000A5505B93D46002108464FF00000BAF100
:10080000000F00F4400005DA00EB80004FF44001D7
:1008100001EA50004FEA9059B9F1010F00DDB946E5
:100820000A9850EA4A000ED044F61050A5F2FF355F
:1008300045432F14B8F1000F1ED07542291E1EDD4E
:10084000C9F100021CE0B8F1010F4FF0000001D027
:10085000302103E0F24305E02154401CB042FBDBB1
:1008600030460022002121540B99C1F80880C1E9CB
:1008700000200FB0BDE8F08FBD1B6D1CDEE74A46BF
:1008800000DA694206A800F0D1FA06AB93E8070047
:1008900003AB83E8070050460A9900F0AFFB8DE8F0
:1008A0000700A0F500501F3800900398002D0ADDC6
:1008B00042F21F014A460844002303A903906846F8
:1008C00000F018FE09E0A0F500504A461F3800234A
:1008D00003A90390684600F022FE8DE8070000049B
:1008E000000C03D04FF0FF30410800E01046B8F193
:1008F000000F03D00022009215461EE0751E05D49D
:1009000000F00EFA303262556D1EF9D5B346012261
:10091000084302D000227F1C04E02078302801D157
:1009200000227F1E002A099784D01DE0112D07DACE
:1009300000F0F6F9303262556D1C50EA0102F5D133
:10094000084302D00098C8B10EE00021681E05E0FF
:10095000235C625C63542254401E491C8142F7DBD5
:10096000AB46A81B401E0990002004F80B000B9812
:10097000099AC0F80880C0E9002B7AE711264FF0E9
:10098000000857E72DE9F04F88460446D21D22F0B3
:10099000070191B0D1E90001CDE90A0103F0AEFCF5
:1009A00002460B98C00F01D02D2007E02068810778
:1009B00001D52B2002E0202101EAC000032A099082
:1009C00001D0072A05DB03464146204600F0EEF938
:1009D0000BE12078800601D5E06900E00620B8F13F
:1009E000650F814606D0B8F1660F18D0B8F1670FD1
:1009F00070D131E00020B9F1110F009001DB11231B
:100A000001E009F101030AAA01A90CA8FFF7E2FE1F
:100A1000DDE90C70002609F10105834647E001205D
:100A20004B4600904FF000470AAA01A90CA8FFF717
:100A3000D1FEDDE90DB00C995D46002610B909F133
:100A400001000D18B9EB050003D4C0F1FF3609F120
:100A50000105A5EB09002BE0B9F1010F01DA4FF018
:100A600001090020B9F1110F0090484601DD112362
:100A700000E003460AAA01A90CA8FFF7ABFEDDE9D6
:100A80000C704D4600268346207800070AD4AB45FB
:100A900000DA5D4601A8012D04DD411911F8011CA1
:100AA000302907D04F4502DA17F1040F04DA01208C
:100AB00082460FE06D1EEEE7002F02DCED1B3E4488
:100AC00003E0781CA84200DD7D1CB81B00F1010A80
:100AD0004FF000472078000703D4AA4501DB4FF010
:100AE000FF3A0021B7F1004F0DF143088DF8431094
:100AF00024D002202B23002F01DA7F422D230A214C
:100B0000021EA0F1010000DC5FB197FBF1FC97FB36
:100B1000F1F201FB1C7C17460CF1300C08F801CDFA
:100B2000EEE7A8F1010003702188090501D54521F0
:100B300000E06521A0F1010800F8011C09980FA947
:100B4000A1EB0807FF1D00B10120411901EBEA707C
:100B5000A1693844081A401EA0612078C00602D45A
:100B60002046FFF7E9FB099828B1D4E90121904715
:100B7000206A401C20622078C00622D52046FFF75C
:100B8000DBFB1EE0002E04DBB34502DD01A8805D27
:100B900000E03020D4E901219047206A401C206207
:100BA000761CAAF101005FEA000A0AD100F0B4F84D
:100BB000C0680168405CD4E901219047206A401C6C
:100BC0002062281EA5F10105DCDC07E0D4E9012143
:100BD00018F8010B9047206A401C2062381EA7F1CC
:100BE0000107F3DC2046FFF7BDFB032011B041E60F
:100BF00001694A1C02610878704700B58FB0CDE9E1
:100C000001310021059105497944CDE903101146D0
:100C10006846FFF749FC0FB000BD0000E5FFFFFF8D
:100C200010B5436913B1AFF3008001E0FFF7ABFBF0
:100C3000012010BD127800F124010A7000224A70D0
:100C40000122EDE711684FF0FF32E9E7074B70B57D
:100C50000D467B44FFF7D1FF0446284600F058F9C3
:100C600010B14FF0FF3070BD204670BD8F400000C6
:100C700010B5203AC0F00B80B1E81850203AA0E837
:100C80001850B1E81850A0E81850BFF4F5AF5FEA6B
:100C9000027C24BFB1E81850A0E8185044BF18C91E
:100CA00018C0BDE810405FEA827C24BF51F8043BC5
:100CB00040F8043B08BF7047D20728BF31F8023B19
:100CC00048BF11F8012B28BF20F8023B48BF00F8AD
:100CD000012B70474FF000020429C0F0128010F081
:100CE000030C3FF4F4ACCCF1040CBCF1020F18BFC0
:100CF00000F8012BA8BF20F8022BA1EB0C01FFF795
:100D0000E6BC5FEAC17C24BF00F8012B00F8012B90
:100D100048BF00F8012B704700487047506800201A
:100D200030B5B0F10A024FEA900E71F100034EEABD
:100D3000817EB0EB0E0061EB91014FEA101E4EEA8E
:100D4000017E10EB0E0041EB11114FEA102E4EEA1E
:100D5000016E10EB0E0041EB11214FEA104E4EEAEE
:100D6000014E10EB0E0041EB1141401841F1000122
:100D70004FEAD00040EA41704FEAD10110EB800504
:100D80004FEA810444EA907444EB01046D1944EB8A
:100D90000404521BA3414FF0000348BF0A3200D5A0
:100DA00030BD401C41F1000130BD00002DE9F04193
:100DB0001F46044603260168072A01F4006004DB8D
:100DC00008B116A505E016A503E008B115A500E0D9
:100DD00015A521F010002060A069C01EA0610FB110
:100DE000401EA0612046FFF7A7FA4FB1D4E90121C8
:100DF00038469047206A401C2062C01C206206E0F2
:100E0000206AFAE7D4E9012115F8010B9047761E14
:100E1000F8D22046FFF7A6FABDE8F0814E414E0019
:100E20006E616E00494E4600696E66002DE9F0471E
:100E3000814616468AB0354878440DC88DE80D00C5
:100E400032487844801C03AC0DC884E80D0041F69C
:100E50009B300844372190FBF1F290FBF1F5A5F1AE
:100E6000800501FB12041B3C02D56442012000E016
:100E70000020DFF898A080460027FA44AAF1BE0AB5
:100E80000EE0E0070AD03246684607EB470101232F
:100E90000AEB810100F043FB8DE8070064107F1C22
:100EA000002CEED1194F7F44AE3F19E0E80715D072
:100EB00007EB04100DF1180A90E80E008AE80E0006
:100EC000C068F04201D1981908903246012306A962
:100ED00003A800F024FB03AB83E807006D10641C3B
:100EE000002DE3D14FF0010332466946B8F1000FFF
:100EF00003A802D000F0FEFA01E000F010FBC9E9FF
:100F00000001C9F808200AB0BDE8F08710C600004B
:100F1000007B00F080007047004870473068002078
:100F20007546FFF7F9FFAE4605006946534620F0C7
:100F30000700854618B020B5FFF7DEF9BDE8204070
:100F40004FF000064FF000074FF000084FF0000B85
:100F500021F00701AC46ACE8C009ACE8C009ACE838
:100F6000C009ACE8C0098D46704710B50446AFF320
:100F700000802046BDE81040FFF75DB94FF0013C0E
:100F800050F8042B51F8043B9A4221D1A2EB0C03F8
:100F9000934313EACC1317D150F8042B51F8043BB8
:100FA0009A4215D1A2EB0C03934313EACC130BD155
:100FB00050F8042B51F8043B9A4209D1A2EB0C03E0
:100FC000934313EACC13DBD04FF00000704700BF0F
:100FD000D01A01BAB1FA81F101F0180122FA01F038
:100FE000CB40C1F12001DBB2C0B2C01A2CFA01F330
:100FF000D11A914311EAC311E6D170475FEA400C60
:1010000008BF91F0000F4FEA8C234FEAC12243EA58
:1010100051514FEA1C5018BF00F5F0404FEA300024
:1010200018BF41F000415FEA6C5C00F02980BCF120
:10103000FF3F08BF40F080407047130C06BF12040A
:101040004FF0100C4FF0000C130E04BF12020CF105
:10105000080C130F04BF12010CF1040C930F04BF12
:1010600092000CF1020CD30F04BF52000CF1010CE2
:1010700011464FF00002A0F11F00A0EB0C007047DA
:1010800011F0004F08BF704731F000413FF4D5AF79
:101090000B0C06BF09044FF0100C4FF0000C0B0EA8
:1010A00004BF09020CF1080C0B0F04BF09010CF17D
:1010B000040C8B0F04BF89000CF1020CCB0F04BF92
:1010C00049000CF1010CCCF12003A0EB0C0022FA3A
:1010D00003F302FA0CF241EA030100F10100704748
:1010E00020F07F4C80EA030023F07F47ACEB07033E
:1010F00003F57C5300F0004003F1FF032DE9804924
:101100004FEA154B09B44FEA144325EA0B4E24EA83
:1011100003480FF2042606EB132749083E785FEADE
:10112000320203FB0667C7F5000707FB06F64FEA26
:1011300054374FEAD64606F1020607FB066CCCF19F
:10114000005C4FEA1C472CEA074C07FB06F40CFB3B
:1011500006F504EB15464FEA961634BF00204FF013
:1011600000404FEAD13706FB07FC4FEA1C4C0CFB52
:101170000BF7D21B03FB0CF761EB07010CFB0EF71F
:10118000B0EB074072EB17420CFB08F734BFA2EB41
:101190000742B2EB074261EB17414FEA0C444FEABA
:1011A000910706FB07FC4FEA1C4C0CFB0BF7B0EB5E
:1011B000C74072EB573203FB0CF734BFA2EBC742B8
:1011C000B2EBC74261EB57310CFB0EF7B0EBC70037
:1011D00072EB57720CFB08F734BFA2EBC702B2EBFD
:1011E000C70261EB5771039F4FEA816141EA921197
:1011F00004EBCC044FEAD1374FEA826206FB07FCCE
:1012000042EA90124FEA80604FEA1C4C0CFB0BF74D
:10121000D21B03FB0CF761EB07010CFB0EF7B0EBE5
:10122000074072EB17420CFB08F734BFA2EB0742F2
:10123000B2EB074261EB17414FEA8C554FEA910739
:1012400004EB9C2406FB07FC4FEA1C4C0CFB0BF741
:10125000B0EBC74072EB573203FB0CF734BFA2EB85
:10126000C742B2EBC74261EB57310CFB0EF7B0EB54
:10127000C70072EB57720CFB08F734BFA2EBC70232
:10128000B2EBC70261EB577115EB4C254FEA816158
:1012900041EA92114FEA82624FEAD13742EA901254
:1012A00006FB07FC44F100044FEA80604FEA1C4C47
:1012B0000CFB0BF7D21B03FB0CF761EB07010CFBDC
:1012C0000EF7B0EB074072EB17420CFB08F734BF88
:1012D000A2EB0742B2EB074261EB174115EB1C157D
:1012E0004FEA813141EA92414FEA823242EA90422A
:1012F0004FEA80304FEA0C7644F1000448EA034399
:101300004EEA0B484FF0000EB2EB080C71EB0307EE
:1013100024BF624639464EEB0E0E4FF0000B00180C
:10132000524149414BEB0B0BB2EB080C71EB03073D
:101330007BF1000B24BF624639464EEB0E0E4FF098
:10134000000B0018524149414BEB0B0BB2EB080C60
:1013500071EB03077BF1000B24BF624639464EEB6D
:101360000E0E51EA020718BF46F0010616EB0E7684
:1013700055F1000254F1000103D5BDE88901BDE833
:101380000088BDE88901BDE80048B619524141EB2B
:101390000101A3F10103704780807F7E7D7C7B7A11
:1013A0007978777676757473727171706F6E6E6D11
:1013B0006C6C6B6A6A6968686766666564646363B7
:1013C00062616160605F5F5E5E5D5D5C5C5B5B5A3D
:1013D0005A595958585757565655555554545353AA
:1013E00052525251515050504F4F4F4E4E4D4D4D05
:1013F0004C4C4C4B4B4B4A4A4A4949494848484750
:10140000474747464646454545444444444343438D
:101410004342424242414141002B9C4630D4770036
:101420002BD01CB54FEA370703B44FF010004FF034
:101430001001BAF1000F06D0BCF1000FDCBF40F084
:10144000080040F008014FF000000FBCBDE810405C
:101450000BF1010BBBF1010F08BF5FEA170722BFB9
:1014600012F1010211F101014FF0004143F10003BB
:1014700000F0004043EA00007047F9D35708D0E776
:1014800046EA064613F1400F4FEA16461FDD13F1F8
:10149000200FDFBF16430A46002120335B42BED037
:1014A000C3F1200746EA064602FA07F74FEA164656
:1014B00046EA0706C3F1200722FA03F201FA07F70A
:1014C00021FA03F14FF0000342EA0702A7E746EAD8
:1014D000020646EA06464FEA164646EA0106BCBF41
:1014E00046EA0646360C4FF000034FF000024FF07C
:1014F000000194E72DE9804C9A46934670B491E838
:10150000380007C831EA400C48BF34EA430C03D521
:10151000FFF7E6FDFFF780FFF0BCBDE8008C2DE98A
:10152000804C9A46934670B491E8380007C810F092
:10153000804F08BF13F0804F03D100F005F8FFF78C
:101540006BFFF0BCBDE8008C20F07F4780EA030011
:1015500023F07F4C07EB0C03A3F57C5300F0004015
:10156000A3F1FE0392F0000F00F0B38095F0000F9E
:1015700000F077802DE901494FEA11404FEA144607
:1015800021EA004800FB06FC24EA064708FB06F6B1
:1015900007FB08F800FB07F718EB06484CEB164C66
:1015A0004FEA124B18EB07484FEA15464CEB174031
:1015B00022EA0B4E0BFB06FC25EA06470EFB06F65D
:1015C00007FB0EFE0BFB07F71EEB064E4CEB164C13
:1015D0004FF000061EEB074E4CEB174B18EB0B08B9
:1015E00040F1000018EB0E0B58EB000840F1000032
:1015F0008F1A4FF000013CBFC943661B14BFB5EB07
:10160000040C00213CBFC943F61B4FEA17444EEAC5
:101610008E0E27EA04454FEA1C4704FB07622CEABA
:10162000074C05FB07F70CFB05F604FB0CFC16EB5F
:10163000074642EB174216EB0C4642EB1C421BEBF3
:10164000060658EB0202414146EA9E0601D5BDE876
:101650000189B619524141EB0101A3F10103BDE833
:1016600001894FEA14454FEA114724EA054621EA69
:10167000074C05FB07F406FB07F70CFB06F105FB1F
:101680000CFC11EB074144EB17444FEA124711EBF6
:101690000C4144EB1C4422EA074C05FB07F206FB15
:1016A00007F70CFB06F605FB0CFC16EB074642EBB6
:1016B000174216EB0C4642EB1C456A1854F1000128
:1016C00048BF7047B619524141EB0101A3F1010334
:1016D000704795F0000F37D04FEA11424FEA144798
:1016E00021EA024624EA074C02FB07F106FB07F752
:1016F0000CFB06F402FB0CFC14EB074441EB174116
:101700004FEA154714EB0C4441EB1C4125EA074C0A
:1017100002FB07F506FB07F70CFB06F602FB0CFCC9
:1017200016EB074645EB174516EB0C4645EB1C42FE
:10173000121951F1000148BF7047B619524141EBEF
:101740000101A3F1010370474FEA14454FEA114725
:1017500024EA054621EA074C05FB07F106FB07F7DB
:101760000CFB06F24FF0000605FB0CFC12EB0742E7
:1017700041EB174112EB0C4251EB1C4148BF704743
:10178000921841EB0101A3F10103704721B1826876
:1017900042F00102826003E0826822F0010282606E
:1017A000704721B1826842F48072826003E08268EF
:1017B00022F480728260704710B504461248844259
:1017C00008D10121401501F01FFB0021601501F037
:1017D0001BFB17E00D48844208D10121001501F0E0
:1017E00013FB0021201501F00FFB0BE00848844299
:1017F00008D10121C80301F007FB00214FF400408C
:1018000001F002FB10BD000000240140002801404F
:10181000003C0140014600208A6802F004020AB13F
:10182000012000E000207047014600208A6802F095
:1018300008020AB1012000E00020704730B50246DE
:101840000020002350680F4C20400D790C6844EABA
:1018500005242043506090680B4C2040D1E902548D
:101860002C434D7944EA450420439060D06A20F42B
:1018700070000C7C641EE4B2234340EA0350D06243
:1018800030BD0000FFFEF0FFFDF7F1FFF0B50446AC
:101890000D4600200021092D11DDE068A5F10A06A2
:1018A00006EB4607072606FA07F18843A5F10A0664
:1018B00006EB460603FA06F10843E0600CE02069F7
:1018C00005EB4507072606FA07F1884305EB4506B1
:1018D00003FA06F108432061072A0FDA606B561EEF
:1018E00006EB86071F2606FA07F18843561E06EB0D
:1018F000860605FA06F10843606322E00D2A0FDA36
:10190000206BD61F06EB86071F2606FA07F18843D1
:10191000D61F06EB860605FA06F10843206310E0A1
:10192000E06AA2F10D0606EB86071F2606FA07F10C
:101930008843A2F10D0606EB860605FA06F1084378
:10194000E062F0BD816841F008018160704721B11B
:10195000826842F4A002826003E0826822F4A0025E
:1019600082607047816841F0040181607047000027
:1019700010B5642300221146354801F053F90128BF
:101980002CD13448008A0A2190FBF1F032490988B1
:101990000844314908802F48408A0A2190FBF1F021
:1019A0002E49098808442D4908802A4880880A2140
:1019B00090FBF1F02A490988084429490880254804
:1019C000808A0A2190FBF1F02649098808442549BC
:1019D000088025480078401C234908702248007878
:1019E0000A2834DB1C480088B0F5966F01DD012021
:1019F00000E0002019490988B1F5966F01DD012149
:101A000000E00021084316490988B1F5966F01DD11
:101A1000012100E00021084312490988B1F5966FC1
:101A200001DD012100E00021084328B100210F4819
:101A3000C1700FA0FEF774FC002007490880074919
:101A4000088007490880074908800749087010BDC9
:101A5000E41300202014002066000020680000200D
:101A60006A0000206C000020640000204403002075
:101A7000B5E7BBFABFA8D7A1C1CB0D0A0000000093
:101A800010B5B6217E2000F0D3F94FF4FA7002F0C1
:101A9000B9FE06E04FF47A7002F0B4FE11A0FEF732
:101AA0003FFC00F081F9D128F4D10321412000F05E
:101AB000BFF9642002F0A6FE2C21422000F0B8F904
:101AC000642002F09FFE0321432000F0B1F964205E
:101AD00002F098FE09A0FEF723FC01200E490870D1
:101AE00010BD0000424D4931363020494E49542046
:101AF0004552522121210D0A00000000424D49317A
:101B0000363020494E4954205355434345535321C1
:101B100021210D0A00000000C000002070B504461D
:101B20004FF48051084800F03AFF44F0800001F083
:101B3000E5F9FF2001F0E2F905464FF48051024833
:101B400000F02FFF284670BD000C01402DE9F04F3A
:101B50008BB000200790069011217E2000F068F9DC
:101B6000052002F06FFE1220FFF7D8FF0446132075
:101B7000FFF7D4FF44EA00240FFA84FB1420FFF798
:101B8000CDFF81461520FFF7C9FF49EA00290FFA6A
:101B900089F009901620FFF7C1FF82461720FFF752
:101BA000BDFF4AEA002A0FFA8AF0089008980AF066
:101BB000F8FCCDE9020158460AF0F3FCCDE900013A
:101BC000DDE9022302F02AFD074600221D4B0AF040
:101BD0004FFD1D4A1D4BCDE904010AF05BFB054694
:101BE0000AF0B0FC40B2079008980AF0DAFC074609
:101BF000884609980AF0D5FC3A464346CDE90001EB
:101C000002F00CFD054600220E4B0AF031FD0E4A93
:101C10000E4BCDE902010AF03DFBCDE904010AF0CB
:101C200091FC40B2069007980BF018F9054601F0B8
:101C3000C7F906980BF012F9054601F0CDF90BB083
:101C4000BDE8F08F008066406E861BF0F9210940E8
:101C50002DE9F04F93B000200E9000F035FF0E906C
:101C600015217E2000F0E4F80A2002F0EBFD0C20A4
:101C7000FFF754FF04460D20FFF750FF44EA00240D
:101C800020B21190FA211198484347F6FF7190FB5A
:101C9000F1F000B211900E20FFF740FF81460F20B7
:101CA000FFF73CFF49EA00290FFA89F01090FA216A
:101CB0001098484347F6FF7190FBF1F000B2109086
:101CC0001020FFF72BFF82461120FFF727FF4AEA7B
:101CD000002A0FFA8AF00F902A4800780AF078FC60
:101CE000CDE908010F980BF0B9F8019026488168FA
:101CF00001980BF011FA83460AF0E4FE0746002231
:101D0000224B0AF0B5FC0022214BCDE902010AF07A
:101D1000C1FA204A204BCDE904010AF0A9FCCDE923
:101D20000601DDE908230AF0A3FCCDE90C010E98B9
:101D30000AF0C8FECDE90A01DDE90C230AF0EEF94C
:101D400005460AF0B9F90E9000200E4908701349B3
:101D50000E980BF0AFF905D211490E980BF0DCF993
:101D60000E9009E00F490E980BF0A4F804D80C4926
:101D70000E980AF0D3FE0E900E9801F051F913B0B0
:101D8000BDE8F08F3A0000203C14002000406F4076
:101D9000C0FFDF407B14AE47E17A743F000034435C
:101DA0000000B443000034C310B500240020FFF746
:101DB000B5FE0446204610BD2DE9F84F15217E20C2
:101DC00000F036F8642002F03DFD0C20FFF7A6FE7F
:101DD00004460D20FFF7A2FE44EA002427B20E209D
:101DE000FFF79CFE05460F20FFF798FE45EA002509
:101DF0000FFA85F81020FFF791FE06461120FFF735
:101E00008DFE46EA00260FFA86F948460BF026F8C2
:101E1000824640460BF022F8834638460BF01EF807
:101E200052465946009006F085F9BDE8F88F00004B
:101E300070B504460D464FF48051084800F0AFFDE0
:101E400004F07F0001F05AF8284601F057F84FF4EB
:101E50008051024800F0A5FD70BD0000000C01405B
:101E600000BFFEE71CB500200190022000F000F941
:101E700001280FD1022000F021F800210648FFF7C9
:101E800085FC01A80023022201210090034800687C
:101E900009F0AAFD1CBD000000240140A4000020A0
:101EA00000F0805111B10349086001E00249486027
:101EB00070470000040402400000024000F080511E
:101EC00011B10349086001E0024948607047000011
:101ED000040402400000024021B1026842F0010205
:101EE000026004E002684FF6FE731A400260704719
:101EF00001684FF6FE7211400160002101604160EF
:101F00008160C1604B49884208D14A490839496813
:101F100041F00F01474A083A51608AE045491431BF
:101F2000884208D143490839496841F0F001414AE3
:101F3000083A51607DE03F492831884208D13D4947
:101F40000839496841F470613A4A083A516070E0D2
:101F500038493C31884208D136490839496841F44A
:101F60007041344A083A516063E032495031884246
:101F700008D130490839496841F470212D4A083A9E
:101F8000516056E02B496431884208D1294908390B
:101F9000496841F47001274A083A516049E02549EF
:101FA0007831884208D123490839496841F0706185
:101FB000204A083A51603CE01F49884206D1011F7F
:101FC000096841F00F01021F116032E01A49143113
:101FD000884208D11849091F096841F0F001164AE2
:101FE000121F116025E014492831884208D1124996
:101FF000091F096841F470610F4A121F116018E04F
:102000000D493C31884208D10B49091F096841F448
:102010007041094A121F11600BE007495031884294
:1020200007D10549091F096841F47021024A121FAE
:1020300011607047080002400804024001464868E9
:1020400080B2704701460020002201F0805313B196
:10205000054B1A6801E0054B1A6802EA01030BB14F
:10206000012000E000207047000402400000024010
:1020700001460020002201F0805313B1054B1A687D
:1020800001E0054B1A6802EA01030BB1012000E0F0
:102090000020704700040240000002401AB10368AB
:1020A0000B43036002E003688B430360704710B585
:1020B0000022026847F6F0739A430C6A8B68234348
:1020C0000C6923434C6923438C692343CC69234324
:1020D0004C6A23438C6A23431A430260CB684360F3
:1020E0000B6883604B68C36010BD000010B535A05D
:1020F000FEF716F934480088411C34A0FEF710F9A9
:102100003148001F0088411C34A0FEF709F92E4811
:102110002C3801F081FD441C214633A0FEF700F964
:102120002948001F0088401C334991FBF0F42146E8
:1021300032A0FEF7F5F824482C3801F06DFD401C64
:102140006421484320490988491C90FBF1F4214649
:102150002EA0FEF7E5F81BA0FEF7E2F82F488188D5
:102160002FA0FEF7DDF82D48018832A0FEF7D8F841
:102170002A48C18834A0FEF7D3F82848418837A000
:10218000FEF7CEF80FA0FEF7CBF83948417839A01A
:10219000FEF7C6F83648C1783CA0FEF7C1F83448CF
:1021A000817840A0FEF7BCF83148017943A0FEF7E2
:1021B000B7F82F48017847A0FEF7B2F801A0FEF764
:1021C000AFF810BD0D0A00002C0800405072657376
:1021D00063616C65723A2025640D0A00706572694E
:1021E0006F642025640D0A0050756C73653A2025D4
:1021F00064200D0A0000000040190100C6B5C2CAE3
:1022000020A3BA2564200D0A00000000D5BCBFD56C
:10221000B1C8202564202525200D0A00B800002023
:10222000D7F3C7B04144D6B52020202564200D0A3D
:1022300000000000D7F3BAF34144D6B52020202592
:1022400064200D0A00000000D3D2C7B04144D6B5C7
:102250002020202564200D0A00000000D3D2BAF30C
:102260004144D6B52020202564200D0A0D0A000027
:10227000B2000020D7F3C7B0D0FCBFD5B1EAD6BEBC
:10228000203A202564200D0A00000000D7F3BAF39D
:10229000D0FCBFD5B1EAD6BE2020202564200D0A8F
:1022A00000000000D3D2C7B0D0FCBFD5B1EAD6BE83
:1022B0002020202564200D0A00000000D3D2BAF3AC
:1022C000D0FCBFD5B1EAD6BE2020202564200D0A5F
:1022D00000000000C8CED2E2D2BBB8F6B5D8BCEC44
:1022E000BCECB2E2B5BDD0FCBFD5202020202564D7
:1022F000200D0A0001460A2900DC09B900207047B8
:102300002420214A10700B293CD2DFE801F03B0663
:102310000B10151A1F24292F350005201A4A507159
:102320000620ECE70920184A50720A20E7E70D2042
:10233000154A50730E20E2E71120134A5074122000
:10234000DDE71520104A50751620D8E719200E4AEF
:1023500050761A20D3E71D200B4A50771E20CEE777
:102360002120094A82F821002220C8E72520064AB8
:1023700082F825002620C2E72920034A82F8290096
:102380002A20BCE70020BAE70468002013B50C46F9
:102390000A2C00DC04B91CBD0B2C43D2DFE804F08E
:1023A00042060C12181E242A30363C0001221F4916
:1023B000684600F0E9F935E005221C49684600F05E
:1023C000E3F92FE009221949684600F0DDF929E018
:1023D0000D221649684600F0D7F923E0112213496F
:1023E000684600F0D1F91DE015221049684600F05A
:1023F000CBF917E019220D49684600F0C5F911E044
:102400001D220A49684600F0BFF90BE02122074966
:10241000684600F0B9F905E025220449684600F055
:10242000B3F900BF00BF00BFB5E70000046800209B
:10243000704700001C48007800B31B48C1781B4857
:10244000407A61F3041019494872174841781748D7
:10245000407A61F3C3001549487213480179134863
:10246000407A61F38610114948720F4881780F480D
:10247000407A61F345100D49487214E00B48407AE8
:1024800020F0100109484172407A20F00801074805
:102490004172407A20F0400104484172407A20F0B5
:1024A0002001024841727047B2000020440300201E
:1024B00010B54FF4005000F009F9012805D1400390
:1024C00000F0FEF80CA0FDF72BFF4FF4806000F049
:1024D000FDF801280FD1800200F0F2F80C480168E5
:1024E0000C48827A61F341028272807AC0F3400123
:1024F00009A0FDF715FF10BD455854495F4C696EA2
:102500006531332020B5E7B3D8B4EDCEF30D0A0022
:102510002881224244030020455854495F4C696E8B
:1025200065313020D3D2C5F6D7B2202564200D0AFC
:102530000000000010B5022000F0C8F8012810D1FA
:10254000022000F0BDF8074800680749497A60F3A7
:10255000820105484172407AC0F3800103A0FDF773
:10256000DFFE10BD04812242440300204558544937
:102570005F4C696E653120D3D2C2D6D0FCBFD52066
:102580002564200D0A00000010B5042000F09EF81C
:10259000012810D1042000F093F80748006807498B
:1025A000497A60F3410105484172407AC0F3400125
:1025B00003A0FDF7B5FE10BD0881224244030020B0
:1025C000455854495F4C696E653220D7F3C2D6D066
:1025D000FCBFD5202564200D0A00000010B508209E
:1025E00000F074F8012805D1082000F069F802A075
:1025F000FDF796FE10BD0000455854495F4C696ECA
:10260000653320B3E4B5E7D7F9C0EBBFAA0D0A00E4
:1026100010B54FF4807000F059F801280FD1000276
:1026200000F04EF81B4801681B48827A61F30002F3
:102630008272807A00F0010118A0FDF771FE8020FF
:1026400000F044F820B3802000F03AF880211948C7
:1026500000F09CF9B0B11848008818490880084675
:1026600000884988884209DD144800881349498850
:10267000401A124988800120887109E000200F4922
:10268000887110BD00200D4988710B480088488072
:1026900000BFF6E7208122424403002045585449F8
:1026A0005F4C696E653820D7F3C5F6D7B220256434
:1026B000200D0A00001001402414004032000020C8
:1026C00001490860704700001404014001460020E1
:1026D0000022074B1B6803EA0102054B14331B68F9
:1026E0000B4013B10AB1012000E000207047000048
:1026F00000040140002123498279002A3AD00A4689
:10270000126803689A430B461A600A1D1268036830
:102710009A430B1D1A60027911440A6803681A4330
:102720000A60184A0832126803689A43154B083346
:102730001A601A1D126803689A43124B0C331A6010
:102740004279102A0ED11A1F126803681A430D4BE2
:1027500008331A601A1D126803681A43094B0C33B8
:102760001A600DE00749427911440A6803681A4368
:102770000A6005E0027911440A6803689A430A6016
:10278000704700000004014030B503461C788C54AB
:102790005D78541C0D559D78941C0D55DD78D41C26
:1027A0000D5530BD30B500228B071C0F0F2303FAE7
:1027B00004F20B4B8C1053F824309343084C8D10CB
:1027C00044F8253023468C1053F824308C07240F0E
:1027D00000FA04F42343024C8D1044F8253030BD38
:1027E000080001402DE9F0410246002500260020A6
:1027F00000230024002791F803C00CF00F0591F886
:1028000003C00CF0100CBCF1000F03D091F802C013
:102810004CEA050591F800C0BCF1000F31D01468F6
:1028200000202BE04FF0010C0CFA00F3B1F800C0CF
:102830000CEA03069E4220D183004FF00F0C0CFAE5
:1028400003F7BC4305FA03FC4CEA040491F803C007
:10285000BCF1280F06D14FF0010C0CFA00FCC2F8B5
:1028600014C00AE091F803C0BCF1480F05D14FF045
:10287000010C0CFA00FCC2F810C0401C0828D1D38F
:102880001460B1F800C0BCF1FF0F34DD54680020C3
:102890002EE000F1080C4FF0010808FA0CF3B1F833
:1028A00000C00CEA03069E4221D183004FF00F0CBA
:1028B0000CFA03F7BC4305FA03FC4CEA040491F854
:1028C00003C0BCF1280F05D100F1080C08FA0CF880
:1028D000C2F8148091F803C0BCF1480F07D100F191
:1028E000080C4FF0010808FA0CF8C2F81080401CE0
:1028F0000828CED35460BDE8F0810000F0B50A4648
:10290000002300240021002500F00046B6F1004F0E
:1029100002D11D4EF16901E01B4E7168C0F3034501
:1029200083B200F44016B6F5401F08D121F0706163
:10293000154E766826F07066134F7E6012E000F444
:102940008016B6F5801F06D1032606FA05F4A143CA
:1029500041F0706106E0460D360103FA06F6B14318
:1029600041F0706122B1460D360103FA06F631439B
:1029700000F00046B6F1004F02D1034EF16101E0D4
:10298000014E7160F0BD00000000014002460020D1
:1029900093680B400BB1012000E0002070474161BB
:1029A00070470161704700001FB5002400200090AF
:1029B00001900290039000BF3FE0012007F0A4FEC9
:1029C0003E49098BA1F50060002801DB014600E0CB
:1029D00041420A2291FBF2F1029A114402913749D5
:1029E000C988A1F50060002801DB014600E04142F2
:1029F0000A2291FBF2F1039A114403912F49C98AEB
:102A0000A1F50060002801DB014600E041420A22F6
:102A100091FBF2F1009A1144009128498989A1F5AE
:102A20000060002801DB014600E041420A2291FBE0
:102A3000F2F1019A11440191641C0A2CBDDB029849
:102A40000F2801DC012000E000201D494870039898
:102A50000F2801DC012000E000201949887000984F
:102A60000F2801DC012000E000201549C870019802
:102A70000F2801DC012000E0002011490871084600
:102A80004078897808430E49C97808430C49097988
:102A9000084308B1012000E00020094908700949F5
:102AA0000398C88001984880029888800098088020
:102AB000002000900190029003901FBD2014002080
:102AC000B2000020B8000020014880687047000074
:102AD000AC140020024B0ECB80E80E0070470000C3
:102AE000D806002000BFFEE710B500200F4908609F
:102AF0000F48006820F070400D49086008460068E3
:102B000040F04050086000200A49C1F89C010220B2
:102B100001F098FE012005490860022001F092FEB4
:102B200000200449C1F8980110BD0000988121429D
:102B3000000C01400080214210B500200F490860C0
:102B40000F48006820F070400D4908600846006892
:102B500040F04050086001200A49C1F89C01022061
:102B600001F070FE012005490860022001F06AFEB4
:102B700000200449C1F8980110BD0000988121424D
:102B8000000C01400080214210B50F48006820F081
:102B900070400D4908600846006840F040500860E9
:102BA00001200A4908600A49C1F89801042001F08F
:102BB00049FE002005490860042001F043FE002082
:102BC0000349C1F8980110BD000C01409C812142CD
:102BD0000080214210B50F48006820F070400D4978
:102BE00008600846006840F04050086000200A492C
:102BF00008600A49C1F89C01042001F023FE01206D
:102C0000054908600549C1F89C01042001F01AFE3D
:102C100010BD0000000C014098812142008021423B
:102C200000BFFEE72DE9F04F85B004468B46914684
:102C30009A4602A8FFF74EFF3C21A068A0FB013096
:102C40006168591840F100034FF47A7C0022A1FB1F
:102C50000C0E03FB0CE301FB02332188451843EB08
:102C600002063C210498A0FB013103981A1841F197
:102C7000000C4FF47A730021A2FB030E0CFB03E35C
:102C800002FB0133BDF80810471843F100083C204F
:102C9000ABFB002012EB090140F1000C4FF47A73FA
:102CA0000022A1FB030E0CFB03E301FB02320346EF
:102CB000104613EB0A0240F10000CDE900207B1B17
:102CC00068EB0601DDE90002C01A8A410AD20498C5
:102CD000A06003986060BDF808002080012005B066
:102CE000BDE8F08F0020FAE77047000070B50021C2
:102CF00000230F22C47804B3154C246804F4E06464
:102D0000C4F5E064210AC1F10403CA40447804FA1E
:102D100003F184781440214309010E4C0678A15533
:102D2000047804F01F050124AC4005786D11AD0056
:102D300005F1E025C5F8004109E0047804F01F051D
:102D40000124AC40044D0678761145F8264070BD4C
:102D50000CED00E000E400E080E100E00249014306
:102D6000024A1160704700000000FA050CED00E017
:102D700001460020034A506820F440400843506058
:102D8000704700000010024029B1064A5269024310
:102D9000044B5A6104E0034A52698243014B5A6171
:102DA000704700000010024029B1064AD269024370
:102DB000044BDA6104E0034AD2698243014BDA61D1
:102DC000704700000010024029B1064A1269024310
:102DD000044B1A6104E0034A12698243014B1A61F1
:102DE000704700000010024029B1064A9269024370
:102DF000044B9A6104E0034A92698243014B9A6151
:102E0000704700000010024029B1064AD268024310
:102E1000044BDA6004E0034AD2688243014BDA6073
:102E2000704700000010024030B50021002200244D
:102E300000232D4D6D6805F00C0121B1042905D04A
:102E4000082923D105E0294D056022E0274D0560C2
:102E50001FE0254D6D6805F47012234D6D6805F473
:102E60008034022505EB92421CB9214D5543056083
:102E70000BE01D4D6D6805F400351DB11C4D55432B
:102E8000056002E0194D5543056002E0174D0560ED
:102E900000BF00BF144D6D6805F0F0010909154D24
:102EA0006B5C0568DD4045600F4D6D6805F4E061C1
:102EB000090A104D6B5C4568DD4085600A4D6D6800
:102EC00005F46051C90A0B4D6B5C4568DD40C56077
:102ED000054D6D6805F44041890B074D6B5CC56875
:102EE000B5FBF3F5056130BD0010024000127A0019
:102EF00000093D005C0100206C01002070B5054612
:102F0000002405E0601CC4B2C82C01DD002070BDA7
:102F100002210E4800F028F80028F3D029460B487B
:102F200000F02EF8002405E0601CC4B2C82C01DDBE
:102F30000020ECE70121054800F016F80028F3D046
:102F4000024800F01AF8C0B2E1E700000038004083
:102F500021B1028842F04002028004E002884FF66C
:102F6000BF731A40028070470246002013890B404D
:102F70000BB1012000E000207047014688897047AE
:102F80008181704710B50022028802F441520B88FB
:102F90004C8823438C882343CC8823430C892343C8
:102FA0004C8923438C892343CC8923431A430280D1
:102FB000838B4FF2FF74234083830B8A038210BDFF
:102FC00010B50446204609F00DFF40B201490870D3
:102FD00010BD0000D400002010B50446204609F0C2
:102FE00001FF40B20149487010BD0000D40000202C
:102FF00010B50446204609F0F5FE40B2014988703C
:1030000010BD0000D4000020014908607047000096
:10301000AC1400200149486070470000AC14002047
:103020000149886070470000AC1400200149087015
:1030300070470000E600002010B500F001F810BD58
:103040000CB50020019000903348006840F48030B7
:103050003149086000BF3048006800F4003000903B
:103060000198401C0190009818B90198B0F5A06F24
:10307000F1D12948006800F4003010B1012000901F
:1030800001E0002000900098012843D12348006807
:1030900040F01000214908600846006820F0030055
:1030A00008600846006840F0020008601A4840685E
:1030B000194948600846406848600846406840F43E
:1030C000806048600846406820F47C1048600846EC
:1030D000406840F4E81048600846006840F080709E
:1030E000086000BF0C48006800F000700028F9D0AC
:1030F0000948406820F003000749486008464068D6
:1031000040F00200486000BF0348406800F00C0037
:103110000828F9D10CBD0000001002400020024038
:103120002DE9FF4F85B09A46DDE9124902A8FFF765
:10313000D1FC3C210798A0FB01300699591840F1B9
:1031400000004FF47A7C0022A1FB0C3B00FB0CB08A
:1031500001FB0200BDF814105D1840EB02063C2193
:103160000498A0FB013103981A1841F1000361464D
:103170004FF0000CA2FB010B03FB01B102FB0C138F
:10318000BDF80810471843EB0C083C20AAFB0010C0
:103190000A1940F1000C4FF47A730021A2FB030BD3
:1031A0000CFB03B302FB0133024612EB090243EBB3
:1031B0000100CDE900207B1B68EB0600DDE9001271
:1031C000C91A824103D2012009B0BDE8F08F002066
:1031D000FAE7042808D14FF0E021096941F0040121
:1031E0004FF0E022116107E04FF0E021096921F082
:1031F00004014FF0E0221161704710B508F09EFC09
:10320000012801D008F074F810BD000010B5134873
:10321000006840F001001149086008464068104904
:1032200008400E494860084600680E4908400B49AE
:1032300008600846006820F480200860084640685E
:1032400020F4FE0048604FF41F008860FFF7F4FE92
:103250004FF000600449086010BD000000100240FB
:103260000000FFF8FFFFF6FE08ED00E0F0B50C46A9
:10327000154600220021068C4FF6FE773E4006845C
:10328000028B018C4FF60C7632407E1C06EA031648
:103290002E433243104EB0420ED0104EB0420BD0EF
:1032A000B0F1804F08D00E4EB04205D00D4EB04266
:1032B00002D00D4EB04206D14FF6FD76314044F0BB
:1032C0000106314305E04FF6F576314044F0010642
:1032D000314302830184F0BD002C014000340140E1
:1032E0000004004000080040000C0040F0B50C460F
:1032F0001546002200210026078C4FF6EF7C07EAD6
:103300000C070784028B018C4FF6FF7707EA04163F
:1033100040F6FF473A404FF6FF7707EA03373A4354
:103320004FF6FF7707EA05273A43114FB8420ED010
:10333000104FB8420BD0B0F1804F08D00E4FB842BA
:1033400005D00E4FB84202D00D4FB84206D14FF60D
:10335000DF77394046F01007394305E04FF65F77D5
:10336000394044F01007394302830184F0BD000066
:10337000002C0140003401400004004000080040DF
:10338000000C0040F0B50C46154600220021002636
:10339000078C4FF6FF6C07EA0C070784828B018CC1
:1033A0004FF6FF7707EA04264FF60C773A404FF6C0
:1033B000FF7707EA03172F433A43114FB8420ED065
:1033C000104FB8420BD0B0F1804F08D00E4FB8422A
:1033D00005D00E4FB84202D00D4FB84206D14FF67D
:1033E000FF57394046F48077394305E04FF2FF57E5
:1033F000394044F48077394382830184F0BD000072
:10340000002C01400034014000040040000800404E
:10341000000C0040F0B50C461546002200210026A5
:10342000078C4EF6FF7C07EA0C070784828B018C21
:103430004FF6FF7707EA043640F6FF473A404FF66B
:10344000FF7707EA05273A434FF6FF7707EA033786
:103450003A43114FB8420ED0104FB8420BD0B0F1E2
:10346000804F08D00E4FB84205D00E4FB84202D060
:103470000D4FB84206D14DF6FF77394046F48057DC
:10348000394305E047F6FF57394044F48057394344
:1034900082830184F0BD0000002C01400034014013
:1034A0000004004000080040000C004010B502215C
:1034B0003E4800F0B5FB012838D102213B4800F01E
:1034C000A1FA00203A490882384800F09FFB3849A9
:1034D000888108468089498988420EDA3448808983
:1034E0004CF25031084432494989401A401C304955
:1034F000897B2F4A22F8110009E02D4880892C4948
:103500004989401A2A49897B294A22F8110028480A
:10351000807B401C052801D1002002E02448807BEC
:10352000401C2349887308468089488104211F482C
:1035300000F076FB012838D104211C4800F062FA23
:1035400000201C490882194800F063FB1949888152
:1035500008468089498988420EDA164880894CF2EB
:103560005031084413494989401A401C1149897B4C
:10357000104A22F8110009E00E4880890D49498956
:10358000401A0C49897B0B4A22F811000948807BBC
:10359000401C052801D1002002E00648807B401C29
:1035A0000449887308468089488110BD002C014079
:1035B000A0130020BC13002030B589B005460C468E
:1035C00001214020FFF710FC0121C802FFF70CFC8D
:1035D00001210846FFF708FC01212D48FFF78EF96D
:1035E0004FF42060ADF8200028208DF8230008A9B2
:1035F0002848FFF7F7F8681E80B2ADF81800601E83
:1036000080B2ADF814000020ADF81A00ADF8160035
:1036100005A9214800F0B4FC0020ADF80400ADF885
:1036200006000120ADF808000020ADF80A000520D2
:10363000ADF80C0001A9184800F004FB0420ADF817
:10364000040001A9144800F0FDFA0621124800F018
:10365000D9F901220221104800F04AFB012204217D
:103660000D4800F045FB1B208DF8100001208DF85F
:10367000110000208DF8120001208DF8130004A81D
:10368000FFF734FB0121044800F0BFF909B030BD59
:10369000C000160000180140002C014010B54FF486
:1036A00034714CF25030FFF787FF10BD30B589B050
:1036B00005460C4601210820FFF796FB0121022058
:1036C000FFF772FB0320ADF8200018208DF82300CF
:1036D00003208DF8220008A91A48FFF783F8681E16
:1036E00080B2ADF81800601E80B2ADF81400002062
:1036F000ADF81A00ADF8160005A9134800F040FC1B
:103700006020ADF804000120ADF806000020ADF8FF
:103710000C00ADF80A0001A90B4800F053FB01A909
:10372000094800F0A9FB0821074800F09BFB08218D
:10373000054800F0DFFB0121034800F066F909B0FD
:1037400030BD0000000C01400004004010B50C2109
:103750004FF4FA70FFF7AAFF10BD000030B589B032
:1037600005460C4601212020FFF73EFB01210420E5
:10377000FFF71AFB01210846FFF736FB012108037A
:10378000FFF7BCF84FF46040ADF8200018208DF82A
:10379000230003208DF8220008A91E48FFF722F815
:1037A000681E80B2ADF81800601E80B2ADF814003B
:1037B0000020ADF81A00ADF8160005A9164800F073
:1037C000DFFB6020ADF804000120ADF8060000200A
:1037D000ADF80C00ADF80A0001A90F4800F092FA0C
:1037E00001A90D4800F0EEFA01A90B4800F044FBD6
:1037F0000821094800F0D8FA0821074800F032FBF8
:103800000821054800F076FB0121034800F0FDF88F
:1038100009B030BD001401400008004010B53C2143
:103820004FF47A70FFF79AFF40F2F311014800F06D
:1038300075FB10BD0008004030B589B005460C4648
:1038400001210420FFF7D0FA01210820FFF7ACFA8C
:103850000220ADF8200018208DF8230003208DF8F9
:10386000220008A91648FEF7BDFF681E80B2ADF819
:103870001800601E80B2ADF814000020ADF81A00E8
:10388000ADF8160005A90F4800F07AFB6020ADF8EE
:1038900004000120ADF806000020ADF80C00ADF8E2
:1038A0000A0001A9074800F02DFA0821054800F098
:1038B0007BFA0121034800F0A8F809B030BD0000F0
:1038C00000080140000C004010B509214FF4FA70C7
:1038D000FFF7B2FF10BD000010B50121074800F04E
:1038E0009FF9012804D106480078401C044908705B
:1038F0000121024800F086F810BD000000100040D1
:103900003A00002010B51021074800F089F901287D
:1039100008D11021044800F075F804480068401CE4
:103920000249086010BD0000003401404C00002036
:1039300030B589B005460C4601211020FFF754FA36
:1039400001214803FFF750FA4FF40070ADF8200052
:1039500028208DF8230003208DF8220008A9224892
:10396000FEF740FF681E80B2ADF81800601E80B2FE
:10397000ADF814000020ADF81A00ADF8160005A946
:103980001A4800F0FDFA0C20ADF804000020ADF854
:1039900006000120ADF808000020ADF80A0005205F
:1039A000ADF80C0001A9114800F04CF910210F48A6
:1039B00000F028F8012210210C4800F099F92E207F
:1039C0008DF810000D208DF8110000208DF81200E8
:1039D00001208DF8130004A8FFF788F9012103489E
:1039E00000F013F809B030BD001001400034014070
:1039F00010B548214CF25030FFF79AFF10BDCA4372
:103A000002827047CA430282704721B1028842F0A5
:103A10000102028004E002884FF6FE731A40028021
:103A20007047000010B504466848844208D101215F
:103A3000C014FFF7E9F90021E014FFF7E5F9C4E04D
:103A4000B4F1804F08D101210846FFF7BDF90021EC
:103A50000120FFF7B9F9B8E05D48844208D101219F
:103A60000220FFF7B1F900210220FFF7ADF9ACE029
:103A70005848844208D101210420FFF7A5F900210C
:103A80000420FFF7A1F9A0E05348844208D10121A6
:103A90000820FFF799F900210820FFF795F994E035
:103AA0004E48844208D101211020FFF78DF90021F2
:103AB0001020FFF789F988E04948844208D10121A4
:103AC0002020FFF781F900212020FFF77DF97CE01D
:103AD0004448844208D101214014FFF795F90021A0
:103AE0006014FFF791F970E03F48844209D1012149
:103AF000C804FFF789F900214FF40020FFF784F98B
:103B000063E03A48844209D101210805FFF77CF9B6
:103B100000214FF48010FFF777F956E034488442D3
:103B200009D101214805FFF76FF900214FF400107A
:103B3000FFF76AF949E02F48844208D1012140206B
:103B4000FFF742F900214020FFF73EF93DE02A4807
:103B5000844208D101218020FFF736F9002180201E
:103B6000FFF732F931E02548844208D10121801560
:103B7000FFF72AF90021A015FFF726F925E02048D4
:103B8000844209D101210804FFF73EF900214FF4D6
:103B90008030FFF739F918E01A48844209D1012131
:103BA0004804FFF731F900214FF40030FFF72CF9FA
:103BB0000BE01548844208D101218804FFF724F95D
:103BC00000214FF48020FFF71FF910BD002C0140A9
:103BD0000004004000080040000C004000100040BD
:103BE0000014004000340140004C014000500140EE
:103BF0000054014000180040001C0040002000401C
:103C00000040014000440140004801400146888EC8
:103C100070470146088F70470146B1F84000704771
:103C200030B50246002000230024158A05EA01036E
:103C3000958905EA010413B10CB1012000E00020D0
:103C400030BD000070B505460C46244885420ED0B4
:103C5000234885420BD0B5F1804F08D021488542DA
:103C600005D02148854202D02048854200D100E09D
:103C700000BF208850B92389A28861882846FFF7B1
:103C8000F5FAE188284600F04EF925E0208804285E
:103C90000AD12389A28861882846FFF727FBE1889B
:103CA000284600F049F917E0208808280AD123891E
:103CB000A28861882846FFF765FBE188284600F066
:103CC00048F909E02389A28861882846FFF7A2FB0A
:103CD000E188284600F046F970BD0000002C014044
:103CE000003401400004004000080040000C004087
:103CF0001AB183890B43838102E083898B438381DB
:103D00007047000070B5002400220023058C4FF698
:103D1000EF7635400584028C8388048B48F6FF7566
:103D20002C404FF6FF452C400D884FF6FF7606EAF3
:103D300005252C434FF6DF752A400D8906EA051547
:103D40002A434D8806EA05152A43154DA84202D09C
:103D5000144DA8421DD14FF67F752A404D894FF66C
:103D6000FF7606EA05152A434FF6BF752A408D886F
:103D700006EA05152A434FF6FF352B404FF2FF7533
:103D80002B408D8906EA85052B43CD8906EA8505FA
:103D90002B4383800483CD880587028470BD000097
:103DA000002C0140003401400A460021018B4FF2F3
:103DB000FF7319404FF6FF7303EA0223194301838F
:103DC0007047000070B5002400220023058C4FF6D8
:103DD000FF6635400584028C8388848B4FF68F758F
:103DE0002C404FF6FC752C400D882C434FF6FF55A8
:103DF0002A400D894FF6FF7606EA05252A434D88AD
:103E000006EA05252A43154DA84202D0144DA842C2
:103E10001DD14FF2FF752A404D894FF6FF7606EA15
:103E200005252A434FF6FF352A408D8806EA0525E9
:103E30002A434EF6FF752B404DF6FF752B408D89BA
:103E400006EA05152B43CD8906EA05152B43838029
:103E50008483CD888587028470BD0000002C0140DA
:103E6000003401400A460021818B4FF6F773194058
:103E7000114381837047000070B5002200230024A5
:103E8000058C4EF6FF7635400584038C8488828B42
:103E900048F6FF752A404FF6FF452A400D884FF639
:103EA000FF7606EA05252A434DF6FF752B400D895E
:103EB00006EA05352B434D8806EA05352B430B4DA5
:103EC000A84202D00A4DA84208D14BF6FF752C40FB
:103ED0008D894FF6FF7606EA85152C438480828310
:103EE000CD88A0F84050038470BD0000002C014034
:103EF000003401400A460021818B4FF2FF731940C4
:103F00004FF6FF7303EA022319438183704701854B
:103F1000828270470187704781877047A0F8401000
:103F2000704781847047028B4FF6F3731A40028307
:103F3000028B0A4302837047028B4FF2FF331A4011
:103F40000283028B4FF6FF7303EA01231A430283B5
:103F50007047828B4FF6F3731A408283828B0A4339
:103F600082837047828B4FF2FF331A408283828BA9
:103F70004FF6FF7303EA01231A4382837047000060
:103F8000002202881D4B98420ED01D4B98420BD048
:103F9000B0F1804F08D01B4B984205D01A4B984285
:103FA00002D01A4B984204D14FF68F731A404B88B7
:103FB0001A43174B984207D0164B984204D04FF63D
:103FC000FF431A40CB881A4302808B8883850B8875
:103FD00003850A4B98420BD0094B984208D00E4BF0
:103FE000984205D00D4B984202D00D4B984201D11A
:103FF0000B7A03860123838270470000002C014066
:10400000003401400004004000080040000C004063
:1040100000100040001400400040014000440140F6
:104020000048014010B540F22551214800F06EF8DB
:10403000C0B1204800785A2839DA1D4800F022F92A
:10404000C1B21D480078C0EB001000EB40001B4AD5
:1040500002EB4002174803780078401C154C207092
:10406000D15424E040F22441114800F04FF8F0B15F
:104070000F4800880E48001D00880E48007810493F
:104080000D4A127888540C480078401C052801D14C
:10409000002002E008480078401C074908700948E1
:1040A0000078401C0749087000200249087010BDC4
:1040B00000380140300000202D00002014050020B1
:1040C000250000202E00002021B1828942F40052F8
:1040D000828104E082894DF6FF731A408281704725
:1040E0001AB1838A0B43838202E0838A8B438382E3
:1040F000704702460020B1F5007F00D100BF138851
:104100000B400BB1012000E00020704770B5024663
:10411000002400230025002040F66A16B14200D199
:1041200000BFC1F3421501F01F03012606FA03F395
:10413000012D02D19689334006E0022D02D1168A64
:10414000334001E0968A33400C12012606FA04F44B
:104150001688344013B10CB1012000E0002070BD7E
:10416000F0B50346002400260025002040F66A171B
:10417000B94200D100BF1846C1F3421401F01F0636
:10418000012707FA06F5012C01D10C3004E0022CBE
:1041900001D1103000E014301AB107682F430760D6
:1041A00002E00768AF430760F0BD00002DE9F0476B
:1041B00086B005460E460024A24600BFA146002751
:1041C000B08900B100BF2F462C8A4CF6FF70044026
:1041D000F08804432C82AC894EF6F3100440B0887A
:1041E00031890843718908430443AC81AC8A4FF696
:1041F000FF400440B0890443AC8201A8FEF714FEDE
:104200001F48874202D1DDF810A001E0DDF80CA0C4
:10421000A88900F4004040B10AEBCA0000EB0A1084
:1042200031684900B0FBF1F807E00AEBCA0000EB87
:104230000A1031688900B0FBF1F86420B8FBF0F097
:1042400004012009642101FB1089A88900F40040C1
:1042500040B1322000EBC900B0FBF1F000F00700E4
:10426000044308E0322000EB09106421B0FBF1F0B8
:1042700000F00F0004432C8106B0BDE8F087000079
:104280000038014001468888C0F3080070470000EC
:104290000EB500F083FA1449497A60F3C711124849
:1042A0004172407AC00960B16846FEF713FC0F48BE
:1042B0009DE80E000EC064200D4908800D4908805D
:1042C00011E0002001210346CDE90010074807C88E
:1042D000FEF726FF012806D14FF4827004490880BA
:1042E000B420044908800EBD44030020F0130020D0
:1042F000500000205200002000BFFEE7490050EAB5
:10430000C12018BF04204A0D18BF40F0010040F240
:10431000FF72B2EB515F08BF40F00200012808BFF6
:10432000052070472DE9F0414F1E00EBC701044600
:10433000D1E9000115461E4637F006020DD02A4687
:10434000334608F095F97F1E04EBC703D3E9002339
:1043500007F0E4FE37F00602F1D1022F25D0042F3A
:1043600013D0062F18BFBDE8F0812A46334608F067
:104370007FF9D4E90A2307F0D1FE2A46334608F034
:1043800077F9D4E9082307F0C9FE2A46334608F036
:104390006FF9D4E9062307F0C1FE2A46334608F038
:1043A00067F9D4E9042307F0B9FE2A46334608F03A
:1043B0005FF9D4E9022307F0B1FE2A46334608F03C
:1043C00057F9D4E90023BDE8F04107F0A7BE012268
:1043D00008F04BBF07F0A2BE024A0020110708F008
:1043E00044BF000001FDFFFF30380A2801D2012040
:1043F00070470020704700BF704700002DE9F84F5C
:1044000004460D4621F0004000917349814211DCC1
:104410007249884201DC06D12CB120462946BDE80C
:10442000F84FFFF7D4BF6E48002DCCBF6D496E49E1
:10443000BDE8F88F6D49814211DD6D498142D8BFD9
:104440004FF0FF366DDD20462946FFF757FF042861
:1044500008BFFFF7C1FF20462946BDE8F88F654930
:10446000654F25F00045814233DD6449814219DD05
:10447000002632464FF080432046294607F04EFE84
:1044800080468A4601222046294608F0EEFE002298
:104490003B4608F02DFA4246534607F0FBFE044621
:1044A0000D463EE001260022BA463B4620462946FC
:1044B00007F034FE80460F46002253462046294628
:1044C00008F016FA42463B4607F0E4FE04460D4665
:1044D00027E04B4981421BDDDFF828A1022600229C
:1044E00053462046294608F0C3F800223B4607F011
:1044F00015FE80460F46002253462046294608F006
:10450000F7F942463B4607F0C5FE04460D4608E073
:10451000032622462B4600203B4907F0BBFE0446FB
:104520000D4622462B461046194608F0A1F88B4648
:10453000824602460B4608F09BF80746024633487F
:1045400088460B4606217844FFF7ECFE52465B4650
:1045500008F08EF882462E488B463A46434605219F
:104560007844FFF7DFFE3A46434608F081F80246FA
:104570000B46002E504659460CDA07F0CFFD224676
:104580002B4608F075F801B022462B46BDE8F04FE7
:1045900008F0A2B907F0C2FD22462B4608F068F8E1
:1045A0001C4A7A4402EBC603D3E9002308F0A0F9C1
:1045B00022462B4608F09CF9174A7A4402EBC603C0
:1045C000D3E9002308F088F9009A002AB8BF81F0E7
:1045D0000041BDE8F88F0000000010440000F07FAB
:1045E000182D4454FB21F93FFB21F9BF0000DC3FAB
:1045F0000000203E0000F33F0000F03F0000E63FD7
:10460000008003400000F83F0000F0BF4E8E000025
:104610000C8E0000AA8D0000728D00002DE9F04D77
:104620009446CCF1000423F000464CEA0404524FB7
:1046300046EAD4749A46884621F00042BC4206D825
:10464000454240EA050442EAD474BC4204D9BDE8BC
:10465000F04D6246FFF7BEBEAAF14055A5F17F6559
:1046600055EA0C040BD0022404EAAA74434DDFF887
:1046700010E144EAD87452EA000B04D00CE0BDE823
:10468000F04DFFF7BBBE002C14BF012CBDE8F08D30
:10469000022C30D0032C32D056EA0C0B0AD0BE428A
:1046A00020D1BA4209D126F0804622F0804233461A
:1046B000114617E000291ADB25E0DFF8C8B0FB44FB
:1046C000002C04BFDBE90001BDE8F08D012C02BF26
:1046D000DBE9000181F00041BDE8F08D022C0AD039
:1046E000032C0CD0BA4212D1B8F1000F0BDA2348D8
:1046F0002549BDE8F08D28462449BDE8F08D2846BF
:104700007146BDE8F08D1D482149BDE8F08D921B32
:1047100012153C2AC4BF19481D490EDCBAF1000F1E
:10472000BEBF12F13C0F0020014606DB624607F0D7
:10473000B1FD21F00041FFF761FE002C08BFBDE88C
:10474000F08D012C04BF81F00041BDE8F08D114ACD
:10475000114B022C07D008F0CBF82A46BDE8F04DEB
:104760000A4B08F0C5B808F0C3F82A46BDE8F04D7A
:10477000064B08F0B1B800000000F07F182D44543B
:10478000FB2109C0068D0000FB21F9BFFB21094078
:10479000FB21F93F075C143326A6A13C01480078B1
:1047A00070470000DC00002010B50420FEF711FD6A
:1047B000104800681049B0FBF1F0104908700D482E
:1047C00000680D49B0FBF1F44FF47A7044430120C6
:1047D0000B4908804FF0E020006940F002004FF0E4
:1047E000E021086108464461006940F00100086169
:1047F00010BD00000000002040420F001400002007
:104800001600002070B5044607F098F9012810D072
:104810000B480088844206D309480088B4FBF0F5B1
:10482000284605F071FF06480088B4FBF0F100FB54
:1048300011444FF47A7104FB01F000F003F870BDED
:104840001600002070B5034600224FF0E02675697F
:104850000D4E367803FB06F44FF0E026B16910E008
:104860004FF0E026B06988420BD0884202D20E1A7F
:10487000324402E02E1A0E4432440146A24200D3D2
:1048800000E0EDE700BF70BD140000200EB56E48DB
:10489000007830B1012814D003287BD004287AD1C5
:1048A000B5E06A48006808B100200EBD6846FEF712
:1048B00011F967489DE80E000EC00120624908709A
:1048C00000BF6248006808B90020EEE7142000210C
:1048D0000B46CDE900105E4807C8FEF721FC18B969
:1048E000002059490870E0E7002006210346CDE981
:1048F0000010574807C8FEF713FC012804D1002018
:10490000514908700620D0E7002005210346CDE973
:1049100000104F4807C8FEF703FC012804D100200F
:10492000494908700520C0E7002004210346CDE96D
:104930000010474807C8FEF7F3FB012804D1002008
:10494000414908700420B0E7002003210346CDE967
:1049500000103F4807C8FEF7E3FB012804D1002000
:10496000394908700320A0E7002002210346CDE961
:104970000010374807C8FEF7D3FB68B96846FEF752
:10498000A9F833489DE80E000EC003202E49087098
:1049900000208AE71AE052E0002001210346CDE919
:1049A00000102B4807C8FEF7BBFB58B96846FEF756
:1049B00091F827489DE80E000EC003202249087098
:1049C000002072E700202049087000BF1F480068DF
:1049D00090B14FF4967000210B46CDE900101C48B1
:1049E00007C8FEF79DFB012804D100201649087076
:1049F00002205AE7002058E76846FEF76BF8144893
:104A00009DE80E000EC004200F49087018E00F4802
:104A1000006808B9002048E7002002210346CDE9DC
:104A200000100B4807C8FEF77BFB20B900200649A1
:104A30000870072039E700200349087035E700BFF8
:104A400000BF002031E700009F0000201C812242AF
:104A5000FC1300200EB56E48007830B1012814D048
:104A600003287BD004287AD1B5E06A48006808B1F1
:104A700000200EBD6846FEF72DF867489DE80E0041
:104A80000EC001206249087000BF6248006808B982
:104A90000020EEE7142000210B46CDE900105E480F
:104AA00007C8FEF73DFB18B9002059490870E0E738
:104AB000002006210346CDE90010574807C8FEF73D
:104AC0002FFB012804D10020514908700620D0E7AF
:104AD000002005210346CDE900104F4807C8FEF726
:104AE0001FFB012804D10020494908700520C0E7B8
:104AF000002004210346CDE90010474807C8FEF70F
:104B00000FFB012804D10020414908700420B0E7C0
:104B1000002003210346CDE900103F4807C8FEF7F7
:104B2000FFFA012804D10020394908700320A0E7CA
:104B3000002002210346CDE90010374807C8FEF7E0
:104B4000EFFA68B96846FDF7C5FF33489DE80E00E7
:104B50000EC003202E49087000208AE71AE052E0B8
:104B6000002001210346CDE900102B4807C8FEF7BD
:104B7000D7FA58B96846FDF7ADFF27489DE80E0003
:104B80000EC0032022490870002072E7002020494F
:104B9000087000BF1F48006890B14FF49670002164
:104BA0000B46CDE900101C4807C8FEF7B9FA0128EA
:104BB00004D100201649087002205AE7002058E767
:104BC0006846FDF787FF14489DE80E000EC00420DC
:104BD0000F49087018E00F48006808B9002048E73E
:104BE000002002210346CDE900100B4807C8FEF75C
:104BF00097FA20B9002006490870072039E70020FD
:104C00000349087035E700BF00BF002031E700000E
:104C1000A000002010812142081400202DE9F0415D
:104C200004460E462768D4F80080012512E054F8A7
:104C30002500414608F03EF902D254F8258007E0ED
:104C400054F82500394608F035FA01D254F8257099
:104C5000681CC5B2B542EADB4146384608F08EF81A
:104C600002D10448BDE8F0814146384608F054FAC4
:104C7000F8E7000000401C462DE9F04705464FF0DC
:104C80007E544FF4AA78284608F000F981464FF088
:104C9000804107F0B1FF07460F4907F0ADFF064618
:104CA0000E4908F03BF904460021204608F066F85A
:104CB00001D14FF07E540A48008808F0E7F8064614
:104CC000214608F0F7F804D20548008808F0DEF81D
:104CD00004462046BDE8F08700007A440000AA435D
:104CE000D800002000BF054A128802F04002002AC6
:104CF000F9D0C2B2014B1B1D1A8070470038014029
:104D00002DE9F05F04461D494978022202FB11415A
:104D10001A4A1278881808F0A1F8814618480168E4
:104D2000484608F0FBF80746204608F097F8834607
:104D300014480168584608F0F1F881460F4949784F
:104D4000601A08F08BF883460F480168584608F04F
:104D5000E5F88246494607F0E1FE8046394607F00D
:104D6000DDFE064608F03EF805B2044840780349E7
:104D700008704C702846BDE8F09F00009C000020A1
:104D80009800002094000020900000200148007846
:104D900070470000E70000200148007870470000DD
:104DA000E50000200148007870470000E600002080
:104DB00010B54FF44070FDF7D1FF05F00EFB05482C
:104DC0004168A820884705F087FB05F021FE0020F8
:104DD00010BD0000240200202DE9F04105460E46DA
:104DE0001C4807681C480068001D02F073FB50B99E
:104DF0001948006890F82C1001208840174909686C
:104E0000814316480160681C38B936B11248016800
:104E1000091D134804F0A4FD1AE07C190E4800682F
:104E20004460BC4207D20C480168091D0D48006867
:104E300004F07CFD0CE008480168091D0A48006880
:104E400004F074FD09480068844201D207480460F8
:104E5000BDE8F081FC000020E800002000010020F7
:104E600088170020F0000020EC000020180100202E
:104E700010B5044604F01CFE24480068401C234979
:104E800008602348006840B921480460084600686B
:104E900001280DD100F0EEF90AE01E48006838B98B
:104EA0001B480068C06AE16A884201D8184804605B
:104EB00019480068401C184908600846006860648A
:104EC00094F82C10012088401449096808431349BC
:104ED0000860E16A01EB8101114A02EB8100211DAA
:104EE00004F03EFD04F028FE0A48006868B1084856
:104EF0000068C06AE16A884207D24FF080500949D1
:104F00000860BFF34F8FBFF36F8F10BDF800002014
:104F1000E80000200401002014010020000100200E
:104F2000B814002004ED00E010B504F0C1FD1048F5
:104F30000068D0B90F4804F0E9FC0F4804F0E6FC23
:104F40000C480E4908600C480D49086000221021E9
:104F5000052006F0E9F9064908600846006820B116
:104F600008A10348006805F0FFF804F0E5FD10BD56
:104F70002C0100209C170020B017002024010020E5
:104F800028010020546D72510000000070B523E02C
:104F900005F094FD1348006808B9012000E00020E6
:104FA000054606F057FFBDB904F082FD0D48C06804
:104FB000C468201D02F08EFA0B480068401E0A49A2
:104FC00008600A480068401E0849086004F0B4FD03
:104FD000204600F060F800BF044800680028D7D1E0
:104FE00070BD000074170020F8000020F4000020BD
:104FF00070B504460D46206C70B1216CE068084421
:10500000E0606168E068884201D32068E06028467B
:10501000226CE168FBF70CFB70BD2DE9F041044602
:105020000F4615464FF00008A66B206C40B920686B
:1050300060BB606806F048FE80460020606025E0A6
:105040007DB93946226CA068FBF7F2FA216CA068A2
:105050000844A060D4E90110884217D32068A060FA
:1050600014E03946226CE068FBF7E2FA216CE06854
:10507000401AE0602168E068884203D2216C6068D1
:10508000401AE060022D01D106B1761E701CA063AB
:105090004046BDE8F08110B50446206B04F084FD65
:1050A000204604F081FD10BD0146084A12681268CE
:1050B0000AB9012200E000220A600A6822B9034A04
:1050C0001268D268106800E00020704724010020B8
:1050D00030B54FF4A043174800F007042CB1C01DB1
:1050E00020F00700134C041B1B1B0246124C2260CD
:1050F0000024114D6C60D018083820F007000F4CC8
:10510000206000240D4D2D686C600C4D2D682C60C6
:105110001146441A4C60094C24680C60084D4C68D8
:105120002C60084D4C682C604FF00044064D2C60FC
:1051300030BD000004180020440100204C01002074
:1051400054010020500100205801002000BFFFF74B
:105150001DFF064800680128F9D94FF08050044926
:105160000860BFF34F8FBFF36F8FF0E7B8140020D4
:1051700004ED00E02DE9F04106460D46174698463D
:10518000069C0DB9246000E02760E66325640121D8
:10519000204606F0E7F984F850800020A064BDE8BE
:1051A000F08100002DE9F05F82460F4690469B4655
:1051B0000A9E0C9C4FEA8801A522206BFBF77DFA22
:1051C000A8F10100216B01EB800929F0070909F022
:1051D000070008B9012000E0002028B940F22B3276
:1051E0001BA120A0FBF79CF8002507E0795D04F1E6
:1051F00034004155785D00B902E06D1C102DF5D3E7
:1052000000BF002143200155202E00D31F26E66257
:10521000E66400202065201D04F085FB04F11800E1
:1052200004F081FB2461C6F12000A06164620020CB
:10523000606584F858005A465146484600F000FC24
:1052400020600B9808B10B980460BDE8F09F000047
:105250002E2E5C4672656552544F535C7461736BBD
:10526000732E63004572726F723A25732C25640D9C
:105270000A00000010B5002407E004EB84010F4A87
:1052800002EB810004F042FB641C202CF5D30C4897
:1052900004F03CFB0B4804F039FB0B4804F036FBF0
:1052A0000A4804F033FB0A4804F030FB044809497B
:1052B000086004480849086010BD0000B8140020C8
:1052C000381700204C1700206017002074170020AA
:1052D00088170020EC000020F000002010B50146E7
:1052E000164800E0006803688B42FBD3024643681F
:1052F00013448B4204D143684C6823444360014605
:105300000A464B6813440468A34211D10C4C03684D
:105310002468A34208D04B680468646823444B6047
:1053200003681B680B6005E0054B1B680B6001E020
:1053300003680B60884200D0016010BD440100206A
:105340004C0100202DE9F04104460D4616461F464B
:105350004FF0000865602461B5420CD8F01BA169CC
:10536000884202D34FF0010811E0211D094800686E
:1053700004F0DCFA0BE0BE4204D2BD4202D34FF08F
:10538000010804E0211D0448006804F0CFFA4046FB
:10539000BDE8F081280100202401002070B50546F9
:1053A00004F086FBA86B08B9012400E0002404F097
:1053B000C3FB204670BD70B5054604F079FBA86BB1
:1053C000E96B884201D1012400E0002404F0B4FB21
:1053D000204670BD2DE9F3410D460098846C0027EE
:1053E0002CB940F6CE121AA11EA0FAF799FFA06BB5
:1053F000E16B884201D2012000E0002028B940F68C
:10540000CF1213A117A0FAF78BFFA06BE16B8842B4
:105410001BD294F945602A4669462046FFF7FDFDF8
:105420000746701C60B9606A08B9012000E00020DE
:1054300050B904F1240006F0B3FC28B1012703E0C1
:10544000701C40B284F8450000BF3846BDE8FC81BE
:105450002E2E5C4672656552544F535C71756575AE
:10546000652E63004572726F723A25732C25640DA8
:105470000A000000F8B505460F4613480068C068EA
:10548000C468201D02F026F8E069012818D1A0693F
:1054900041192B463A462046FFF754FF80B10020C1
:1054A00003462A4601460090204606F09DFD06462A
:1054B0002EB94FF4027205A10AA0FAF731FF00BF1E
:1054C0002046616A8847F8BD240100202E2E5C46E4
:1054D00072656552544F535C74696D6572732E63C7
:1054E000000000004572726F723A25732C25640D1E
:1054F0000A000000F0B587B070E0039800280CDACD
:1055000004AE2EB940F2E7223AA140A0FAF708FF14
:10551000D6E90020B168904700BF039800285DDB02
:10552000059C606908B9012000E0002010B9201D29
:1055300001F0D0FF02A800F0C7F8054603980A283A
:105540004AD2DFE800F00905072C2E4506082D2F6A
:1055500000BF00BF00BF00BF0498A26981180346C6
:105560002A462046FFF7EEFEC0B12046616A884712
:10557000E069012812D1002000900498A169421826
:1055800000231946204606F02FFD07462FB940F2AA
:10559000213218A11DA0FAF7C3FE00BF1DE000BF15
:1055A0001BE000BF0498A061A06908B1012000E0E1
:1055B000002028B94FF44E720EA114A0FAF7B0FEE5
:1055C000A06941192B462A462046FFF7BBFE04E09E
:1055D000204604F0E9FA00E000BF00BF00231A46AD
:1055E00003A90E48006805F0D9FE002885D107B050
:1055F000F0BD00002E2E5C4672656552544F535C20
:1056000074696D6572732E63000000004572726FDD
:10561000723A25732C25640D0A0000002C0100202D
:10562000F8B505460C4605F049FA684600F04CF816
:105630000646009820BB44B9B54206D806F00AFCDD
:1056400031462846FFF716FF1CE03CB10E480068C3
:10565000006808B9012000E000200446A91B22468A
:105660000A48006804F096FD06F0F4FB50B94FF0CC
:10567000805007490860BFF34F8FBFF36F8F01E081
:1056800006F0E8FBF8BD0000280100202C010020F6
:1056900004ED00E00A490968096809B9012100E040
:1056A000002121B14FF0FF31064A116006E00449A4
:1056B0000968C968C868034A4168116070470000FA
:1056C000EC0000201801002070B5044606F046FAF0
:1056D000054607480068854204D200F00BF8012017
:1056E000206001E00020206001480560284670BD70
:1056F000340100202DE9F8432DE021480068C068FE
:1057000005681F480068C068C468201D01F0E2FEFB
:105710002046616A8847E06901281CD1A0694619C2
:10572000AE4207D966602461211D1548006804F067
:10573000FDF810E0002003462A460146009020466E
:1057400006F052FC07462FB940F292320DA113A089
:10575000FAF7E6FD00BF0A480068006808B90120B2
:1057600000E000200028C8D00548D0F800800F488D
:105770000068034908600D48C0F80080BDE8F88360
:10578000240100202E2E5C4672656552544F535CF6
:1057900074696D6572732E63000000004572726F4C
:1057A000723A25732C25640D0A00000028010020A0
:1057B0000B480068401C08B9012000E0002020B917
:1057C000F42208A112A0FAF7ABFD00BF502080F32D
:1057D0001188BFF34F8FBFF36F8F00BF00BFFEE78D
:1057E000380100202E2E5C4672656552544F535C82
:1057F000706F727461626C655C525644535C4152C6
:105800004D5F434D335C706F72742E630000000077
:105810004572726F723A25732C25640D0A000000E0
:1058200008B500BF6846FFF73FFC044620460099D4
:10583000FFF7F6FEFFF75EFEF4E770B5044604F0EE
:1058400037F994F945501AE0A06C38B10021204690
:10585000FFF7C0FD88B104F0FFFF0EE0606A08B9F1
:10586000012000E0002038B904F1240006F098FA85
:1058700018B104F0F1FF00E003E0681E45B2002D0E
:10588000E2DC00BFFF2084F8450004F055F904F085
:105890000FF994F9445010E0206908B9012000E0A4
:1058A000002048B904F1100006F07AFA08B104F0BB
:1058B000D3FF681E45B200E001E0002DECDC00BF24
:1058C000FF2084F8440004F037F970BD2DE9F04161
:1058D00004464FF0000805F0F1F83E48006808B9AA
:1058E000FFF7F6FB3C480068204000285FD1A4B1D8
:1058F000083404F0070080B104F00700C0F108008C
:10590000044404F0070008B9012000E0002020B999
:10591000BF2232A13BA0FAF703FD002C47D03D483F
:105920000068844243D83C4E3046056801E02E466C
:105930002D686868A04202D228680028F7D125485F
:105940000068854233D0306800F10808286830606C
:105950006868001B102813D92F1907F0070008B931
:10596000012000E0002020B9EC221CA125A0FAF7BC
:10597000D7FC6868001B78606C603846FFF7AEFCA7
:10598000244968680968081A2249086008460068BE
:1059900022490968884203D21E4800681F490860EE
:1059A0000D4968680968084368600020286006F0AF
:1059B00051FA08F0070008B9012000E0002028B9DA
:1059C0004FF4967205A10FA0FAF7AAFC4046BDE875
:1059D000F08100004C010020580100202E2E5C4672
:1059E00072656552544F535C706F727461626C657E
:1059F0005C4D656D4D616E675C686561705F342EEE
:105A0000630000004572726F723A25732C25640D95
:105A10000A00000050010020440100205401002031
:105A20000648006830B10549096801F15000096D68
:105A3000491C01600148006870470000E800002030
:105A4000001F4FF080730360001F21F0010303600B
:105A5000001F034B036014380260203870470000B9
:105A6000B157000801460868704700002DE9F05F53
:105A700005460F464FF00008E81B0FFA80F948462C
:105A800007F0ECF9834627480168584607F046FAC4
:105A9000824607F0A7F90FFA80F8404607F0DEF9D2
:105AA000834621480168584607F038FA82461F4865
:105AB0000168504607F032F81C4908601C491B4831
:105AC000006807F0F7FA03D219481849086008E09F
:105AD00018491648006807F0EDF902D21548134935
:105AE00008601248006807F07DF9404406B2B6F538
:105AF000C87F02DD4FF4C87405E016F5C87F01DAEF
:105B00000D4C00E03446002D03DB002C07DA0124A5
:105B100005E0002D03DA002C01DD4FF0FF342046B4
:105B2000BDE8F09F7C00002080000020880000205D
:105B30000000C8430000C8C370FEFFFF2DE9F05FFE
:105B400005460F464FF00008E81B0FFA80F948465B
:105B500007F084F9834627480168584607F0DEF9C4
:105B6000824607F03FF90FFA80F8404607F076F9D1
:105B7000834621480168584607F0D0F982461F48FD
:105B80000168504606F0CAFF1C4908601C491B48C2
:105B9000006807F08FFA03D219481849086008E036
:105BA00018491648006807F085F902D215481349CC
:105BB00008601248006807F015F9404406B2B6F5CF
:105BC000C87F02DD4FF4C87405E016F5C87F01DA1E
:105BD0000D4C00E03446002D03DB002C07DA0124D5
:105BE00005E0002D03DA002C01DD4FF0FF342046E4
:105BF000BDE8F09F7C000020800000208C00002089
:105C00000000C8430000C8C370FEFFFF10B5044683
:105C1000FF21204600F002F810BD00002DE9F04100
:105C20000446884600211048006807F0A7F801D113
:105C30000D4804600C480168204607F06DFA0746DD
:105C400006F040FF21F0004105460022074B06F018
:105C5000D3FC04D2044804600120BDE8F081002098
:105C60000149086000BFF8E7D000002000407F40F5
:105C700070B504460025FCF787FFD42003F01CFD17
:105C800000F052F8204603F017FD00F04DF8FCF745
:105C90007BFFD52003F010FD00F046F8002000F057
:105CA0000BF80546FCF796FF284670BD01480078C2
:105CB00070470000E400002070B505460024174836
:105CC000006820F07040154908600846006840F000
:105CD00000400860002616E00020114908600220FC
:105CE000FEF7B0FD01200F49C1F898016006040ECF
:105CF0000B487C38006808B1601CC4B20120FEF774
:105D0000A1FD701CC6B2082EE6DB15B9FCF714FF26
:105D100001E0FCF7E9FE204670BD0000000C0140E8
:105D2000988121420080214210B500241448006867
:105D300020F07040124908600846006840F00040BA
:105D4000086001200F490860FEF77CFD01200E4924
:105D5000C1F89801FEF776FD07E0601CC4B2FA2C8A
:105D600003DDFCF737FF012010BD064880380068CE
:105D70000028F2D10349091F086000BFF4E70000C2
:105D8000000C01409C812142008021422DE9F04F0E
:105D90008FB005460E4691464FF0000A00240DE0F4
:105DA00055F8240004A941F8240055F824000021E6
:105DB00006F0E4FF01D10AF1010A641CB442EFDBF2
:105DC000304606F005FC4FF06632134BCDE900017A
:105DD00006F04EFC07468846504606F0E2FB3A467F
:105DE0004346CDE9020106F041FD03D200200FB089
:105DF000BDE8F08F314604A8FEF710FF8346494600
:105E0000584607F057F904D204A0FAF789FA00209F
:105E1000EDE70120EBE700006666E63F0D0AB3F60A
:105E2000CFD6B6B6B6AFC1CB2CD6D8D0C2BCC6CBB7
:105E3000E30D0A002DE9F04781460E4615461F4640
:105E4000DDF82080A6EB090004B2B6F5616F02DC34
:105E500016F5616F02DA0320BDE8F087B5F5C87F5B
:105E600007DD40F27D222BA135A0FAF759FA042074
:105E7000F2E7B8F1000F05D1002C08DDA4F5616050
:105E800004B204E0002C02DA04F5616004B2684256
:105E900084422DDDAC422BDAB8F1000F0BD1201E6D
:105EA00001DB014600E0414209B2294A918200200B
:105EB000284988820AE0002025498882201E01DBCB
:105EC000014600E0414209B2224A9182784284426E
:105ED00007DDBC4205DA00201D4988821D49888201
:105EE000BAE714F1320F13DD322C11DA0220B3E7D6
:105EF000B8F1000F06D128B2154988820020154953
:105F0000888205E000201249888228B211498882DF
:105F10000120A1E72E2E5C4170706C696361746989
:105F20006F6E5C524F424F545C7372635C41707091
:105F30006C69636174696F6E4D6F746F722E63006C
:105F40004552524F5221212025732C2025640000F8
:105F5000A0130020BC1300202DE9F04106460F4697
:105F60001546B81B0FFA80F84046FEF7C9FE0446F6
:105F7000201E01DB014600E04142642905DD002CC2
:105F800001DD642401E06FF06304281B00B20449C2
:105F90008882281900B2034988820020BDE8F08178
:105FA000A0130020BC1300202DE9F04780460F46C7
:105FB00014464FF0000AA7EB080005B2B7F5616F71
:105FC00002DC17F5616F08DA4FF4B47238A143A010
:105FD000FAF7A6F90220BDE8F08715F5E16F03DABC
:105FE00005F5616005B205E0B5F5E16F02DDA5F5E7
:105FF000616005B2281E01DB014600E04142B1F5B7
:10600000967F02DD0120394908703848007808B3CE
:10601000B4F1000901DB484601E0C9F1000081B29A
:106020003348008882B2284600F0F6F880B9002094
:106030002E490870002C05DB01202E49C8732E491B
:10604000C87332E000202B49C8732B49C8732CE079
:106050000120C0E7284605EBD07149100EB220465A
:10606000311E01DB0A4600E04A42002801DB0346FC
:1060700000E043429A4210DD36B1201E01DB0146AA
:1060800000E041420EB206E0201E01DB014600E0C6
:10609000414249420EB24FF0030AA01B00B215491B
:1060A0008882A01900B214498882504693E7000004
:1060B0002E2E5C4170706C69636174696F6E5C5206
:1060C0004F424F545C7372635C4170706C696361E2
:1060D00074696F6E4D6F746F722E63004552524F2C
:1060E0005221212025732C20256400009E000020D1
:1060F00078000020A0130020BC1300202DE9F041FF
:1061000080460E4615461F46A6EB080004B2B6F5BB
:10611000616F02DC16F5616F08DA40F2BD1228A14A
:1061200032A0FAF7FDF80220BDE8F081B5F5C87F8E
:1061300008DD2B4640F2C31221A130A0FAF7F0F897
:106140000320F1E714F5E16F03DA04F5616004B2AE
:1061500005E0B4F5E16F02DDA4F5616004B27842B8
:10616000A04211DD14F1640F06DD604200B228493F
:1061700088822848848220E028B2254988826842A3
:1061800000B22449888218E0A74210DA642C06DAAB
:10619000604200B21E4988821E4884820DE0684237
:1061A00000B21B49888228B21A49888205E0002083
:1061B0001749888217498882B6E70120B4E70000B2
:1061C0002E2E5C4170706C69636174696F6E5C52F5
:1061D0004F424F545C7372635C4170706C696361D1
:1061E00074696F6E4D6F746F722E63004552524F1B
:1061F0005221212025732C20256400004552524F46
:106200005221212025732C202564202564000000C4
:10621000A0130020BC13002010B5034613F1C80FD3
:1062200011DDC82B0FDA584200B2114CA082114880
:1062300083825042834219DD934217DA0020A08204
:106240000C4CA08210BD002B07DA08B2084CA082CB
:10625000484200B2074CA08208E0002B06DD48420D
:1062600000B2034CA08208B2024CA0820120E9E7F0
:10627000A0130020BC1300200148006870470000F4
:106280007000002070B506460D4603F011FC18485A
:106290000068406D88B901201549096881F85800E7
:1062A0005DB101212846FEF797FD4FF0805011495E
:1062B0000860BFF34F8FBFF36F8F03F03DFC03F017
:1062C000F7FB0B480068446D4CB126B1002008492B
:1062D0000968486503E0601E0549096848650020B3
:1062E0000349096881F8580003F026FC204670BD78
:1062F000E800002004ED00E00148808870470000BD
:10630000A80000200148408870470000DC00002001
:10631000F0B502460B46002514E000261488012142
:1063200008E032F81170A74202DD32F811400E4643
:106330004F1CF9B29942F4DB2046002722F8167070
:106340006F1CBDB203EBD37CB5EB6C0FE5DDF0BD8C
:10635000FEB505460C4605222946684602F0D0FEE9
:1063600005216846FFF7D4FF064991FBF0F006B21D
:1063700014B9704206B202E0022C00D10026304669
:10638000FEBD0000C246010001460A2905DA11F1EE
:106390000A0F02DD4FF4FA70704711F5C87F04DA76
:1063A000B1F5C87F01DD3220F6E7002903DDC1F534
:1063B000E17080B2F0E701F5E17080B2ECE7000037
:1063C00030B595B0054613AB12AA09A9284600F0CE
:1063D00039FA044614B1204615B030BD002014909F
:1063E00026E0224909689DF8502001EBC20113AB59
:1063F00011AA486801A900F025FA04460CB120460C
:10640000EAE709A901A800F0CBFC60B99DF84400B7
:106410009DF84810884201DD0220DDE79DF850001C
:10642000124988750AE09DF85000401CC0B21490D3
:106430000E48007D9DF850108842D2DC00BF0B480A
:10644000007D9DF85010884201D10420C4E714A9B2
:10645000284600F0D7FA04460CB12046BCE79DF868
:106460005000024948750020B6E7000024020020D1
:106470002DE9F0419AB09C48847D007DA04202DC69
:106480001AB0BDE8F0819849096801EBC40106AB78
:1064900007AA486808A900F0D5F908A993A0F9F758
:1064A0003FFF002644E09048008B0121B1400840A6
:1064B000D8B122218FA0F9F733FF304600F028FB36
:1064C00089492431471839468BA0F9F729FF222141
:1064D00088A0F9F725FF304600F01AFB82492431E5
:1064E000084410A941F8260018E0304600F010FBDF
:1064F0007D492431085810A941F826007A48C07D0A
:1065000030B910A850F826107CA0F9F709FF05E073
:1065100010A850F826107AA0F9F702FF9DF81C0089
:10652000401EB04202D078A0F9F7FAFE701CC6B245
:106530009DF81C008642B6DB74A0F9F7F1FE00F06E
:106540002FFB6948407D0B280DD2DFE800F0060DD7
:10655000151E27323F4E5F7287006349096851F864
:1065600034008047054690E05F4A126852F83410C4
:1065700010988847054688E05B4B1B6853F8342029
:10658000DDE91001904705467FE0574F3F6857F817
:10659000343010A807C89847054676E0DFF848C1B0
:1065A000DCF800C05CF8347010A80FC8B847054686
:1065B0006BE01498DFF830C10090DCF800C05CF8A4
:1065C000347010A80FC8B84705465EE0DDE9140135
:1065D000DFF814C1CDE90001DCF800C05CF83470CC
:1065E00010A80FC8B84705464FE0DDE91412169809
:1065F000DFF8F4C0CDE900120290DCF800C05CF8CE
:10660000347010A80FC8B84705463EE0DDE91423F2
:10661000DDE91610DFF8D0C0CDE90023CDE9021086
:10662000DCF800C05CF8347010A80FC8B847054605
:106630002BE0DDE91523DDE91710CDE90123CDE9D4
:1066400003101498DFF8A0C00090DCF800C05CF8DC
:10665000347010A80FC8B847054616E0DDE91623C8
:10666000DDE91810CDE90223CDE90410DDE91401BC
:10667000DFF874C0CDE90001DCF800C05CF83470CC
:1066800010A80FC8B847054600BF00BF00F050FA79
:106690009DF8180001280CD11348C07D20B9294667
:1066A0001BA0F9F73DFE07E029461BA0F9F738FECD
:1066B00002E018A0F9F734FE0B4890F8EC0088B11E
:1066C0000948D0F8F0000A21B0FBF1F201FB1207F3
:1066D0000548D0F8F000B0FBF1F83A46414611A069
:1066E000F9F71EFE00BFCBE6240200200D0A257339
:1066F000280000002563000025730000256C75004C
:1067000030582558000000002C000000290000002F
:106710003D256C753B0D0A003D305825583B0D0A50
:106720000000000046756E6374696F6E2052756ECE
:106730002054696D653A25642E2531646D730D0A08
:1067400000000000F0B50346154600200022002698
:10675000002455E01F782C2F01D104B901221F78A5
:10676000292F01D01F780FB904B94AE0002E34D187
:106770001F78302F02DB1F78392F11DD1F78612F32
:1067800002DB1F78662F0BDD1F78412F02DB1F789D
:10679000462F05DD1F78582F02D01F78782F0CD197
:1067A00002B12EE01F78612F03DB1F78203F0F70AE
:1067B00001E01F780F70491C1FE01F78222F04D1C1
:1067C00002B11EE00126012417E01F78202F14D00B
:1067D0001F782C2F11D0FF2613E01F78222F00D115
:1067E000002402B10DE044B11F785C2F02D15B1C84
:1067F000471CF8B21F780F70491C471CF8B25B1C8D
:10680000A8E700BF00270F702E70F0BD10B504463A
:10681000002010700BE020780870641C491C107870
:10682000401C10701078984201DB012010BD2078C8
:10683000202802D020780028EDD10020087000BF69
:10684000F4E700002DE9FF4F85B080468946002718
:10685000002004900390012002904FF0000B0025CF
:1068600044461DE02078202816D005F07F0005283A
:1068700012DA0DB945F0800505F07F00042803D138
:1068800020782A2800D00EE0207805F07F010DF84E
:106890000100681CC5B202E0852D00D103E0641C34
:1068A00020780028DED100BF8DB1002005F07F01E7
:1068B0000DF8010051A1684600F072FA18B90021E4
:1068C0000898017002E001210898017000254FF03E
:1068D000000A444614E0641C0AF1010000F0FF0ABB
:1068E0002078202802D020782A2809D1204600F0DC
:1068F000E7F90646282E03D02A2E01D0CDF810A0A5
:106900002078282802D020780028E4D14446049832
:1069100010B10498401C04444FF0000A002654E0D3
:10692000207810B94FF0010A50E02078282803D1D0
:1069300016B9781CC7B213E02078292808D13EB9CF
:1069400017B1781EC7B201E04FF0010A47B93DE028
:106950002078222804D10EB9012000E0002006464C
:1069600047B9207820282FD0207889F8000009F135
:10697000010929E020782C2804D101200290681C0C
:10698000C5B214E02078202811D0207828280ED015
:106990004DB9BBF1050F06DA20780DF80B000BF1AD
:1069A000010000F0FF0B0298401CC0B20290012FC2
:1069B0000AD10298022807D10298401CC0B2029066
:1069C0000398401CC0B20390641CA9E700BF039861
:1069D000012809D100200DF80B0008A1684600F03D
:1069E000DFF908B900200390079903980870002088
:1069F00089F80000504609B0BDE8F08F766F6964F1
:106A0000000000002DE9F043B5B005460F46002414
:106A1000002604E000213D488155701CC6B20A2EB4
:106A2000F8DB06E06D1C287818B9012035B0BDE808
:106A3000F08328782828F5D16D1C61E034AA6946D6
:106A40002846FFF77FFE064635449DF8D00020B16A
:106A5000012827D0FF284CD149E09DF8000000B361
:106A600033A9684600F037F906460EB10220DDE78B
:106A7000204600F04DF825490A31339A0A50A1F119
:106A80002400008B0121A140884320491A39088342
:106A900004211E480155601CC4B20A2C01DD0320EC
:106AA000C4E726E0684600F097F9401C00F0FF08B4
:106AB000204600F02DF815490A3100EB010949463E
:106AC000684600F07EF911481A38018B0120A04079
:106AD000014388B20D491A3908830C4800F8048034
:106AE000601CC4B20A2C01DD03209FE701E00220F4
:106AF0009CE700BF2878292801D0287800B900E059
:106B00009CE700BF3C70002090E700003E020020A0
:106B100002460020002105E0044B5B5C0344D8B230
:106B20004B1CD9B29142F7DB704700003E020020B7
:106B30000548D0F8F000401C0349C1F8F0000846B1
:106B4000D0F8F00070470000240200201CB5044675
:106B5000002002210346C822CDE9001003A1084805
:106B600004F012FF01200749C8751CBD7655736DEE
:106B700061727454696D65725461736B000000003A
:106B800095B000082402002010B50246012000E064
:106B900050430B1EA1F10104E1B2F9D110BD000078
:106BA00000200249C1F8F0007047000024020020D4
:106BB00070B53048007800285BD02F482F490978FD
:106BC000445C00202D490978C1EB011101EB410122
:106BD0002B4A02EB41010855284A1278C2EB0212F7
:106BE00002EB4202264B03EB4200264A916888479B
:106BF00005461DB92349C868804729E01F4909781F
:106C0000C1EB011101EB41011D4A02EB410000F013
:106C1000EFF80446012C00D02546CDB1012D06D059
:106C2000022D08D0032D0AD0042D10D10BE016A0A0
:106C3000F9F776FB0BE017A0F9F772FB07E018A055
:106C4000F9F76EFB03E019A0F9F76AFB00BF00BF7C
:106C50000A480078401C052801D1002002E00748BE
:106C60000078401C0549087002480078401E014920
:106C7000087070BD2E000020250000202B00002091
:106C80001405002024020020BAAFCAFDB4EDCEF3F3
:106C9000210D0A00B2CECAFDB4EDCEF3210D0A00DB
:106CA000B2CECAFDCCABB6E0210D0A00CEB4D5D22F
:106CB000B5BDC6A5C5E4B5C4BAAFCAFD210D0A006D
:106CC0000146491C00E0491C0878202801D1002910
:106CD000F9D1087870472DE9F04307460E460025A4
:106CE0004FF00A083C46002030601FE02078392829
:106CF00002DC207830280ADA2078462802DC207866
:106D0000412804DA2078582809D1012D07D12078AC
:106D1000412801DB4FF01008681CC5B205E020785F
:106D200000B904E00120BDE8F083641CDEE700BF89
:106D30003C46B8F1100F0FD1032D01DA0220F2E723
:106D40002078302806D16078582803D1A41CA81ECA
:106D5000C5B204E00320E6E70DB90420E3E71BE039
:106D60000DB1681EC5B22078392806DC207830289D
:106D700003DB2078A0F1300902E02078A0F1370988
:106D800029464046FFF700FF316809FB00103060DC
:106D9000641C207800B900E0E2E700BF0020C2E7F1
:106DA00002460AE010780B78984201D00120704723
:106DB000107800B902E0521C491CF3E700BF002024
:106DC000F5E706E002780A70027802B902E0401C9A
:106DD000491CF7E700BF70470146002005E00A782C
:106DE00002B903E0421CD0B2491CF8E700BF70476B
:106DF00010B58CB004461E230BAA03A92046FFF74A
:106E000005FD0090009810B101200CB010BD9DF858
:106E10002C00044400200B900EE040489DF82C20EC
:106E200050F8221003A8FFF7BBFF00B908E09DF857
:106E30002C00401CC0B20B909DF82C000728ECD30E
:106E400000BF9DF82C00072863D2DFE800F004059E
:106E50003C5E6564630000BF31A0F9F761FA31A0C0
:106E6000F9F75EFA3FA0F9F75BFA4EA0F9F758FA86
:106E70005CA0F9F755FA6BA0F9F752FA79A0F9F787
:106E80004FFA86A0F9F74CFA8BA0F9F749FA90A0CF
:106E9000F9F746FA94A0F9F743FA99A0F9F740FAFE
:106EA0009EA0F9F73DFAA4A0F9F73AFAB0A0F9F7D5
:106EB00037FABDA0F9F734FAC8A0F9F731FAD4A02F
:106EC000F9F72EFA9AE216A0F9F72AFAE0A0F9F7F4
:106ED00027FA00200B900EE0ED4800689DF82C206A
:106EE00000EBC2004168EBA0F9F71AFA9DF82C00FC
:106EF000401CC0B20B90E648007D9DF82C108842E3
:106F0000EADC07A0F9F70CFA78E205A0F9F708FA2D
:106F1000C4E171E245E219E2ECE1000070010020F9
:106F20000D0A00002D2D2D2D2D2D2D2D2D2D2D2D2E
:106F30002D2D2D2D2D2D2D2D2D2D2D2D55534D41FF
:106F400052542056332E312D2D2D2D2D2D2D2D2DFE
:106F50002D2D2D2D2D2D2D2D2D2D2D2D2D2D2D206E
:106F60000D0A00002020202055534D415254CAC71D
:106F7000D3C9414C49454E54454BBFAAB7A2B5C4ED
:106F8000D2BBB8F6C1E9C7C9B5C4B4AEBFDAB5F76C
:106F9000CAD4BBA5BDBBD7E9BCFE2CCDA8B9FD208A
:106FA0000D0A0000CBFC2CC4E3BFC9D2D4CDA8B9D4
:106FB000FDB4AEBFDAD6FACAD6B5F7D3C3B3CCD0D8
:106FC000F2C0EFC3E6B5C4C8CEBACEBAAFCAFD2C84
:106FD000B2A2D6B4D0D02ED2F2B4CB2CC4E3BFC967
:106FE0000D0A0000D2D4CBE6D2E2B8FCB8C4BAAFE6
:106FF000CAFDB5C4CAE4C8EBB2CECAFD28D6A7B351
:10700000D6CAFDD7D62831302F3136BDF8D6C6299D
:10701000A1A2D7D6B7FBB4AEA1A2BAAFCAFDC8EB46
:107020000D0A0000BFDAB5D8D6B7B5C8D7F7CEAAD3
:10703000B2CECAFD292CB5A5B8F6BAAFCAFDD7EEB7
:10704000B6E0D6A7B3D63130B8F6CAE4C8EBB2CEB4
:10705000CAFD2CB2A2D6A7B3D6BAAFCAFDB7B52027
:107060000D0A0000BBD8D6B5CFD4CABE2ED0C2D42C
:10707000F6B2CECAFDCFD4CABEBDF8D6C6C9E8D6D0
:10708000C3B9A6C4DC2CD0C2D4F6BDF8D6C6D7AAE4
:10709000BBBBB9A6C4DC2E0D0A000000BCBCCAF5FF
:1070A000D6A7B3D63A7777772E6F70656E6564761C
:1070B0002E636F6D0D0A000055534D415254D3D0CD
:1070C00037B8F6CFB5CDB3C3FCC1EE3A0D0A000018
:1070D0003F3A202020202020BBF1C8A1B0EFD6FAF3
:1070E000D0C5CFA20D0A000068656C703A20202040
:1070F000BBF1C8A1B0EFD6FAD0C5CFA20D0A0000EF
:107100006C6973743A202020BFC9D3C3B5C4BAAF29
:10711000CAFDC1D0B1ED0D0A0A00000069643A2031
:1071200020202020BFC9D3C3BAAFCAFDB5C449448B
:10713000C1D0B1ED0D0A0A006865783A2020202000
:10714000B2CECAFD3136BDF8D6C6CFD4CABE2CBA2F
:10715000F3B8FABFD5B8F12BCAFDD7D6BCB4D6B4B4
:10716000D0D0BDF8D6C6D7AABBBB0D0A0A00000016
:107170006465633A20202020B2CECAFD3130BDF8CC
:10718000D6C6CFD4CABE2CBAF3B8FABFD5B8F12B45
:10719000CAFDD7D6BCB4D6B4D0D0BDF8D6C6D7AA0F
:1071A000BBBB0D0A0A00000072756E74696D653A0A
:1071B000312CBFAAC6F4BAAFCAFDD4CBD0D0BCC65E
:1071C000CAB13B302CB9D8B1D5BAAFCAFDD4CBD0F7
:1071D000D0BCC6CAB13B0D0A0A000000C7EBB0B470
:1071E000D5D5B3CCD0F2B1E0D0B4B8F1CABDCAE4C1
:1071F000C8EBBAAFCAFDC3FBBCB0B2CECAFDB2A2E7
:10720000D2D4BBD8B3B5BCFCBDE1CAF82E0D0A0080
:107210002D2D2D2D2D2D2D2D2D2D2D2D2D2D2D2D9E
:107220002D2D2D2D2D2D2D2D2D2D414C49454E54DF
:10723000454B2D2D2D2D2D2D2D2D2D2D2D2D2D2D48
:107240002D2D2D2D2D2D2D2D2D2D2D200D0A000018
:107250002D2D2D2D2D2D2D2D2D2D2D2D2D2D2D2D5E
:107260002D2D2D2D2D2D2D2D2DBAAFCAFDC7E5B5F8
:10727000A52D2D2D2D2D2D2D2D2D2D2D2D2D2D2DC6
:107280002D2D2D2D2D2D2D2D2D2D2D2D200D0A00AB
:107290002402002025730D0A0000000059A0F9F710
:1072A0003FF800200B901AE0664909689DF82C20F1
:1072B00001EBC20101AB02AA486803A9FFF7C2FAB9
:1072C000604800689DF82C1050F8312003A95EA09A
:1072D000F9F726F89DF82C00401CC0B20B905948D5
:1072E000007D9DF82C108842DEDCAFF2CC30F9F73F
:1072F00017F883E0AFF2D830F9F712F80BAA03A918
:107300002046FFF71FFA9DF82C00C8B9694603A86C
:10731000FFF7E1FC0B909DF82C0020B94FA00099DD
:10732000F8F7FEFF0EE09DF82C00042801D00220A3
:107330006BE54DA0F8F7F4FF01204249C87501E064
:10734000022062E547A0F8F7EBFF57E045A0F8F709
:10735000E7FF0BAA03A92046FFF7F4F99DF82C00DC
:10736000C8B9694603A8FFF7B6FC0B909DF82C003E
:1073700020B942A00099F8F7D3FF0EE09DF82C0049
:10738000042801D0022040E53FA0F8F7C9FF002003
:107390002C49C87501E0022037E532A0F8F7C0FF9C
:1073A0002CE030A0F8F7BCFF0BAA03A92046FFF79A
:1073B000C9F99DF82C00C8B9694603A8FFF78BFCF2
:1073C0000B909DF82C0078B91E49009881F8EC00CC
:1073D000084690F8EC0018B130A0F8F7A1FF07E0DC
:1073E00035A0F8F79DFF03E002200EE502200CE532
:1073F0001CA0F8F795FF01E0012006E500BF002082
:1074000003E500002D2D2D2D2D2D2D2D2D2D2D2D78
:107410002D2D2D2D2D2D2D2D2D2D2D2D2DBAAFCAF0
:10742000FD204944202D2D2D2D2D2D2D2D2D2D2DA3
:107430002D2D2D2D2D2D2D2D2D2D2D2D2D2D2D2D7C
:10744000200D0A002402002025732069642069733E
:107450003A0D0A3058253038580D0A004845583A38
:10746000305825580D0A00003136BDF8D6C6B2CEC8
:10747000CAFDCFD4CABE210D0A0000004445433ADC
:10748000256C750D0A0000003130BDF8D6C6B2CEAD
:10749000CAFDCFD4CABE210D0A00000052756E206D
:1074A00054696D652043616C63756C6174696F6EBE
:1074B000204F4E0D0A00000052756E2054696D6514
:1074C0002043616C63756C6174696F6E204F464632
:1074D0000D0A000001460A69D1E901309860D1E93E
:1074E000010358605068884201D1886850600020CC
:1074F00008611068401E10601068704701210B4839
:10750000FAF725FA11E04FF0FF310020FEF7BAFE3E
:1075100058B10749074801F0A1FF01210348FAF7D4
:1075200035F901210148FAF712FAECE7002401408D
:10753000A80000202014002000B593B001211020E5
:10754000FBF752FC01210420FBF74EFC012148020D
:10755000FBF74AFC01210846FBF716FC3F20ADF87B
:10756000480000208DF84B0003208DF84A0012A936
:107570006348FBF737F9FD20ADF8480012A96148D0
:10758000FBF730F94FF40040FBF7F2FB5E48FAF7E7
:1075900013F900200D9001208DF838008DF8390086
:1075A0004FF460200F90002010900D208DF84400C3
:1075B0000DA95548FAF742F9072301220021524844
:1075C000FAF764F90723022211464F48FAF75EF9E9
:1075D0000723032211464C48FAF758F907230422DF
:1075E00011464948FAF752F9072305221146464841
:1075F000FAF74CF90723062211464348FAF746F9F1
:1076000007231A4619464048FAF740F9072308228B
:107610000A213D48FAF73AF9072309220B213A4893
:10762000FAF734F907230A220C213748FAF72EF922
:1076300007230B220D213448FAF728F907230C22DF
:107640000E213148FAF722F907230D220F212E4887
:10765000FAF71CF901212C48FAF7A3F801212A486E
:10766000FAF794F82848FAF76DF900BF2648FAF7B8
:10767000DBF80028FAD12448FAF774F900BF224851
:10768000FAF7C8F80028FAD12048FAF731FC1E486A
:107690004C3002901E480390002004902720059053
:1076A00000200690802007904000089080000990FC
:1076B00020200A9000020B9000200C9002A9134891
:1076C000FAF7F5FC01211148FAF706FC0220FAF757
:1076D000F5FB012202210D48FAF7E0FC0B208DF8A2
:1076E00004000D208DF8050000208DF80600012013
:1076F0008DF8070001A8FBF7F9FA13B000BD0000F0
:107700000010014000080140002401400800024030
:10771000E406002004E002F02FF90A2002F0F4FF52
:10772000F9E710B501F078FB01F042FE03F0F4FC3C
:1077300003F0BAFC03F0D4FC02F0A8FD03F024FD32
:1077400002F0EEFD02F08CFD03F0B0FB10BD000076
:1077500010B55BA0F8F7E4FD5A4801885AA0F8F785
:10776000DFFD584881885DA0F8F7DAFD5548C189EA
:107770005EA0F8F7D5FD5348018A60A0F8F7D0FD68
:107780005048418A61A0F8F7CBFD4E48818A63A03A
:10779000F8F7C6FD4B48C18865A0F8F7C1FD494818
:1077A000818967A0F8F7BCFD4648C18A68A0F8F750
:1077B000B7FD4448018B6AA0F8F7B2FD6D48018817
:1077C0006DA0F8F7ADFD3F48418871A0F8F7A8FD1E
:1077D0003C48018975A0F8F7A3FD3A4841897AA091
:1077E000F8F79EFD634841887EA0F8F799FD61484F
:1077F000818883A0F8F794FD5E48C18887A0F8F7D8
:107800008FFD5C48008840F62E11884201DD084655
:1078100001E05848008840F21451884201DD0120FF
:1078200000E0002080B15348008840F62E118842C5
:1078300001DD084601E04F480088A0F62E106FF0E9
:10784000220190FBF1F02DE04A48008840F62E110D
:10785000884201DD084601E046480088B0F57A7F9D
:1078600010DD4448008840F62E11884201DD0846AC
:1078700001E040480088A0F2D6606FF00E0190FB56
:10788000F1F00FE03B48008840F62E11884201DD00
:10789000084601E037480088A0F282506FF00701E7
:1078A00090FBF1F0044621463DA0F8F739FDFEF7C4
:1078B000E3FC044621463AA0F8F732FD10BD000073
:1078C0000D0A0000E406002034D1A1316164633068
:1078D00030202564200D0A0D0A000000B1DFCBA284
:1078E0006164633033202564200D0A00B7E7BBFADA
:1078F0006164633130202564200D0A00D7F3C2D6BD
:107900006164633131202564200D0A00D3D2C2D6D0
:107910006164633132202564200D0A00B9F6CBA2E0
:107920006164633133202564200D0A0D0A000000D4
:10793000B5F4C2E46164633034202564200D0A008C
:10794000B5F4C2E46164633037202564200D0A0079
:10795000B5F4C2E46164633134202564200D0A006B
:10796000B5F4C2E46164633135202564200D0A0D4D
:107970000A000000A8000020616463416C6F6E671C
:107980005F45646765202564200D0A0D0A0000002C
:10799000B5E7B3D8CEC2B6C86164633032202020C8
:1079A00020202020202564200D0A0000B7C5B5E75F
:1079B000B5E7C1F761646330352020202020202006
:1079C000202564200D0A0000B5E7C1BF6164633063
:1079D0003620202020202020202020202025642048
:1079E0000D0A0000B5E7B3D8494420333830302DB4
:1079F0003338313061646320202564200D0A000093
:107A0000B3E4B5E7B5E7C1F72020202020202020EF
:107A100020202020202564200D0A0000616463528C
:107A2000656368617267655374616E64202020200D
:107A3000202564200D0A00001FB501210846FBF730
:107A4000D3F901216020FBF7CFF942F20800ADF82D
:107A50000C0048208DF80F0003208DF80E0003A9BC
:107A60003D48FAF7BFFE40F20650ADF80C00282062
:107A70008DF80F0003A93948FAF7B4FE8020ADF85D
:107A80000C0048208DF80F0003A93548FAF7AAFE2C
:107A90000D210420FAF786FE03210420FAF782FE66
:107AA0000A210320FAF77EFE08210320FAF77AFE66
:107AB00002210320FAF776FE01210320FAF772FE75
:107AC00007210220FAF76EFE42F208000090002023
:107AD0008DF804000C208DF8050001208DF80600BB
:107AE0006846FAF707FE40F20650009010208DF825
:107AF00005006846FAF7FEFD8020009010208DF802
:107B000005006846FAF7F6FD28208DF808000120E8
:107B10008DF8090000208DF80A0001208DF80B0077
:107B200002A8FBF7E3F817208DF8080002A8FBF77E
:107B3000DDF809208DF8080002A8FBF7D7F8072028
:107B40008DF8080002A8FBF7D1F808208DF808008E
:107B500002A8FBF7CBF81FBD00180140001401403C
:107B60000010014010B5FBF7F1FDFBF757FEFBF7E6
:107B7000ABFE10BD10B5FBF73BFFFBF78FFD10BD53
:107B800010B509A0F8F7CCFBFEF7BCFB0446214674
:107B900007A0F8F7C5FBFCF701FE0446214608A044
:107BA000F8F7BEFB10BD00000D0A0D0A0000000032
:107BB000B3ACC9F9B2A8BEE0C0EB2025640D0A0041
:107BC000B3ACC9F9B2A8B1EAD6BE2025640D0A004B
:107BD000FEB56846FAF77EFFFE489DE80E000EC02F
:107BE000FD4800790A287DD0FB480079072802D19A
:107BF0000020FA490870FA48008840F62E118842A1
:107C000001DD084601E0F648008840F21451884240
:107C100001DD012000E0002080B1F148008840F63D
:107C20002E11884201DD084601E0ED480088A0F6EB
:107C30002E106FF0220190FBF1F02DE0E848008853
:107C400040F62E11884201DD084601E0E448008834
:107C5000B0F57A7F10DDE248008840F62E118842A8
:107C600001DD084601E0DE480088A0F2D6606FF032
:107C70000E0190FBF1F00FE0D948008840F62E117C
:107C8000884201DD084601E0D5480088A0F2825014
:107C90006FF0070190FBF1F0642855DAD1480078C5
:107CA000002851D0D0A0F8F73BFBFAF70DFF0546AE
:107CB000D34905F033F9044605F094F800F5C8708F
:107CC00000B2D0490880D0480078012812D1CF48AE
:107CD000B0F90000A0F56170B1F90010884229DD0B
:107CE000CA4800E038E00088A0F5617000B2C549DC
:107CF00008801FE0C548B0F90040002C01DB204699
:107D000000E0604200F56170BE49B1F900108842A0
:107D100010DDFAF7D9FE0646B94905F0FFF8054629
:107D200005F060F800B2002804DDB848B0F90000A2
:107D3000B44908800621A848C1700020A9490870EC
:107D40000120A649087038E1A5480188A5480278B5
:107D5000AFA0F8F7E5FA30E1A148008840F62E110F
:107D6000884201DD084601E09D48008840F2145138
:107D7000884201DD012000E0002080B198480088A1
:107D800040F62E11884201DD084601E09448008843
:107D9000A0F62E106FF0220190FBF1F02DE090483C
:107DA000008840F62E11884201DD084601E08C482B
:107DB0000088B0F57A7F10DD8948008840F62E11E2
:107DC000884201DD084601E085480088A0F2D660BF
:107DD0006FF00E0190FBF1F00FE08148008840F653
:107DE0002E11884201DD084601E07D480088A0F29E
:107DF00082506FF0070190FBF1F0322864DA012025
:107E00007649087086A0F8F78BFA8648B0F900002A
:107E1000854908807248008840F62E11884201DDAD
:107E2000084601E06E48008840F21451884201DDA6
:107E3000012000E0002080B16948008840F62E1142
:107E4000884201DD084601E065480088A0F62E1052
:107E50006FF0220190FBF1F02DE06148008840F6C0
:107E60002E11884201DD084601E05D480088B0F52A
:107E70007A7F10DD5A48008840F62E11884201DDD5
:107E8000084601E056480088A0F2D6606FF00E0167
:107E900090FBF1F00FE05248008840F62E11884226
:107EA00001DD084601E04E480088A0F282506FF0E4
:107EB000070190FBF1F084B25B48B0F90020142177
:107EC0002046FEF749F878E044480078F0B357A020
:107ED000F8F726FAFAF7F8FD0546494905F01EF8C5
:107EE000044604F07FFFA0F5617000B245490880A8
:107EF0000846B0F90000B0F5E16F05DD0846B0F9BD
:107F00000000A0F561600EE03E48B0F9000010F5F9
:107F1000E16F05DC3B48B0F9000000F5616002E06C
:107F20003848B0F9000000B236490880B4203E4914
:107F30000880FAF7C9FD0646314904F0EFFF05460F
:107F400004F050FF04B20020009000E00CE038483C
:107F5000008883B23448008882B22A48B0F9001001
:107F60002046FDF767FF28E032A0F8F7D9F9FAF7C5
:107F7000ABFD0546224904F0D1FF044604F032FF70
:107F8000C83000B21F490880B42027490880FAF79A
:107F90009BFD06461A4904F0C1FF054604F022FF86
:107FA00004B22348008883B21F48008882B2154873
:107FB000B0F900102046FEF7A1F813480078012818
:107FC0005ED1FAF781FD05460D4904F0A7FF04468E
:107FD00032E00000D81300204403002059000020A4
:107FE000A8000020570000200D0AD7AACFF2343095
:107FF00020B6C8D7AACFF23430B6C80D0A000000A8
:108000000000204174000020560000205400002091
:108010002F2F2F2F2F2F2F2F25642025640D0A009F
:10802000D1D800005200002076000020D3D20000FA
:1080300078000020D7D4000004F0D4FE01B2294813
:10804000B0F90000A0F57A70814247DAFAF73CFDFA
:108050000546254904F062FF044604F0C3FE00B261
:10806000224988423ADD00202149087021494870A0
:10807000087021A0F8F754F907212648C1702DE0B7
:10808000FAF722FD0646184904F048FF054604F0B9
:10809000A9FE01B21348B0F90040002C01DB2046D4
:1080A00000E0604200F54870814217DAFAF70CFDF3
:1080B00006460D4904F032FF054604F093FE00B277
:1080C0000A280BDD00200A4908700A494870087028
:1080D00011A0F8F725F907210E48C1700A210D48B3
:1080E0000171FEBD54000020000020415CF9FFFF3B
:1080F000590000209C0000200D0AC8A54175746F2E
:10810000C4A3CABD31C8A54175746FC4A3CABD312B
:108110000D0A0000440300200D0AC8A54175746FC4
:10812000C4A3CABD32C8A54175746FC4A3CABD3209
:108130000D0A00002DE9F74F88B083469246864825
:10814000008838B9002005900690079083490860A0
:108150004860886080480088401C7F4908807F48CC
:108160000168584604F0DAFC7C49086048680999BF
:1081700004F0D4FC794948608868514604F0CEFC8C
:10818000764988605046FDF741FD40B900207249AC
:1081900008800846018872A0F8F7C2F881E06E48AE
:1081A0000088B0F57A7F7CDB6B48008804F06EFEB7
:1081B00004466A490868214604F01EFD6E49098894
:1081C00001EB41016D4A42F821006348008804F048
:1081D0005DFE044661494868214604F00DFD66498C
:1081E000098801EB4101654A02EB810148605A4868
:1081F000008804F04BFE044658498868214604F084
:10820000FBFC5D49098801EB41015C4A02EB8101FD
:1082100088605948008800EB4000114601EB80005F
:1082200080685749086054480088401C52490880BB
:1082300008460088032831DB00200880104680684B
:10824000504908601046406948601046006A8860DE
:10825000886804F037FC04460D464A49486804F033
:1082600031FC06460F464749086804F02BFC80465F
:1082700042460B4644A0CDE90067CDE90245F8F738
:108280004FF84FF0814203213E48FDF77FFD28B1B2
:108290004448007810B901204249087000202E4956
:1082A000088040480078012853D1344AD1681068CA
:1082B00004F034FC054631488169284604F02EFC60
:1082C0000446394904F098FC05902C4A116950681D
:1082D00004F024FC05462948C169284604F01EFC28
:1082E0000446314904F088FC0690244A516990689C
:1082F00004F014FC05462148016A284604F00EFCEF
:108300000446294904F078FC07902849059808603C
:10831000069848600798886000F06AFD2448007855
:1083200018B1174800682149886000200A49088070
:10833000114908801B4908701C49886804F0C2FB79
:10834000044622460B461BA0F7F7EAFF02201F490E
:1083500008700BB0BDE8F08FC40000204814002066
:10836000D6D8D0C2BFAACABC636E745F4E203D206F
:1083700025640D0A00000000C600002054140020EF
:10838000C8000020781400204F6666736574546539
:108390006D705A203D2025662025662025660D0A31
:1083A00000000000C1000020000040403C140020FC
:1083B000C20000204779726F5F4F66667365745F15
:1083C000742E7A203D20256600000000C0000020A9
:1083D00000B587B001218803FAF7E6FC01210820E7
:1083E000FAF702FD4FF48050ADF8040003208DF839
:1083F000060010208DF8070001A92748FAF7F2F9C6
:108400004FF40050ADF8040018208DF8070001A9C2
:108410002148FAF7E7F94FF48040ADF8040001A9CC
:108420001D48FAF7DFF94FF40040ADF8040001A948
:108430001948FAF7D7F94FF480511748FAF7B1FA0B
:108440000020ADF808004FF48270ADF80A0000205B
:10845000ADF80C000220ADF80E000120ADF81000C0
:108460004002ADF812002020ADF814000020ADF855
:1084700016000720ADF8180002A90848FAF782FD97
:1084800001210648FAF764FD4FF460410248FAF70B
:1084900088FA07B000BD0000000C01400038004021
:1084A0000E48408940F6D861884201DD084609E05F
:1084B0000A484089B0F52F6F02DA4FF42F6001E0CF
:1084C00006484089A0F52F60642148434FF47A7133
:1084D00090FBF1F002490870704700002014002062
:1084E000E40000203EB55148007801281BD1FAF77E
:1084F000EBFA05464E4904F011FD044604F072FC07
:1085000000B24C49088000204B49088001204B49AB
:1085100008706846FAF7DEFA49489DE80E000EC07A
:1085200000204249087047480079022803D0454896
:10853000007903281AD144480078022806D143A0C4
:10854000F7F7EEFE0A213F48C1706AE03E48007826
:10855000012866D13948007880F001003749087059
:108560000846017840A0F7F7DBFE5AE046A0F7F78F
:10857000D7FE0023052219463148FAF753FB01289C
:108580001DD12E48007801280DD12B48008800F518
:10859000E16000B22749088004212A48C170002008
:1085A000264908703DE02448B0F9000021490880C0
:1085B00005212448C17001202049087031E01F487E
:1085C0000078012805D11C48B0F90000194908803D
:1085D00006E019480088A0F5E16000B2154908805E
:1085E0001448B0F90000B0F5E16F05DD1148B0F9AD
:1085F0000000A0F561600EE00E48B0F9000010F533
:10860000E16F05DC0B48B0F9000000F5616002E0A5
:108610000848B0F9000000B2064908800121094865
:10862000C1700721074801713EBD000063000020B2
:10863000000020417400002054000020560000205B
:10864000D813002044030020580000200D0AC8A5BC
:10865000D1D8B1DFC4A3CABDC8A5D1D8B1DFC4A3E6
:10866000CABD0D0A000000000D0AD0FCD1C2D7AA75
:10867000CFF2D0FCD1C2D7AACFF2D0FCD1C2D7AAB8
:10868000CFF22025640D0A006175746F00000000B0
:1086900070B50F48B0F900000E490880FAF714FAD7
:1086A00006460D4904F03AFC054604F09BFB04B273
:1086B0000848B0F900200948B0F900102046FDF73D
:1086C00073FC07210648C1700121017170BD0000D3
:1086D000500000207600002000002041740000209F
:1086E0004403002002E0052002F00EF81E48007846
:1086F0000228F8D11D48C078092802D007211B485C
:10870000C1702FE01948C0780C2827D2DFE800F0AC
:1087100006090C0F1215181B1E1F202300F066FA05
:108720001CE0FFF7B5FF19E000F048F816E000F094
:108730001FF913E000F082FA10E000F0EBFA0DE010
:1087400000F0F0F90AE0FFF7CDFE07E006E005E0F3
:10875000FFF73EFA02E000F00BF800BF00BF052073
:1087600001F0D2FFCEE70000C0000020440300204B
:1087700070B56FF0B3000D490880FAF7A5F9064609
:108780000B4904F0CBFB054604F02CFB04B2074870
:10879000B0F900200748B0F900102046FDF704FCAE
:1087A00007210548C1700B21017170BD76000020C2
:1087B00000002041740000204403002070B55A4896
:1087C0000079022802D059A0F7F7AAFD6048007886
:1087D00001282FD1FAF778F905465E4904F09EFB8F
:1087E000044604F0FFFA00B25B4908800846B0F97D
:1087F0000000C830B0F5E16F05DD0846B0F90000B3
:10880000A0F6485010E05448B0F90000C83010F508
:10881000E16F05DC5048B0F9000000F6D86003E0D5
:108820004D48B0F90000C83000B24C490880002023
:10883000474908703C48807AC0F34000C0B93A48C4
:10884000807A00F0010098B93748407AC0F30010F0
:1088500070B93548407AC0F3C00048B93248407A10
:10886000C0F3801020B93048407AC0F34010B8B14E
:108870006FF0B3003A490880FAF726F90646354901
:1088800004F04CFB054604F0ADFA04B23448B0F9EC
:1088900000203148B0F900102046FDF785FB3FE08D
:1088A000FAF712F905462B4904F038FB044604F0A8
:1088B00099FAC83000B228490880B42028490880B5
:1088C000FAF702F90646234904F028FB054604F0AE
:1088D00089FA04B22348008883B22148008882B212
:1088E0001D48B0F900102046FDF708FCFAF7ECF837
:1088F0000546184904F012FB044604F073FA00B26E
:108900001649B1F9001088420ADB07210648C170F8
:1089100001200F490870002013498882134988827A
:1089200002210148017170BD440300205265747238
:108930006561744C20526574726561744C20526597
:1089400074726561744C20696E746F0D0A000000CA
:108950005A00002000002041740000205C0000202C
:108960007600002078000020A0130020BC13002017
:1089700070B55A480079032802D059A0F7F7D0FC07
:108980006048007801282FD1FAF79EF805465E4925
:1089900004F0C4FA044604F025FA00B25B490880EA
:1089A0000846B0F90000C838B0F5E16F05DD0846AB
:1089B000B0F90000A0F6D86010E05448B0F900000B
:1089C000C83810F5E16F05DC5048B0F9000000F63A
:1089D000485003E04D48B0F90000C83800B24C4997
:1089E00008800020474908703C48807AC0F3400066
:1089F000C0B93A48807A00F0010098B93748407A07
:108A0000C0F3001070B93548407AC0F3C00048B9CF
:108A10003248407AC0F3801020B93048407AC0F321
:108A20004010B8B16FF0B3003A490880FAF74CF83B
:108A30000646354904F072FA054604F0D3F904B24B
:108A40003448B0F900203148B0F900102046FDF755
:108A5000ABFA3FE0FAF738F805462B4904F05EFA26
:108A6000044604F0BFF9C83800B228490880B42091
:108A700028490880FAF728F80646234904F04EFAF8
:108A8000054604F0AFF904B22348008883B22148B8
:108A9000008882B21D48B0F900102046FDF72EFB79
:108AA000FAF712F80546184904F038FA044604F0BB
:108AB00099F900B21649B1F9001088420ADC072181
:108AC0000648C17001200F490870002013498882B0
:108AD0001349888203210148017170BD44030020BD
:108AE0005265747265617452205265747265617466
:108AF0005220526574726561745220696E746F0DF4
:108B00000A0000005E0000200000204174000020E8
:108B1000600000207600002078000020A0130020D4
:108B2000BC13002070B51F48007906280CD01EA089
:108B3000F7F7F6FBB420204908801A4800790A2884
:108B400002D101201D490870F9F7BEFF06461C49F5
:108B500004F0E4F9054604F045F904B21948008828
:108B600083B21548008882B21748B0F90010204639
:108B7000FDF7C4FA90B91148007848B113A0F7F78F
:108B8000CFFB0A210748C17000200C49087005E09E
:108B900013A0F7F7C5FB07210248C1700621014861
:108BA000017170BD44030020526F746174652069C7
:108BB0006E746F0D0A000000760000206200002035
:108BC000000020417800002074000020746F207A9B
:108BD000416C6F6E6745646765200D0A00000000F8
:108BE000746F207A4175746F200D0A0010B50B4820
:108BF000007910B10AA0F7F793FB00200C49088018
:108C00000846B0F900000B4988820948B0F9000015
:108C10000949888200210148017110BD44030020E8
:108C20007A53746F7020696E746F0D0A0000000033
:108C300076000020A0130020BC130020FEB568467B
:108C4000F9F748FF1F489DE80E000EC0B4201E49EA
:108C500008801E480079042802D01DA0F7F760FBA9
:108C6000F9F732FF0646234904F058F9054604F0A7
:108C7000B9F804B2012000901F48008883B212485E
:108C8000008882B21D48B0F900102046FDF7D2F8E6
:108C900098B9F9F719FF0646164904F03FF9054659
:108CA00004F0A0F804B222461448B0F9001014A051
:108CB000F7F736FB07210548C1700421034801710D
:108CC000FEBD0000D81300207600002044030020E1
:108CD0005475726E4C656674205475726E4C656680
:108CE00074205475726E4C65667420696E746F0DD5
:108CF0000A000000000020417800002074000020DD
:108D00005475726E4C656674202564202564200DB0
:108D10000A000000FEB56846F9F7DCFE1F489DE832
:108D20000E000EC0B4201E4908801E480079052898
:108D300002D01DA0F7F7F4FAF9F7C6FE064624495B
:108D400004F0ECF8054604F04DF804B20020009061
:108D50002048008883B21248008882B21E48B0F9C9
:108D600000102046FDF766F898B9F9F7ADFE064603
:108D7000174904F0D3F8054604F034F804B222464B
:108D80001548B0F9001015A0F7F7CAFA07210548F1
:108D9000C170052103480171FEBD0000D8130020F9
:108DA00076000020440300205475726E5269676893
:108DB00074205475726E5269676874205475726EAF
:108DC000526967687420696E746F0D0A00000000B4
:108DD0000000204178000020740000205475726E5D
:108DE0005269676874202564202564200D0A0000FC
:108DF00010B50020FAF708F90020FAF70BF9002067
:108E0000FAF70EF90020FAF7DBF80020FAF7E4F899
:108E10000020FAF7EDF810BD08B501214020F9F760
:108E2000E3FF4020ADF8000010208DF80300032080
:108E30008DF8020069460448F9F7D4FC4021024845
:108E4000F9F7ADFD08BD00000018014070B50546FA
:108E50000C46F9F799FED42000F02EFCFCF764FFD5
:108E6000284600F029FCFCF75FFF204600F024FCB8
:108E7000FCF75AFFF9F7AEFE0A20FBF7C3FC70BD02
:108E800070B50646092E69D2DFE806F005101B26EC
:108E9000313C47525D001324802529460A20FFF704
:108EA000D5FF21460B20FFF7D1FF57E01024002506
:108EB00029460A20FFF7CAFF21460B20FFF7C6FF0D
:108EC0004CE00B24C02529460A20FFF7BFFF2146AE
:108ED0000B20FFF7BBFF41E00824002529460A20AC
:108EE000FFF7B4FF21460B20FFF7B0FF36E0042464
:108EF000002529460A20FFF7A9FF21460B20FFF78E
:108F0000A5FF2BE00224002529460A20FFF79EFF3B
:108F100021460B20FFF79AFF20E001240025294677
:108F20000A20FFF793FF21460B20FFF78FFF15E084
:108F30000024802529460A20FFF788FF21460B20C0
:108F4000FFF784FF0AE00024402529460A20FFF7A6
:108F50007DFF21460B20FFF779FF00BF00BF70BDEA
:108F600070B50646062E46D2DFE806F0030E192439
:108F70002F3A1024802529460C20FFF767FF214651
:108F80000D20FFF763FF36E02124002529460C2041
:108F9000FFF75CFF21460D20FFF758FF2BE031243F
:108FA000402529460C20FFF751FF21460D20FFF7F1
:108FB0004DFF20E04124A02529460C20FFF746FF65
:108FC00021460D20FFF742FF15E03A24802529466F
:108FD0000C20FFF73BFF21460D20FFF737FF0AE08B
:108FE0003624A02529460C20FFF730FF21460D200E
:108FF000FFF72CFF00BF00BF70BD000070B5FBF78E
:1090000045FC0446FBF726FD05469CB121460CA015
:10901000F7F786F9072C05D101200E4908600020DA
:109020000D494873022C05D100200A49086001202F
:10903000094948731DB1294608A0F7F771F970BDB9
:10904000627574746F6E7374617465312025640D7C
:109050000A000000980123424403002062757474E2
:109060006F6E7374617465322025640D0A00000010
:1090700010B5A0F5E1631BB2034C2380034B1A80AB
:10908000034B198010BD0000740000207600002002
:10909000780000202DE9F04782460C469146504664
:1090A00003F07FFA07460022114B03F0F3F8054660
:1090B00003F002F80F490860204603F072FA0746F1
:1090C00000220B4B03F0E6F8054602F0F5FF0A49D3
:1090D0000860484603F065FA07460022044B03F097
:1090E000D9F8054602F0E8FF04490860BDE8F087BA
:1090F000000059407C0000208000002084000020F7
:1091000010B50346002005E031F8104023F8104068
:10911000441CE0B29042F7DB10BD000030B58BB0CC
:1091200005460C4601210846F9F72EFE0D48F8F7D2
:10913000DFFE0D480090019510200290039400205E
:1091400004908020059000200690079008904FF42E
:109150008050099000200A9069460248F8F7A7FF5E
:109160000BB030BD440002400438014030B58BB034
:1091700005460C4601210846F9F706FE0F48F8F7A8
:10918000B7FE0F48009001950020029003940490D0
:109190008020059000200690079008904FF48050A2
:1091A000099000200A9069460448F8F780FF0121E1
:1091B0000248F8F791FE0BB030BD00006C00024091
:1091C0000444004030B58BB005460C4601210846EA
:1091D000F9F7DAFD0F48F8F78BFE0F48009001957C
:1091E000102002900394002004908020059000201D
:1091F0000690079008904FF48050099000200A9044
:1092000069460448F8F753FF4FF00070F8F748FE3E
:109210000BB030BD800002400444004004E0F9F788
:10922000C3FB0A2001F070FAF9E7000070B50446AC
:1092300024E01449888803F029FE05460121F9F746
:10924000A5F81049088803F021FE05460221F9F728
:109250009DF80C49C88803F019FE05460321F9F76B
:1092600095F80849488803F011FE05460421F9F7EE
:109270008DF801F06DFF0A2001F046FA002CD8DCD1
:1092800070BD0000B80000200EB577E000BF0520DB
:1092900001F03AFAF9F7CEF8FAF7FAFFF8F768FBB7
:1092A0003748D0F809000028F1D03548407AC0F39B
:1092B000400020B93248407AC0F3800018B1002144
:1092C0002F48C17059E02E48C07818B12C48C0789A
:1092D000092800D151E02A48807A00F0010020B925
:1092E0002748807AC0F34000E0B16846F9F7F2FB06
:1092F00024489DE80E000EC0022023490870204833
:10930000807A00F0010050B11D48807AC0F340001F
:1093100028B101201D4908701DA0F7F701F80221AE
:109320001748C1701648407AC0F3001078B9144845
:10933000407AC0F3C00050B91148407AC0F38010A1
:1093400028B90F48407AC0F3401000289FD06846E3
:10935000F9F7C0FB0B489DE80E000EC001200A493A
:1093600008700C480078012803D102210448C1701C
:109370008DE703210248C17089E700BF86E700003E
:1093800044030020D813002058000020570000207C
:10939000360000005600002070B505460C461DB191
:1093A000204600F0A9FF02E0002000F0A5FF70BDFC
:1093B00008B501214020F9F717FD0420ADF80000A1
:1093C00010208DF8030003208DF802006946044840
:1093D000F9F708FA04210248F9F7E1FA08BD00009C
:1093E0000018014010B54FF400510648F9F7CEFAC5
:1093F00018B100200449087002E0012002490870F9
:1094000010BD000000100140E700002008B5012158
:109410001020F9F7E9FC4FF40050ADF800000420EB
:109420008DF8030069460248F9F7DCF908BD000031
:1094300000100140FFF7EAFF0CE0FFF7D3FFFBF756
:10944000A5FCC2430448817A62F3820181726420E0
:10945000FBF7D8F9F1E70000440300202DE9F043C1
:10946000A1B007468846342114A8F7F72EF95021F9
:109470006846F7F72AF9002417E0002511E004EB0D
:10948000840000EBC400584901EB400030F815009F
:1094900005EB45016A4602EB410121F81400681C06
:1094A00045B20D2DEBDB601C44B2032CE5DB00263E
:1094B00035E001242FE006EB4600694601EB400051
:1094C00030F81490601E45B210E006EB4600694685
:1094D00001EB400030F8151006EB46006A4602EB3F
:1094E0004002681C22F81010681E45B2002D08DBEF
:1094F00006EB4600694601EB400030F81500484590
:10950000E3DC06EB4600694601EB4001681C21F8EC
:109510001090601C44B2032CCDDB701C46B20D2EA3
:10952000C7DB00241AE001250FE004EB4400694684
:1095300001EB400030F8150014A951F8241008443C
:1095400014A941F82400681C45B2022DEDDB14A8D3
:1095500030F8240027F81400601C44B20D2CE2DB24
:109560002248007830B1012812D002281ED00328EA
:1095700035D128E03888A8F8000001201C4908608F
:1095800000201C49C1F8A40101201849087027E0F7
:109590003888A8F802000020154908600120154904
:1095A000C1F8A40102201149087019E03888A8F810
:1095B000040001200E4908600E49C1F8A4010320EF
:1095C0000A4908700CE03888A8F80600002008490D
:1095D00008600849C1F8A4010449087000E000BF10
:1095E00000BF21B0BDE8F083E4060020B0000020F9
:1095F000AC8122420080224270B50AA0F6F790FEAC
:10960000F9F762FA064603F05DFA044622460B4675
:1096100005A0F6F785FE0748017807A0F6F780FE5B
:1096200070BD00000D0A0000BABDCFF2BDC72025F5
:10963000660D0A00C0000020D7B4CCAC2025640D14
:109640000A00000000200E49087017E00C4800785E
:1096500010B9F8F715FA11E009480078012802D18D
:10966000F8F7AAFB0AE006480078022806D1F8F7C6
:10967000EFFAF8F76BFA0520FBF7C4F8E6E700000D
:10968000C000002008B501210820F9F7ADFBC0207B
:10969000ADF8000010208DF8030003208DF80200C3
:1096A00069460448F9F79EF8C0210248F9F779F9AC
:1096B00008BD0000000C014070B504461848006861
:1096C00020F07040164908600846006840F040509D
:1096D000086000201349086000251EE0E00920B161
:1096E00001201049091D086003E000200D49091DF3
:1096F00008606006040E0220FBF7A4F80120094967
:1097000008600220FBF79EF800200749C1F8980185
:109710000220FBF797F8681CC5B2082DDEDB70BD90
:10972000000C0140988121420080214208B50121AE
:109730000820F9F759FB01212020F9F755FB0121F9
:109740000846F9F751FB1020ADF8000048208DF8CD
:10975000030003208DF8020069460B48F9F742F830
:109760008020ADF8000069460848F9F73BF8102161
:109770000548F9F716F980210448F9F712F9012193
:109780000348F9F7BBF808BD000C01400014014084
:109790000002300000B589B001210820F9F724FB50
:1097A00001210846F9F700FB01210846F9F71CFBE7
:1097B00040F60840ADF8200018208DF82300032063
:1097C0008DF8220008A92348F9F70CF80121224856
:1097D000F9F794F801212148F9F790F86320ADF8E2
:1097E00018004720ADF814000020ADF81A00ADF8BD
:1097F000160005A94FF08040FAF7C2FB6020ADF8D3
:1098000004000120ADF806000020ADF80C00ADF812
:109810000A0001A94FF08040FAF774FA01A94FF04D
:109820008040FAF7CFFA01A94FF08040FAF724FB05
:109830000821C806FAF7B8FA0821C806FAF712FB99
:109840000821C806FAF756FB01218807FAF7DDF868
:1098500009B000BD000C01400002300000031800F8
:1098600010B50523002211462548F9F7DBF9012838
:1098700044D124480078642803DD0120224908707F
:1098800005E02048007810B900201F4908701E48E4
:10989000007828B11B480078401E1A49087004E07F
:1098A00018480078401C17490870FBF775FAD8B1C2
:1098B000FCF722FD32280CDD1248007800F0C4FCD1
:1098C0001048007801F076FC0E48007801F0B2FCF8
:1098D00014E0002000F0B8FC002001F06BFC094807
:1098E000007801F0A7FC09E0002000F0ADFC05487D
:1098F000007801F05FFC002001F09CFC10BD00002E
:1099000014140020A1000020A200002000F1080192
:1099100041604FF0FF31816000F10801C1600161D9
:1099200000210160704700210161704710B50246B7
:109930000B685C1C0CB9106907E002F1080000E03C
:109940004068446824689C42FAD944684C604C687A
:10995000A160886041600A611468641C146010BDD5
:1099600042684A6093688B609368596091600861AF
:1099700003685B1C0360704770B5284AB2F9121087
:10998000B2F91600FCF772F80446002C0EDA2046F5
:10999000FCF7FAFC054629462148FAF7BFFA0120F0
:1099A0002049086000201D49C8730DE02046FCF7DF
:1099B000EBFC054629461A48FAF7B0FA0020194987
:1099C000086001201549C873174AB2F91210B2F99C
:1099D0001600FCF7B3F80446002C0FDA2046FCF71B
:1099E000D3FC054629460E48FAF796FA01200D49A0
:1099F0000C39086000200C49C8730EE02046FCF7C3
:109A0000C3FC054629460648FAF786FA00200549B0
:109A10000C39086001200449C87370BDA0130020F0
:109A2000000400409C012342BC13002036E01C4887
:109A3000018A008A401C1A4A10820A2903DD00208C
:109A40001146488205E01648C17BFCF781FC1449A9
:109A500048821448018A008A401C124A10820A294E
:109A600003DD00201146488205E00E48C17BFCF76B
:109A70006FFC0C4948820C4800684FF47A714843E7
:109A80000A21B0FBF1F00621B0FBF1F007490860B4
:109A90000020054908600A2000F036FEC7E70000F4
:109AA000A0130020BC1300204C00002070000020F8
:109AB00010B500BF502080F31188BFF34F8FBFF364
:109AC0006F8F00BF0B480068401C0A4908600846B9
:109AD000006801280DD108480068C0B208B901200B
:109AE00000E0002028B94FF4BD7204A10EA0F6F7E3
:109AF00017FC10BD3801002004ED00E02E2E5C465E
:109B000072656552544F535C706F727461626C651C
:109B10005C525644535C41524D5F434D335C706F11
:109B200072742E63000000004572726F723A2573E2
:109B30002C25640D0A00000010B50B48006828B9F8
:109B400040F2811209A114A0F6F7EAFB064800686A
:109B5000401E054908600846006820B9002080F3CF
:109B6000118800BF00BF10BD380100202E2E5C46BA
:109B700072656552544F535C706F727461626C65AC
:109B80005C525644535C41524D5F434D335C706FA1
:109B900072742E63000000004572726F723A257372
:109BA0002C25640D0A00000070B506463546002ECF
:109BB00035D0083D2C461A4960680968084008B14C
:109BC000012000E0002028B94FF4A07215A11FA0C9
:109BD000F6F7A6FB206808B9012000E0002028B9AC
:109BE00040F241120FA119A0F6F79AFB0C496068E8
:109BF0000968084098B1206888B90949606809680F
:109C00008843606000F05AFF14496068096808449E
:109C1000124908602046FBF761FB02F01BF970BD9A
:109C2000580100202E2E5C4672656552544F535CDD
:109C3000706F727461626C655C4D656D4D616E67CD
:109C40005C686561705F342E630000004572726F5E
:109C5000723A25732C25640D0A0000005001002083
:109C6000064800684FF47A71B0FBF1F0401E4FF0E7
:109C7000E0214861072008617047000000000020D3
:109C800070B5F6F727FB0546102D11D305F1E0203E
:109C900090F8F04310480078844201DB012000E096
:109CA000002028B940F2A9220CA117A0F6F738FB32
:109CB0001948006800F4E06018490968884201D832
:109CC000012000E0002028B940F2B92203A10EA033
:109CD000F6F726FB70BD00003C0100202E2E5C46EE
:109CE00072656552544F535C706F727461626C653B
:109CF0005C525644535C41524D5F434D335C706F30
:109D000072742E63000000004572726F723A257300
:109D10002C25640D0A0000000CED00E0400100203D
:109D20000EB50120F9F782F936E0FEF7B9FB00F035
:109D300057FAFBF7BBFF19498870FBF72DF801466E
:109D40001648827A61F3C3028272FBF725F8C8B124
:109D5000FBF728F8B0B111480079092803D0092190
:109D60000E48C170017100231E2219466846F8F79B
:109D700059FF01280DD10320FFF7F2F80420FFF767
:109D80007FF806E005480079092802D10921034837
:109D90000171642000F0B8FCC7E700004403002014
:109DA00010B50020FBF764FF0446214641A0F6F7FA
:109DB000B7FA0120FBF75CFF0446214641A0F6F705
:109DC000AFFA0220FBF754FF0446214640A0F6F705
:109DD000A7FA0320FBF74CFF044621463FA0F6F705
:109DE0009FFA0420FBF744FF044621463EA0F6F705
:109DF00097FA0520FBF73CFF044621463DA0F6F705
:109E00008FFA0620FBF734FF044621463CA0F6F704
:109E100087FA0720FBF72CFF044621463BA0F6F704
:109E20007FFA0920FBF724FF044621463AA0F6F703
:109E300077FA0A20FBF71CFF0446214639A0F6F703
:109E40006FFA0B20FBF714FF0446214638A0F6F703
:109E500067FA0C20FBF70CFF0446214637A0F6F703
:109E60005FFA0D20FBF704FF0446214636A0F6F703
:109E700057FA0E20FBF7FCFE0446214635A0F6F704
:109E80004FFA0F20FBF7F4FE0446214634A0F6F704
:109E900047FA1020FBF7ECFE0446214633A0F6F704
:109EA0003FFA1120FBF7E4FE0446214632A0F6F704
:109EB00037FA10BD0D0A5B3030485D252332780D2E
:109EC0000A0000005B3031485D252332780D0A001E
:109ED0005B3032485D252332780D0A005B30334811
:109EE0005D252332780D0A005B3034485D2523322E
:109EF000780D0A005B3035485D252332780D0A0065
:109F00005B3036485D252332780D0A005B303748D8
:109F10005D252332780D0A005B3039485D252332F8
:109F2000780D0A005B3041485D252332780D0A0028
:109F30005B3042485D252332780D0A005B30434890
:109F40005D252332780D0A005B3044485D252332BD
:109F5000780D0A005B3045485D252332780D0A00F4
:109F60005B3046485D252332780D0A005B3130486E
:109F70005D252332780D0A005B3131485D2523329F
:109F8000780D0A0010B50EA0F6F7CAF90D48C07892
:109F90000D4A52F820100DA0F6F7C2F90948817851
:109FA0000DA0F6F7BDF90748D0F809100EA0F6F796
:109FB000B7F90448D0F805100EA0F6F7B1F910BDB6
:109FC0000D0A00004403002018030020B7BDCFF2A3
:109FD000203A2573200D0A00B5E7C1BF2025642073
:109FE00025250D0A00000000D2ECB3A32025642033
:109FF0000D0A0000B4EDCEF3202564200D0A000008
:10A0000010B51EA0F6F78CF91D48B0F914101DA06C
:10A01000F6F786F92348B0F9141023A0F6F780F973
:10A020001748B0F9121029A0F6F77AF91D48B0F9CF
:10A0300012102EA0F6F774F9FCF71EF9044621461B
:10A0400032A0F6F76DF91748018838A0F6F768F9DD
:10A050001448418838A0F6F763F91248818839A07E
:10A06000F6F75EF90F48C18839A0F6F759F90D489F
:10A0700001893AA0F6F754F910BD00000D0A00005E
:10A08000A01300204C656674204578706563745396
:10A090007065656420202020202564206D6D2F735D
:10A0A0000D0A0000BC1300205269676874204578CF
:10A0B00070656374537065656420202020256420DA
:10A0C0006D6D2F730D0A0D0A000000004C6566745B
:10A0D000205265616C537065656420202020202526
:10A0E00064206D6D2F730D0A0000000052696768CF
:10A0F00074205265616C53706565642020202025B2
:10A1000064206D6D2F730D0A00000000675F4661CB
:10A110006E526F746174696F6E5261746520202590
:10A120006420722F73200D0A0D0A000030202020B9
:10A13000202564200D0A00003120202020256420E5
:10A140000D0A000032202020202564200D0A000086
:10A1500033202020202564200D0A000034202020F8
:10A16000202564200D0A0000024600200BE0084B69
:10A1700053F8303033B9064B43F8301003EBC003CB
:10A180005A6002E0401C0828F1D300BF704700006D
:10A19000C41700202DE9F04105460E4617462C460F
:10A1A000FFF786FC94F94400401C10B9002084F8A5
:10A1B000440094F94500401C10B9002084F8450083
:10A1C000FFF7BAFCA06B28B93A46314604F12400E7
:10A1D00000F072FB2046FBF730FBBDE8F081000089
:10A1E0000648C088B0F5FA6F03DD01200449087005
:10A1F00002E000200249087070470000A80000201B
:10A20000E50000200E4800880E49097808440C49F2
:10A21000088008460088B0F57A7F0FDB00200880B0
:10A2200008464068401C4860084640683C2805D302
:10A230000020486008468068401C88607047000025
:10A24000D80600203100002010B50446642C00DD43
:10A25000642421464FF08040F9F75CFE10BD0000F9
:10A2600008B501210420F8F7BFFD4FF48070ADF868
:10A27000000010208DF8030003208DF802006946CD
:10A280000148F8F7AFFA08BD0008014008B5012100
:10A290002020F8F7A9FD4FF42060ADF80000102051
:10A2A0008DF8030003208DF8020069460148F8F795
:10A2B00099FA08BD001401402DE9F04104460D460D
:10A2C000002605EB85004FF6FF7101EA40060848BD
:10A2D00090FBF4F0401E87B2012239460548F9F799
:10A2E00016FE701E81B20348F9F718FEBDE8F08132
:10A2F000401901000008004010B504461CB10120BF
:10A300000549086002E0002003490860214603482F
:10A31000F9F700FE10BD000088012342000C004048
:10A3200008B501211020F8F75FFD4FF48050ADF81B
:10A33000000010208DF8030003208DF8020069460C
:10A340000148F8F74FFA08BD001001401D48B0F968
:10A3500014001C49B1F91610884214D01948B0F9FC
:10A3600014001849B1F91610884206DD1548C08A54
:10A37000401D00B21349C88205E01248C08A401F40
:10A3800000B21049C8821048B0F914000E49B1F962
:10A390001610884214D00C48B0F914000A49B1F9DB
:10A3A0001610884206DD0848C08A401D00B20649E2
:10A3B000C88205E00448C08A401F00B20249C88232
:10A3C00070470000A0130020BC13002004E0FFF73A
:10A3D000BDFF022000F098F9F9E710B5FFF752F938
:10A3E000FFF7A4F9FAF7E0F900F020FC00F084FC94
:10A3F000FFF7D0F9FDF7B6FB00F01AF8FDF79CF86F
:10A40000FDF7E6FFFDF78DF9FDF716FB00F040F8CC
:10A41000FDF7B0FB10BD0AE0FEF7F0FDFFF720FAF4
:10A4200000F048FD00F098FD052000F06DF9F3E71D
:10A430001FB501211020F8F7B7FC41F28730ADF8C5
:10A4400008004720ADF804000020ADF80A00ADF880
:10A45000060001A90D48F9F793FD012211460B48AA
:10A46000F9F746FC36208DF8000000208DF8010039
:10A470008DF8020001208DF803006846F8F736FCDD
:10A4800001210248F9F7C1FA1FBD00000010004089
:10A490000EB501212020F8F787FC0E48F9F7C2FA23
:10A4A0004FF6FF70ADF804004720ADF80000002023
:10A4B000ADF80600ADF8020069460648F9F760FD00
:10A4C00001210448F9F79BFA01210248F9F79DFAA6
:10A4D0000EBD0000001400401CB500200121034601
:10A4E0004FF49B72CDE900103BA1414801F04CFABA
:10A4F0004048012100234FF49B72CDE900103EA19A
:10A50000434801F041FA0020012103464FF49B72B9
:10A51000CDE900103FA1454801F036FA00200221A4
:10A5200003464FF49B72CDE9001041A1454801F06C
:10A530002BFA0020012103464FF4A072CDE9001050
:10A5400041A1474801F020FA0020032103464FF4BF
:10A55000A072CDE9001043A1474801F015FA002090
:10A56000012103467822CDE9001044A1494801F0B9
:10A570000BFA0020012103467822CDE9001046A104
:10A58000494801F001FA0020022103467822CDE972
:10A59000001046A1494801F0F7F9002002210346C6
:10A5A0007822CDE9001046A1494801F0EDF90020DC
:10A5B00002210346F022CDE9001046A14A4801F0ED
:10A5C000E3F9002002210346F022CDE9001047A163
:10A5D0004C4801F0D9F91CBD53797374656D48611D
:10A5E000726477617265576F726B5461736B0000B0
:10A5F00017A40008A400002076414443446174611C
:10A6000050726F63657373696E675461736B00009A
:10A61000FD74000876476172626167655F626F78FA
:10A620005F636865636B5F7461736B0035940008EA
:10A63000764779726F73636F7073655F7461736B64
:10A640000000000045960008764D6F746F725370DD
:10A650006565645570646174655461736B000000D6
:10A660002D9A000876416C6C4D6F746F724D6F744B
:10A67000696F6E5461736B001577000876536F66CF
:10A68000745370656564416476616E63655461738B
:10A690006B000000CDA3000876506F7765724368A9
:10A6A00069705461736B0000219D000876556C74CD
:10A6B0007261736F6E69635461736B00FDAD000866
:10A6C0007644726F70436865636B5461736B00000E
:10A6D0001D920008764265686176696F724D616E01
:10A6E0006167655461736B00E58600087645727298
:10A6F0006F7241626E6F726D616C436865636B541B
:10A7000061736B008992000870B504460025ACB1F6
:10A710000F48006808B9012000E0002028B940F285
:10A72000CF420CA110A0F5F7FBFD00F0C7F9002106
:10A730002046FAF751FB01F08DFB05463DB94FF07D
:10A7400080500D490860BFF34F8FBFF36F8F70BD0E
:10A75000200100202E2E5C4672656552544F535CDA
:10A760007461736B732E63004572726F723A257356
:10A770002C25640D0A00000004ED00E02DE9F047EF
:10A7800004460F464FF000092CB940F2794226A149
:10A790002AA0F5F7C5FD0FB1012000E0002028B97F
:10A7A00040F27A4220A125A0F5F7BAFD27480068BB
:10A7B00008B9012000E0002028B940F27B421AA12C
:10A7C0001EA0F5F7ADFD00F079F921480668206874
:10A7D000C5192068B04207D92068A8420BD9B542F4
:10A7E00009D94FF0010906E02068A84201D8B54216
:10A7F00001D94FF001092560B9F1000F03D0A81B62
:10A800000021FAF7E9FA01F025FB8046B8F1000FC4
:10A8100007D14FF080500F490860BFF34F8FBFF34F
:10A820006F8FBDE8F08700002E2E5C467265655282
:10A83000544F535C7461736B732E63004572726F77
:10A84000723A25732C25640D0A00000020010020B7
:10A85000FC00002004ED00E0012001490860704781
:10A860000C01002070B504460D462CB940F60632A6
:10A8700007A10CA0F5F754FD0E48016818312046D9
:10A88000FFF754F801212846FAF7A6FA70BD000038
:10A890002E2E5C4672656552544F535C7461736B27
:10A8A000732E63004572726F723A25732C25640D06
:10A8B0000A000000E800002070B505460E46144668
:10A8C0002DB940F6313209A10DA0F5F729FD104848
:10A8D000016818312846FFF743F80CB14FF0FF36F6
:10A8E00021463046FAF778FA70BD00002E2E5C46FD
:10A8F00072656552544F535C7461736B732E6300C1
:10A900004572726F723A25732C25640D0A0000009F
:10A91000E800002070B505462C46002D4BD0264996
:10A92000E06A0968C96A884245D2A06900F000401F
:10A9300028B921480068C06AC0F12000A061E16A1E
:10A9400001EB81011D4A02EB81016069884201D15E
:10A95000012000E0002050B3201DFCF7BBFD78B9BA
:10A96000E06A00EB8000154951F8200040B994F8E6
:10A970002C10012088401249096881431048016069
:10A980000D480068C06AE06294F82C1001208840ED
:10A990000B49096808430A490860E16A01EB810133
:10A9A000064A02EB8100211DFEF7DAFF03E00248B0
:10A9B0000068C06AE06270BDE8000020B8140020A2
:10A9C0000001002010B504462CB940F6C13205A1A3
:10A9D00009A0F5F7A5FC0C48006820600B4800684A
:10A9E000606010BD2E2E5C4672656552544F535CFC
:10A9F0007461736B732E63004572726F723A2573C4
:10AA00002C25640D0A00000010010020FC0000202D
:10AA10001CB51A4800210B468222CDE9001018A16E
:10AA2000194800F0B1FF0446012C02D101F0A2FA4E
:10AA30000446012C15D100BF502080F31188BFF3CC
:10AA40004F8FBFF36F8F00BF4FF0FF300F4908608B
:10AA500001200F49086000200E49086000F0F8FB53
:10AA60000BE0601C08B1012000E0002028B940F292
:10AA7000847209A10DA0F5F753FC1CBD1C01002038
:10AA800049444C45000000004D51000818010020C9
:10AA900004010020FC0000202E2E5C4672656552E9
:10AAA000544F535C7461736B732E63004572726F05
:10AAB000723A25732C25640D0A00000002480068D4
:10AAC000401C0149086070472001002010B51B4858
:10AAD000006818B101201A4908602DE000201849CB
:10AAE000086018480068B0FA80F0C0F11F0404EB59
:10AAF0008400154951F8200008B1012000E0002031
:10AB000028B940F6F62211A115A0F5F709FC04EBCF
:10AB100084010D4A02EB810041684968416000F1FF
:10AB2000080142688A4202D141684968416041682F
:10AB3000C9680F4A116000BF10BD0000200100204D
:10AB40000C01002000010020B81400202E2E5C46CD
:10AB500072656552544F535C7461736B732E63005E
:10AB60004572726F723A25732C25640D0A0000003D
:10AB7000E800002010B586B00446012144F204002C
:10AB8000F8F732F94FF40070ADF8140003208DF897
:10AB9000160018208DF8170005A92248F7F722FEA5
:10ABA0004FF48060ADF8140004208DF8170005A95B
:10ABB0001C48F7F717FE25208DF8000003208DF8BC
:10ABC00001008DF8020001208DF803006846F8F7B7
:10ABD0008DF801940020ADF80800ADF80A00ADF83A
:10ABE0000C00ADF810000C20ADF80E0001A90E48C5
:10ABF000F9F7DCFA012240F225510B48F9F7B0FAD7
:10AC0000012240F224410848F9F7AAFA01228021E2
:10AC10000548F9F765FA01210348F9F755FA06B036
:10AC200010BD0000000801400038014010B54FF48D
:10AC3000E130FFF79FFF06490978C1EB011101EBF5
:10AC40004101044A02EB41005A21FEF767FA10BDA8
:10AC5000210000205203002010B586B004460121D7
:10AC60002020F8F7C1F801214804F8F79DF80121E8
:10AC70000846F8F7B9F801210820F7F73FFE202031
:10AC8000ADF8140003208DF8160018208DF8170079
:10AC900005A91748F7F7A6FD4020ADF814000420D9
:10ACA0008DF8170005A91248F7F79CFD01940020C4
:10ACB000ADF80800ADF80A00ADF80C00ADF81000D2
:10ACC0000C20ADF80E0001A90A48F9F76FFA01222D
:10ACD00080210848F9F704FA012240210548F9F7D4
:10ACE000FFF901210348F9F7EFF906B010BD0000A4
:10ACF000001401400044004010B54FF4E130FFF76C
:10AD0000ABFF0C490978C1EB011101EB41010A4A83
:10AD100002EB41005A21FEF755FA08490978C1EBC8
:10AD2000011101EB4101064A02EB41005A21FEF7F5
:10AD30001DFA10BD3B000020320700204400002017
:10AD4000DC1100202DE9F04107464B24502527480F
:10AD50008079002842D00020244988718888F9F73A
:10AD60008BFF064602F05AF8214908800846008801
:10AD700020490988884203DC1D480088012807DA39
:10AD800000201D49087040F2E7304880BDE8F0819E
:10AD90001748008817490988884202DA01201649B5
:10ADA000087013480088A04208DD114800889628E2
:10ADB00004DA0F480088001B0F4948800C480088BF
:10ADC000962811DD0A4800880A49098888420BDA6A
:10ADD00007480088401B0849488005E040F2E730FA
:10ADE000054948800020087000BFCFE732000020EE
:10ADF000DA000020D8000020DC00002003E04FF43F
:10AE00007A70F9F7FFFC0B4800780228F7D100F0C0
:10AE1000A5FE094908600BE000F010F80220FFF7DA
:10AE200073FC2820FFF78EFF32210348FFF7A6FCB2
:10AE3000F2E70000C0000020E000002010B5FFF79E
:10AE40003DFE00210848F9F76CF840210748F7F764
:10AE5000A8FD1E20F9F7F6FC40210448F7F79FFDF6
:10AE600000F0F8FF10BD0000001400400010014089
:10AE700008B501211020F7F7B7FF01210846F7F7C1
:10AE8000B3FF4020ADF8000010208DF80300032030
:10AE90008DF8020069460448F7F7A4FC40210248F7
:10AEA000F7F77DFD08BD00000010014010B5FFF769
:10AEB000DFFF10BD10B52248007800283ED04FF4C7
:10AEC0000050F7F7BFF8012811D14003F6F7E8FF6B
:10AED0001C480078401C052801D1002002E01948D8
:10AEE0000078401C1749087001201749087016485F
:10AEF0000078012822D1002013490870002113484E
:10AF0000F6F7EAFF0E480078401E0D4908700D481C
:10AF10000078C0EB001000EB40000D4901EB400051
:10AF20000A49443908650B4806490978405C0749D5
:10AF30004439886401210548F6F7CEFF10BD0000B2
:10AF400022000020210000202F00002044000240A9
:10AF5000520300201C00002010B510214248F9F7D0
:10AF6000C8F8012838D100214048F6F7B5FF4FF462
:10AF70000010F6F795FF3C4800883B48001D00880C
:10AF80003A48F7F75BF8C0F15A003949394A127864
:10AF9000885438480078401C052801D1002002E080
:10AFA00034480078401C3349087033480078401C0E
:10AFB000314908702F480078C0EB001000EB4000CA
:10AFC0002E4901EB400029496C3988675A200867EF
:10AFD00001212648F6F780FF29480078002841D053
:10AFE0004FF00070F7F72EF8012811D14006F6F760
:10AFF00057FF24480078401C1E2801D1002002E0A1
:10B0000020480078401C1F49087001201E49087024
:10B010001D480078012825D100201B490870002117
:10B0200012481430F6F758FF15480078401E1449AE
:10B03000087014480078C0EB001000EB4000134982
:10B0400001EB400009492031086011480D49097899
:10B05000405C06496C39C1F8840001210348143072
:10B06000F6F73AFF10BD0000004400406C000240BB
:10B070003F0000204700002048000020DC11002095
:10B080003C0000203B000020490000203207002047
:10B09000BE11002005E00349086980471420FFF72E
:10B0A00033FBF8E72402002008B501214020F7F720
:10B0B0009BFE4FF48070ADF8000010208DF8030067
:10B0C00003208DF8020069460448F7F78BFB4FF424
:10B0D00080710248F7F765FC08BD000000180140C8
:10B0E00008B501210420F7F77FFE4FF40060ADF8AA
:10B0F000000010208DF8030003208DF8020069463F
:10B100000448F7F76FFB4FF400610248F7F749FC7A
:10B1100008BD00000008014008B501211020F7F724
:10B1200063FE4FF48070ADF8000010208DF803002E
:10B1300003208DF8020069460448F7F753FB4FF4EB
:10B1400080710248F7F72DFC08BD00000010014097
:10B1500010B50420F7F7CEF8044600230DE000BF39
:10B160000748008800F040000028F9D00548C05C7E
:10B170000349091D0880581CC3B2A342EFDB10BD70
:10B18000003801400468002008B501214020F7F78D
:10B190002BFE9020ADF8000010208DF80300032056
:10B1A0008DF8020069460248F7F71CFB08BD000055
:10B1B0000018014010B50446642C00DD64242146CB
:10B1C0004FF08040F8F7A8FE10BD70B504460D465C
:10B1D00029462046FDF73AFE70BD000070B50446D2
:10B1E0000D4629460D48F8F797FE29460B48F8F713
:10B1F00095FE29460A48F8F78DFE29460848F8F7D3
:10B200008BFE084804600848C0F890410748C0F821
:10B21000B0410748C0F8A04170BD000000040040E4
:10B22000000800409C01234200002342000022420B
:10B230000000214210B50446642C00DD6424214640
:10B240004FF08040F8F76AFE10BD016070470000C3
:10B250001CB52248014609780191FF210246117070
:10B260000146097800919DF8001001F050011C4A38
:10B27000117007211B4A116009E01A490968491E2B
:10B28000184A11609DF800104906090E00919DF8BA
:10B29000001001F080018029EFD0124909680902ED
:10B2A000104A11601146098801F4E06111600B4AEF
:10B2B000019911700C48006840F470000A49086058
:10B2C0000846006840F070400860FEF7C9FC0020A6
:10B2D00006490860F4F7C8FF00201CBD00E400E048
:10B2E0003C0100204001002020ED00E0380100205A
:10B2F00010B500BF502080F31188BFF34F8FBFF30C
:10B300006F8F00BF00F030FC18B14FF0805005493E
:10B310000860FEF777FF00BF002080F3118800BFB0
:10B3200010BD000004ED00E02DE9F84305460E468F
:10B3300090460DB1012000E0002028B94FF4C472FE
:10B340000DA112A0F4F7ECFF0EB9002701E005FBF8
:10B3500006F707F15400FAF7B9FA044644B104F1CC
:10B36000540943464A46314628460094F9F702FFFD
:10B370002046BDE8F88300002E2E5C4672656552BB
:10B38000544F535C71756575652E63004572726F1D
:10B39000723A25732C25640D0A0000002DE9FF4741
:10B3A00082B005460E461F464FF0000A2C462CB9C7
:10B3B00040F2DC4261A166A0F4F7B2FF0EB9206C46
:10B3C00008B9012000E0002028B940F2DD425BA16D
:10B3D0005FA0F4F7A5FF00F0B1FB08B9049808B925
:10B3E000012000E0002028B94FF49C6253A158A02E
:10B3F000F4F796FF00BFFEF75BFBD4F83890B9F185
:10B40000000F3DD0D4F80C8031462046F9F7F0FD0E
:10B41000DFB9A9F10100A063206810B9FAF700FBB9
:10B420006060206908B9012000E0002010BB04F131
:10B43000100000F0B5FCE8B14FF0805048490860BA
:10B44000BFF34F8FBFF36F8F14E0C4F80C80606AB6
:10B4500008B9012000E0002060B904F1240000F0E8
:10B460009FFC38B14FF080503D490860BFF34F8FCB
:10B47000BFF36F8FFEF760FB012006B0BDE8F087D9
:10B48000049818B9FEF758FB0020F6E7BAF1000F50
:10B4900004D16846FFF796FA4FF0010AFEF74CFB1D
:10B4A000FFF70CFBFEF704FB94F94400401C10B9B5
:10B4B000002084F8440094F94500401C10B9002095
:10B4C00084F84500FEF738FB04A9684600F00CFA42
:10B4D00040BB2046F9F762FFF0B1206830B9FEF7B3
:10B4E000E7FA6068FFF716FAFEF726FB04F124007E
:10B4F0000499FFF7B7F92046FAF79FF900F0AAFC84
:10B5000000287FF478AF4FF0805015490860BFF3F2
:10B510004F8FBFF36F8F6EE72046FAF78EF900F07A
:10B5200099FC68E72046FAF788F900F093FC20467A
:10B53000F9F734FF0028EED000209EE72E2E5C465F
:10B5400072656552544F535C71756575652E630065
:10B550004572726F723A25732C25640D0A00000043
:10B5600004ED00E070B505460E462C462CB940F2BD
:10B570001B121EA122A0F4F7D3FEFEF799FAD4E91C
:10B580000F12206801FB020060600020A0632068A9
:10B59000A060E06B401E226C216800FB0210E0609E
:10B5A000FF2084F8440084F845009EB9206908B95A
:10B5B000012000E00020A8B904F1100000F0F0FB29
:10B5C00080B14FF0805012490860BFF34F8FBFF336
:10B5D0006F8F07E004F11000FEF798F904F12400E2
:10B5E000FEF794F9FEF7A8FA012070BD2E2E5C46F6
:10B5F00072656552544F535C71756575652E6300B5
:10B600004572726F723A25732C25640D0A00000092
:10B6100004ED00E02DE9FF4383B0064688461D4651
:10B620004FF0000934462CB940F2D92260A165A040
:10B63000F4F776FEB8F1000F01D1206C08B90120B3
:10B6400000E0002028B940F2DA2259A15DA0F4F709
:10B6500067FE022D02D1E06B012801D1012000E03C
:10B66000002028B940F2DB2251A156A0F4F758FE81
:10B6700000F064FA08B9059808B9012000E000203C
:10B6800028B940F2DE224AA14EA0F4F749FE00BFDD
:10B69000FEF70EFAA06BE16B884201D3022D38D180
:10B6A0002A4641462046F9F7B8FC0746A06C68B127
:10B6B00029462046F9F78EFE28B34FF080504549C1
:10B6C0000860BFF34F8FBFF36F8F1CE0606A08B94B
:10B6D000012000E0002068B904F1240000F060FBC4
:10B6E00088B14FF080503B490860BFF34F8FBFF3E4
:10B6F0006F8F08E03FB14FF0805036490860BFF3CC
:10B700004F8FBFF36F8FFEF717FA012007B0BDE828
:10B71000F083059818B9FEF70FFA0020F6E7B9F1A3
:10B72000000F04D101A8FFF74DF94FF00109FEF712
:10B7300003FAFFF7C3F9FEF7BBF994F94400401C84
:10B7400010B9002084F8440094F94500401C10B959
:10B75000002084F84500FEF7EFF905A901A800F0E4
:10B76000C3F8F0B92046F9F726FEA0B104F11000A5
:10B770000599FFF777F82046FAF75FF800F06AFBC3
:10B78000002885D14FF0805012490860BFF34F8FD9
:10B79000BFF36F8F7CE72046FAF74FF800F05AFBB3
:10B7A00076E72046FAF749F800F054FB0020ADE7B1
:10B7B0002E2E5C4672656552544F535C71756575EB
:10B7C000652E63004572726F723A25732C25640DE5
:10B7D0000A00000004ED00E02DE9F05F80468A4693
:10B7E00015461E4644462CB940F29F3235A13AA078
:10B7F000F4F796FDBAF1000F01D1206C08B90120D1
:10B8000000E0002028B94FF468722EA132A0F4F7AE
:10B8100087FD022E02D1E06B012801D1012000E05A
:10B82000002028B940F2A13226A12BA0F4F778FD20
:10B83000FEF726FA00BF5021EFF3118081F3118843
:10B84000BFF34F8FBFF36F8F00BF0746A06BE16B55
:10B85000884201D3022E2BD194F945B0324651468D
:10B860002046F9F7DAFB0BF10100C8B9A06C40B132
:10B8700031462046F9F7AEFDB8B1B5B101202860D8
:10B8800013E0606A08B9012000E0002068B904F103
:10B89000240000F085FA40B13DB10120286004E0A9
:10B8A0000BF1010040B284F845004FF0010901E0BE
:10B8B0004FF0000900BF87F3118800BF4846BDE87C
:10B8C000F09F00002E2E5C4672656552544F535C0B
:10B8D00071756575652E63004572726F723A2573D6
:10B8E0002C25640D0A0000002DE9F04104460D46A8
:10B8F0002CB940F6CB3219A11DA0F4F711FD2DB9DA
:10B9000040F6CC3215A11AA0F4F70AFDFEF7D0F8E4
:10B910001B4807682868401C08B9002619E0194927
:10B9200020680968884204D06068B84201D80126BE
:10B930000FE06068381A2968884209D2286861686F
:10B94000791A401A28602046FFF73CF8002600E0EC
:10B950000126FEF7F1F83046BDE8F0812E2E5C4658
:10B9600072656552544F535C7461736B732E630040
:10B970004572726F723A25732C25640D0A0000001F
:10B98000FC000020100100202DE9FF4F85B080460B
:10B9900089461746DDE912ABB800F9F797FF06466E
:10B9A00056B15C20F9F792FF04460CB1266304E01F
:10B9B0003046FEF7F9F800E000247CB10020CDE924
:10B9C00000ABCDE902403A4649464046089BF9F7AC
:10B9D000E9FB2046F9F74CFA012501E04FF0FF356D
:10B9E000284609B0BDE8F08F2DE9F84F07460E460E
:10B9F00090469946DDF828B0012000902FB941F219
:10BA000068123FA143A0F4F78BFCFEF739F93C46DE
:10BA100000BF5021EFF3118081F31188BFF34F8FE6
:10BA2000BFF36F8F00BF0546B9F1000F02D0606D04
:10BA3000C9F8000094F858A0022084F85800B8F122
:10BA4000050F17D2DFE808F01503070B0D00606D36
:10BA5000304360650EE0606D401C60650AE066651D
:10BA600008E0BAF1020F01D0666501E00020009005
:10BA700000E000BF00BFBAF1010F39D1A06A08B9D8
:10BA8000012000E0002028B941F2AF121CA121A042
:10BA9000F4F746FC23480068A8B9201DFBF71AFDFF
:10BAA00094F82C10012088401F49096808431E495A
:10BAB0000860E16A01EB81011C4A02EB8100211D53
:10BAC000FDF74EFF04E004F118011948FDF748FFA7
:10BAD0001849E06A0968C96A884209D9BBF1000FB0
:10BAE00003D00120CBF8000002E0012012490860D9
:10BAF00000BF85F3118800BF0098BDE8F88F0000F3
:10BB00002E2E5C4672656552544F535C7461736BA4
:10BB1000732E63004572726F723A25732C25640D83
:10BB20000A0000002001002000010020B8140020BD
:10BB300060170020E80000200C010020054909687A
:10BB400009B9012005E00449096809B9022000E0AB
:10BB500000207047040100202001002001490868EE
:10BB600070470000FC0000202DE9F0414FF0000874
:10BB700041480068002872D140480068451C3F4891
:10BB80000560EDB93E480068006808B9012000E092
:10BB9000002028B940F6D9123AA13FA0F4F7C0FB23
:10BBA0003748076840480068354908603E480760E4
:10BBB0003E480068401C3D490860F9F76BFD00BF36
:10BBC0003B48006885423CD300BF2D4800680068B0
:10BBD00008B9012000E0002020B14FF0FF303449C7
:10BBE00008602DE026480068C068C4686668B542F1
:10BBF00002D22F48066023E0201DFBF76BFCA06AF1
:10BC000018B104F11800FBF765FC94F82C10012022
:10BC1000884028490968084326490860E16A01EB21
:10BC20008101254A02EB8100211DFDF799FE234980
:10BC3000E06A0968C96A8842C7D34FF00108C4E7BF
:10BC400000BF1E480068C06A00EB80001A4951F826
:10BC50002000012801D94FF0010805E0FFE718484E
:10BC60000068401C164908601648006808B14FF08B
:10BC700001084046BDE8F08120010020FC000020C2
:10BC8000EC0000202E2E5C4672656552544F535CCA
:10BC90007461736B732E63004572726F723A257311
:10BCA0002C25640D0A000000F00000201001002087
:10BCB0001801002000010020B8140020E800002036
:10BCC000080100200C01002070B505462C46002616
:10BCD000002D4BD026480068844201D1012000E0AD
:10BCE000002028B940F6C76222A127A0F4F718FB6C
:10BCF000206D28B940F6C9621EA123A0F4F710FBFD
:10BD0000206D401E2065E16CE06A88422ED0206DD7
:10BD100060BB201DFBF7DEFB78B9E06A00EB80001A
:10BD20001D4951F8200040B994F82C10012088409A
:10BD30001A490968814319480160E06CE062E06AD1
:10BD4000C0F12000A06194F82C1001208840134914
:10BD50000968084311490860E16A01EB81010E4A54
:10BD600002EB8100211DFDF7FBFD0126304670BD71
:10BD7000E80000202E2E5C4672656552544F535CDD
:10BD80007461736B732E63004572726F723A257320
:10BD90002C25640D0A000000B814002000010020CA
:10BDA00070B50646F068C4682CB940F661321AA135
:10BDB0001EA0F4F7B5FA04F11800FBF78BFB1F483F
:10BDC0000068A8B9201DFBF785FB94F82C10012012
:10BDD00088401B490968084319490860E16A01EB7A
:10BDE0008101184A02EB8100211DFDF7B9FD04E035
:10BDF00004F118011448FDF7B3FD1449E06A09681D
:10BE0000C96A884204D9012501201149086000E06F
:10BE10000025284670BD00002E2E5C4672656552D6
:10BE2000544F535C7461736B732E63004572726F71
:10BE3000723A25732C25640D0A00000020010020B1
:10BE400000010020B814002060170020E800002046
:10BE50000C01002070B5002400263448006828B981
:10BE60004FF4FD6232A137A0F4F75AFAFDF720FE35
:10BE70002E480068401E2D490860084600680028CA
:10BE80004FD13448006800284BD024E03248C068C5
:10BE9000C46804F11800FBF71DFB201DFBF71AFB1B
:10BEA00094F82C10012088402C49096808432B493C
:10BEB0000860E16A01EB8101294A02EB8100211D42
:10BEC000FDF74EFD2749E06A0968C96A884202D336
:10BED0000120254908602048006808B9012000E0D9
:10BEE00000200028D2D00CB1F9F7D4FB1F48056818
:10BEF00065B100BFFFF738FE10B101201A49086094
:10BF00006D1E002DF6D10020184908601648006803
:10BF100038B10126300716490860BFF34F8FBFF3D1
:10BF20006F8FFDF709FE304670BD00002001002034
:10BF30002E2E5C4672656552544F535C7461736B70
:10BF4000732E63004572726F723A25732C25640D4F
:10BF50000A000000F8000020601700200001002007
:10BF6000B8140020E80000200C0100200801002087
:10BF700004ED00E01CB50024F8F7D6FF0B4800687C
:10BF800058B10B481F2100234FF48272CDE90010F5
:10BF900008A10A48FFF7F8FC04462CB940F2331216
:10BFA00007A10DA0F4F7BCF920461CBD2C01002010
:10BFB00030010020546D7220537663002158000830
:10BFC0002E2E5C4672656552544F535C74696D65E4
:10BFD00072732E63000000004572726F723A25730F
:10BFE0002C25640D0A0000002DE9FF4704460D468C
:10BFF00016461F46DDF830804FF000092CB94FF48B
:10C00000D37217A11CA0F4F78BF91F48006810B376
:10C01000009501960294062D15DAFFF78FFD022890
:10C0200008D100234246694617480068FFF7F2FA34
:10C03000814610E000231A46694613480068FFF75E
:10C04000E9FA814607E000233A4669460E4800684F
:10C05000FFF7C2FB8146484604B0BDE8F087000008
:10C060002E2E5C4672656552544F535C74696D6543
:10C0700072732E63000000004572726F723A25736E
:10C080002C25640D0A0000002C01002010B50029A9
:10C090000AD00878002807D005487844F4F76EFFE6
:10C0A000002801D0002010BD0248784410BD0000D7
:10C0B0007A1700007217000021F00042A2F16052CE
:10C0C000B2F5801F01F0004328BFD2F17F6C0BD97D
:10C0D0005FEA001C43EAC20242EB507018BF70478F
:10C0E00028BF20F001007047B2F5801FBCBF184682
:10C0F00070474FEA410C1CF5001F02D2084600F0C1
:10C10000D4BF70B500F05EFB00000089FFF7F6BFFA
:10C110004FF00040A0F580007047000010B591EA94
:10C12000030F48BF83F0004300F1EA83841A71EBE8
:10C13000030C05D2121943EB0C03001B61EB0C013D
:10C14000DFF824E14FEA1154A4EB135C1EEA430F1D
:10C1500018BF9EEA445F73D023EA0E03DCF1200E81
:10C1600021EA045143F4801332D322FA0CFE10EB7F
:10C170000E0023FA0CFE41EB0E01CCF1200E03FA67
:10C180000EFE10EB0E0051F10001B1F5801FCCF155
:10C19000200E32D201EB045112FA0EF2BDE810402B
:10C1A00058BF7047401C38BF5FEA420218BF704753
:10C1B000002814BF20F0010041F100014FEA4103C3
:10C1C00013F5001F38BF7047A1F1C04100F048BB14
:10C1D000012A43EB0302ACF1200CDCF11F0E32BF4D
:10C1E0004FF0000E23FA0CF310EB030041EB045167
:10C1F000B4EB115FD0D0A1EB045101F580114908D7
:10C200005FEA300001EB04510ED350F1000038BF5B
:10C2100012FA0EFE08D1BDE81040C9E7401C38BF35
:10C220005FEA4202CAD1C3E7BDE810404FEA4103CA
:10C2300013F5001F38BF7047A1F1C04100F010BBDB
:10C240009EEA445F08D011EA5E0FBDE8104004BFCB
:10C2500001F0004100207047BDE8104070B500F0CB
:10C26000B1FA00BF64FBBE3E0000E0FF02494FF0A0
:10C27000000000F0C8BF00BF0000F87F491058BFA1
:10C28000C1F140415B1058BFC3F140438B42EFF313
:10C29000008070472DE9C04130B4DFF8A0C23CEA0D
:10C2A000111418BF3CEA131400F0EC8081EA030576
:10C2B0001CEA111444EAD57418BF1CEA131500F0E7
:10C2C000C780A4EB05044FF0004545EAC12145EACB
:10C2D000C32341EA505143EA525304F17F74994217
:10C2E00004F500344FEAC0204FEAC22208BF904252
:10C2F00000F09C804FEA13650FF24016765D4FEA1E
:10C30000134506FB05F7C7F1807706FB07F74FEAF1
:10C31000D737A7FB03687642C8F58038A7FB06CE5F
:10C3200038BFA8F1010807FB08E64FF0000EA6FB96
:10C33000028CE6FB03CEDCF1000CCEF1004E38BFE0
:10C34000AEF1010EA6FB0C584FF000074FF00005B0
:10C35000E6FB0E87A1FB08C6A0FB07CE16EB0E0678
:10C3600045F10005E1FB076515F1E04E7EBFA4F540
:10C3700080345FEA46066D4116F1800745F10005FD
:10C380004FEA17274FEA066647EA0567A6F1DE4639
:10C39000B6F1805F4FEA15251FD9384624F0010C0D
:10C3A00005EBC471BCF1FE6F01EB0C1102D8F0BCBF
:10C3B000BDE8008124425CBF01F5801E9EEAC47F77
:10C3C00002D4F0BCBDE80081244238D4F0BCA1F115
:10C3D000C041BDE8004100F043BA4FEAD22242EA30
:10C3E00043524FEAD323A7FB02864FEAD02040EA0C
:10C3F000415007FB03661EEA0E0F4FEAD12105FBF1
:10C40000026658BFA6EB0056B6EB00564FEA520E36
:10C410004EEAC37E18EB0E0E56EB530EBDD518EB4D
:10C4200002085E417F1C55F10005B6E74FF4801508
:10C430004FF000074FF000064FF00008ADE7F0BCEA
:10C440004FF0000001F1C04101F00041BDE8008162
:10C4500011EA0C1F0CEA131500D00CE013EA0C1FB4
:10C4600000F025804FF00000F0BC81EA030101F0EC
:10C470000041BDE80081F0BCBDE8004181EA030154
:10C4800000F0EEB9F0BCBDE8004170B500F09AF9DB
:10C49000097EFC3E00F007B881EA03014FF000007E
:10C4A00001F00041704781EA030100F0D9B9F0BC06
:10C4B000BDE800414FF0000021497047FFFDFBF946
:10C4C000F7F5F4F2F0EEEDEBE9E8E6E4E3E1E0DEC7
:10C4D000DDDBDAD8D7D5D4D3D1D0CFCDCCCBCAC839
:10C4E000C7C6C5C4C2C1C0BFBEBDBCBBBAB9B8B760
:10C4F000B6B5B4B3B2B1B0AFAEADACABAAA9A8A853
:10C50000A7A6A5A4A3A3A2A1A09F9F9E9D9C9C9B20
:10C510009A999998979796959594939392919190CB
:10C520008F8F8E8E8D8C8C8B8B8A8989888887875C
:10C530008685858484838382828181800000FF07D1
:10C540000000F87F4FEA41034FEA5353A3F580639D
:10C55000D3F11E03C8BFD3F1210C0CDD4FF0004214
:10C5600042EAC12242EA505232FA03FC8CEAE17CF0
:10C57000ACEBE1707047102BC4BF0020704703F58F
:10C58000787CBCF1FF3F04D06FF0004282EA2100CA
:10C59000704770B500F016F949922480002070476A
:10C5A000F2E710F0004248BF4042B0FA80F310FAC0
:10C5B00003F10AD0C3F11D0303F580634FEA415034
:10C5C00002EB035202EBD12170474FF0000070479D
:10C5D000B0FA80F310FA03F10AD0C3F11D0303F59A
:10C5E00080634FEA41504FEA035202EBD12170477A
:10C5F0004FF000007047000051EA030C17D41CF5FF
:10C60000801F58BFBCF5801F00F10680994218BFFB
:10C61000704708BF9042704707D711F5801F58BF79
:10C6200013F5801F19D499427047894270471CF551
:10C63000801F08D5BCF5801FF7D58B4218BF704707
:10C6400008BF824270474FF4001C1CEB410F38BFFB
:10C650001CEB430F01D28B42704770B500F0B2F86B
:10C66000922449004FF000514FF08053FFF706BE6F
:10C67000DFF848C170B51CEA111E1EBF1CEA131575
:10C680009EEA0C0F95EA0C0F00F06F8081EA03041C
:10C6900023EA4C134EEAD47E21EA4C1141F4801176
:10C6A00043F48013AE44A1FB024CA0FB0365AEF142
:10C6B0007F7E361955EB0C05A1FB034C4CF10003B2
:10C6C000A0FB021C16EB0C06654153F10003094266
:10C6D00018BF46F0010613F4007F0BD14FEA033177
:10C6E0004FEA0530340341EA155140EA16506FF025
:10C6F00003020AE04FEAC3214FEAC520F40241EAEF
:10C70000555140EA56506FF0020202EB2E4201EB07
:10C71000025585EACE710AD05FEA440C18BF24F0B6
:10C72000004450F1000041F1000120EAD47040F2D1
:10C73000FE7C624500D270BDA84214BF4FF0804419
:10C740004FF04044002E08BF0024BEF1806FA8BF08
:10C75000A1F1C041BDE8704080F282804FF000003E
:10C7600001F1C04101F0004170479EEA0C0F0CEA54
:10C77000131518BF95EA0C0F06D04FF0000081EAA0
:10C78000030E0EF0004170BD00F01CF88900013E60
:10C7900000F007B800F009B84FEA430C5FEA5C5CB0
:10C7A00008D081EA030100F05BB84FEA410C5FEA70
:10C7B0005C5CF6D14FF00000014970470000FF07B4
:10C7C0000000F87F0EF1020E2EF0030E5EF8046BEF
:10C7D000364205D4012A43EB030515F5001F12D894
:10C7E000012841EB010C1CF5001F0CD80ED14FEABB
:10C7F000D17C15F5001F0CEB4C0C0CF1020C08BFA2
:10C800004CEBD37C04E04FF0080C01E04FEAD37C02
:10C810000CEB4C0526FA05F606F00706B6F1040CFB
:10C8200006D20EEB860CBDE870404CF0010C604760
:10C83000DFE80CF0090B02024FF000414FF000005E
:10C84000A1F5002170BD19461046012851EB0104E5
:10C8500018BFD4F5001484BF002001F0004170BD62
:10C860000808A0F500114FEA3101704753EA010CA6
:10C8700017D41CF5801F58BFBCF5801F00F106803F
:10C880008B4218BF704708BF8242704707D713F525
:10C89000801F58BF11F5801F19D48B4270479B42EF
:10C8A00070471CF5801F08D5BCF5801FF7D599424D
:10C8B00018BF704708BF904270474FF4001C1CEB34
:10C8C000430F38BF1CEB410F01D2994270470FB4A0
:10C8D0000CBC03BCFFF7C1BE91EA030F10B581F099
:10C8E00000413FF523AC83F0004300F009B800009D
:10C8F00010B591EA030F48BF83F000433FF516AC33
:10C90000841A71EB030C07D212198CF0004C43EB24
:10C910000C03001B61EB0C01DFF8A4E14FEA11549A
:10C92000A4EB135C1EEA430F18BF9EEA445F00F0BD
:10C93000B08023EA6E03524221EA0451C3EB6E0336
:10C9400038BF5B1EDCF1200E25D322FA0CFE10EB63
:10C950000E0043FA0CFE41EB0E01CCF1200E03FA5F
:10C960000EFE10EB0E0051F10001CCF1200E29D487
:10C9700012FA0EF201EB0451BDE8104058BF7047A7
:10C98000401C1CBFB2F1004F704700280CBF491C6F
:10C9900020F00100704712EB020E43EB030218BFB8
:10C9A0004FF0010E4EEA4202ACF1200CDCF11E0EFB
:10C9B00054D943FA0CFE10EB0E0051F1FF31CCF1CB
:10C9C0001E0ED5D50EF1010E12FA0EFE404141EBBE
:10C9D000010101EB445C5FEA5C5C10D910EBDE7096
:10C9E00001EB045138BFBEF1004FBDE8104018BF45
:10C9F000704700280CBF491C20F00100704730D25E
:10CA00004FEAD42C11F5001124F400641BD0B1FAC4
:10CA100081F20B3AA41AA41ED2F12003914030FAFD
:10CA200003F31943904001EBCC71002C01EB04514E
:10CA3000BDE81040A8BF704701F1C0414FF00000B1
:10CA400001F000417047B0FA80F310FA03F100D111
:10CA500010BDE41A173C4805C90AE4E701EB04518C
:10CA600010BD491001EB0451BDE810404FEA300001
:10CA700002E04FF0000170474A0008BF0042F8D0C2
:10CA8000B2F5001F28BF704701F000414FF00000D1
:10CA900070479EEA445F07D011EA5E0FBDE8104080
:10CAA00004BF002100207047BDE8104070B5FFF7BB
:10CAB00089FE00BF40DFF63E83F00041104670471C
:10CAC0000000E0FF43004FEAD30C4FEA3C0C434028
:10CAD0001FBF40070CF1605113F0FE4F70471CF070
:10CAE000006F03D100200CF0004170470CF00043B0
:10CAF00043EA507010B540EACC0000F090FA00BF55
:10CB0000000000924FEA0001FFF7AABE4FF000417B
:10CB10004FF00000A1F500217047000090EA010FDE
:10CB200048BF81F0004100F1FE82421A3CBF801AEA
:10CB300089184FEAD0524FF07F4C1CEA410FA2EB0C
:10CB4000D15318BF9CEA026F00F03B804FF0004CBD
:10CB50004CEA00204CEA012121FA03FC10EB0C0CFA
:10CB60001ED202F1FF325FEA1C2040EBC25038BFF8
:10CB700070471CF07F0F4FEA400C18BFBCF17F4F8D
:10CB800038BF7047C3F12003994008BF20F001006F
:10CB9000BCF17F4F38BF7047A0F1C04000F085BAAC
:10CBA0004FEA3C00000A40EBC25028BF1CF0FF0FC8
:10CBB0004FEA400CE6D018BFBCF17F4F38BF70473A
:10CBC000EAE79CEA026F05D010EA5C0F08BF00F0AC
:10CBD0000040704710B500F022FA00BF64FBBE3E73
:10CBE000401058BFC0F14040491058BFC1F140410A
:10CBF0008142EFF3008070474FF47F0C1CEAD012A3
:10CC00001EBF1CEAD11392EA0C0F93EA0C0F00F03E
:10CC1000858090EA010F48BF42F4807240F4000C16
:10CC200041F400002CF07F4120F07F4000B58142AC
:10CC3000A2EB03020FF2081CACEB504EC0F1000057
:10CC40009EF800E04FEA4E0E00FB0EFC38BF490094
:10CC50004FEA2C1C02F5FA020CFB0EF34FEACE1E33
:10CC60004FEA112C4FEAC1210EEB635E42EB2242E8
:10CC70000EFB0CFC4FEA1C5300FB03114FEA112C76
:10CC80004FEA01310EFB0CFC4FEADC4C00FB0C11AF
:10CC9000C14228BF09184CEB03335DF804EB10EBDD
:10CCA000410143EBC250B2F57C0F38BF704729D524
:10CCB00012F0F00F1CBF00F1C04000F000407047C0
:10CCC000008182838485868788898B8C8D8E8F9165
:10CCD0009293959697999A9C9D9FA0A2A3A5A7A889
:10CCE000AAACAEB0B2B3B5B7B9BCBEC0C2C5C7C9B5
:10CCF000CCCED1D4D7D9DCDFE2E6E9ECF0F3F7FA19
:10CD0000FE0000004FEA400C0CF1807CBCF17E4F2D
:10CD100028BF7047B0F1C04000F0C7B990EA010FDA
:10CD20000CEAD11348BF42F48072624538BF6345B4
:10CD300007D213F47F0F16D080EA010000F0004004
:10CD4000704710B500F06BF9097EFC3E00F005B8A5
:10CD500080EA010000F00040704780EA010000F026
:10CD6000004000F0A2B912F47F0F04BF02487047E0
:10CD700080EA010000F099B90000C07F50EA010C80
:10CD800000F113801CF5000F58BFBCF5000F01D453
:10CD90008842704707D710F5000F58BF11F5000FF4
:10CDA00015D488427047894270471CF5000F04D59E
:10CDB000BCF5000FF7D5814270474FF0807C1CEB2B
:10CDC000400F38BF1CEB410F01D28142704710B5B4
:10CDD00000F025F9922449004FF000504FF08051A7
:10CDE000FFF7FEBE41000B0ED3F19E0208D950F4AE
:10CDF00000034FEA032323FA02F048BF4042704782
:10CE000010B500F00CF900BF499224800020704753
:10CE10006FF0004282EA200070470000C10DD1F19E
:10CE20009E0206DB4FEA002343F0004323FA02F0A0
:10CE30007047004207D54FEA4001B1F1FE4F02D2E0
:10CE40004FF00000704710B500F0E9F849922480D7
:10CE5000002070476FEA20007047000010F000418A
:10CE600048BF4042B0FA80F310FA03F2C3F19D03C9
:10CE70000BD051EAC35101EB1220530638BF704763
:10CE800000F1010008BF20F001007047B0FA80F304
:10CE900010FA03F2C3F19D030AD0D90501EB122069
:10CEA000530638BF704700F1010008BF20F00100B1
:10CEB0007047000050EA010C00F113801CF5000FD0
:10CEC00058BFBCF5000F01D48842704707D710F552
:10CED000000F58BF11F5000F15D4884270478942E2
:10CEE00070471CF5000F04D5BCF5000FF7D5814243
:10CEF00070474FF0807C1CEB400F38BF1CEB410F9C
:10CF000001D28142704710B500F089F8922449009F
:10CF10004FF000504FF08051FFF762BE4FF47F0C8E
:10CF20001CEAD0121EBF1CEAD11392EA0C0F93EA3E
:10CF30000C0F00F0478090EA010F48BF42F4807266
:10CF40004FF0004C4CEA00204CEA012102EB0302B6
:10CF5000A0FB0113A2F50002002918BF43F0010352
:10CF60005B0028BF4FEA330342EB22425FEA132CF7
:10CF70004CEBC2502EBFBCEB436FB2F57C0F704739
:10CF80004FEA036CBCF1004F08BF20F00100B2F57E
:10CF90007C0F38BF70470BD582F0FF0212F5803F3F
:10CFA000C8BF704700F1C040D8BF00F000407047D4
:10CFB00000F5000C5FEA4C0C48BF7047B0F1C04070
:10CFC00000F073B890EA010F0CEAD11348BF42F4A5
:10CFD0008072624538BF634504D280EA010000F0E8
:10CFE0000040704710B500F01AF800BF8900013EFC
:10CFF00000F007B800F009B85FEA410C5FEA1C6C6A
:10D0000008D080EA010000F050B85FEA400C5FEA07
:10D010001C6CF6D14FF00040A0F5800070470EF177
:10D02000020E2EF0030E5EF8044B244204D44FEAA5
:10D030004102B2F17F4F11D84FEA4003B3F17F4F65
:10D040000CD80ED14FEAD07CB2F17F4F0CEB4C0CD8
:10D050000CF1020C08BF4CEBD17C04E04FF0080C43
:10D0600001E04FEAD17C0CEB4C0324FA03F404F00A
:10D070000704B4F1040C06D20EEB840CBDE810409A
:10D080004CF0010C6047DFE80CF0070802024FF09B
:10D090000040A0F5800010BD0846420018BFD2F144
:10D0A000807288BF00F0004010BDFF2141EAD050DF
:10D0B000C005704751EA000C00F113801CF5000F09
:10D0C00058BFBCF5000F01D48142704707D711F556
:10D0D000000F58BF10F5000F15D4814270478942E8
:10D0E00070471CF5000F04D5BCF5000FF7D588423A
:10D0F00070474FF0807C1CEB410F38BF1CEB400F9A
:10D1000001D28842704780EA010081EA000180EA8A
:10D110000100FFF7F8BE000090EA010F48BF81F060
:10D1200000413FF502AD421A04D882F00042A0EB64
:10D13000020011444FEAD0524FF07F4C1CEA410FDD
:10D14000A2EBD15318BF9CEA026F4AD04FF0004CBB
:10D150004CEA00204CEA012121FA03FCB0EB0C0C54
:10D160000FD412F0FE0F36D05FEA4C001DD500122E
:10D1700040EBC25038BF70471CF03F0F18BF7047DC
:10D180000BE0A2F101025FEA1C2040EBC25038BF65
:10D1900070471CF07F0F18BF7047C3F12003994000
:10D1A00014BF401E20F00100704780084FEA122390
:10D1B00008BF7047B0FA80FCA2EB0C02CCF1280C3F
:10D1C00060FA0CF093EA122F04BF00EBC2507047D4
:10D1D0004FEAC3707047130A5FEADC1008BF70475C
:10D1E000F6E79CEA026F04D010EA5C0F08BF00204B
:10D1F000704710B5FFF713FF40DFF63E81F00040A7
:10D200007047F3F7BFBB0CF00F03092B08BF0820D2
:10D2100000F059800A2B0BD0082B18BF704708BFAD
:10D220001CF0400F0AD04FF000004FF00001704793
:10D230001CF0400F18BF4FF0004070471CF0100F5B
:10D2400008D020F0704300F07F4242EAD3014FEA59
:10D250004370704700F0604021F07F4242EA0002D4
:10D2600001F07F4040EA727070474FF0FF0C4CF4C1
:10D27000E06C1CEA11531CBF9CEA030C9445C2BF2E
:10D28000DA4201EB02517047002B0DD0BCF1000FC8
:10D290000FD0002A01F00041A4BF41F0E04141F06D
:10D2A0007F614FF00000704701F000414FF0000037
:10D2B000704750EA01334FF09B0C18BF4CF0806C64
:10D2C0007EF4D4AF70471CF4801F11D01CF4E02F03
:10D2D00003D06FEACC31490070474FF04050EFF374
:10D2E000008222F0704242EA000282F30088704716
:10D2F0004FF000007047303132333435363738392B
:10D300004142434445464030580030313233343591
:10D3100036373839616263646566403078000400EE
:10D3200000080000000000000002000100001000E2
:10D330004FBB610567ACDD3F182D4454FB21E93F2D
:10D340009BF681D20B73EF3F182D4454FB21F93F1C
:10D35000E2652F227F2B7A3C075C143326A6813CA2
:10D36000BDCBF07A8807703C075C143326A6913C4D
:10D37000C4EB98999999C9BF711623FEC671BCBFB9
:10D380006D9A74AFF2B0B3BF9AFDDE522DDEADBF21
:10D390002F6C6A2C44B4A2BF0D5555555555D53F39
:10D3A000FF8300922449C23F6E204CC5CD45B73F54
:10D3B000513DD0A0660DB13FEB0D76244B7BA93FCC
:10D3C00011DA22E33AAD903F0000000000000000B7
:10D3D00002400000000000A0000000000540000026
:10D3E000000000C8000000000C4000000000409C4D
:10D3F00000000000194000000020BCBE000000003A
:10D4000034400000BFC91B8E00000004B54000007E
:10D41000504BCFD06607E2CF010000006C41000006
:10D420003E8251AADFEEA73401000000D94200007D
:10D43000DCB5A0E23A301F97FFFFFFFFB4450000C4
:10D44000FD25A0C8E9A3C14FFFFFFFFFFF3F00007C
:10D450000000008000000000FF3F0000000000808E
:10D46000000000003F000000646563006964000084
:10D4700072756E74696D650068656C7000000000FF
:10D480006C6973740000000068657800766F6964E9
:10D4900020765072696E74665F414C4C5F526F62C9
:10D4A0006F7453746128766F69642029200000002E
:10D4B000766F696420765072696E74665F414C4C79
:10D4C0005F776865656C5F4461746128766F696435
:10D4D00020290000766F6964207653657444726F6A
:10D4E0007054696D65287531362066726571756591
:10D4F0006E6379202C20753136206379636C65204A
:10D5000029000000766F6964207646414E5F5465BD
:10D5100073742875382043746C50696E5374612C91
:10D52000753136204379636C65305F3439392900B1
:10D53000766F696420764368616E67655F50494421
:10D540002873313620502C73313620492C733136F4
:10D5500020442900766F6964207657726974655F8C
:10D56000427132343737335F52656769737465725D
:10D5700028753820616464722C7538206461746188
:10D5800029000000766F696420764368616E6765E4
:10D590005F45585F416E676C65287331362073456F
:10D5A00078705F416E672C73313620734578705FF9
:10D5B00072616E67652C73313620734578705F73C6
:10D5C0007065656429000000766F6964207650728A
:10D5D000696E74665F414C4C5F5265676973746530
:10D5E000725F4270323437373328766F69642900AE
:10D5F000766F69642044524F505F41445F507269B6
:10D600006E746628766F696429000000766F69641D
:10D610002076416C6C5F41445F566F6C756550724B
:10D62000696E746628766F6964290000766F696494
:10D630002076416C6C5F556C747261536F6E6963D8
:10D640005F566F6C75655072696E746628766F6987
:10D6500064290000766F696420764779726F73637E
:10D660006F70655F566F6C75655072696E74662871
:10D67000766F696429000000766F696420764271D4
:10D6800032343737335F5365745F4D41585F4368B9
:10D69000617267655F566F6C7461676528654D617F
:10D6A000785F4368617267655F566F6C7461676528
:10D6B000206C6F635F436861726772566F6C746150
:10D6C00067652900766F6964207644726F705761D0
:10D6D0007665666F726D4F757428626F6F6C20652A
:10D6E0006E61626C65290000766F696420765772FE
:10D6F0006974655F576865656C2875382073746157
:10D700002C753136206379636C652900766F696406
:10D710002077726974655F616464722875333220A2
:10D72000616464722C7533322076616C29000000CC
:10D7300075333220726561645F6164647228753389
:10D740003220616464722900766F696420764271C8
:10D7500032343737335F5365745F4368617267658E
:10D760005F43757272656E742865436861726765A0
:10D770005F43757272656E74206C6F635F4368619E
:10D7800072676543757272656E742900BAF3CDCB0A
:10D79000BAF3D3D2D7AA0000D3D2D7AA0000000090
:10D7A000BAF3CDCBBAF3D7F3D7AA0000D7F3D7AAF1
:10D7B00000000000D4ADB5D8D0FDD7AA000000000D
:10D7C000D7D4B6AF00000000CDA3D6B9000000004A
:10D7D000D1D8B1DF00000000BBD8B3E400000000E6
:10D7E000D5FDD4DAB3E4B5E700000000C7B0BDF85A
:10D7F0000000000030D800080000002044030000B2
:10D800006C01000848D90008440300204C6B00005C
:10D81000C80100081C00000043000000F8FFFFFFE3
:10D820000C0000000E0000000F0000002E000000A1
:10D830001184A24A0400091B010203040607080917
:10D840001A010209161A519C0401B4113915091163
:10D850003212C8520A0713803FCDCCCC3D02404162
:10D86000CA2C760916B601391AAA0101242D010223
:10D87000030404100B060708090204060864D41BFD
:10D880000878041A80041A6C041A88041A68041AA6
:10D89000700413655A140830D714084BB21B080CD7
:10D8A00008139993140804D51C0851771012D61444
:10D8B00008A19D1B08C81013CBB11B085408138185
:10D8C0008E1B0848281B618F5419201ADD181AE88E
:10D8D000081301A01B08B0501B9590501928690827
:10D8E0001BF99538192013ED201B08F010132D9209
:10D8F0001B08C41013B9A21B08D4301A71282A843B
:10D9000058127B1B082C1813859F1B088C18138C2E
:10D910000114204D6B1C08C1632412641B08B10C58
:10D920001A13DB01DC13C8D71B08EC041AA0041A75
:10D930008C041AAC041A98041AB4041AC0041AD835
:08D94000041AE0041AD00400EF
:04000005080002DD10
:00000001FF
