Component: ARM Compiler 5.06 update 6 (build 750) Tool: armlink [4d35ed]

==============================================================================

Section Cross References

    main.o(i.main) refers to misc.o(i.NVIC_PriorityGroupConfig) for NVIC_PriorityGroupConfig
    main.o(i.main) refers to hardwaremanage.o(i.vSystemHardwareDriverInit) for vSystemHardwareDriverInit
    main.o(i.main) refers to taskmanage.o(i.vTaskCreateFunction) for vTaskCreateFunction
    main.o(i.main) refers to tasks.o(i.vTaskStartScheduler) for vTaskStartScheduler
    main.o(i.main) refers to usmart_config.o(.data) for usmart_dev
    system_stm32f10x.o(i.SetSysClock) refers to system_stm32f10x.o(i.SetSysClockTo72) for SetSysClockTo72
    system_stm32f10x.o(i.SystemCoreClockUpdate) refers to system_stm32f10x.o(.data) for SystemCoreClock
    system_stm32f10x.o(i.SystemInit) refers to system_stm32f10x.o(i.SetSysClock) for SetSysClock
    delay.o(i.SysTick_Handler) refers to tasks.o(i.xTaskGetSchedulerState) for xTaskGetSchedulerState
    delay.o(i.SysTick_Handler) refers to port.o(i.xPortSysTickHandler) for xPortSysTickHandler
    delay.o(i.delay_init) refers to misc.o(i.SysTick_CLKSourceConfig) for SysTick_CLKSourceConfig
    delay.o(i.delay_init) refers to system_stm32f10x.o(.data) for SystemCoreClock
    delay.o(i.delay_init) refers to delay.o(.data) for fac_us
    delay.o(i.delay_ms) refers to tasks.o(i.xTaskGetSchedulerState) for xTaskGetSchedulerState
    delay.o(i.delay_ms) refers to tasks.o(i.vTaskDelay) for vTaskDelay
    delay.o(i.delay_ms) refers to delay.o(i.delay_us) for delay_us
    delay.o(i.delay_ms) refers to delay.o(.data) for fac_ms
    delay.o(i.delay_us) refers to delay.o(.data) for fac_us
==============================================================================

Removing Unused input sections from the image.

    Removing system_stm32f10x.o(i.SystemCoreClockUpdate), (164 bytes).
    Removing sys.o(.emb_text), (6 bytes).
    Removing sys.o(i.INTX_DISABLE), (4 bytes).
    Removing sys.o(i.INTX_ENABLE), (4 bytes).
    Removing sys.o(i.WFI_SET), (4 bytes).
    Removing delay.o(i.delay_xms), (24 bytes).
    Removing systemtime.o(i.GetOSTimeInterval), (68 bytes).
    Removing systemtime.o(i.ResetSingleTimeoutCheck), (20 bytes).
    Removing stmflash.o(i.STMFLASH_Read), (34 bytes).
    Removing stmflash.o(i.STMFLASH_ReadHalfWord), (6 bytes).
    Removing stmflash.o(i.STMFLASH_Write), (232 bytes).
    Removing stmflash.o(i.STMFLASH_Write_NoCheck), (38 bytes).
    Removing stmflash.o(i.Test_Write), (16 bytes).
    Removing stmflash.o(.bss), (2048 bytes).
    Removing mymath.o(i.vMath_BubbleSort_f), (94 bytes).
    Removing applicationmotor.o(i.ucRouteAdjustByAlongEdge), (104 bytes).
    Removing applicationmotor.o(i.vSetRollBrushSpeed), (40 bytes).
    Removing applicationmotor.o(i.vSetSideBrushSpeed), (40 bytes).
==============================================================================

Image Symbol Table

    Local Symbols

    Symbol Name                              Value     Ov Type        Size  Object(Section)

    ../clib/angel/boardlib.s                 0x00000000   Number         0  boardinit2.o ABSOLUTE
    ../clib/angel/boardlib.s                 0x00000000   Number         0  boardshut.o ABSOLUTE
    ../clib/angel/boardlib.s                 0x00000000   Number         0  boardinit1.o ABSOLUTE
    ../clib/angel/boardlib.s                 0x00000000   Number         0  boardinit3.o ABSOLUTE
    ../clib/angel/dczerorl2.s                0x00000000   Number         0  __dczerorl2.o ABSOLUTE
    ../clib/angel/handlers.s                 0x00000000   Number         0  __scatter_zi.o ABSOLUTE
    ../clib/angel/kernel.s                   0x00000000   Number         0  __rtentry4.o ABSOLUTE
    ../clib/angel/kernel.s                   0x00000000   Number         0  rtexit.o ABSOLUTE
    ../clib/angel/kernel.s                   0x00000000   Number         0  rtexit2.o ABSOLUTE
    ../clib/angel/kernel.s                   0x00000000   Number         0  __rtentry.o ABSOLUTE
    ../clib/angel/kernel.s                   0x00000000   Number         0  __rtentry2.o ABSOLUTE
    ../clib/angel/rt.s                       0x00000000   Number         0  rt_errno_addr_intlibspace.o ABSOLUTE
    ../clib/angel/rt.s                       0x00000000   Number         0  rt_locale.o ABSOLUTE
    ../clib/angel/rt.s                       0x00000000   Number         0  rt_errno_addr.o ABSOLUTE
    ../clib/angel/rt.s                       0x00000000   Number         0  rt_locale_intlibspace.o ABSOLUTE
    ../clib/angel/rt.s                       0x00000000   Number         0  rt_raise.o ABSOLUTE
    ../clib/angel/scatter.s                  0x00000000   Number         0  __scatter.o ABSOLUTE
    ../clib/angel/startup.s                  0x00000000   Number         0  __main.o ABSOLUTE
    ../clib/angel/sys.s                      0x00000000   Number         0  indicate_semi.o ABSOLUTE
    ../clib/angel/sys.s                      0x00000000   Number         0  libspace.o ABSOLUTE
    ../clib/angel/sys.s                      0x00000000   Number         0  sys_stackheap_outer.o ABSOLUTE
    ../clib/angel/sys.s                      0x00000000   Number         0  use_no_semi.o ABSOLUTE
    ../clib/angel/sys.s                      0x00000000   Number         0  use_no_semi_2.o ABSOLUTE
    ../clib/angel/sysapp.c                   0x00000000   Number         0  sys_command.o ABSOLUTE
    ../clib/angel/sysapp.c                   0x00000000   Number         0  sys_wrch.o ABSOLUTE
    ../clib/armsys.c                         0x00000000   Number         0  argv_veneer.o ABSOLUTE
    ../clib/armsys.c                         0x00000000   Number         0  argv_veneer.o ABSOLUTE
    ../clib/armsys.c                         0x00000000   Number         0  _get_argv_nomalloc.o ABSOLUTE
    ../clib/armsys.c                         0x00000000   Number         0  no_argv.o ABSOLUTE
    ../clib/bigflt.c                         0x00000000   Number         0  bigflt0.o ABSOLUTE
    ../clib/btod.s                           0x00000000   Number         0  btod.o ABSOLUTE
    ../clib/fenv.c                           0x00000000   Number         0  _rserrno.o ABSOLUTE
    ../clib/heapalloc.c                      0x00000000   Number         0  hrguard.o ABSOLUTE
    ../clib/heapaux.c                        0x00000000   Number         0  heapauxi.o ABSOLUTE
    ../clib/libinit.s                        0x00000000   Number         0  libshutdown2.o ABSOLUTE
    ../clib/libinit.s                        0x00000000   Number         0  libshutdown.o ABSOLUTE
    ../clib/libinit.s                        0x00000000   Number         0  libinit.o ABSOLUTE
    ../clib/libinit.s                        0x00000000   Number         0  libinit2.o ABSOLUTE
    ../clib/locale.s                         0x00000000   Number         0  lc_numeric_c.o ABSOLUTE
    ../clib/longlong.s                       0x00000000   Number         0  lludiv10.o ABSOLUTE
    ../clib/memcpset.s                       0x00000000   Number         0  aeabi_memset.o ABSOLUTE
    ../clib/memcpset.s                       0x00000000   Number         0  rt_memcpy_w.o ABSOLUTE
    ../clib/memcpset.s                       0x00000000   Number         0  rt_memcpy_v6.o ABSOLUTE
    ../clib/memcpset.s                       0x00000000   Number         0  rt_memclr.o ABSOLUTE
    ../clib/memcpset.s                       0x00000000   Number         0  strcmpv7m.o ABSOLUTE
    ../clib/memcpset.s                       0x00000000   Number         0  rt_memclr_w.o ABSOLUTE
    ../clib/misc.s                           0x00000000   Number         0  printf_stubs.o ABSOLUTE
    ../clib/printf.c                         0x00000000   Number         0  __printf_flags_wp.o ABSOLUTE
    ../clib/printf.c                         0x00000000   Number         0  _printf_pad.o ABSOLUTE
    ../clib/printf.c                         0x00000000   Number         0  _printf_fp_dec.o ABSOLUTE
    ../clib/printf.c                         0x00000000   Number         0  __printf.o ABSOLUTE
    ../clib/printf.c                         0x00000000   Number         0  _printf_intcommon.o ABSOLUTE
    ../clib/printf.c                         0x00000000   Number         0  noretval__2sprintf.o ABSOLUTE
    ../clib/printf.c                         0x00000000   Number         0  noretval__2printf.o ABSOLUTE
    ../clib/printf.c                         0x00000000   Number         0  __2sprintf.o ABSOLUTE
    ../clib/printf.c                         0x00000000   Number         0  __2printf.o ABSOLUTE
    ../clib/printf.c                         0x00000000   Number         0  __printf_nopercent.o ABSOLUTE
    ../clib/printf.c                         0x00000000   Number         0  _printf_fp_infnan.o ABSOLUTE
    ../clib/printf.c                         0x00000000   Number         0  _printf_char_file.o ABSOLUTE
    ../clib/printf.c                         0x00000000   Number         0  _printf_char.o ABSOLUTE
    ../clib/printf.c                         0x00000000   Number         0  _sputc.o ABSOLUTE
    ../clib/printf.c                         0x00000000   Number         0  __printf_flags_ss_wp.o ABSOLUTE
    ../clib/printf.c                         0x00000000   Number         0  __printf_ss_wp.o ABSOLUTE
    ../clib/printf.c                         0x00000000   Number         0  __printf_wp.o ABSOLUTE
    ../clib/printf.c                         0x00000000   Number         0  __printf_flags_ss.o ABSOLUTE
    ../clib/printf.c                         0x00000000   Number         0  __printf_ss.o ABSOLUTE
    ../clib/printf.c                         0x00000000   Number         0  __printf_flags.o ABSOLUTE
    ../clib/printf.c                         0x00000000   Number         0  _printf_hex_int_ll_ptr.o ABSOLUTE
    ../clib/printf.c                         0x00000000   Number         0  _printf_hex_ll_ptr.o ABSOLUTE
    ../clib/printf.c                         0x00000000   Number         0  _printf_hex_int_ptr.o ABSOLUTE
    ../clib/printf.c                         0x00000000   Number         0  _printf_hex_ptr.o ABSOLUTE
    ../clib/printf.c                         0x00000000   Number         0  _printf_hex_int_ll.o ABSOLUTE
    ../clib/printf.c                         0x00000000   Number         0  _printf_hex_int.o ABSOLUTE
    ../clib/printf.c                         0x00000000   Number         0  _printf_hex_ll.o ABSOLUTE
    ../clib/printf.c                         0x00000000   Number         0  _printf_dec.o ABSOLUTE
    ../clib/printf.c                         0x00000000   Number         0  _printf_char_common.o ABSOLUTE
    ../clib/printf.c                         0x00000000   Number         0  _printf_str.o ABSOLUTE
    ../clib/printf_percent.s                 0x00000000   Number         0  _printf_c.o ABSOLUTE
    ../clib/printf_percent.s                 0x00000000   Number         0  _printf_d.o ABSOLUTE
    ../clib/printf_percent.s                 0x00000000   Number         0  _printf_percent_end.o ABSOLUTE
    ../clib/printf_percent.s                 0x00000000   Number         0  _printf_percent.o ABSOLUTE
    ../clib/printf_percent.s                 0x00000000   Number         0  _printf_f.o ABSOLUTE
    ../clib/printf_percent.s                 0x00000000   Number         0  _printf_x.o ABSOLUTE
    ../clib/printf_percent.s                 0x00000000   Number         0  _printf_u.o ABSOLUTE
    ../clib/printf_percent.s                 0x00000000   Number         0  _printf_s.o ABSOLUTE
    ../clib/signal.c                         0x00000000   Number         0  defsig_pvfn_inner.o ABSOLUTE
    ../clib/signal.c                         0x00000000   Number         0  defsig_other.o ABSOLUTE
    ../clib/signal.c                         0x00000000   Number         0  defsig_stak_inner.o ABSOLUTE
    ../clib/signal.c                         0x00000000   Number         0  defsig_rtmem_outer.o ABSOLUTE
    ../clib/signal.c                         0x00000000   Number         0  defsig_rtmem_formal.o ABSOLUTE
    ../clib/signal.c                         0x00000000   Number         0  defsig_segv_inner.o ABSOLUTE
    ../clib/signal.c                         0x00000000   Number         0  defsig_fpe_inner.o ABSOLUTE
    ../clib/signal.c                         0x00000000   Number         0  defsig_cppl_inner.o ABSOLUTE
    ../clib/signal.c                         0x00000000   Number         0  __raise.o ABSOLUTE
    ../clib/signal.c                         0x00000000   Number         0  defsig_rtmem_inner.o ABSOLUTE
    ../clib/signal.c                         0x00000000   Number         0  defsig_abrt_inner.o ABSOLUTE
    ../clib/signal.c                         0x00000000   Number         0  defsig_exit.o ABSOLUTE
    ../clib/signal.c                         0x00000000   Number         0  defsig_rtred_inner.o ABSOLUTE
    ../clib/signal.c                         0x00000000   Number         0  defsig_general.o ABSOLUTE
    ../clib/signal.s                         0x00000000   Number         0  defsig.o ABSOLUTE
    ../clib/stdio.c                          0x00000000   Number         0  ferror.o ABSOLUTE
    ../clib/stdio.c                          0x00000000   Number         0  ferror_locked.o ABSOLUTE
    ../clib/stdlib.c                         0x00000000   Number         0  exit.o ABSOLUTE
    ../clib/string.c                         0x00000000   Number         0  memcmp.o ABSOLUTE
    ../clib/string.c                         0x00000000   Number         0  strcpy.o ABSOLUTE
    ../clib/string.c                         0x00000000   Number         0  strlen.o ABSOLUTE
    ../fplib/d2f.s                           0x00000000   Number         0  d2f.o ABSOLUTE
    ../fplib/daddsub.s                       0x00000000   Number         0  daddsub_clz.o ABSOLUTE
    ../fplib/dcheck1.s                       0x00000000   Number         0  dcheck1.o ABSOLUTE
    ../fplib/dcmpi.s                         0x00000000   Number         0  dcmpi.o ABSOLUTE
    ../fplib/ddiv.s                          0x00000000   Number         0  ddiv.o ABSOLUTE
    ../fplib/dfix.s                          0x00000000   Number         0  dfix.o ABSOLUTE
    ../fplib/dflt.s                          0x00000000   Number         0  dflt_clz.o ABSOLUTE
    ../fplib/dleqf.s                         0x00000000   Number         0  dleqf.o ABSOLUTE
    ../fplib/dmul.s                          0x00000000   Number         0  dmul.o ABSOLUTE
    ../fplib/dnaninf.s                       0x00000000   Number         0  dnaninf.o ABSOLUTE
    ../fplib/dretinf.s                       0x00000000   Number         0  dretinf.o ABSOLUTE
    ../fplib/drleqf.s                        0x00000000   Number         0  drleqf.o ABSOLUTE
    ../fplib/f2d.s                           0x00000000   Number         0  f2d.o ABSOLUTE
    ../fplib/faddsub.s                       0x00000000   Number         0  faddsub_clz.o ABSOLUTE
    ../fplib/fcmpi.s                         0x00000000   Number         0  fcmpi.o ABSOLUTE
    ../fplib/fdiv.s                          0x00000000   Number         0  fdiv.o ABSOLUTE
    ../fplib/feqf.s                          0x00000000   Number         0  feqf.o ABSOLUTE
    ../fplib/ffix.s                          0x00000000   Number         0  ffix.o ABSOLUTE
    ../fplib/ffixu.s                         0x00000000   Number         0  ffixu.o ABSOLUTE
    ../fplib/fflt.s                          0x00000000   Number         0  fflt_clz.o ABSOLUTE
    ../fplib/fleqf.s                         0x00000000   Number         0  fleqf.o ABSOLUTE
    ../fplib/fmul.s                          0x00000000   Number         0  fmul.o ABSOLUTE
    ../fplib/fnaninf.s                       0x00000000   Number         0  fnaninf.o ABSOLUTE
    ../fplib/fpinit.s                        0x00000000   Number         0  fpinit.o ABSOLUTE
    ../fplib/fretinf.s                       0x00000000   Number         0  fretinf.o ABSOLUTE
    ../fplib/frleqf.s                        0x00000000   Number         0  frleqf.o ABSOLUTE
    ../fplib/istatus.s                       0x00000000   Number         0  istatus.o ABSOLUTE
    ../fplib/printf1.s                       0x00000000   Number         0  printf1.o ABSOLUTE
    ../fplib/retnan.s                        0x00000000   Number         0  retnan.o ABSOLUTE
    ../fplib/scalbn.s                        0x00000000   Number         0  scalbn.o ABSOLUTE
    ../fplib/trapv.s                         0x00000000   Number         0  trapv.o ABSOLUTE
    ../fplib/usenofp.s                       0x00000000   Number         0  usenofp.o ABSOLUTE
    ../mathlib/atan.c                        0x00000000   Number         0  atan_x.o ABSOLUTE
    ../mathlib/atan.c                        0x00000000   Number         0  atan.o ABSOLUTE
    ../mathlib/atan2.c                       0x00000000   Number         0  atan2.o ABSOLUTE
    ../mathlib/atan2.c                       0x00000000   Number         0  atan2_x.o ABSOLUTE
    ../mathlib/dunder.c                      0x00000000   Number         0  dunder.o ABSOLUTE
    ../mathlib/fpclassify.c                  0x00000000   Number         0  fpclassify.o ABSOLUTE
    ../mathlib/poly.c                        0x00000000   Number         0  poly.o ABSOLUTE
    ../mathlib/qnan.c                        0x00000000   Number         0  qnan.o ABSOLUTE
    ..\Application\ROBOT\src\ApplicationADC.c 0x00000000   Number         0  applicationadc.o ABSOLUTE
    ..\Application\ROBOT\src\ApplicationDropCheck.c 0x00000000   Number         0  applicationdropcheck.o ABSOLUTE
    ..\Application\ROBOT\src\ApplicationKey.c 0x00000000   Number         0  applicationkey.o ABSOLUTE
    ..\Application\ROBOT\src\ApplicationLed.c 0x00000000   Number         0  applicationled.o ABSOLUTE
    ..\Application\ROBOT\src\ApplicationMotor.c 0x00000000   Number         0  applicationmotor.o ABSOLUTE
    ..\Application\ROBOT\src\ApplicationPowerChip.c 0x00000000   Number         0  applicationpowerchip.o ABSOLUTE
    ..\Application\ROBOT\src\Application_Ultrasonic.c 0x00000000   Number         0  application_ultrasonic.o ABSOLUTE
    ..\Application\ROBOT\src\BehaviorManage.c 0x00000000   Number         0  behaviormanage.o ABSOLUTE
    ..\Application\ROBOT\src\TaskManage.c    0x00000000   Number         0  taskmanage.o ABSOLUTE
    ..\Application\SHARE\mymath.c            0x00000000   Number         0  mymath.o ABSOLUTE
    ..\CORE\core_cm3.c                       0x00000000   Number         0  core_cm3.o ABSOLUTE
    ..\CORE\startup_stm32f10x_hd.s           0x00000000   Number         0  startup_stm32f10x_hd.o ABSOLUTE
    ..\FreeRTOS\croutine.c                   0x00000000   Number         0  croutine.o ABSOLUTE
    ..\FreeRTOS\event_groups.c               0x00000000   Number         0  event_groups.o ABSOLUTE
    ..\FreeRTOS\list.c                       0x00000000   Number         0  list.o ABSOLUTE
    ..\FreeRTOS\portable\MemMang\heap_4.c    0x00000000   Number         0  heap_4.o ABSOLUTE
    ..\FreeRTOS\portable\RVDS\ARM_CM3\port.c 0x00000000   Number         0  port.o ABSOLUTE
    ..\FreeRTOS\queue.c                      0x00000000   Number         0  queue.o ABSOLUTE
    ..\FreeRTOS\tasks.c                      0x00000000   Number         0  tasks.o ABSOLUTE
    ..\FreeRTOS\timers.c                     0x00000000   Number         0  timers.o ABSOLUTE
    ..\HARDWARE\ADC\adc.c                    0x00000000   Number         0  adc.o ABSOLUTE
    ..\HARDWARE\EXTI\EXTI.c                  0x00000000   Number         0  exti.o ABSOLUTE
    ..\HARDWARE\Garbage_boxes\Garbage_boxes_check.c 0x00000000   Number         0  garbage_boxes_check.o ABSOLUTE
    ..\HARDWARE\Gyroscope\bmi160.c           0x00000000   Number         0  bmi160.o ABSOLUTE
    ..\HARDWARE\Gyroscope\bmi160_data.c      0x00000000   Number         0  bmi160_data.o ABSOLUTE
    ..\HARDWARE\HardwareManage.c             0x00000000   Number         0  hardwaremanage.o ABSOLUTE
    ..\HARDWARE\IIC\myiic.c                  0x00000000   Number         0  myiic.o ABSOLUTE
    ..\HARDWARE\IOOutput\iooutput.c          0x00000000   Number         0  iooutput.o ABSOLUTE
    ..\HARDWARE\KEY\key.c                    0x00000000   Number         0  key.o ABSOLUTE
    ..\HARDWARE\LED\led.c                    0x00000000   Number         0  led.o ABSOLUTE
    ..\HARDWARE\SPI\spi.c                    0x00000000   Number         0  spi.o ABSOLUTE
    ..\HARDWARE\STMFLASH\stmflash.c          0x00000000   Number         0  stmflash.o ABSOLUTE
    ..\HARDWARE\TIMER\timer.c                0x00000000   Number         0  timer.o ABSOLUTE
    ..\HARDWARE\TimeCapture\TimeCapture.c    0x00000000   Number         0  timecapture.o ABSOLUTE
    ..\HARDWARE\TimePwm\TimePwm.c            0x00000000   Number         0  timepwm.o ABSOLUTE
    ..\HARDWARE\USART\usart.c                0x00000000   Number         0  usart.o ABSOLUTE
    ..\Protocol\FrameHandle.c                0x00000000   Number         0  framehandle.o ABSOLUTE
    ..\Protocol\protocol.c                   0x00000000   Number         0  protocol.o ABSOLUTE
    ..\STM32F10x_FWLib\src\misc.c            0x00000000   Number         0  misc.o ABSOLUTE
    ..\STM32F10x_FWLib\src\stm32f10x_adc.c   0x00000000   Number         0  stm32f10x_adc.o ABSOLUTE
    ..\STM32F10x_FWLib\src\stm32f10x_dbgmcu.c 0x00000000   Number         0  stm32f10x_dbgmcu.o ABSOLUTE
    ..\STM32F10x_FWLib\src\stm32f10x_dma.c   0x00000000   Number         0  stm32f10x_dma.o ABSOLUTE
    ..\STM32F10x_FWLib\src\stm32f10x_exti.c  0x00000000   Number         0  stm32f10x_exti.o ABSOLUTE
    ..\STM32F10x_FWLib\src\stm32f10x_flash.c 0x00000000   Number         0  stm32f10x_flash.o ABSOLUTE
    ..\STM32F10x_FWLib\src\stm32f10x_fsmc.c  0x00000000   Number         0  stm32f10x_fsmc.o ABSOLUTE
    ..\STM32F10x_FWLib\src\stm32f10x_gpio.c  0x00000000   Number         0  stm32f10x_gpio.o ABSOLUTE
    ..\STM32F10x_FWLib\src\stm32f10x_iwdg.c  0x00000000   Number         0  stm32f10x_iwdg.o ABSOLUTE
    ..\STM32F10x_FWLib\src\stm32f10x_rcc.c   0x00000000   Number         0  stm32f10x_rcc.o ABSOLUTE
    ..\STM32F10x_FWLib\src\stm32f10x_spi.c   0x00000000   Number         0  stm32f10x_spi.o ABSOLUTE
    ..\STM32F10x_FWLib\src\stm32f10x_tim.c   0x00000000   Number         0  stm32f10x_tim.o ABSOLUTE
    ..\STM32F10x_FWLib\src\stm32f10x_usart.c 0x00000000   Number         0  stm32f10x_usart.o ABSOLUTE
    ..\SYSTEM\SystemTime\SystemTime.c        0x00000000   Number         0  systemtime.o ABSOLUTE
    ..\SYSTEM\delay\delay.c                  0x00000000   Number         0  delay.o ABSOLUTE
    ..\SYSTEM\sys\sys.c                      0x00000000   Number         0  sys.o ABSOLUTE
    ..\SYSTEM\usart1\usart1.c                0x00000000   Number         0  usart1.o ABSOLUTE
    ..\TEST_FUN\DataScope\DataScope_DP.C     0x00000000   Number         0  datascope_dp.o ABSOLUTE
    ..\TEST_FUN\Test\testfun.c               0x00000000   Number         0  testfun.o ABSOLUTE
    ..\USMART\usmart.c                       0x00000000   Number         0  usmart.o ABSOLUTE
    ..\USMART\usmart_config.c                0x00000000   Number         0  usmart_config.o ABSOLUTE
    ..\USMART\usmart_str.c                   0x00000000   Number         0  usmart_str.o ABSOLUTE
    ..\\CORE\\core_cm3.c                     0x00000000   Number         0  core_cm3.o ABSOLUTE
    ..\\FreeRTOS\\portable\\RVDS\\ARM_CM3\\port.c 0x00000000   Number         0  port.o ABSOLUTE
    ..\\SYSTEM\\sys\\sys.c                   0x00000000   Number         0  sys.o ABSOLUTE
    dc.s                                     0x00000000   Number         0  dc.o ABSOLUTE
    main.c                                   0x00000000   Number         0  main.o ABSOLUTE
    stm32f10x_it.c                           0x00000000   Number         0  stm32f10x_it.o ABSOLUTE
    system_stm32f10x.c                       0x00000000   Number         0  system_stm32f10x.o ABSOLUTE
    RESET                                    0x08000000   Section      304  startup_stm32f10x_hd.o(RESET)
    !!!main                                  0x08000130   Section        8  __main.o(!!!main)
    !!!scatter                               0x08000138   Section       52  __scatter.o(!!!scatter)
    !!dczerorl2                              0x0800016c   Section       90  __dczerorl2.o(!!dczerorl2)
    !!handler_zi                             0x080001c8   Section       28  __scatter_zi.o(!!handler_zi)
    .ARM.Collect$$_printf_percent$$00000000  0x080001e4   Section        0  _printf_percent.o(.ARM.Collect$$_printf_percent$$00000000)
    .ARM.Collect$$_printf_percent$$00000003  0x080001e4   Section        6  _printf_f.o(.ARM.Collect$$_printf_percent$$00000003)
    .ARM.Collect$$_printf_percent$$00000009  0x080001ea   Section        6  _printf_d.o(.ARM.Collect$$_printf_percent$$00000009)
    .ARM.Collect$$_printf_percent$$0000000A  0x080001f0   Section        6  _printf_u.o(.ARM.Collect$$_printf_percent$$0000000A)
    .ARM.Collect$$_printf_percent$$0000000C  0x080001f6   Section        6  _printf_x.o(.ARM.Collect$$_printf_percent$$0000000C)
    .ARM.Collect$$_printf_percent$$00000013  0x080001fc   Section        6  _printf_c.o(.ARM.Collect$$_printf_percent$$00000013)
    .ARM.Collect$$_printf_percent$$00000014  0x08000202   Section        6  _printf_s.o(.ARM.Collect$$_printf_percent$$00000014)
    .ARM.Collect$$_printf_percent$$00000017  0x08000208   Section        4  _printf_percent_end.o(.ARM.Collect$$_printf_percent$$00000017)
    .ARM.Collect$$libinit$$00000000          0x0800020c   Section        2  libinit.o(.ARM.Collect$$libinit$$00000000)
    .ARM.Collect$$libinit$$00000002          0x0800020e   Section        0  libinit2.o(.ARM.Collect$$libinit$$00000002)
    .ARM.Collect$$libinit$$00000004          0x0800020e   Section        0  libinit2.o(.ARM.Collect$$libinit$$00000004)
    .ARM.Collect$$libinit$$0000000A          0x0800020e   Section        0  libinit2.o(.ARM.Collect$$libinit$$0000000A)
    .ARM.Collect$$libinit$$0000000C          0x0800020e   Section        0  libinit2.o(.ARM.Collect$$libinit$$0000000C)
    .ARM.Collect$$libinit$$0000000E          0x0800020e   Section        0  libinit2.o(.ARM.Collect$$libinit$$0000000E)
    .ARM.Collect$$libinit$$0000000F          0x0800020e   Section        6  libinit2.o(.ARM.Collect$$libinit$$0000000F)
    .ARM.Collect$$libinit$$00000011          0x08000214   Section        0  libinit2.o(.ARM.Collect$$libinit$$00000011)
    .ARM.Collect$$libinit$$00000013          0x08000214   Section        0  libinit2.o(.ARM.Collect$$libinit$$00000013)
    .ARM.Collect$$libinit$$00000015          0x08000214   Section        0  libinit2.o(.ARM.Collect$$libinit$$00000015)
    .ARM.Collect$$libinit$$00000016          0x08000214   Section       10  libinit2.o(.ARM.Collect$$libinit$$00000016)
    .ARM.Collect$$libinit$$00000017          0x0800021e   Section        0  libinit2.o(.ARM.Collect$$libinit$$00000017)
    .ARM.Collect$$libinit$$00000019          0x0800021e   Section        0  libinit2.o(.ARM.Collect$$libinit$$00000019)
    .ARM.Collect$$libinit$$0000001B          0x0800021e   Section        0  libinit2.o(.ARM.Collect$$libinit$$0000001B)
    .ARM.Collect$$libinit$$0000001D          0x0800021e   Section        0  libinit2.o(.ARM.Collect$$libinit$$0000001D)
    .ARM.Collect$$libinit$$0000001F          0x0800021e   Section        0  libinit2.o(.ARM.Collect$$libinit$$0000001F)
    .ARM.Collect$$libinit$$00000021          0x0800021e   Section        0  libinit2.o(.ARM.Collect$$libinit$$00000021)
    .ARM.Collect$$libinit$$00000023          0x0800021e   Section        0  libinit2.o(.ARM.Collect$$libinit$$00000023)
    .ARM.Collect$$libinit$$00000025          0x0800021e   Section        0  libinit2.o(.ARM.Collect$$libinit$$00000025)
    .ARM.Collect$$libinit$$0000002C          0x0800021e   Section        0  libinit2.o(.ARM.Collect$$libinit$$0000002C)
    .ARM.Collect$$libinit$$0000002E          0x0800021e   Section        0  libinit2.o(.ARM.Collect$$libinit$$0000002E)
    .ARM.Collect$$libinit$$00000030          0x0800021e   Section        0  libinit2.o(.ARM.Collect$$libinit$$00000030)
    .ARM.Collect$$libinit$$00000032          0x0800021e   Section        0  libinit2.o(.ARM.Collect$$libinit$$00000032)
    .ARM.Collect$$libinit$$00000033          0x0800021e   Section        2  libinit2.o(.ARM.Collect$$libinit$$00000033)
    .ARM.Collect$$libshutdown$$00000000      0x08000220   Section        2  libshutdown.o(.ARM.Collect$$libshutdown$$00000000)
    .ARM.Collect$$libshutdown$$00000002      0x08000222   Section        0  libshutdown2.o(.ARM.Collect$$libshutdown$$00000002)
    .ARM.Collect$$libshutdown$$00000004      0x08000222   Section        0  libshutdown2.o(.ARM.Collect$$libshutdown$$00000004)
    .ARM.Collect$$libshutdown$$00000007      0x08000222   Section        0  libshutdown2.o(.ARM.Collect$$libshutdown$$00000007)
    .ARM.Collect$$libshutdown$$0000000A      0x08000222   Section        0  libshutdown2.o(.ARM.Collect$$libshutdown$$0000000A)
    .ARM.Collect$$libshutdown$$0000000C      0x08000222   Section        0  libshutdown2.o(.ARM.Collect$$libshutdown$$0000000C)
    .ARM.Collect$$libshutdown$$0000000F      0x08000222   Section        0  libshutdown2.o(.ARM.Collect$$libshutdown$$0000000F)
    .ARM.Collect$$libshutdown$$00000010      0x08000222   Section        2  libshutdown2.o(.ARM.Collect$$libshutdown$$00000010)
    .ARM.Collect$$rtentry$$00000000          0x08000224   Section        0  __rtentry.o(.ARM.Collect$$rtentry$$00000000)
    .ARM.Collect$$rtentry$$00000002          0x08000224   Section        0  __rtentry2.o(.ARM.Collect$$rtentry$$00000002)
    .ARM.Collect$$rtentry$$00000004          0x08000224   Section        6  __rtentry4.o(.ARM.Collect$$rtentry$$00000004)
    .ARM.Collect$$rtentry$$00000009          0x0800022a   Section        0  __rtentry2.o(.ARM.Collect$$rtentry$$00000009)
    .ARM.Collect$$rtentry$$0000000A          0x0800022a   Section        4  __rtentry2.o(.ARM.Collect$$rtentry$$0000000A)
    .ARM.Collect$$rtentry$$0000000C          0x0800022e   Section        0  __rtentry2.o(.ARM.Collect$$rtentry$$0000000C)
    .ARM.Collect$$rtentry$$0000000D          0x0800022e   Section        8  __rtentry2.o(.ARM.Collect$$rtentry$$0000000D)
    .ARM.Collect$$rtexit$$00000000           0x08000236   Section        2  rtexit.o(.ARM.Collect$$rtexit$$00000000)
    .ARM.Collect$$rtexit$$00000002           0x08000238   Section        0  rtexit2.o(.ARM.Collect$$rtexit$$00000002)
    .ARM.Collect$$rtexit$$00000003           0x08000238   Section        4  rtexit2.o(.ARM.Collect$$rtexit$$00000003)
    .ARM.Collect$$rtexit$$00000004           0x0800023c   Section        6  rtexit2.o(.ARM.Collect$$rtexit$$00000004)
    .emb_text                                0x08000244   Section      150  port.o(.emb_text)
    .text                                    0x080002dc   Section       64  startup_stm32f10x_hd.o(.text)
    .text                                    0x0800031c   Section        2  use_no_semi_2.o(.text)
    .text                                    0x08000320   Section        0  noretval__2printf.o(.text)
    .text                                    0x08000338   Section        0  _printf_pad.o(.text)
    .text                                    0x08000386   Section        0  _printf_str.o(.text)
    .text                                    0x080003d8   Section        0  _printf_dec.o(.text)
    .text                                    0x08000450   Section        0  _printf_hex_int.o(.text)
    .text                                    0x080004a8   Section        0  __printf_flags_ss_wp.o(.text)
    .text                                    0x08000630   Section      138  rt_memcpy_v6.o(.text)
    .text                                    0x080006ba   Section       16  aeabi_memset.o(.text)
    .text                                    0x080006ca   Section       78  rt_memclr_w.o(.text)
    .text                                    0x08000718   Section        0  heapauxi.o(.text)
    .text                                    0x0800071e   Section        2  use_no_semi.o(.text)
    .text                                    0x08000720   Section        0  _printf_intcommon.o(.text)
    .text                                    0x080007d2   Section        0  _printf_fp_dec.o(.text)
    _fp_digits                               0x080007d5   Thumb Code   432  _printf_fp_dec.o(.text)
    .text                                    0x08000bf0   Section        0  _printf_char_common.o(.text)
    _printf_input_char                       0x08000bf1   Thumb Code    10  _printf_char_common.o(.text)
    .text                                    0x08000c20   Section        0  _printf_char.o(.text)
    .text                                    0x08000c4c   Section        0  _printf_char_file.o(.text)
    .text                                    0x08000c70   Section      100  rt_memcpy_w.o(.text)
    .text                                    0x08000cd4   Section       68  rt_memclr.o(.text)
    .text                                    0x08000d18   Section        8  rt_locale_intlibspace.o(.text)
    .text                                    0x08000d20   Section      138  lludiv10.o(.text)
    .text                                    0x08000dac   Section        0  _printf_fp_infnan.o(.text)
    .text                                    0x08000e2c   Section        0  bigflt0.o(.text)
    .text                                    0x08000f10   Section        0  ferror.o(.text)
    .text                                    0x08000f18   Section        8  libspace.o(.text)
    .text                                    0x08000f20   Section       74  sys_stackheap_outer.o(.text)
    .text                                    0x08000f6a   Section        0  exit.o(.text)
    .text                                    0x08000f7c   Section      128  strcmpv7m.o(.text)
    CL$$btod_d2e                             0x08000ffc   Section       62  btod.o(CL$$btod_d2e)
    CL$$btod_d2e_denorm_low                  0x0800103a   Section       70  btod.o(CL$$btod_d2e_denorm_low)
    CL$$btod_d2e_norm_op1                    0x08001080   Section       96  btod.o(CL$$btod_d2e_norm_op1)
    CL$$btod_div_common                      0x080010e0   Section      824  btod.o(CL$$btod_div_common)
    CL$$btod_e2e                             0x08001418   Section      220  btod.o(CL$$btod_e2e)
    CL$$btod_ediv                            0x080014f4   Section       42  btod.o(CL$$btod_ediv)
    CL$$btod_emul                            0x0800151e   Section       42  btod.o(CL$$btod_emul)
    CL$$btod_mult_common                     0x08001548   Section      580  btod.o(CL$$btod_mult_common)
    i.ADC_Cmd                                0x0800178c   Section        0  stm32f10x_adc.o(i.ADC_Cmd)
    i.ADC_DMACmd                             0x080017a2   Section        0  stm32f10x_adc.o(i.ADC_DMACmd)
    i.ADC_DeInit                             0x080017b8   Section        0  stm32f10x_adc.o(i.ADC_DeInit)
    i.ADC_GetCalibrationStatus               0x08001814   Section        0  stm32f10x_adc.o(i.ADC_GetCalibrationStatus)
    i.ADC_GetResetCalibrationStatus          0x08001828   Section        0  stm32f10x_adc.o(i.ADC_GetResetCalibrationStatus)
    i.ADC_Init                               0x0800183c   Section        0  stm32f10x_adc.o(i.ADC_Init)
    i.ADC_RegularChannelConfig               0x0800188c   Section        0  stm32f10x_adc.o(i.ADC_RegularChannelConfig)
    i.ADC_ResetCalibration                   0x08001944   Section        0  stm32f10x_adc.o(i.ADC_ResetCalibration)
    i.ADC_SoftwareStartConvCmd               0x0800194e   Section        0  stm32f10x_adc.o(i.ADC_SoftwareStartConvCmd)
    i.ADC_StartCalibration                   0x08001964   Section        0  stm32f10x_adc.o(i.ADC_StartCalibration)
    i.AllMotorErrorCheck                     0x08001970   Section        0  behaviormanage.o(i.AllMotorErrorCheck)
    i.BMI160_Init                            0x08001a80   Section        0  bmi160.o(i.BMI160_Init)
    i.BMI160_ReadOneByteFromSlave            0x08001b1c   Section        0  spi.o(i.BMI160_ReadOneByteFromSlave)
    i.BMI160_SPI_GetACC                      0x08001b4c   Section        0  bmi160.o(i.BMI160_SPI_GetACC)
    i.BMI160_SPI_GetGyro                     0x08001c50   Section        0  bmi160.o(i.BMI160_SPI_GetGyro)
    i.BMI160_SPI_GetID                       0x08001da8   Section        0  bmi160.o(i.BMI160_SPI_GetID)
    i.BMI160_SPI_GetOffset                   0x08001db8   Section        0  bmi160.o(i.BMI160_SPI_GetOffset)
    i.BMI160_WriteOneByteToSlave             0x08001e30   Section        0  spi.o(i.BMI160_WriteOneByteToSlave)
    i.BusFault_Handler                       0x08001e60   Section        0  stm32f10x_it.o(i.BusFault_Handler)
    i.DMA1_Channel1_IRQHandler               0x08001e64   Section        0  adc.o(i.DMA1_Channel1_IRQHandler)
    i.DMA_ClearFlag                          0x08001ea0   Section        0  stm32f10x_dma.o(i.DMA_ClearFlag)
    i.DMA_ClearITPendingBit                  0x08001ebc   Section        0  stm32f10x_dma.o(i.DMA_ClearITPendingBit)
    i.DMA_Cmd                                0x08001ed8   Section        0  stm32f10x_dma.o(i.DMA_Cmd)
    i.DMA_DeInit                             0x08001ef0   Section        0  stm32f10x_dma.o(i.DMA_DeInit)
    i.DMA_GetCurrDataCounter                 0x0800203c   Section        0  stm32f10x_dma.o(i.DMA_GetCurrDataCounter)
    i.DMA_GetFlagStatus                      0x08002044   Section        0  stm32f10x_dma.o(i.DMA_GetFlagStatus)
    i.DMA_GetITStatus                        0x08002070   Section        0  stm32f10x_dma.o(i.DMA_GetITStatus)
    i.DMA_ITConfig                           0x0800209c   Section        0  stm32f10x_dma.o(i.DMA_ITConfig)
    i.DMA_Init                               0x080020ae   Section        0  stm32f10x_dma.o(i.DMA_Init)
    i.DROP_AD_Printf                         0x080020ec   Section        0  testfun.o(i.DROP_AD_Printf)
    i.DataScope_Data_Generate                0x080022f4   Section        0  datascope_dp.o(i.DataScope_Data_Generate)
    i.DataScope_Get_Channel_Data             0x0800238c   Section        0  datascope_dp.o(i.DataScope_Get_Channel_Data)
    i.DebugMon_Handler                       0x08002430   Section        0  stm32f10x_it.o(i.DebugMon_Handler)
    i.DropCheckUpdate                        0x08002434   Section        0  behaviormanage.o(i.DropCheckUpdate)
    i.EXTI15_10_IRQHandler                   0x080024b0   Section        0  exti.o(i.EXTI15_10_IRQHandler)
    i.EXTI1_IRQHandler                       0x08002534   Section        0  exti.o(i.EXTI1_IRQHandler)
    i.EXTI2_IRQHandler                       0x08002588   Section        0  exti.o(i.EXTI2_IRQHandler)
    i.EXTI3_IRQHandler                       0x080025dc   Section        0  exti.o(i.EXTI3_IRQHandler)
    i.EXTI9_5_IRQHandler                     0x08002610   Section        0  exti.o(i.EXTI9_5_IRQHandler)
    i.EXTI_ClearITPendingBit                 0x080026c0   Section        0  stm32f10x_exti.o(i.EXTI_ClearITPendingBit)
    i.EXTI_GetITStatus                       0x080026cc   Section        0  stm32f10x_exti.o(i.EXTI_GetITStatus)
    i.EXTI_Init                              0x080026f4   Section        0  stm32f10x_exti.o(i.EXTI_Init)
    i.Float2Byte                             0x08002788   Section        0  datascope_dp.o(i.Float2Byte)
    i.GPIO_EXTILineConfig                    0x080027a4   Section        0  stm32f10x_gpio.o(i.GPIO_EXTILineConfig)
    i.GPIO_Init                              0x080027e4   Section        0  stm32f10x_gpio.o(i.GPIO_Init)
    i.GPIO_PinRemapConfig                    0x080028fc   Section        0  stm32f10x_gpio.o(i.GPIO_PinRemapConfig)
    i.GPIO_ReadInputDataBit                  0x0800298c   Section        0  stm32f10x_gpio.o(i.GPIO_ReadInputDataBit)
    i.GPIO_ResetBits                         0x0800299e   Section        0  stm32f10x_gpio.o(i.GPIO_ResetBits)
    i.GPIO_SetBits                           0x080029a2   Section        0  stm32f10x_gpio.o(i.GPIO_SetBits)
    i.GetDropAdValue                         0x080029a8   Section        0  applicationdropcheck.o(i.GetDropAdValue)
    i.GetGyroValue_Z                         0x08002ac8   Section        0  bmi160_data.o(i.GetGyroValue_Z)
    i.GetOSRunTimeNow                        0x08002ad4   Section        0  systemtime.o(i.GetOSRunTimeNow)
    i.HardFault_Handler                      0x08002ae4   Section        0  stm32f10x_it.o(i.HardFault_Handler)
    i.IIC_Ack                                0x08002ae8   Section        0  myiic.o(i.IIC_Ack)
    i.IIC_NAck                               0x08002b38   Section        0  myiic.o(i.IIC_NAck)
    i.IIC_Start                              0x08002b88   Section        0  myiic.o(i.IIC_Start)
    i.IIC_Stop                               0x08002bd4   Section        0  myiic.o(i.IIC_Stop)
    i.MemManage_Handler                      0x08002c20   Section        0  stm32f10x_it.o(i.MemManage_Handler)
    i.MultipleTimeoutCheck                   0x08002c24   Section        0  systemtime.o(i.MultipleTimeoutCheck)
    i.NMI_Handler                            0x08002ce8   Section        0  stm32f10x_it.o(i.NMI_Handler)
    i.NVIC_Init                              0x08002cec   Section        0  misc.o(i.NVIC_Init)
    i.NVIC_PriorityGroupConfig               0x08002d5c   Section        0  misc.o(i.NVIC_PriorityGroupConfig)
    i.RCC_ADCCLKConfig                       0x08002d70   Section        0  stm32f10x_rcc.o(i.RCC_ADCCLKConfig)
    i.RCC_AHBPeriphClockCmd                  0x08002d88   Section        0  stm32f10x_rcc.o(i.RCC_AHBPeriphClockCmd)
    i.RCC_APB1PeriphClockCmd                 0x08002da8   Section        0  stm32f10x_rcc.o(i.RCC_APB1PeriphClockCmd)
    i.RCC_APB1PeriphResetCmd                 0x08002dc8   Section        0  stm32f10x_rcc.o(i.RCC_APB1PeriphResetCmd)
    i.RCC_APB2PeriphClockCmd                 0x08002de8   Section        0  stm32f10x_rcc.o(i.RCC_APB2PeriphClockCmd)
    i.RCC_APB2PeriphResetCmd                 0x08002e08   Section        0  stm32f10x_rcc.o(i.RCC_APB2PeriphResetCmd)
    i.RCC_GetClocksFreq                      0x08002e28   Section        0  stm32f10x_rcc.o(i.RCC_GetClocksFreq)
    i.SPI2_SendByte                          0x08002efc   Section        0  spi.o(i.SPI2_SendByte)
    i.SPI_Cmd                                0x08002f50   Section        0  stm32f10x_spi.o(i.SPI_Cmd)
    i.SPI_I2S_GetFlagStatus                  0x08002f68   Section        0  stm32f10x_spi.o(i.SPI_I2S_GetFlagStatus)
    i.SPI_I2S_ReceiveData                    0x08002f7a   Section        0  stm32f10x_spi.o(i.SPI_I2S_ReceiveData)
    i.SPI_I2S_SendData                       0x08002f80   Section        0  stm32f10x_spi.o(i.SPI_I2S_SendData)
    i.SPI_Init                               0x08002f84   Section        0  stm32f10x_spi.o(i.SPI_Init)
    i.SetAccValue_X                          0x08002fc0   Section        0  bmi160_data.o(i.SetAccValue_X)
    i.SetAccValue_Y                          0x08002fd8   Section        0  bmi160_data.o(i.SetAccValue_Y)
    i.SetAccValue_Z                          0x08002ff0   Section        0  bmi160_data.o(i.SetAccValue_Z)
    i.SetGyroValue_X                         0x08003008   Section        0  bmi160_data.o(i.SetGyroValue_X)
    i.SetGyroValue_Y                         0x08003014   Section        0  bmi160_data.o(i.SetGyroValue_Y)
    i.SetGyroValue_Z                         0x08003020   Section        0  bmi160_data.o(i.SetGyroValue_Z)
    i.SetNeedCharge                          0x0800302c   Section        0  applicationpowerchip.o(i.SetNeedCharge)
    i.SetSysClock                            0x08003038   Section        0  system_stm32f10x.o(i.SetSysClock)
    SetSysClock                              0x08003039   Thumb Code     8  system_stm32f10x.o(i.SetSysClock)
    i.SetSysClockTo72                        0x08003040   Section        0  system_stm32f10x.o(i.SetSysClockTo72)
    SetSysClockTo72                          0x08003041   Thumb Code   214  system_stm32f10x.o(i.SetSysClockTo72)
    i.SingleTimeoutCheck                     0x08003120   Section        0  systemtime.o(i.SingleTimeoutCheck)
    i.SysTick_CLKSourceConfig                0x080031d2   Section        0  misc.o(i.SysTick_CLKSourceConfig)
    i.SysTick_Handler                        0x080031fa   Section        0  delay.o(i.SysTick_Handler)
    i.SystemInit                             0x0800320c   Section        0  system_stm32f10x.o(i.SystemInit)
    i.TI1_Config                             0x0800326c   Section        0  stm32f10x_tim.o(i.TI1_Config)
    TI1_Config                               0x0800326d   Thumb Code   108  stm32f10x_tim.o(i.TI1_Config)
    i.TI2_Config                             0x080032ec   Section        0  stm32f10x_tim.o(i.TI2_Config)
    TI2_Config                               0x080032ed   Thumb Code   130  stm32f10x_tim.o(i.TI2_Config)
    i.TI3_Config                             0x08003384   Section        0  stm32f10x_tim.o(i.TI3_Config)
    TI3_Config                               0x08003385   Thumb Code   122  stm32f10x_tim.o(i.TI3_Config)
    i.TI4_Config                             0x08003414   Section        0  stm32f10x_tim.o(i.TI4_Config)
    TI4_Config                               0x08003415   Thumb Code   130  stm32f10x_tim.o(i.TI4_Config)
    i.TIM1_CC_IRQHandler                     0x080034ac   Section        0  timecapture.o(i.TIM1_CC_IRQHandler)
    i.TIM1_CH12WheelCaptureInit              0x080035b8   Section        0  timecapture.o(i.TIM1_CH12WheelCaptureInit)
    i.TIM1_Capture_Init                      0x0800369c   Section        0  timecapture.o(i.TIM1_Capture_Init)
    i.TIM3_CH34_Init                         0x080036ac   Section        0  timepwm.o(i.TIM3_CH34_Init)
    i.TIM3_PWM_Init                          0x0800374c   Section        0  timepwm.o(i.TIM3_PWM_Init)
    i.TIM4_CH234_Init                        0x0800375c   Section        0  timepwm.o(i.TIM4_CH234_Init)
    i.TIM4_PWM_Init                          0x0800381c   Section        0  timepwm.o(i.TIM4_PWM_Init)
    i.TIM5_CH2_FanInit                       0x08003838   Section        0  timepwm.o(i.TIM5_CH2_FanInit)
    i.TIM5_PWM_Init                          0x080038c8   Section        0  timepwm.o(i.TIM5_PWM_Init)
    i.TIM6_IRQHandler                        0x080038d8   Section        0  timer.o(i.TIM6_IRQHandler)
    i.TIM8_CC_IRQHandler                     0x08003904   Section        0  timecapture.o(i.TIM8_CC_IRQHandler)
    i.TIM8_CH4_FanCaptureInit                0x08003930   Section        0  timecapture.o(i.TIM8_CH4_FanCaptureInit)
    i.TIM8_Capture_Init                      0x080039f0   Section        0  timecapture.o(i.TIM8_Capture_Init)
    i.TIM_ClearFlag                          0x080039fe   Section        0  stm32f10x_tim.o(i.TIM_ClearFlag)
    i.TIM_ClearITPendingBit                  0x08003a04   Section        0  stm32f10x_tim.o(i.TIM_ClearITPendingBit)
    i.TIM_Cmd                                0x08003a0a   Section        0  stm32f10x_tim.o(i.TIM_Cmd)
    i.TIM_DeInit                             0x08003a24   Section        0  stm32f10x_tim.o(i.TIM_DeInit)
    i.TIM_GetCapture1                        0x08003c0c   Section        0  stm32f10x_tim.o(i.TIM_GetCapture1)
    i.TIM_GetCapture2                        0x08003c12   Section        0  stm32f10x_tim.o(i.TIM_GetCapture2)
    i.TIM_GetCapture4                        0x08003c18   Section        0  stm32f10x_tim.o(i.TIM_GetCapture4)
    i.TIM_GetITStatus                        0x08003c20   Section        0  stm32f10x_tim.o(i.TIM_GetITStatus)
    i.TIM_ICInit                             0x08003c44   Section        0  stm32f10x_tim.o(i.TIM_ICInit)
    i.TIM_ITConfig                           0x08003cf0   Section        0  stm32f10x_tim.o(i.TIM_ITConfig)
    i.TIM_OC2Init                            0x08003d04   Section        0  stm32f10x_tim.o(i.TIM_OC2Init)
    i.TIM_OC2PreloadConfig                   0x08003da8   Section        0  stm32f10x_tim.o(i.TIM_OC2PreloadConfig)
    i.TIM_OC3Init                            0x08003dc4   Section        0  stm32f10x_tim.o(i.TIM_OC3Init)
    i.TIM_OC3PreloadConfig                   0x08003e64   Section        0  stm32f10x_tim.o(i.TIM_OC3PreloadConfig)
    i.TIM_OC4Init                            0x08003e78   Section        0  stm32f10x_tim.o(i.TIM_OC4Init)
    i.TIM_OC4PreloadConfig                   0x08003ef4   Section        0  stm32f10x_tim.o(i.TIM_OC4PreloadConfig)
    i.TIM_PrescalerConfig                    0x08003f0e   Section        0  stm32f10x_tim.o(i.TIM_PrescalerConfig)
    i.TIM_SetCompare2                        0x08003f14   Section        0  stm32f10x_tim.o(i.TIM_SetCompare2)
    i.TIM_SetCompare3                        0x08003f18   Section        0  stm32f10x_tim.o(i.TIM_SetCompare3)
    i.TIM_SetCompare4                        0x08003f1c   Section        0  stm32f10x_tim.o(i.TIM_SetCompare4)
    i.TIM_SetCounter                         0x08003f22   Section        0  stm32f10x_tim.o(i.TIM_SetCounter)
    i.TIM_SetIC1Prescaler                    0x08003f26   Section        0  stm32f10x_tim.o(i.TIM_SetIC1Prescaler)
    i.TIM_SetIC2Prescaler                    0x08003f38   Section        0  stm32f10x_tim.o(i.TIM_SetIC2Prescaler)
    i.TIM_SetIC3Prescaler                    0x08003f52   Section        0  stm32f10x_tim.o(i.TIM_SetIC3Prescaler)
    i.TIM_SetIC4Prescaler                    0x08003f64   Section        0  stm32f10x_tim.o(i.TIM_SetIC4Prescaler)
    i.TIM_TimeBaseInit                       0x08003f80   Section        0  stm32f10x_tim.o(i.TIM_TimeBaseInit)
    i.USART1_IRQHandler                      0x08004024   Section        0  usart1.o(i.USART1_IRQHandler)
    i.USART_Cmd                              0x080040c8   Section        0  stm32f10x_usart.o(i.USART_Cmd)
    i.USART_DMACmd                           0x080040e0   Section        0  stm32f10x_usart.o(i.USART_DMACmd)
    i.USART_GetFlagStatus                    0x080040f2   Section        0  stm32f10x_usart.o(i.USART_GetFlagStatus)
    i.USART_GetITStatus                      0x0800410c   Section        0  stm32f10x_usart.o(i.USART_GetITStatus)
    i.USART_ITConfig                         0x08004160   Section        0  stm32f10x_usart.o(i.USART_ITConfig)
    i.USART_Init                             0x080041ac   Section        0  stm32f10x_usart.o(i.USART_Init)
    i.USART_ReceiveData                      0x08004284   Section        0  stm32f10x_usart.o(i.USART_ReceiveData)
    i.UltraSonicCheckUpdate                  0x08004290   Section        0  behaviormanage.o(i.UltraSonicCheckUpdate)
    i.UsageFault_Handler                     0x080042f8   Section        0  stm32f10x_it.o(i.UsageFault_Handler)
    i.__ARM_fpclassify                       0x080042fc   Section        0  fpclassify.o(i.__ARM_fpclassify)
    i.__kernel_poly                          0x08004324   Section        0  poly.o(i.__kernel_poly)
    i.__mathlib_dbl_infnan                   0x080043ce   Section        0  dunder.o(i.__mathlib_dbl_infnan)
    i.__mathlib_dbl_infnan2                  0x080043d4   Section        0  dunder.o(i.__mathlib_dbl_infnan2)
    i.__mathlib_dbl_underflow                0x080043d8   Section        0  dunder.o(i.__mathlib_dbl_underflow)
    i._is_digit                              0x080043e8   Section        0  __printf_wp.o(i._is_digit)
    i._sys_exit                              0x080043f6   Section        0  usart1.o(i._sys_exit)
    i.atan                                   0x080043fc   Section        0  atan.o(i.atan)
    i.atan2                                  0x0800461c   Section        0  atan2.o(i.atan2)
    i.bGetClashFlag                          0x0800479c   Section        0  application_ultrasonic.o(i.bGetClashFlag)
    i.delay_init                             0x080047a8   Section        0  delay.o(i.delay_init)
    i.delay_ms                               0x08004804   Section        0  delay.o(i.delay_ms)
    i.delay_us                               0x08004844   Section        0  delay.o(i.delay_us)
    i.eKey1State                             0x0800488c   Section        0  applicationkey.o(i.eKey1State)
    i.eKey2State                             0x08004a54   Section        0  applicationkey.o(i.eKey2State)
    i.fMath_FindMaxDiff                      0x08004c1c   Section        0  mymath.o(i.fMath_FindMaxDiff)
    i.fUltrasonic_Distance_Caculate          0x08004c78   Section        0  application_ultrasonic.o(i.fUltrasonic_Distance_Caculate)
    i.fputc                                  0x08004ce4   Section        0  usart1.o(i.fputc)
    i.iIncPIDCalc                            0x08004d00   Section        0  applicationmotor.o(i.iIncPIDCalc)
    i.isGarbageBoxClose                      0x08004d8c   Section        0  garbage_boxes_check.o(i.isGarbageBoxClose)
    i.isInRechargeStand                      0x08004d98   Section        0  applicationpowerchip.o(i.isInRechargeStand)
    i.isNeedCharge                           0x08004da4   Section        0  applicationpowerchip.o(i.isNeedCharge)
    i.main                                   0x08004db0   Section        0  main.o(i.main)
    i.prvAddCurrentTaskToDelayedList         0x08004dd8   Section        0  tasks.o(i.prvAddCurrentTaskToDelayedList)
    prvAddCurrentTaskToDelayedList           0x08004dd9   Thumb Code   124  tasks.o(i.prvAddCurrentTaskToDelayedList)
    i.prvAddNewTaskToReadyList               0x08004e70   Section        0  tasks.o(i.prvAddNewTaskToReadyList)
    prvAddNewTaskToReadyList                 0x08004e71   Thumb Code   156  tasks.o(i.prvAddNewTaskToReadyList)
    i.prvCheckForValidListAndQueue           0x08004f28   Section        0  timers.o(i.prvCheckForValidListAndQueue)
    prvCheckForValidListAndQueue             0x08004f29   Thumb Code    72  timers.o(i.prvCheckForValidListAndQueue)
    i.prvCheckTasksWaitingTermination        0x08004f8c   Section        0  tasks.o(i.prvCheckTasksWaitingTermination)
    prvCheckTasksWaitingTermination          0x08004f8d   Thumb Code    86  tasks.o(i.prvCheckTasksWaitingTermination)
    i.prvCopyDataFromQueue                   0x08004ff0   Section        0  queue.o(i.prvCopyDataFromQueue)
    prvCopyDataFromQueue                     0x08004ff1   Thumb Code    42  queue.o(i.prvCopyDataFromQueue)
    i.prvCopyDataToQueue                     0x0800501a   Section        0  queue.o(i.prvCopyDataToQueue)
    prvCopyDataToQueue                       0x0800501b   Thumb Code   124  queue.o(i.prvCopyDataToQueue)
    i.prvDeleteTCB                           0x08005096   Section        0  tasks.o(i.prvDeleteTCB)
    prvDeleteTCB                             0x08005097   Thumb Code    18  tasks.o(i.prvDeleteTCB)
    i.prvGetNextExpireTime                   0x080050a8   Section        0  timers.o(i.prvGetNextExpireTime)
    prvGetNextExpireTime                     0x080050a9   Thumb Code    36  timers.o(i.prvGetNextExpireTime)
    i.prvHeapInit                            0x080050d0   Section        0  heap_4.o(i.prvHeapInit)
    prvHeapInit                              0x080050d1   Thumb Code    98  heap_4.o(i.prvHeapInit)
    i.prvIdleTask                            0x0800514c   Section        0  tasks.o(i.prvIdleTask)
    prvIdleTask                              0x0800514d   Thumb Code    32  tasks.o(i.prvIdleTask)
    i.prvInitialiseNewQueue                  0x08005174   Section        0  queue.o(i.prvInitialiseNewQueue)
    prvInitialiseNewQueue                    0x08005175   Thumb Code    46  queue.o(i.prvInitialiseNewQueue)
    i.prvInitialiseNewTask                   0x080051a4   Section        0  tasks.o(i.prvInitialiseNewTask)
    prvInitialiseNewTask                     0x080051a5   Thumb Code   170  tasks.o(i.prvInitialiseNewTask)
    i.prvInitialiseTaskLists                 0x08005274   Section        0  tasks.o(i.prvInitialiseTaskLists)
    prvInitialiseTaskLists                   0x08005275   Thumb Code    70  tasks.o(i.prvInitialiseTaskLists)
    i.prvInsertBlockIntoFreeList             0x080052dc   Section        0  heap_4.o(i.prvInsertBlockIntoFreeList)
    prvInsertBlockIntoFreeList               0x080052dd   Thumb Code    96  heap_4.o(i.prvInsertBlockIntoFreeList)
    i.prvInsertTimerInActiveList             0x08005344   Section        0  timers.o(i.prvInsertTimerInActiveList)
    prvInsertTimerInActiveList               0x08005345   Thumb Code    80  timers.o(i.prvInsertTimerInActiveList)
    i.prvIsQueueEmpty                        0x0800539c   Section        0  queue.o(i.prvIsQueueEmpty)
    prvIsQueueEmpty                          0x0800539d   Thumb Code    26  queue.o(i.prvIsQueueEmpty)
    i.prvIsQueueFull                         0x080053b6   Section        0  queue.o(i.prvIsQueueFull)
    prvIsQueueFull                           0x080053b7   Thumb Code    30  queue.o(i.prvIsQueueFull)
    i.prvNotifyQueueSetContainer             0x080053d4   Section        0  queue.o(i.prvNotifyQueueSetContainer)
    prvNotifyQueueSetContainer               0x080053d5   Thumb Code   124  queue.o(i.prvNotifyQueueSetContainer)
    i.prvProcessExpiredTimer                 0x08005474   Section        0  timers.o(i.prvProcessExpiredTimer)
    prvProcessExpiredTimer                   0x08005475   Thumb Code    84  timers.o(i.prvProcessExpiredTimer)
    i.prvProcessReceivedCommands             0x080054f4   Section        0  timers.o(i.prvProcessReceivedCommands)
    prvProcessReceivedCommands               0x080054f5   Thumb Code   254  timers.o(i.prvProcessReceivedCommands)
    i.prvProcessTimerOrBlockTask             0x08005620   Section        0  timers.o(i.prvProcessTimerOrBlockTask)
    prvProcessTimerOrBlockTask               0x08005621   Thumb Code   102  timers.o(i.prvProcessTimerOrBlockTask)
    i.prvResetNextTaskUnblockTime            0x08005694   Section        0  tasks.o(i.prvResetNextTaskUnblockTime)
    prvResetNextTaskUnblockTime              0x08005695   Thumb Code    42  tasks.o(i.prvResetNextTaskUnblockTime)
    i.prvSampleTimeNow                       0x080056c8   Section        0  timers.o(i.prvSampleTimeNow)
    prvSampleTimeNow                         0x080056c9   Thumb Code    40  timers.o(i.prvSampleTimeNow)
    i.prvSwitchTimerLists                    0x080056f4   Section        0  timers.o(i.prvSwitchTimerLists)
    prvSwitchTimerLists                      0x080056f5   Thumb Code   140  timers.o(i.prvSwitchTimerLists)
    i.prvTaskExitError                       0x080057b0   Section        0  port.o(i.prvTaskExitError)
    prvTaskExitError                         0x080057b1   Thumb Code    48  port.o(i.prvTaskExitError)
    i.prvTimerTask                           0x08005820   Section        0  timers.o(i.prvTimerTask)
    prvTimerTask                             0x08005821   Thumb Code    26  timers.o(i.prvTimerTask)
    i.prvUnlockQueue                         0x0800583a   Section        0  queue.o(i.prvUnlockQueue)
    prvUnlockQueue                           0x0800583b   Thumb Code   146  queue.o(i.prvUnlockQueue)
    i.pvPortMalloc                           0x080058cc   Section        0  heap_4.o(i.pvPortMalloc)
    i.pvTaskIncrementMutexHeldCount          0x08005a20   Section        0  tasks.o(i.pvTaskIncrementMutexHeldCount)
    i.pxPortInitialiseStack                  0x08005a40   Section        0  port.o(i.pxPortInitialiseStack)
    i.read_addr                              0x08005a64   Section        0  usmart.o(i.read_addr)
    i.sSpeed_L_PID                           0x08005a6c   Section        0  applicationmotor.o(i.sSpeed_L_PID)
    i.sSpeed_R_PID                           0x08005b3c   Section        0  applicationmotor.o(i.sSpeed_R_PID)
    i.ucBMI160deal_Shake_Reset               0x08005c0c   Section        0  bmi160.o(i.ucBMI160deal_Shake_Reset)
    i.ucBmi160_Shake_Reset                   0x08005c1c   Section        0  bmi160.o(i.ucBmi160_Shake_Reset)
    i.ucBp24773_ReadOneByte                  0x08005c70   Section        0  applicationpowerchip.o(i.ucBp24773_ReadOneByte)
    i.ucGetBatteryLevel                      0x08005cac   Section        0  applicationpowerchip.o(i.ucGetBatteryLevel)
    i.ucIIC_Read_Byte                        0x08005cb8   Section        0  myiic.o(i.ucIIC_Read_Byte)
    i.ucIIC_Wait_Ack                         0x08005d28   Section        0  myiic.o(i.ucIIC_Wait_Ack)
    i.ucMath_Tolerance                       0x08005d8c   Section        0  mymath.o(i.ucMath_Tolerance)
    i.ucRotateAroundAxle                     0x08005e34   Section        0  applicationmotor.o(i.ucRotateAroundAxle)
    i.ucRouteAdjustByAlongEdgeDistance       0x08005f58   Section        0  applicationmotor.o(i.ucRouteAdjustByAlongEdgeDistance)
    i.ucRoute_Adjust                         0x08005fa8   Section        0  applicationmotor.o(i.ucRoute_Adjust)
    i.ucTurn_Angle_Round                     0x080060fc   Section        0  applicationmotor.o(i.ucTurn_Angle_Round)
    i.ucTurn_Angle_Round_NoCheak             0x08006218   Section        0  applicationmotor.o(i.ucTurn_Angle_Round_NoCheak)
    i.uiGetFanRotationRate                   0x08006278   Section        0  applicationmotor.o(i.uiGetFanRotationRate)
    i.ulTaskNotifyTake                       0x08006284   Section        0  tasks.o(i.ulTaskNotifyTake)
    i.usGetChargeCurrent                     0x080062f8   Section        0  applicationpowerchip.o(i.usGetChargeCurrent)
    i.usGetClashDistance                     0x08006304   Section        0  application_ultrasonic.o(i.usGetClashDistance)
    i.usGetMiddleValue                       0x08006310   Section        0  applicationmotor.o(i.usGetMiddleValue)
    i.usGetWheelSpeed                        0x08006350   Section        0  applicationmotor.o(i.usGetWheelSpeed)
    i.usSpeed2Cycle                          0x08006388   Section        0  applicationmotor.o(i.usSpeed2Cycle)
    i.usmart_cmd_rec                         0x080063c0   Section        0  usmart.o(i.usmart_cmd_rec)
    i.usmart_exe                             0x08006470   Section        0  usmart.o(i.usmart_exe)
    i.usmart_get_aparm                       0x08006744   Section        0  usmart_str.o(i.usmart_get_aparm)
    i.usmart_get_cmdname                     0x0800680c   Section        0  usmart_str.o(i.usmart_get_cmdname)
    i.usmart_get_fname                       0x08006844   Section        0  usmart_str.o(i.usmart_get_fname)
    i.usmart_get_fparam                      0x08006a04   Section        0  usmart_str.o(i.usmart_get_fparam)
    i.usmart_get_parmpos                     0x08006b10   Section        0  usmart_str.o(i.usmart_get_parmpos)
    i.usmart_get_runtime                     0x08006b30   Section        0  usmart.o(i.usmart_get_runtime)
    i.usmart_init                            0x08006b4c   Section        0  usmart.o(i.usmart_init)
    i.usmart_pow                             0x08006b88   Section        0  usmart_str.o(i.usmart_pow)
    i.usmart_reset_runtime                   0x08006ba0   Section        0  usmart.o(i.usmart_reset_runtime)
    i.usmart_scan                            0x08006bb0   Section        0  usmart.o(i.usmart_scan)
    i.usmart_search_nextc                    0x08006cc0   Section        0  usmart_str.o(i.usmart_search_nextc)
    i.usmart_str2num                         0x08006cd6   Section        0  usmart_str.o(i.usmart_str2num)
    i.usmart_strcmp                          0x08006da0   Section        0  usmart_str.o(i.usmart_strcmp)
    i.usmart_strcopy                         0x08006dc2   Section        0  usmart_str.o(i.usmart_strcopy)
    i.usmart_strlen                          0x08006dd8   Section        0  usmart_str.o(i.usmart_strlen)
    i.usmart_sys_cmd_exe                     0x08006df0   Section        0  usmart.o(i.usmart_sys_cmd_exe)
    i.uxListRemove                           0x080074d4   Section        0  list.o(i.uxListRemove)
    i.vADCDataProcessingTask                 0x080074fc   Section        0  applicationadc.o(i.vADCDataProcessingTask)
    i.vAllAdcPinInit                         0x08007538   Section        0  adc.o(i.vAllAdcPinInit)
    i.vAllMotorMotionTask                    0x08007714   Section        0  applicationmotor.o(i.vAllMotorMotionTask)
    i.vAllOutputPinInit                      0x08007722   Section        0  iooutput.o(i.vAllOutputPinInit)
    i.vAll_AD_VoluePrintf                    0x08007750   Section        0  testfun.o(i.vAll_AD_VoluePrintf)
    i.vAll_EXTI_PinInit                      0x08007a38   Section        0  exti.o(i.vAll_EXTI_PinInit)
    i.vAll_PWM_Init                          0x08007b64   Section        0  timepwm.o(i.vAll_PWM_Init)
    i.vAll_TIM_CaptureInit                   0x08007b74   Section        0  timecapture.o(i.vAll_TIM_CaptureInit)
    i.vAll_UltraSonic_VoluePrintf            0x08007b80   Section        0  testfun.o(i.vAll_UltraSonic_VoluePrintf)
    i.vAlongEdge                             0x08007bd0   Section        0  behaviormanage.o(i.vAlongEdge)
    i.vBMI160CalcOffset_Gyro                 0x08008134   Section        0  bmi160.o(i.vBMI160CalcOffset_Gyro)
    i.vBMI160_SPI2_Init                      0x080083d0   Section        0  spi.o(i.vBMI160_SPI2_Init)
    i.vBatteryLevelUpdate                    0x080084a0   Section        0  applicationpowerchip.o(i.vBatteryLevelUpdate)
    i.vBehaviorAuto                          0x080084e4   Section        0  behaviormanage.o(i.vBehaviorAuto)
    i.vBehaviorForward                       0x08008690   Section        0  behaviormanage.o(i.vBehaviorForward)
    i.vBehaviorManageTask                    0x080086e4   Section        0  behaviormanage.o(i.vBehaviorManageTask)
    i.vBehaviorRetreat                       0x08008770   Section        0  behaviormanage.o(i.vBehaviorRetreat)
    i.vBehaviorRetreatL                      0x080087bc   Section        0  behaviormanage.o(i.vBehaviorRetreatL)
    i.vBehaviorRetreatR                      0x08008970   Section        0  behaviormanage.o(i.vBehaviorRetreatR)
    i.vBehaviorRotate                        0x08008b24   Section        0  behaviormanage.o(i.vBehaviorRotate)
    i.vBehaviorStop                          0x08008bec   Section        0  behaviormanage.o(i.vBehaviorStop)
    i.vBehaviorTurnLeft                      0x08008c3c   Section        0  behaviormanage.o(i.vBehaviorTurnLeft)
    i.vBehaviorTurnRight                     0x08008d14   Section        0  behaviormanage.o(i.vBehaviorTurnRight)
    i.vBmi160_InitAttAngle                   0x08008df0   Section        0  bmi160.o(i.vBmi160_InitAttAngle)
    i.vBoradPowerCtlPinInit                  0x08008e18   Section        0  iooutput.o(i.vBoradPowerCtlPinInit)
    i.vBp24773_WriteOneByte                  0x08008e4c   Section        0  applicationpowerchip.o(i.vBp24773_WriteOneByte)
    i.vBq24773_Set_Charge_Current            0x08008e80   Section        0  applicationpowerchip.o(i.vBq24773_Set_Charge_Current)
    i.vBq24773_Set_MAX_Charge_Voltage        0x08008f60   Section        0  applicationpowerchip.o(i.vBq24773_Set_MAX_Charge_Voltage)
    i.vButtonCheckOperation                  0x08008ffc   Section        0  applicationkey.o(i.vButtonCheckOperation)
    i.vChange_EX_Angle                       0x08009070   Section        0  testfun.o(i.vChange_EX_Angle)
    i.vChange_PID                            0x08009094   Section        0  testfun.o(i.vChange_PID)
    i.vDataMemoryCopy                        0x08009100   Section        0  applicationmotor.o(i.vDataMemoryCopy)
    i.vDma1_4_Usart1_TX_Init                 0x0800911c   Section        0  usart1.o(i.vDma1_4_Usart1_TX_Init)
    i.vDma1_6_Usart2_RX_Init                 0x0800916c   Section        0  usart.o(i.vDma1_6_Usart2_RX_Init)
    i.vDma1_7_Usart2_TX_Init                 0x080091c4   Section        0  usart.o(i.vDma1_7_Usart2_TX_Init)
    i.vDropCheckTask                         0x0800921c   Section        0  applicationdropcheck.o(i.vDropCheckTask)
    i.vDropWaveformOut                       0x0800922c   Section        0  testfun.o(i.vDropWaveformOut)
    i.vErrorAbnormalCheckTask                0x08009288   Section        0  behaviormanage.o(i.vErrorAbnormalCheckTask)
    i.vFAN_Test                              0x08009398   Section        0  testfun.o(i.vFAN_Test)
    i.vFanPowerCtlPinInit                    0x080093b0   Section        0  iooutput.o(i.vFanPowerCtlPinInit)
    i.vGarbageBoxChecking                    0x080093e4   Section        0  garbage_boxes_check.o(i.vGarbageBoxChecking)
    i.vGarbage_box_check_Init                0x0800940c   Section        0  garbage_boxes_check.o(i.vGarbage_box_check_Init)
    i.vGarbage_box_check_task                0x08009434   Section        0  garbage_boxes_check.o(i.vGarbage_box_check_task)
    i.vGetADCChannelAverageNumber            0x0800945c   Section        0  applicationadc.o(i.vGetADCChannelAverageNumber)
    i.vGyroscope_VoluePrintf                 0x080095f8   Section        0  testfun.o(i.vGyroscope_VoluePrintf)
    i.vGyroscopse_task                       0x08009644   Section        0  bmi160.o(i.vGyroscopse_task)
    i.vIIC_Init                              0x08009684   Section        0  myiic.o(i.vIIC_Init)
    i.vIIC_Send_Byte                         0x080096b8   Section        0  myiic.o(i.vIIC_Send_Byte)
    i.vKey_Init                              0x0800972c   Section        0  key.o(i.vKey_Init)
    i.vLEDPWM_Init                           0x08009794   Section        0  led.o(i.vLEDPWM_Init)
    i.vLedStateDisplay                       0x08009860   Section        0  applicationled.o(i.vLedStateDisplay)
    i.vListInitialise                        0x0800990c   Section        0  list.o(i.vListInitialise)
    i.vListInitialiseItem                    0x08009926   Section        0  list.o(i.vListInitialiseItem)
    i.vListInsert                            0x0800992c   Section        0  list.o(i.vListInsert)
    i.vListInsertEnd                         0x08009960   Section        0  list.o(i.vListInsertEnd)
    i.vMotionWheel                           0x08009978   Section        0  applicationmotor.o(i.vMotionWheel)
    i.vMotorSpeedUpdateTask                  0x08009a2c   Section        0  applicationmotor.o(i.vMotorSpeedUpdateTask)
    i.vPortEnterCritical                     0x08009ab0   Section        0  port.o(i.vPortEnterCritical)
    i.vPortExitCritical                      0x08009b38   Section        0  port.o(i.vPortExitCritical)
    i.vPortFree                              0x08009ba8   Section        0  heap_4.o(i.vPortFree)
    i.vPortSetupTimerInterrupt               0x08009c60   Section        0  port.o(i.vPortSetupTimerInterrupt)
    i.vPortValidateInterruptPriority         0x08009c80   Section        0  port.o(i.vPortValidateInterruptPriority)
    i.vPowerChipTask                         0x08009d20   Section        0  applicationpowerchip.o(i.vPowerChipTask)
    i.vPrintf_ALL_Register_Bp24773           0x08009da0   Section        0  testfun.o(i.vPrintf_ALL_Register_Bp24773)
    i.vPrintf_ALL_RobotSta                   0x08009f84   Section        0  testfun.o(i.vPrintf_ALL_RobotSta)
    i.vPrintf_ALL_wheel_Data                 0x0800a000   Section        0  testfun.o(i.vPrintf_ALL_wheel_Data)
    i.vQueueAddToRegistry                    0x0800a168   Section        0  queue.o(i.vQueueAddToRegistry)
    i.vQueueWaitForMessageRestricted         0x0800a194   Section        0  queue.o(i.vQueueWaitForMessageRestricted)
    i.vRechargeStandUpdate                   0x0800a1e0   Section        0  applicationpowerchip.o(i.vRechargeStandUpdate)
    i.vRecordOSRunTime                       0x0800a204   Section        0  systemtime.o(i.vRecordOSRunTime)
    i.vRedLedBrightness                      0x0800a248   Section        0  applicationled.o(i.vRedLedBrightness)
    i.vRollBrushCtlPinInit                   0x0800a260   Section        0  iooutput.o(i.vRollBrushCtlPinInit)
    i.vSGM4878CtlPinInit                     0x0800a28c   Section        0  iooutput.o(i.vSGM4878CtlPinInit)
    i.vSetDropTime                           0x0800a2b8   Section        0  testfun.o(i.vSetDropTime)
    i.vSetFanSpeed                           0x0800a2f8   Section        0  applicationmotor.o(i.vSetFanSpeed)
    i.vSideBrushCtlPinInit                   0x0800a320   Section        0  iooutput.o(i.vSideBrushCtlPinInit)
    i.vSoftSpeedAdjust                       0x0800a34c   Section        0  applicationmotor.o(i.vSoftSpeedAdjust)
    i.vSoftSpeedAdvanceTask                  0x0800a3cc   Section        0  applicationmotor.o(i.vSoftSpeedAdvanceTask)
    i.vSystemHardwareDriverInit              0x0800a3da   Section        0  hardwaremanage.o(i.vSystemHardwareDriverInit)
    i.vSystemHardwareWorkTask                0x0800a416   Section        0  taskmanage.o(i.vSystemHardwareWorkTask)
    i.vTIM6_Int_Init                         0x0800a430   Section        0  timer.o(i.vTIM6_Int_Init)
    i.vTIM7_Configuration                    0x0800a490   Section        0  timer.o(i.vTIM7_Configuration)
    i.vTaskCreateFunction                    0x0800a4d8   Section        0  taskmanage.o(i.vTaskCreateFunction)
    i.vTaskDelay                             0x0800a708   Section        0  tasks.o(i.vTaskDelay)
    i.vTaskDelayUntil                        0x0800a77c   Section        0  tasks.o(i.vTaskDelayUntil)
    i.vTaskMissedYield                       0x0800a858   Section        0  tasks.o(i.vTaskMissedYield)
    i.vTaskPlaceOnEventList                  0x0800a864   Section        0  tasks.o(i.vTaskPlaceOnEventList)
    i.vTaskPlaceOnEventListRestricted        0x0800a8b8   Section        0  tasks.o(i.vTaskPlaceOnEventListRestricted)
    i.vTaskPriorityInherit                   0x0800a914   Section        0  tasks.o(i.vTaskPriorityInherit)
    i.vTaskSetTimeOutState                   0x0800a9c4   Section        0  tasks.o(i.vTaskSetTimeOutState)
    i.vTaskStartScheduler                    0x0800aa10   Section        0  tasks.o(i.vTaskStartScheduler)
    i.vTaskSuspendAll                        0x0800aabc   Section        0  tasks.o(i.vTaskSuspendAll)
    i.vTaskSwitchContext                     0x0800aacc   Section        0  tasks.o(i.vTaskSwitchContext)
    i.vUart1PinFunction_Init                 0x0800ab74   Section        0  usart1.o(i.vUart1PinFunction_Init)
    i.vUart1_Init                            0x0800ac2c   Section        0  usart1.o(i.vUart1_Init)
    i.vUart2PinFunction_Init                 0x0800ac58   Section        0  usart.o(i.vUart2PinFunction_Init)
    i.vUart2_Init                            0x0800acf8   Section        0  usart.o(i.vUart2_Init)
    i.vUltransonicCaculate                   0x0800ad44   Section        0  application_ultrasonic.o(i.vUltransonicCaculate)
    i.vUltrasonicTask                        0x0800adfc   Section        0  application_ultrasonic.o(i.vUltrasonicTask)
    i.vUltrasonic_Emit                       0x0800ae3c   Section        0  iooutput.o(i.vUltrasonic_Emit)
    i.vUltrasonic_GPIO_config                0x0800ae70   Section        0  iooutput.o(i.vUltrasonic_GPIO_config)
    i.vUltrasonic_Init                       0x0800aeac   Section        0  iooutput.o(i.vUltrasonic_Init)
    i.vUsart1Interactive                     0x0800aeb4   Section        0  usart1.o(i.vUsart1Interactive)
    i.vUsart2Interactive                     0x0800af58   Section        0  usart.o(i.vUsart2Interactive)
    i.vUsmartTimerTask                       0x0800b094   Section        0  usmart.o(i.vUsmartTimerTask)
    i.vVAPowerCtlPinInit                     0x0800b0a8   Section        0  iooutput.o(i.vVAPowerCtlPinInit)
    i.vVPowerCtlPinInit                      0x0800b0e0   Section        0  iooutput.o(i.vVPowerCtlPinInit)
    i.vVccPowerCtlPinInit                    0x0800b118   Section        0  iooutput.o(i.vVccPowerCtlPinInit)
    i.vWaveFromOut                           0x0800b150   Section        0  datascope_dp.o(i.vWaveFromOut)
    i.vWheelCtlPinInit                       0x0800b188   Section        0  iooutput.o(i.vWheelCtlPinInit)
    i.vWhiteLedBrightness                    0x0800b1b4   Section        0  applicationled.o(i.vWhiteLedBrightness)
    i.vWrite_Bq24773_Register                0x0800b1ca   Section        0  testfun.o(i.vWrite_Bq24773_Register)
    i.vWrite_Wheel                           0x0800b1dc   Section        0  testfun.o(i.vWrite_Wheel)
    i.vYellowLedBrightness                   0x0800b234   Section        0  applicationled.o(i.vYellowLedBrightness)
    i.write_addr                             0x0800b24a   Section        0  usmart.o(i.write_addr)
    i.xPortStartScheduler                    0x0800b250   Section        0  port.o(i.xPortStartScheduler)
    i.xPortSysTickHandler                    0x0800b2f0   Section        0  port.o(i.xPortSysTickHandler)
    i.xQueueGenericCreate                    0x0800b328   Section        0  queue.o(i.xQueueGenericCreate)
    i.xQueueGenericReceive                   0x0800b39c   Section        0  queue.o(i.xQueueGenericReceive)
    i.xQueueGenericReset                     0x0800b564   Section        0  queue.o(i.xQueueGenericReset)
    i.xQueueGenericSend                      0x0800b614   Section        0  queue.o(i.xQueueGenericSend)
    i.xQueueGenericSendFromISR               0x0800b7d8   Section        0  queue.o(i.xQueueGenericSendFromISR)
    i.xTaskCheckForTimeOut                   0x0800b8e8   Section        0  tasks.o(i.xTaskCheckForTimeOut)
    i.xTaskCreate                            0x0800b988   Section        0  tasks.o(i.xTaskCreate)
    i.xTaskGenericNotifyFromISR              0x0800b9e8   Section        0  tasks.o(i.xTaskGenericNotifyFromISR)
    i.xTaskGetSchedulerState                 0x0800bb3c   Section        0  tasks.o(i.xTaskGetSchedulerState)
    i.xTaskGetTickCount                      0x0800bb5c   Section        0  tasks.o(i.xTaskGetTickCount)
    i.xTaskIncrementTick                     0x0800bb68   Section        0  tasks.o(i.xTaskIncrementTick)
    i.xTaskPriorityDisinherit                0x0800bcc8   Section        0  tasks.o(i.xTaskPriorityDisinherit)
    i.xTaskRemoveFromEventList               0x0800bda0   Section        0  tasks.o(i.xTaskRemoveFromEventList)
    i.xTaskResumeAll                         0x0800be54   Section        0  tasks.o(i.xTaskResumeAll)
    i.xTimerCreateTimerTask                  0x0800bf74   Section        0  timers.o(i.xTimerCreateTimerTask)
    i.xTimerGenericCommand                   0x0800bfe8   Section        0  timers.o(i.xTimerGenericCommand)
    locale$$code                             0x0800c08c   Section       44  lc_numeric_c.o(locale$$code)
    x$fpl$d2f                                0x0800c0b8   Section       98  d2f.o(x$fpl$d2f)
    x$fpl$dadd                               0x0800c11c   Section      336  daddsub_clz.o(x$fpl$dadd)
    _dadd1                                   0x0800c12d   Thumb Code     0  daddsub_clz.o(x$fpl$dadd)
    x$fpl$dcheck1                            0x0800c26c   Section       16  dcheck1.o(x$fpl$dcheck1)
    x$fpl$dcmpinf                            0x0800c27c   Section       24  dcmpi.o(x$fpl$dcmpinf)
    x$fpl$ddiv                               0x0800c294   Section      688  ddiv.o(x$fpl$ddiv)
    ddiv_entry                               0x0800c29b   Thumb Code     0  ddiv.o(x$fpl$ddiv)
    x$fpl$dfix                               0x0800c544   Section       94  dfix.o(x$fpl$dfix)
    x$fpl$dflt                               0x0800c5a2   Section       46  dflt_clz.o(x$fpl$dflt)
    x$fpl$dfltu                              0x0800c5d0   Section       38  dflt_clz.o(x$fpl$dfltu)
    x$fpl$dleqf                              0x0800c5f8   Section      120  dleqf.o(x$fpl$dleqf)
    x$fpl$dmul                               0x0800c670   Section      340  dmul.o(x$fpl$dmul)
    x$fpl$dnaninf                            0x0800c7c4   Section      156  dnaninf.o(x$fpl$dnaninf)
    x$fpl$dretinf                            0x0800c860   Section       12  dretinf.o(x$fpl$dretinf)
    x$fpl$drleqf                             0x0800c86c   Section      108  drleqf.o(x$fpl$drleqf)
    x$fpl$drsb                               0x0800c8d8   Section       22  daddsub_clz.o(x$fpl$drsb)
    x$fpl$dsub                               0x0800c8f0   Section      468  daddsub_clz.o(x$fpl$dsub)
    _dsub1                                   0x0800c901   Thumb Code     0  daddsub_clz.o(x$fpl$dsub)
    x$fpl$f2d                                0x0800cac4   Section       86  f2d.o(x$fpl$f2d)
    x$fpl$fadd                               0x0800cb1c   Section      196  faddsub_clz.o(x$fpl$fadd)
    _fadd1                                   0x0800cb2b   Thumb Code     0  faddsub_clz.o(x$fpl$fadd)
    x$fpl$fcmpinf                            0x0800cbe0   Section       24  fcmpi.o(x$fpl$fcmpinf)
    x$fpl$fdiv                               0x0800cbf8   Section      388  fdiv.o(x$fpl$fdiv)
    _fdiv1                                   0x0800cbf9   Thumb Code     0  fdiv.o(x$fpl$fdiv)
    x$fpl$feqf                               0x0800cd7c   Section      104  feqf.o(x$fpl$feqf)
    x$fpl$ffix                               0x0800cde4   Section       54  ffix.o(x$fpl$ffix)
    x$fpl$ffixu                              0x0800ce1c   Section       62  ffixu.o(x$fpl$ffixu)
    x$fpl$fflt                               0x0800ce5c   Section       48  fflt_clz.o(x$fpl$fflt)
    x$fpl$ffltu                              0x0800ce8c   Section       38  fflt_clz.o(x$fpl$ffltu)
    x$fpl$fleqf                              0x0800ceb4   Section      104  fleqf.o(x$fpl$fleqf)
    x$fpl$fmul                               0x0800cf1c   Section      258  fmul.o(x$fpl$fmul)
    x$fpl$fnaninf                            0x0800d01e   Section      140  fnaninf.o(x$fpl$fnaninf)
    x$fpl$fretinf                            0x0800d0aa   Section       10  fretinf.o(x$fpl$fretinf)
    x$fpl$frleqf                             0x0800d0b4   Section       98  frleqf.o(x$fpl$frleqf)
    x$fpl$fsub                               0x0800d118   Section      234  faddsub_clz.o(x$fpl$fsub)
    _fsub1                                   0x0800d127   Thumb Code     0  faddsub_clz.o(x$fpl$fsub)
    x$fpl$printf1                            0x0800d202   Section        4  printf1.o(x$fpl$printf1)
    x$fpl$retnan                             0x0800d206   Section      100  retnan.o(x$fpl$retnan)
    x$fpl$scalbn                             0x0800d26a   Section       92  scalbn.o(x$fpl$scalbn)
    x$fpl$trapveneer                         0x0800d2c6   Section       48  trapv.o(x$fpl$trapveneer)
    .constdata                               0x0800d2f6   Section       40  _printf_hex_int.o(.constdata)
    x$fpl$usenofp                            0x0800d2f6   Section        0  usenofp.o(x$fpl$usenofp)
    uc_hextab                                0x0800d2f6   Data          20  _printf_hex_int.o(.constdata)
    lc_hextab                                0x0800d30a   Data          20  _printf_hex_int.o(.constdata)
    .constdata                               0x0800d31e   Section       17  __printf_flags_ss_wp.o(.constdata)
    maptable                                 0x0800d31e   Data          17  __printf_flags_ss_wp.o(.constdata)
    .constdata                               0x0800d330   Section      152  atan.o(.constdata)
    atanhi                                   0x0800d330   Data          32  atan.o(.constdata)
    atanlo                                   0x0800d350   Data          32  atan.o(.constdata)
    aTodd                                    0x0800d370   Data          40  atan.o(.constdata)
    aTeven                                   0x0800d398   Data          48  atan.o(.constdata)
    .constdata                               0x0800d3c8   Section        8  qnan.o(.constdata)
    .constdata                               0x0800d3d0   Section      148  bigflt0.o(.constdata)
    tenpwrs_x                                0x0800d3d0   Data          60  bigflt0.o(.constdata)
    tenpwrs_i                                0x0800d40c   Data          64  bigflt0.o(.constdata)
    .conststring                             0x0800d464   Section       40  usmart.o(.conststring)
    .conststring                             0x0800d48c   Section      768  usmart_config.o(.conststring)
    .conststring                             0x0800d78c   Section      101  testfun.o(.conststring)
    locale$$data                             0x0800d814   Section       28  lc_numeric_c.o(locale$$data)
    __lcnum_c_name                           0x0800d818   Data           2  lc_numeric_c.o(locale$$data)
    __lcnum_c_start                          0x0800d820   Data           0  lc_numeric_c.o(locale$$data)
    __lcnum_c_point                          0x0800d82c   Data           0  lc_numeric_c.o(locale$$data)
    __lcnum_c_thousands                      0x0800d82e   Data           0  lc_numeric_c.o(locale$$data)
    __lcnum_c_grouping                       0x0800d82f   Data           0  lc_numeric_c.o(locale$$data)
    __lcnum_c_end                            0x0800d830   Data           0  lc_numeric_c.o(locale$$data)
    .data                                    0x20000000   Section       20  system_stm32f10x.o(.data)
    .data                                    0x20000014   Section        4  delay.o(.data)
    fac_us                                   0x20000014   Data           1  delay.o(.data)
    fac_ms                                   0x20000016   Data           2  delay.o(.data)
    .data                                    0x20000018   Section       25  usart1.o(.data)
    DMA1_Stream4Flag                         0x2000002f   Data           1  usart1.o(.data)
    index                                    0x20000030   Data           1  usart1.o(.data)
    .data                                    0x20000031   Section        1  systemtime.o(.data)
    ucTickTime                               0x20000031   Data           1  systemtime.o(.data)
    .data                                    0x20000032   Section        8  exti.o(.data)
    .data                                    0x2000003a   Section        1  timer.o(.data)
    .data                                    0x2000003b   Section       15  usart.o(.data)
    DMA1_Stream7Flag                         0x20000049   Data           1  usart.o(.data)
    .data                                    0x2000004c   Section        4  timecapture.o(.data)
    .data                                    0x20000050   Section       30  behaviormanage.o(.data)
    sConstAngle                              0x20000054   Data           2  behaviormanage.o(.data)
    bSoonTurnL1_Or_R0                        0x20000056   Data           1  behaviormanage.o(.data)
    ucClashBothSide                          0x20000057   Data           1  behaviormanage.o(.data)
    ucHinderSource                           0x20000058   Data           1  behaviormanage.o(.data)
    AlongEdgeSte                             0x20000059   Data           1  behaviormanage.o(.data)
    IsFirstIn                                0x2000005a   Data           1  behaviormanage.o(.data)
    TargeAngle                               0x2000005c   Data           2  behaviormanage.o(.data)
    IsFirstIn                                0x2000005e   Data           1  behaviormanage.o(.data)
    TargeAngle                               0x20000060   Data           2  behaviormanage.o(.data)
    IsAlongEdgeIn                            0x20000062   Data           1  behaviormanage.o(.data)
    IsFirstIn                                0x20000063   Data           1  behaviormanage.o(.data)
    Count                                    0x20000064   Data           1  behaviormanage.o(.data)
    LeftWheelAd                              0x20000066   Data           2  behaviormanage.o(.data)
    RightWheelAd                             0x20000068   Data           2  behaviormanage.o(.data)
    SideBrushAd                              0x2000006a   Data           2  behaviormanage.o(.data)
    RollBrushAd                              0x2000006c   Data           2  behaviormanage.o(.data)
    .data                                    0x20000070   Section       47  applicationmotor.o(.data)
    loc_ucIsTurn                             0x2000009e   Data           1  applicationmotor.o(.data)
    .data                                    0x2000009f   Section        2  applicationkey.o(.data)
    Button_PC                                0x2000009f   Data           1  applicationkey.o(.data)
    Button_PC                                0x200000a0   Data           1  applicationkey.o(.data)
    .data                                    0x200000a1   Section        2  applicationled.o(.data)
    Bright                                   0x200000a1   Data           1  applicationled.o(.data)
    dir                                      0x200000a2   Data           1  applicationled.o(.data)
    .data                                    0x200000a4   Section       13  applicationadc.o(.data)
    ucAnalogPoint                            0x200000b0   Data           1  applicationadc.o(.data)
    .data                                    0x200000b2   Section       14  applicationdropcheck.o(.data)
    .data                                    0x200000c0   Section       20  bmi160.o(.data)
    cnt_N                                    0x200000c4   Data           2  bmi160.o(.data)
    cnt_G                                    0x200000c6   Data           2  bmi160.o(.data)
    OffsetTempZz                             0x200000c8   Data           4  bmi160.o(.data)
    cnt_tolerancefail                        0x200000cc   Data           1  bmi160.o(.data)
    cnt_o                                    0x200000cd   Data           1  bmi160.o(.data)
    flastdata                                0x200000d0   Data           4  bmi160.o(.data)
    .data                                    0x200000d4   Section        3  bmi160_data.o(.data)
    .data                                    0x200000d8   Section       12  application_ultrasonic.o(.data)
    xULTrasonicTime                          0x200000e0   Data           4  application_ultrasonic.o(.data)
    .data                                    0x200000e4   Section        3  applicationpowerchip.o(.data)
    .data                                    0x200000e7   Section        1  garbage_boxes_check.o(.data)
    bGarbageBoxState                         0x200000e7   Data           1  garbage_boxes_check.o(.data)
    .data                                    0x200000e8   Section       60  tasks.o(.data)
    pxDelayedTaskList                        0x200000ec   Data           4  tasks.o(.data)
    pxOverflowDelayedTaskList                0x200000f0   Data           4  tasks.o(.data)
    uxDeletedTasksWaitingCleanUp             0x200000f4   Data           4  tasks.o(.data)
    uxCurrentNumberOfTasks                   0x200000f8   Data           4  tasks.o(.data)
    xTickCount                               0x200000fc   Data           4  tasks.o(.data)
    uxTopReadyPriority                       0x20000100   Data           4  tasks.o(.data)
    xSchedulerRunning                        0x20000104   Data           4  tasks.o(.data)
    uxPendedTicks                            0x20000108   Data           4  tasks.o(.data)
    xYieldPending                            0x2000010c   Data           4  tasks.o(.data)
    xNumOfOverflows                          0x20000110   Data           4  tasks.o(.data)
    uxTaskNumber                             0x20000114   Data           4  tasks.o(.data)
    xNextTaskUnblockTime                     0x20000118   Data           4  tasks.o(.data)
    xIdleTaskHandle                          0x2000011c   Data           4  tasks.o(.data)
    uxSchedulerSuspended                     0x20000120   Data           4  tasks.o(.data)
    .data                                    0x20000124   Section       20  timers.o(.data)
    pxCurrentTimerList                       0x20000124   Data           4  timers.o(.data)
    pxOverflowTimerList                      0x20000128   Data           4  timers.o(.data)
    xTimerQueue                              0x2000012c   Data           4  timers.o(.data)
    xTimerTaskHandle                         0x20000130   Data           4  timers.o(.data)
    xLastTime                                0x20000134   Data           4  timers.o(.data)
    .data                                    0x20000138   Section       12  port.o(.data)
    uxCriticalNesting                        0x20000138   Data           4  port.o(.data)
    ucMaxSysCallPriority                     0x2000013c   Data           1  port.o(.data)
    ulMaxPRIGROUPValue                       0x20000140   Data           4  port.o(.data)
    .data                                    0x20000144   Section       24  heap_4.o(.data)
    xStart                                   0x20000144   Data           8  heap_4.o(.data)
    pxEnd                                    0x2000014c   Data           4  heap_4.o(.data)
    xFreeBytesRemaining                      0x20000150   Data           4  heap_4.o(.data)
    xMinimumEverFreeBytesRemaining           0x20000154   Data           4  heap_4.o(.data)
    xBlockAllocatedBit                       0x20000158   Data           4  heap_4.o(.data)
    .data                                    0x2000015c   Section       20  stm32f10x_rcc.o(.data)
    APBAHBPrescTable                         0x2000015c   Data          16  stm32f10x_rcc.o(.data)
    ADCPrescTable                            0x2000016c   Data           4  stm32f10x_rcc.o(.data)
    .data                                    0x20000170   Section       28  usmart.o(.data)
    .data                                    0x2000018c   Section      396  usmart_config.o(.data)
    .data                                    0x20000318   Section       44  testfun.o(.data)
    .bss                                     0x20000344   Section       14  main.o(.bss)
    .bss                                     0x20000352   Section      900  usart1.o(.bss)
    .bss                                     0x200006d8   Section       12  systemtime.o(.bss)
    .bss                                     0x200006e4   Section       78  adc.o(.bss)
    .bss                                     0x20000732   Section     3180  usart.o(.bss)
    .bss                                     0x200013a0   Section       56  timecapture.o(.bss)
    .bss                                     0x200013d8   Section       36  behaviormanage.o(.bss)
    MainTimAuto                              0x200013d8   Data          12  behaviormanage.o(.bss)
    MotorErrorCheckTime                      0x200013e4   Data          12  behaviormanage.o(.bss)
    UltraSonicHinderTim                      0x200013f0   Data          12  behaviormanage.o(.bss)
    .bss                                     0x200013fc   Section       24  applicationkey.o(.bss)
    KeyDownTime                              0x200013fc   Data          12  applicationkey.o(.bss)
    KeyDownTime                              0x20001408   Data          12  applicationkey.o(.bss)
    .bss                                     0x20001414   Section       12  applicationled.o(.bss)
    BrigTime                                 0x20001414   Data          12  applicationled.o(.bss)
    .bss                                     0x20001420   Section       26  applicationadc.o(.bss)
    .bss                                     0x2000143c   Section      112  bmi160.o(.bss)
    tempGyro                                 0x20001448   Data          12  bmi160.o(.bss)
    OffsetTemp                               0x20001454   Data          36  bmi160.o(.bss)
    OffsetTempZ                              0x20001478   Data          12  bmi160.o(.bss)
    Tempbuf                                  0x20001484   Data          40  bmi160.o(.bss)
    .bss                                     0x200014ac   Section       12  bmi160_data.o(.bss)
    .bss                                     0x200014b8   Section      740  tasks.o(.bss)
    pxReadyTasksLists                        0x200014b8   Data         640  tasks.o(.bss)
    xDelayedTaskList1                        0x20001738   Data          20  tasks.o(.bss)
    xDelayedTaskList2                        0x2000174c   Data          20  tasks.o(.bss)
    xPendingReadyList                        0x20001760   Data          20  tasks.o(.bss)
    xTasksWaitingTermination                 0x20001774   Data          20  tasks.o(.bss)
    xSuspendedTaskList                       0x20001788   Data          20  tasks.o(.bss)
    .bss                                     0x2000179c   Section       40  timers.o(.bss)
    xActiveTimerList1                        0x2000179c   Data          20  timers.o(.bss)
    xActiveTimerList2                        0x200017b0   Data          20  timers.o(.bss)
    .bss                                     0x200017c4   Section       64  queue.o(.bss)
    .bss                                     0x20001804   Section    20480  heap_4.o(.bss)
    ucHeap                                   0x20001804   Data       20480  heap_4.o(.bss)
    .bss                                     0x20006804   Section       42  datascope_dp.o(.bss)
    .bss                                     0x20006830   Section       96  libspace.o(.bss)
    HEAP                                     0x20006890   Section      512  startup_stm32f10x_hd.o(HEAP)
    Heap_Mem                                 0x20006890   Data         512  startup_stm32f10x_hd.o(HEAP)
    STACK                                    0x20006a90   Section     1024  startup_stm32f10x_hd.o(STACK)
    Stack_Mem                                0x20006a90   Data        1024  startup_stm32f10x_hd.o(STACK)
    __initial_sp                             0x20006e90   Data           0  startup_stm32f10x_hd.o(STACK)

    Global Symbols

    Symbol Name                              Value     Ov Type        Size  Object(Section)

    BuildAttributes$$THM_ISAv4$P$D$K$B$S$PE$A:L22UL41UL21$X:L11$S22US41US21$IEEE1$IW$USESV6$~STKCKD$USESV7$~SHL$OTIME$ROPI$IEEEX$EBA8$UX$STANDARDLIB$REQ8$PRES8$EABIv2 0x00000000   Number         0  anon$$obj.o ABSOLUTE
    __ARM_use_no_argv                        0x00000000   Number         0  main.o ABSOLUTE
    _printf_flags                            0x00000000   Number         0  printf_stubs.o ABSOLUTE
    _printf_return_value                     0x00000000   Number         0  printf_stubs.o ABSOLUTE
    _printf_sizespec                         0x00000000   Number         0  printf_stubs.o ABSOLUTE
    _printf_widthprec                        0x00000000   Number         0  printf_stubs.o ABSOLUTE
    __ARM_exceptions_init                     - Undefined Weak Reference
    __alloca_initialize                       - Undefined Weak Reference
    __arm_preinit_                            - Undefined Weak Reference
    __cpp_initialize__aeabi_                  - Undefined Weak Reference
    __cxa_finalize                            - Undefined Weak Reference
    __sigvec_lookup                           - Undefined Weak Reference
    _atexit_init                              - Undefined Weak Reference
    _call_atexit_fns                          - Undefined Weak Reference
    _clock_init                               - Undefined Weak Reference
    _fp_trap_init                             - Undefined Weak Reference
    _fp_trap_shutdown                         - Undefined Weak Reference
    _get_lc_collate                           - Undefined Weak Reference
    _get_lc_ctype                             - Undefined Weak Reference
    _get_lc_monetary                          - Undefined Weak Reference
    _get_lc_time                              - Undefined Weak Reference
    _getenv_init                              - Undefined Weak Reference
    _handle_redirection                       - Undefined Weak Reference
    _init_alloc                               - Undefined Weak Reference
    _init_user_alloc                          - Undefined Weak Reference
    _initio                                   - Undefined Weak Reference
    _mutex_acquire                            - Undefined Weak Reference
    _mutex_release                            - Undefined Weak Reference
    _printf_mbtowc                            - Undefined Weak Reference
    _printf_truncate_signed                   - Undefined Weak Reference
    _printf_truncate_unsigned                 - Undefined Weak Reference
    _rand_init                                - Undefined Weak Reference
    _signal_finish                            - Undefined Weak Reference
    _signal_init                              - Undefined Weak Reference
    _terminate_alloc                          - Undefined Weak Reference
    _terminate_user_alloc                     - Undefined Weak Reference
    _terminateio                              - Undefined Weak Reference
    __Vectors_Size                           0x00000130   Number         0  startup_stm32f10x_hd.o ABSOLUTE
    __Vectors                                0x08000000   Data           4  startup_stm32f10x_hd.o(RESET)
    __Vectors_End                            0x08000130   Data           0  startup_stm32f10x_hd.o(RESET)
    __main                                   0x08000131   Thumb Code     8  __main.o(!!!main)
    __scatterload                            0x08000139   Thumb Code     0  __scatter.o(!!!scatter)
    __scatterload_rt2                        0x08000139   Thumb Code    44  __scatter.o(!!!scatter)
    __scatterload_rt2_thumb_only             0x08000139   Thumb Code     0  __scatter.o(!!!scatter)
    __scatterload_null                       0x08000147   Thumb Code     0  __scatter.o(!!!scatter)
    __decompress                             0x0800016d   Thumb Code    90  __dczerorl2.o(!!dczerorl2)
    __decompress1                            0x0800016d   Thumb Code     0  __dczerorl2.o(!!dczerorl2)
    __scatterload_zeroinit                   0x080001c9   Thumb Code    28  __scatter_zi.o(!!handler_zi)
    _printf_f                                0x080001e5   Thumb Code     0  _printf_f.o(.ARM.Collect$$_printf_percent$$00000003)
    _printf_percent                          0x080001e5   Thumb Code     0  _printf_percent.o(.ARM.Collect$$_printf_percent$$00000000)
    _printf_d                                0x080001eb   Thumb Code     0  _printf_d.o(.ARM.Collect$$_printf_percent$$00000009)
    _printf_u                                0x080001f1   Thumb Code     0  _printf_u.o(.ARM.Collect$$_printf_percent$$0000000A)
    _printf_x                                0x080001f7   Thumb Code     0  _printf_x.o(.ARM.Collect$$_printf_percent$$0000000C)
    _printf_c                                0x080001fd   Thumb Code     0  _printf_c.o(.ARM.Collect$$_printf_percent$$00000013)
    _printf_s                                0x08000203   Thumb Code     0  _printf_s.o(.ARM.Collect$$_printf_percent$$00000014)
    _printf_percent_end                      0x08000209   Thumb Code     0  _printf_percent_end.o(.ARM.Collect$$_printf_percent$$00000017)
    __rt_lib_init                            0x0800020d   Thumb Code     0  libinit.o(.ARM.Collect$$libinit$$00000000)
    __rt_lib_init_fp_1                       0x0800020f   Thumb Code     0  libinit2.o(.ARM.Collect$$libinit$$00000002)
    __rt_lib_init_heap_1                     0x0800020f   Thumb Code     0  libinit2.o(.ARM.Collect$$libinit$$0000000A)
    __rt_lib_init_lc_common                  0x0800020f   Thumb Code     0  libinit2.o(.ARM.Collect$$libinit$$0000000F)
    __rt_lib_init_preinit_1                  0x0800020f   Thumb Code     0  libinit2.o(.ARM.Collect$$libinit$$00000004)
    __rt_lib_init_rand_1                     0x0800020f   Thumb Code     0  libinit2.o(.ARM.Collect$$libinit$$0000000E)
    __rt_lib_init_user_alloc_1               0x0800020f   Thumb Code     0  libinit2.o(.ARM.Collect$$libinit$$0000000C)
    __rt_lib_init_lc_collate_1               0x08000215   Thumb Code     0  libinit2.o(.ARM.Collect$$libinit$$00000011)
    __rt_lib_init_lc_ctype_1                 0x08000215   Thumb Code     0  libinit2.o(.ARM.Collect$$libinit$$00000013)
    __rt_lib_init_lc_monetary_1              0x08000215   Thumb Code     0  libinit2.o(.ARM.Collect$$libinit$$00000015)
    __rt_lib_init_lc_numeric_2               0x08000215   Thumb Code     0  libinit2.o(.ARM.Collect$$libinit$$00000016)
    __rt_lib_init_alloca_1                   0x0800021f   Thumb Code     0  libinit2.o(.ARM.Collect$$libinit$$0000002E)
    __rt_lib_init_argv_1                     0x0800021f   Thumb Code     0  libinit2.o(.ARM.Collect$$libinit$$0000002C)
    __rt_lib_init_atexit_1                   0x0800021f   Thumb Code     0  libinit2.o(.ARM.Collect$$libinit$$0000001B)
    __rt_lib_init_clock_1                    0x0800021f   Thumb Code     0  libinit2.o(.ARM.Collect$$libinit$$00000021)
    __rt_lib_init_cpp_1                      0x0800021f   Thumb Code     0  libinit2.o(.ARM.Collect$$libinit$$00000032)
    __rt_lib_init_exceptions_1               0x0800021f   Thumb Code     0  libinit2.o(.ARM.Collect$$libinit$$00000030)
    __rt_lib_init_fp_trap_1                  0x0800021f   Thumb Code     0  libinit2.o(.ARM.Collect$$libinit$$0000001F)
    __rt_lib_init_getenv_1                   0x0800021f   Thumb Code     0  libinit2.o(.ARM.Collect$$libinit$$00000023)
    __rt_lib_init_lc_numeric_1               0x0800021f   Thumb Code     0  libinit2.o(.ARM.Collect$$libinit$$00000017)
    __rt_lib_init_lc_time_1                  0x0800021f   Thumb Code     0  libinit2.o(.ARM.Collect$$libinit$$00000019)
    __rt_lib_init_return                     0x0800021f   Thumb Code     0  libinit2.o(.ARM.Collect$$libinit$$00000033)
    __rt_lib_init_signal_1                   0x0800021f   Thumb Code     0  libinit2.o(.ARM.Collect$$libinit$$0000001D)
    __rt_lib_init_stdio_1                    0x0800021f   Thumb Code     0  libinit2.o(.ARM.Collect$$libinit$$00000025)
    __rt_lib_shutdown                        0x08000221   Thumb Code     0  libshutdown.o(.ARM.Collect$$libshutdown$$00000000)
    __rt_lib_shutdown_cpp_1                  0x08000223   Thumb Code     0  libshutdown2.o(.ARM.Collect$$libshutdown$$00000002)
    __rt_lib_shutdown_fp_trap_1              0x08000223   Thumb Code     0  libshutdown2.o(.ARM.Collect$$libshutdown$$00000007)
    __rt_lib_shutdown_heap_1                 0x08000223   Thumb Code     0  libshutdown2.o(.ARM.Collect$$libshutdown$$0000000F)
    __rt_lib_shutdown_return                 0x08000223   Thumb Code     0  libshutdown2.o(.ARM.Collect$$libshutdown$$00000010)
    __rt_lib_shutdown_signal_1               0x08000223   Thumb Code     0  libshutdown2.o(.ARM.Collect$$libshutdown$$0000000A)
    __rt_lib_shutdown_stdio_1                0x08000223   Thumb Code     0  libshutdown2.o(.ARM.Collect$$libshutdown$$00000004)
    __rt_lib_shutdown_user_alloc_1           0x08000223   Thumb Code     0  libshutdown2.o(.ARM.Collect$$libshutdown$$0000000C)
    __rt_entry                               0x08000225   Thumb Code     0  __rtentry.o(.ARM.Collect$$rtentry$$00000000)
    __rt_entry_presh_1                       0x08000225   Thumb Code     0  __rtentry2.o(.ARM.Collect$$rtentry$$00000002)
    __rt_entry_sh                            0x08000225   Thumb Code     0  __rtentry4.o(.ARM.Collect$$rtentry$$00000004)
    __rt_entry_li                            0x0800022b   Thumb Code     0  __rtentry2.o(.ARM.Collect$$rtentry$$0000000A)
    __rt_entry_postsh_1                      0x0800022b   Thumb Code     0  __rtentry2.o(.ARM.Collect$$rtentry$$00000009)
    __rt_entry_main                          0x0800022f   Thumb Code     0  __rtentry2.o(.ARM.Collect$$rtentry$$0000000D)
    __rt_entry_postli_1                      0x0800022f   Thumb Code     0  __rtentry2.o(.ARM.Collect$$rtentry$$0000000C)
    __rt_exit                                0x08000237   Thumb Code     0  rtexit.o(.ARM.Collect$$rtexit$$00000000)
    __rt_exit_ls                             0x08000239   Thumb Code     0  rtexit2.o(.ARM.Collect$$rtexit$$00000003)
    __rt_exit_prels_1                        0x08000239   Thumb Code     0  rtexit2.o(.ARM.Collect$$rtexit$$00000002)
    __rt_exit_exit                           0x0800023d   Thumb Code     0  rtexit2.o(.ARM.Collect$$rtexit$$00000004)
    SVC_Handler                              0x08000245   Thumb Code    32  port.o(.emb_text)
    __asm___6_port_c_39a90d8d__prvStartFirstTask 0x08000269   Thumb Code    28  port.o(.emb_text)
    PendSV_Handler                           0x08000289   Thumb Code    72  port.o(.emb_text)
    vPortGetIPSR                             0x080002d5   Thumb Code     6  port.o(.emb_text)
    Reset_Handler                            0x080002dd   Thumb Code     8  startup_stm32f10x_hd.o(.text)
    ADC1_2_IRQHandler                        0x080002f7   Thumb Code     0  startup_stm32f10x_hd.o(.text)
    ADC3_IRQHandler                          0x080002f7   Thumb Code     0  startup_stm32f10x_hd.o(.text)
    CAN1_RX1_IRQHandler                      0x080002f7   Thumb Code     0  startup_stm32f10x_hd.o(.text)
    CAN1_SCE_IRQHandler                      0x080002f7   Thumb Code     0  startup_stm32f10x_hd.o(.text)
    DMA1_Channel2_IRQHandler                 0x080002f7   Thumb Code     0  startup_stm32f10x_hd.o(.text)
    DMA1_Channel3_IRQHandler                 0x080002f7   Thumb Code     0  startup_stm32f10x_hd.o(.text)
    DMA1_Channel4_IRQHandler                 0x080002f7   Thumb Code     0  startup_stm32f10x_hd.o(.text)
    DMA1_Channel5_IRQHandler                 0x080002f7   Thumb Code     0  startup_stm32f10x_hd.o(.text)
    DMA1_Channel6_IRQHandler                 0x080002f7   Thumb Code     0  startup_stm32f10x_hd.o(.text)
    DMA1_Channel7_IRQHandler                 0x080002f7   Thumb Code     0  startup_stm32f10x_hd.o(.text)
    DMA2_Channel1_IRQHandler                 0x080002f7   Thumb Code     0  startup_stm32f10x_hd.o(.text)
    DMA2_Channel2_IRQHandler                 0x080002f7   Thumb Code     0  startup_stm32f10x_hd.o(.text)
    DMA2_Channel3_IRQHandler                 0x080002f7   Thumb Code     0  startup_stm32f10x_hd.o(.text)
    DMA2_Channel4_5_IRQHandler               0x080002f7   Thumb Code     0  startup_stm32f10x_hd.o(.text)
    EXTI0_IRQHandler                         0x080002f7   Thumb Code     0  startup_stm32f10x_hd.o(.text)
    EXTI4_IRQHandler                         0x080002f7   Thumb Code     0  startup_stm32f10x_hd.o(.text)
    FLASH_IRQHandler                         0x080002f7   Thumb Code     0  startup_stm32f10x_hd.o(.text)
    FSMC_IRQHandler                          0x080002f7   Thumb Code     0  startup_stm32f10x_hd.o(.text)
    I2C1_ER_IRQHandler                       0x080002f7   Thumb Code     0  startup_stm32f10x_hd.o(.text)
    I2C1_EV_IRQHandler                       0x080002f7   Thumb Code     0  startup_stm32f10x_hd.o(.text)
    I2C2_ER_IRQHandler                       0x080002f7   Thumb Code     0  startup_stm32f10x_hd.o(.text)
    I2C2_EV_IRQHandler                       0x080002f7   Thumb Code     0  startup_stm32f10x_hd.o(.text)
    PVD_IRQHandler                           0x080002f7   Thumb Code     0  startup_stm32f10x_hd.o(.text)
    RCC_IRQHandler                           0x080002f7   Thumb Code     0  startup_stm32f10x_hd.o(.text)
    RTCAlarm_IRQHandler                      0x080002f7   Thumb Code     0  startup_stm32f10x_hd.o(.text)
    RTC_IRQHandler                           0x080002f7   Thumb Code     0  startup_stm32f10x_hd.o(.text)
    SDIO_IRQHandler                          0x080002f7   Thumb Code     0  startup_stm32f10x_hd.o(.text)
    SPI1_IRQHandler                          0x080002f7   Thumb Code     0  startup_stm32f10x_hd.o(.text)
    SPI2_IRQHandler                          0x080002f7   Thumb Code     0  startup_stm32f10x_hd.o(.text)
    SPI3_IRQHandler                          0x080002f7   Thumb Code     0  startup_stm32f10x_hd.o(.text)
    TAMPER_IRQHandler                        0x080002f7   Thumb Code     0  startup_stm32f10x_hd.o(.text)
    TIM1_BRK_IRQHandler                      0x080002f7   Thumb Code     0  startup_stm32f10x_hd.o(.text)
    TIM1_TRG_COM_IRQHandler                  0x080002f7   Thumb Code     0  startup_stm32f10x_hd.o(.text)
    TIM1_UP_IRQHandler                       0x080002f7   Thumb Code     0  startup_stm32f10x_hd.o(.text)
    TIM2_IRQHandler                          0x080002f7   Thumb Code     0  startup_stm32f10x_hd.o(.text)
    TIM3_IRQHandler                          0x080002f7   Thumb Code     0  startup_stm32f10x_hd.o(.text)
    TIM4_IRQHandler                          0x080002f7   Thumb Code     0  startup_stm32f10x_hd.o(.text)
    TIM5_IRQHandler                          0x080002f7   Thumb Code     0  startup_stm32f10x_hd.o(.text)
    TIM7_IRQHandler                          0x080002f7   Thumb Code     0  startup_stm32f10x_hd.o(.text)
    TIM8_BRK_IRQHandler                      0x080002f7   Thumb Code     0  startup_stm32f10x_hd.o(.text)
    TIM8_TRG_COM_IRQHandler                  0x080002f7   Thumb Code     0  startup_stm32f10x_hd.o(.text)
    TIM8_UP_IRQHandler                       0x080002f7   Thumb Code     0  startup_stm32f10x_hd.o(.text)
    UART4_IRQHandler                         0x080002f7   Thumb Code     0  startup_stm32f10x_hd.o(.text)
    UART5_IRQHandler                         0x080002f7   Thumb Code     0  startup_stm32f10x_hd.o(.text)
    USART2_IRQHandler                        0x080002f7   Thumb Code     0  startup_stm32f10x_hd.o(.text)
    USART3_IRQHandler                        0x080002f7   Thumb Code     0  startup_stm32f10x_hd.o(.text)
    USBWakeUp_IRQHandler                     0x080002f7   Thumb Code     0  startup_stm32f10x_hd.o(.text)
    USB_HP_CAN1_TX_IRQHandler                0x080002f7   Thumb Code     0  startup_stm32f10x_hd.o(.text)
    USB_LP_CAN1_RX0_IRQHandler               0x080002f7   Thumb Code     0  startup_stm32f10x_hd.o(.text)
    WWDG_IRQHandler                          0x080002f7   Thumb Code     0  startup_stm32f10x_hd.o(.text)
    __user_initial_stackheap                 0x080002f9   Thumb Code     0  startup_stm32f10x_hd.o(.text)
    __use_no_semihosting                     0x0800031d   Thumb Code     2  use_no_semi_2.o(.text)
    __2printf                                0x08000321   Thumb Code    20  noretval__2printf.o(.text)
    _printf_pre_padding                      0x08000339   Thumb Code    44  _printf_pad.o(.text)
    _printf_post_padding                     0x08000365   Thumb Code    34  _printf_pad.o(.text)
    _printf_str                              0x08000387   Thumb Code    82  _printf_str.o(.text)
    _printf_int_dec                          0x080003d9   Thumb Code   104  _printf_dec.o(.text)
    _printf_int_hex                          0x08000451   Thumb Code    84  _printf_hex_int.o(.text)
    _printf_longlong_hex                     0x08000451   Thumb Code     0  _printf_hex_int.o(.text)
    __printf                                 0x080004a9   Thumb Code   388  __printf_flags_ss_wp.o(.text)
    __aeabi_memcpy                           0x08000631   Thumb Code     0  rt_memcpy_v6.o(.text)
    __rt_memcpy                              0x08000631   Thumb Code   138  rt_memcpy_v6.o(.text)
    _memcpy_lastbytes                        0x08000697   Thumb Code     0  rt_memcpy_v6.o(.text)
    __aeabi_memset                           0x080006bb   Thumb Code    16  aeabi_memset.o(.text)
    __aeabi_memclr4                          0x080006cb   Thumb Code     0  rt_memclr_w.o(.text)
    __aeabi_memclr8                          0x080006cb   Thumb Code     0  rt_memclr_w.o(.text)
    __rt_memclr_w                            0x080006cb   Thumb Code    78  rt_memclr_w.o(.text)
    _memset_w                                0x080006cf   Thumb Code     0  rt_memclr_w.o(.text)
    __use_two_region_memory                  0x08000719   Thumb Code     2  heapauxi.o(.text)
    __rt_heap_escrow$2region                 0x0800071b   Thumb Code     2  heapauxi.o(.text)
    __rt_heap_expand$2region                 0x0800071d   Thumb Code     2  heapauxi.o(.text)
    __I$use$semihosting                      0x0800071f   Thumb Code     0  use_no_semi.o(.text)
    __use_no_semihosting_swi                 0x0800071f   Thumb Code     2  use_no_semi.o(.text)
    _printf_int_common                       0x08000721   Thumb Code   178  _printf_intcommon.o(.text)
    __lib_sel_fp_printf                      0x080007d3   Thumb Code     2  _printf_fp_dec.o(.text)
    _printf_fp_dec_real                      0x08000985   Thumb Code   620  _printf_fp_dec.o(.text)
    _printf_char_common                      0x08000bfb   Thumb Code    32  _printf_char_common.o(.text)
    _printf_cs_common                        0x08000c21   Thumb Code    20  _printf_char.o(.text)
    _printf_char                             0x08000c35   Thumb Code    16  _printf_char.o(.text)
    _printf_string                           0x08000c45   Thumb Code     8  _printf_char.o(.text)
    _printf_char_file                        0x08000c4d   Thumb Code    32  _printf_char_file.o(.text)
    __aeabi_memcpy4                          0x08000c71   Thumb Code     0  rt_memcpy_w.o(.text)
    __aeabi_memcpy8                          0x08000c71   Thumb Code     0  rt_memcpy_w.o(.text)
    __rt_memcpy_w                            0x08000c71   Thumb Code   100  rt_memcpy_w.o(.text)
    _memcpy_lastbytes_aligned                0x08000cb9   Thumb Code     0  rt_memcpy_w.o(.text)
    __aeabi_memclr                           0x08000cd5   Thumb Code     0  rt_memclr.o(.text)
    __rt_memclr                              0x08000cd5   Thumb Code    68  rt_memclr.o(.text)
    _memset                                  0x08000cd9   Thumb Code     0  rt_memclr.o(.text)
    __rt_locale                              0x08000d19   Thumb Code     8  rt_locale_intlibspace.o(.text)
    _ll_udiv10                               0x08000d21   Thumb Code   138  lludiv10.o(.text)
    _printf_fp_infnan                        0x08000dad   Thumb Code   112  _printf_fp_infnan.o(.text)
    _btod_etento                             0x08000e2d   Thumb Code   224  bigflt0.o(.text)
    ferror                                   0x08000f11   Thumb Code     8  ferror.o(.text)
    __user_libspace                          0x08000f19   Thumb Code     8  libspace.o(.text)
    __user_perproc_libspace                  0x08000f19   Thumb Code     0  libspace.o(.text)
    __user_perthread_libspace                0x08000f19   Thumb Code     0  libspace.o(.text)
    __user_setup_stackheap                   0x08000f21   Thumb Code    74  sys_stackheap_outer.o(.text)
    exit                                     0x08000f6b   Thumb Code    18  exit.o(.text)
    strcmp                                   0x08000f7d   Thumb Code   128  strcmpv7m.o(.text)
    _btod_d2e                                0x08000ffd   Thumb Code    62  btod.o(CL$$btod_d2e)
    _d2e_denorm_low                          0x0800103b   Thumb Code    70  btod.o(CL$$btod_d2e_denorm_low)
    _d2e_norm_op1                            0x08001081   Thumb Code    96  btod.o(CL$$btod_d2e_norm_op1)
    __btod_div_common                        0x080010e1   Thumb Code   696  btod.o(CL$$btod_div_common)
    _e2e                                     0x08001419   Thumb Code   220  btod.o(CL$$btod_e2e)
    _btod_ediv                               0x080014f5   Thumb Code    42  btod.o(CL$$btod_ediv)
    _btod_emul                               0x0800151f   Thumb Code    42  btod.o(CL$$btod_emul)
    __btod_mult_common                       0x08001549   Thumb Code   580  btod.o(CL$$btod_mult_common)
    ADC_Cmd                                  0x0800178d   Thumb Code    22  stm32f10x_adc.o(i.ADC_Cmd)
    ADC_DMACmd                               0x080017a3   Thumb Code    22  stm32f10x_adc.o(i.ADC_DMACmd)
    ADC_DeInit                               0x080017b9   Thumb Code    78  stm32f10x_adc.o(i.ADC_DeInit)
    ADC_GetCalibrationStatus                 0x08001815   Thumb Code    20  stm32f10x_adc.o(i.ADC_GetCalibrationStatus)
    ADC_GetResetCalibrationStatus            0x08001829   Thumb Code    20  stm32f10x_adc.o(i.ADC_GetResetCalibrationStatus)
    ADC_Init                                 0x0800183d   Thumb Code    70  stm32f10x_adc.o(i.ADC_Init)
    ADC_RegularChannelConfig                 0x0800188d   Thumb Code   184  stm32f10x_adc.o(i.ADC_RegularChannelConfig)
    ADC_ResetCalibration                     0x08001945   Thumb Code    10  stm32f10x_adc.o(i.ADC_ResetCalibration)
    ADC_SoftwareStartConvCmd                 0x0800194f   Thumb Code    22  stm32f10x_adc.o(i.ADC_SoftwareStartConvCmd)
    ADC_StartCalibration                     0x08001965   Thumb Code    10  stm32f10x_adc.o(i.ADC_StartCalibration)
    AllMotorErrorCheck                       0x08001971   Thumb Code   224  behaviormanage.o(i.AllMotorErrorCheck)
    BMI160_Init                              0x08001a81   Thumb Code    98  bmi160.o(i.BMI160_Init)
    BMI160_ReadOneByteFromSlave              0x08001b1d   Thumb Code    44  spi.o(i.BMI160_ReadOneByteFromSlave)
    BMI160_SPI_GetACC                        0x08001b4d   Thumb Code   248  bmi160.o(i.BMI160_SPI_GetACC)
    BMI160_SPI_GetGyro                       0x08001c51   Thumb Code   308  bmi160.o(i.BMI160_SPI_GetGyro)
    BMI160_SPI_GetID                         0x08001da9   Thumb Code    16  bmi160.o(i.BMI160_SPI_GetID)
    BMI160_SPI_GetOffset                     0x08001db9   Thumb Code   118  bmi160.o(i.BMI160_SPI_GetOffset)
    BMI160_WriteOneByteToSlave               0x08001e31   Thumb Code    42  spi.o(i.BMI160_WriteOneByteToSlave)
    BusFault_Handler                         0x08001e61   Thumb Code     4  stm32f10x_it.o(i.BusFault_Handler)
    DMA1_Channel1_IRQHandler                 0x08001e65   Thumb Code    50  adc.o(i.DMA1_Channel1_IRQHandler)
    DMA_ClearFlag                            0x08001ea1   Thumb Code    18  stm32f10x_dma.o(i.DMA_ClearFlag)
    DMA_ClearITPendingBit                    0x08001ebd   Thumb Code    18  stm32f10x_dma.o(i.DMA_ClearITPendingBit)
    DMA_Cmd                                  0x08001ed9   Thumb Code    24  stm32f10x_dma.o(i.DMA_Cmd)
    DMA_DeInit                               0x08001ef1   Thumb Code   324  stm32f10x_dma.o(i.DMA_DeInit)
    DMA_GetCurrDataCounter                   0x0800203d   Thumb Code     8  stm32f10x_dma.o(i.DMA_GetCurrDataCounter)
    DMA_GetFlagStatus                        0x08002045   Thumb Code    36  stm32f10x_dma.o(i.DMA_GetFlagStatus)
    DMA_GetITStatus                          0x08002071   Thumb Code    36  stm32f10x_dma.o(i.DMA_GetITStatus)
    DMA_ITConfig                             0x0800209d   Thumb Code    18  stm32f10x_dma.o(i.DMA_ITConfig)
    DMA_Init                                 0x080020af   Thumb Code    60  stm32f10x_dma.o(i.DMA_Init)
    DROP_AD_Printf                           0x080020ed   Thumb Code   216  testfun.o(i.DROP_AD_Printf)
    DataScope_Data_Generate                  0x080022f5   Thumb Code   148  datascope_dp.o(i.DataScope_Data_Generate)
    DataScope_Get_Channel_Data               0x0800238d   Thumb Code   158  datascope_dp.o(i.DataScope_Get_Channel_Data)
    DebugMon_Handler                         0x08002431   Thumb Code     2  stm32f10x_it.o(i.DebugMon_Handler)
    DropCheckUpdate                          0x08002435   Thumb Code   116  behaviormanage.o(i.DropCheckUpdate)
    EXTI15_10_IRQHandler                     0x080024b1   Thumb Code    72  exti.o(i.EXTI15_10_IRQHandler)
    EXTI1_IRQHandler                         0x08002535   Thumb Code    48  exti.o(i.EXTI1_IRQHandler)
    EXTI2_IRQHandler                         0x08002589   Thumb Code    48  exti.o(i.EXTI2_IRQHandler)
    EXTI3_IRQHandler                         0x080025dd   Thumb Code    26  exti.o(i.EXTI3_IRQHandler)
    EXTI9_5_IRQHandler                       0x08002611   Thumb Code   132  exti.o(i.EXTI9_5_IRQHandler)
    EXTI_ClearITPendingBit                   0x080026c1   Thumb Code     6  stm32f10x_exti.o(i.EXTI_ClearITPendingBit)
    EXTI_GetITStatus                         0x080026cd   Thumb Code    34  stm32f10x_exti.o(i.EXTI_GetITStatus)
    EXTI_Init                                0x080026f5   Thumb Code   142  stm32f10x_exti.o(i.EXTI_Init)
    Float2Byte                               0x08002789   Thumb Code    28  datascope_dp.o(i.Float2Byte)
    GPIO_EXTILineConfig                      0x080027a5   Thumb Code    60  stm32f10x_gpio.o(i.GPIO_EXTILineConfig)
    GPIO_Init                                0x080027e5   Thumb Code   278  stm32f10x_gpio.o(i.GPIO_Init)
    GPIO_PinRemapConfig                      0x080028fd   Thumb Code   138  stm32f10x_gpio.o(i.GPIO_PinRemapConfig)
    GPIO_ReadInputDataBit                    0x0800298d   Thumb Code    18  stm32f10x_gpio.o(i.GPIO_ReadInputDataBit)
    GPIO_ResetBits                           0x0800299f   Thumb Code     4  stm32f10x_gpio.o(i.GPIO_ResetBits)
    GPIO_SetBits                             0x080029a3   Thumb Code     4  stm32f10x_gpio.o(i.GPIO_SetBits)
    GetDropAdValue                           0x080029a9   Thumb Code   276  applicationdropcheck.o(i.GetDropAdValue)
    GetGyroValue_Z                           0x08002ac9   Thumb Code     6  bmi160_data.o(i.GetGyroValue_Z)
    GetOSRunTimeNow                          0x08002ad5   Thumb Code    10  systemtime.o(i.GetOSRunTimeNow)
    HardFault_Handler                        0x08002ae5   Thumb Code     4  stm32f10x_it.o(i.HardFault_Handler)
    IIC_Ack                                  0x08002ae9   Thumb Code    66  myiic.o(i.IIC_Ack)
    IIC_NAck                                 0x08002b39   Thumb Code    66  myiic.o(i.IIC_NAck)
    IIC_Start                                0x08002b89   Thumb Code    64  myiic.o(i.IIC_Start)
    IIC_Stop                                 0x08002bd5   Thumb Code    62  myiic.o(i.IIC_Stop)
    MemManage_Handler                        0x08002c21   Thumb Code     4  stm32f10x_it.o(i.MemManage_Handler)
    MultipleTimeoutCheck                     0x08002c25   Thumb Code   196  systemtime.o(i.MultipleTimeoutCheck)
    NMI_Handler                              0x08002ce9   Thumb Code     2  stm32f10x_it.o(i.NMI_Handler)
    NVIC_Init                                0x08002ced   Thumb Code   100  misc.o(i.NVIC_Init)
    NVIC_PriorityGroupConfig                 0x08002d5d   Thumb Code    10  misc.o(i.NVIC_PriorityGroupConfig)
    RCC_ADCCLKConfig                         0x08002d71   Thumb Code    18  stm32f10x_rcc.o(i.RCC_ADCCLKConfig)
    RCC_AHBPeriphClockCmd                    0x08002d89   Thumb Code    26  stm32f10x_rcc.o(i.RCC_AHBPeriphClockCmd)
    RCC_APB1PeriphClockCmd                   0x08002da9   Thumb Code    26  stm32f10x_rcc.o(i.RCC_APB1PeriphClockCmd)
    RCC_APB1PeriphResetCmd                   0x08002dc9   Thumb Code    26  stm32f10x_rcc.o(i.RCC_APB1PeriphResetCmd)
    RCC_APB2PeriphClockCmd                   0x08002de9   Thumb Code    26  stm32f10x_rcc.o(i.RCC_APB2PeriphClockCmd)
    RCC_APB2PeriphResetCmd                   0x08002e09   Thumb Code    26  stm32f10x_rcc.o(i.RCC_APB2PeriphResetCmd)
    RCC_GetClocksFreq                        0x08002e29   Thumb Code   192  stm32f10x_rcc.o(i.RCC_GetClocksFreq)
    SPI2_SendByte                            0x08002efd   Thumb Code    78  spi.o(i.SPI2_SendByte)
    SPI_Cmd                                  0x08002f51   Thumb Code    24  stm32f10x_spi.o(i.SPI_Cmd)
    SPI_I2S_GetFlagStatus                    0x08002f69   Thumb Code    18  stm32f10x_spi.o(i.SPI_I2S_GetFlagStatus)
    SPI_I2S_ReceiveData                      0x08002f7b   Thumb Code     6  stm32f10x_spi.o(i.SPI_I2S_ReceiveData)
    SPI_I2S_SendData                         0x08002f81   Thumb Code     4  stm32f10x_spi.o(i.SPI_I2S_SendData)
    SPI_Init                                 0x08002f85   Thumb Code    60  stm32f10x_spi.o(i.SPI_Init)
    SetAccValue_X                            0x08002fc1   Thumb Code    18  bmi160_data.o(i.SetAccValue_X)
    SetAccValue_Y                            0x08002fd9   Thumb Code    18  bmi160_data.o(i.SetAccValue_Y)
    SetAccValue_Z                            0x08002ff1   Thumb Code    18  bmi160_data.o(i.SetAccValue_Z)
    SetGyroValue_X                           0x08003009   Thumb Code     6  bmi160_data.o(i.SetGyroValue_X)
    SetGyroValue_Y                           0x08003015   Thumb Code     6  bmi160_data.o(i.SetGyroValue_Y)
    SetGyroValue_Z                           0x08003021   Thumb Code     6  bmi160_data.o(i.SetGyroValue_Z)
    SetNeedCharge                            0x0800302d   Thumb Code     6  applicationpowerchip.o(i.SetNeedCharge)
    SingleTimeoutCheck                       0x08003121   Thumb Code   178  systemtime.o(i.SingleTimeoutCheck)
    SysTick_CLKSourceConfig                  0x080031d3   Thumb Code    40  misc.o(i.SysTick_CLKSourceConfig)
    SysTick_Handler                          0x080031fb   Thumb Code    16  delay.o(i.SysTick_Handler)
    SystemInit                               0x0800320d   Thumb Code    78  system_stm32f10x.o(i.SystemInit)
    TIM1_CC_IRQHandler                       0x080034ad   Thumb Code   256  timecapture.o(i.TIM1_CC_IRQHandler)
    TIM1_CH12WheelCaptureInit                0x080035b9   Thumb Code   216  timecapture.o(i.TIM1_CH12WheelCaptureInit)
    TIM1_Capture_Init                        0x0800369d   Thumb Code    16  timecapture.o(i.TIM1_Capture_Init)
    TIM3_CH34_Init                           0x080036ad   Thumb Code   150  timepwm.o(i.TIM3_CH34_Init)
    TIM3_PWM_Init                            0x0800374d   Thumb Code    14  timepwm.o(i.TIM3_PWM_Init)
    TIM4_CH234_Init                          0x0800375d   Thumb Code   184  timepwm.o(i.TIM4_CH234_Init)
    TIM4_PWM_Init                            0x0800381d   Thumb Code    24  timepwm.o(i.TIM4_PWM_Init)
    TIM5_CH2_FanInit                         0x08003839   Thumb Code   134  timepwm.o(i.TIM5_CH2_FanInit)
    TIM5_PWM_Init                            0x080038c9   Thumb Code    14  timepwm.o(i.TIM5_PWM_Init)
    TIM6_IRQHandler                          0x080038d9   Thumb Code    34  timer.o(i.TIM6_IRQHandler)
    TIM8_CC_IRQHandler                       0x08003905   Thumb Code    34  timecapture.o(i.TIM8_CC_IRQHandler)
    TIM8_CH4_FanCaptureInit                  0x08003931   Thumb Code   184  timecapture.o(i.TIM8_CH4_FanCaptureInit)
    TIM8_Capture_Init                        0x080039f1   Thumb Code    14  timecapture.o(i.TIM8_Capture_Init)
    TIM_ClearFlag                            0x080039ff   Thumb Code     6  stm32f10x_tim.o(i.TIM_ClearFlag)
    TIM_ClearITPendingBit                    0x08003a05   Thumb Code     6  stm32f10x_tim.o(i.TIM_ClearITPendingBit)
    TIM_Cmd                                  0x08003a0b   Thumb Code    24  stm32f10x_tim.o(i.TIM_Cmd)
    TIM_DeInit                               0x08003a25   Thumb Code   424  stm32f10x_tim.o(i.TIM_DeInit)
    TIM_GetCapture1                          0x08003c0d   Thumb Code     6  stm32f10x_tim.o(i.TIM_GetCapture1)
    TIM_GetCapture2                          0x08003c13   Thumb Code     6  stm32f10x_tim.o(i.TIM_GetCapture2)
    TIM_GetCapture4                          0x08003c19   Thumb Code     8  stm32f10x_tim.o(i.TIM_GetCapture4)
    TIM_GetITStatus                          0x08003c21   Thumb Code    34  stm32f10x_tim.o(i.TIM_GetITStatus)
    TIM_ICInit                               0x08003c45   Thumb Code   150  stm32f10x_tim.o(i.TIM_ICInit)
    TIM_ITConfig                             0x08003cf1   Thumb Code    18  stm32f10x_tim.o(i.TIM_ITConfig)
    TIM_OC2Init                              0x08003d05   Thumb Code   154  stm32f10x_tim.o(i.TIM_OC2Init)
    TIM_OC2PreloadConfig                     0x08003da9   Thumb Code    26  stm32f10x_tim.o(i.TIM_OC2PreloadConfig)
    TIM_OC3Init                              0x08003dc5   Thumb Code   150  stm32f10x_tim.o(i.TIM_OC3Init)
    TIM_OC3PreloadConfig                     0x08003e65   Thumb Code    18  stm32f10x_tim.o(i.TIM_OC3PreloadConfig)
    TIM_OC4Init                              0x08003e79   Thumb Code   114  stm32f10x_tim.o(i.TIM_OC4Init)
    TIM_OC4PreloadConfig                     0x08003ef5   Thumb Code    26  stm32f10x_tim.o(i.TIM_OC4PreloadConfig)
    TIM_PrescalerConfig                      0x08003f0f   Thumb Code     6  stm32f10x_tim.o(i.TIM_PrescalerConfig)
    TIM_SetCompare2                          0x08003f15   Thumb Code     4  stm32f10x_tim.o(i.TIM_SetCompare2)
    TIM_SetCompare3                          0x08003f19   Thumb Code     4  stm32f10x_tim.o(i.TIM_SetCompare3)
    TIM_SetCompare4                          0x08003f1d   Thumb Code     6  stm32f10x_tim.o(i.TIM_SetCompare4)
    TIM_SetCounter                           0x08003f23   Thumb Code     4  stm32f10x_tim.o(i.TIM_SetCounter)
    TIM_SetIC1Prescaler                      0x08003f27   Thumb Code    18  stm32f10x_tim.o(i.TIM_SetIC1Prescaler)
    TIM_SetIC2Prescaler                      0x08003f39   Thumb Code    26  stm32f10x_tim.o(i.TIM_SetIC2Prescaler)
    TIM_SetIC3Prescaler                      0x08003f53   Thumb Code    18  stm32f10x_tim.o(i.TIM_SetIC3Prescaler)
    TIM_SetIC4Prescaler                      0x08003f65   Thumb Code    26  stm32f10x_tim.o(i.TIM_SetIC4Prescaler)
    TIM_TimeBaseInit                         0x08003f81   Thumb Code   122  stm32f10x_tim.o(i.TIM_TimeBaseInit)
    USART1_IRQHandler                        0x08004025   Thumb Code   140  usart1.o(i.USART1_IRQHandler)
    USART_Cmd                                0x080040c9   Thumb Code    24  stm32f10x_usart.o(i.USART_Cmd)
    USART_DMACmd                             0x080040e1   Thumb Code    18  stm32f10x_usart.o(i.USART_DMACmd)
    USART_GetFlagStatus                      0x080040f3   Thumb Code    26  stm32f10x_usart.o(i.USART_GetFlagStatus)
    USART_GetITStatus                        0x0800410d   Thumb Code    84  stm32f10x_usart.o(i.USART_GetITStatus)
    USART_ITConfig                           0x08004161   Thumb Code    74  stm32f10x_usart.o(i.USART_ITConfig)
    USART_Init                               0x080041ad   Thumb Code   210  stm32f10x_usart.o(i.USART_Init)
    USART_ReceiveData                        0x08004285   Thumb Code    10  stm32f10x_usart.o(i.USART_ReceiveData)
    UltraSonicCheckUpdate                    0x08004291   Thumb Code    88  behaviormanage.o(i.UltraSonicCheckUpdate)
    UsageFault_Handler                       0x080042f9   Thumb Code     4  stm32f10x_it.o(i.UsageFault_Handler)
    __ARM_fpclassify                         0x080042fd   Thumb Code    40  fpclassify.o(i.__ARM_fpclassify)
    __kernel_poly                            0x08004325   Thumb Code   170  poly.o(i.__kernel_poly)
    __mathlib_dbl_infnan                     0x080043cf   Thumb Code     6  dunder.o(i.__mathlib_dbl_infnan)
    __mathlib_dbl_infnan2                    0x080043d5   Thumb Code     4  dunder.o(i.__mathlib_dbl_infnan2)
    __mathlib_dbl_underflow                  0x080043d9   Thumb Code    10  dunder.o(i.__mathlib_dbl_underflow)
    _is_digit                                0x080043e9   Thumb Code    14  __printf_wp.o(i._is_digit)
    _sys_exit                                0x080043f7   Thumb Code     4  usart1.o(i._sys_exit)
    atan                                     0x080043fd   Thumb Code   474  atan.o(i.atan)
    atan2                                    0x0800461d   Thumb Code   346  atan2.o(i.atan2)
    bGetClashFlag                            0x0800479d   Thumb Code     6  application_ultrasonic.o(i.bGetClashFlag)
    delay_init                               0x080047a9   Thumb Code    74  delay.o(i.delay_init)
    delay_ms                                 0x08004805   Thumb Code    60  delay.o(i.delay_ms)
    delay_us                                 0x08004845   Thumb Code    68  delay.o(i.delay_us)
    eKey1State                               0x0800488d   Thumb Code   442  applicationkey.o(i.eKey1State)
    eKey2State                               0x08004a55   Thumb Code   442  applicationkey.o(i.eKey2State)
    fMath_FindMaxDiff                        0x08004c1d   Thumb Code    86  mymath.o(i.fMath_FindMaxDiff)
    fUltrasonic_Distance_Caculate            0x08004c79   Thumb Code    96  application_ultrasonic.o(i.fUltrasonic_Distance_Caculate)
    fputc                                    0x08004ce5   Thumb Code    24  usart1.o(i.fputc)
    iIncPIDCalc                              0x08004d01   Thumb Code   122  applicationmotor.o(i.iIncPIDCalc)
    isGarbageBoxClose                        0x08004d8d   Thumb Code     6  garbage_boxes_check.o(i.isGarbageBoxClose)
    isInRechargeStand                        0x08004d99   Thumb Code     6  applicationpowerchip.o(i.isInRechargeStand)
    isNeedCharge                             0x08004da5   Thumb Code     6  applicationpowerchip.o(i.isNeedCharge)
    main                                     0x08004db1   Thumb Code    34  main.o(i.main)
    pvPortMalloc                             0x080058cd   Thumb Code   262  heap_4.o(i.pvPortMalloc)
    pvTaskIncrementMutexHeldCount            0x08005a21   Thumb Code    26  tasks.o(i.pvTaskIncrementMutexHeldCount)
    pxPortInitialiseStack                    0x08005a41   Thumb Code    30  port.o(i.pxPortInitialiseStack)
    read_addr                                0x08005a65   Thumb Code     6  usmart.o(i.read_addr)
    sSpeed_L_PID                             0x08005a6d   Thumb Code   184  applicationmotor.o(i.sSpeed_L_PID)
    sSpeed_R_PID                             0x08005b3d   Thumb Code   184  applicationmotor.o(i.sSpeed_R_PID)
    ucBMI160deal_Shake_Reset                 0x08005c0d   Thumb Code    14  bmi160.o(i.ucBMI160deal_Shake_Reset)
    ucBmi160_Shake_Reset                     0x08005c1d   Thumb Code    76  bmi160.o(i.ucBmi160_Shake_Reset)
    ucBp24773_ReadOneByte                    0x08005c71   Thumb Code    60  applicationpowerchip.o(i.ucBp24773_ReadOneByte)
    ucGetBatteryLevel                        0x08005cad   Thumb Code     6  applicationpowerchip.o(i.ucGetBatteryLevel)
    ucIIC_Read_Byte                          0x08005cb9   Thumb Code    98  myiic.o(i.ucIIC_Read_Byte)
    ucIIC_Wait_Ack                           0x08005d29   Thumb Code    86  myiic.o(i.ucIIC_Wait_Ack)
    ucMath_Tolerance                         0x08005d8d   Thumb Code   138  mymath.o(i.ucMath_Tolerance)
    ucRotateAroundAxle                       0x08005e35   Thumb Code   224  applicationmotor.o(i.ucRotateAroundAxle)
    ucRouteAdjustByAlongEdgeDistance         0x08005f59   Thumb Code    72  applicationmotor.o(i.ucRouteAdjustByAlongEdgeDistance)
    ucRoute_Adjust                           0x08005fa9   Thumb Code   262  applicationmotor.o(i.ucRoute_Adjust)
    ucTurn_Angle_Round                       0x080060fd   Thumb Code   194  applicationmotor.o(i.ucTurn_Angle_Round)
    ucTurn_Angle_Round_NoCheak               0x08006219   Thumb Code    88  applicationmotor.o(i.ucTurn_Angle_Round_NoCheak)
    uiGetFanRotationRate                     0x08006279   Thumb Code     6  applicationmotor.o(i.uiGetFanRotationRate)
    ulTaskNotifyTake                         0x08006285   Thumb Code   108  tasks.o(i.ulTaskNotifyTake)
    usGetChargeCurrent                       0x080062f9   Thumb Code     6  applicationpowerchip.o(i.usGetChargeCurrent)
    usGetClashDistance                       0x08006305   Thumb Code     6  application_ultrasonic.o(i.usGetClashDistance)
    usGetMiddleValue                         0x08006311   Thumb Code    64  applicationmotor.o(i.usGetMiddleValue)
    usGetWheelSpeed                          0x08006351   Thumb Code    50  applicationmotor.o(i.usGetWheelSpeed)
    usSpeed2Cycle                            0x08006389   Thumb Code    54  applicationmotor.o(i.usSpeed2Cycle)
    usmart_cmd_rec                           0x080063c1   Thumb Code   170  usmart.o(i.usmart_cmd_rec)
    usmart_exe                               0x08006471   Thumb Code   632  usmart.o(i.usmart_exe)
    usmart_get_aparm                         0x08006745   Thumb Code   200  usmart_str.o(i.usmart_get_aparm)
    usmart_get_cmdname                       0x0800680d   Thumb Code    54  usmart_str.o(i.usmart_get_cmdname)
    usmart_get_fname                         0x08006845   Thumb Code   440  usmart_str.o(i.usmart_get_fname)
    usmart_get_fparam                        0x08006a05   Thumb Code   262  usmart_str.o(i.usmart_get_fparam)
    usmart_get_parmpos                       0x08006b11   Thumb Code    26  usmart_str.o(i.usmart_get_parmpos)
    usmart_get_runtime                       0x08006b31   Thumb Code    22  usmart.o(i.usmart_get_runtime)
    usmart_init                              0x08006b4d   Thumb Code    32  usmart.o(i.usmart_init)
    usmart_pow                               0x08006b89   Thumb Code    22  usmart_str.o(i.usmart_pow)
    usmart_reset_runtime                     0x08006ba1   Thumb Code    10  usmart.o(i.usmart_reset_runtime)
    usmart_scan                              0x08006bb1   Thumb Code   196  usmart.o(i.usmart_scan)
    usmart_search_nextc                      0x08006cc1   Thumb Code    22  usmart_str.o(i.usmart_search_nextc)
    usmart_str2num                           0x08006cd7   Thumb Code   202  usmart_str.o(i.usmart_str2num)
    usmart_strcmp                            0x08006da1   Thumb Code    34  usmart_str.o(i.usmart_strcmp)
    usmart_strcopy                           0x08006dc3   Thumb Code    22  usmart_str.o(i.usmart_strcopy)
    usmart_strlen                            0x08006dd9   Thumb Code    24  usmart_str.o(i.usmart_strlen)
    usmart_sys_cmd_exe                       0x08006df1   Thumb Code  1554  usmart.o(i.usmart_sys_cmd_exe)
    uxListRemove                             0x080074d5   Thumb Code    40  list.o(i.uxListRemove)
    vADCDataProcessingTask                   0x080074fd   Thumb Code    48  applicationadc.o(i.vADCDataProcessingTask)
    vAllAdcPinInit                           0x08007539   Thumb Code   454  adc.o(i.vAllAdcPinInit)
    vAllMotorMotionTask                      0x08007715   Thumb Code    14  applicationmotor.o(i.vAllMotorMotionTask)
    vAllOutputPinInit                        0x08007723   Thumb Code    44  iooutput.o(i.vAllOutputPinInit)
    vAll_AD_VoluePrintf                      0x08007751   Thumb Code   366  testfun.o(i.vAll_AD_VoluePrintf)
    vAll_EXTI_PinInit                        0x08007a39   Thumb Code   288  exti.o(i.vAll_EXTI_PinInit)
    vAll_PWM_Init                            0x08007b65   Thumb Code    16  timepwm.o(i.vAll_PWM_Init)
    vAll_TIM_CaptureInit                     0x08007b75   Thumb Code    12  timecapture.o(i.vAll_TIM_CaptureInit)
    vAll_UltraSonic_VoluePrintf              0x08007b81   Thumb Code    38  testfun.o(i.vAll_UltraSonic_VoluePrintf)
    vAlongEdge                               0x08007bd1   Thumb Code  1300  behaviormanage.o(i.vAlongEdge)
    vBMI160CalcOffset_Gyro                   0x08008135   Thumb Code   548  bmi160.o(i.vBMI160CalcOffset_Gyro)
    vBMI160_SPI2_Init                        0x080083d1   Thumb Code   198  spi.o(i.vBMI160_SPI2_Init)
    vBatteryLevelUpdate                      0x080084a1   Thumb Code    58  applicationpowerchip.o(i.vBatteryLevelUpdate)
    vBehaviorAuto                            0x080084e5   Thumb Code   326  behaviormanage.o(i.vBehaviorAuto)
    vBehaviorForward                         0x08008691   Thumb Code    62  behaviormanage.o(i.vBehaviorForward)
    vBehaviorManageTask                      0x080086e5   Thumb Code   130  behaviormanage.o(i.vBehaviorManageTask)
    vBehaviorRetreat                         0x08008771   Thumb Code    60  behaviormanage.o(i.vBehaviorRetreat)
    vBehaviorRetreatL                        0x080087bd   Thumb Code   364  behaviormanage.o(i.vBehaviorRetreatL)
    vBehaviorRetreatR                        0x08008971   Thumb Code   364  behaviormanage.o(i.vBehaviorRetreatR)
    vBehaviorRotate                          0x08008b25   Thumb Code   128  behaviormanage.o(i.vBehaviorRotate)
    vBehaviorStop                            0x08008bed   Thumb Code    48  behaviormanage.o(i.vBehaviorStop)
    vBehaviorTurnLeft                        0x08008c3d   Thumb Code   134  behaviormanage.o(i.vBehaviorTurnLeft)
    vBehaviorTurnRight                       0x08008d15   Thumb Code   134  behaviormanage.o(i.vBehaviorTurnRight)
    vBmi160_InitAttAngle                     0x08008df1   Thumb Code    40  bmi160.o(i.vBmi160_InitAttAngle)
    vBoradPowerCtlPinInit                    0x08008e19   Thumb Code    46  iooutput.o(i.vBoradPowerCtlPinInit)
    vBp24773_WriteOneByte                    0x08008e4d   Thumb Code    52  applicationpowerchip.o(i.vBp24773_WriteOneByte)
    vBq24773_Set_Charge_Current              0x08008e81   Thumb Code   224  applicationpowerchip.o(i.vBq24773_Set_Charge_Current)
    vBq24773_Set_MAX_Charge_Voltage          0x08008f61   Thumb Code   154  applicationpowerchip.o(i.vBq24773_Set_MAX_Charge_Voltage)
    vButtonCheckOperation                    0x08008ffd   Thumb Code    68  applicationkey.o(i.vButtonCheckOperation)
    vChange_EX_Angle                         0x08009071   Thumb Code    22  testfun.o(i.vChange_EX_Angle)
    vChange_PID                              0x08009095   Thumb Code    92  testfun.o(i.vChange_PID)
    vDataMemoryCopy                          0x08009101   Thumb Code    26  applicationmotor.o(i.vDataMemoryCopy)
    vDma1_4_Usart1_TX_Init                   0x0800911d   Thumb Code    72  usart1.o(i.vDma1_4_Usart1_TX_Init)
    vDma1_6_Usart2_RX_Init                   0x0800916d   Thumb Code    78  usart.o(i.vDma1_6_Usart2_RX_Init)
    vDma1_7_Usart2_TX_Init                   0x080091c5   Thumb Code    80  usart.o(i.vDma1_7_Usart2_TX_Init)
    vDropCheckTask                           0x0800921d   Thumb Code    14  applicationdropcheck.o(i.vDropCheckTask)
    vDropWaveformOut                         0x0800922d   Thumb Code    86  testfun.o(i.vDropWaveformOut)
    vErrorAbnormalCheckTask                  0x08009289   Thumb Code   246  behaviormanage.o(i.vErrorAbnormalCheckTask)
    vFAN_Test                                0x08009399   Thumb Code    24  testfun.o(i.vFAN_Test)
    vFanPowerCtlPinInit                      0x080093b1   Thumb Code    46  iooutput.o(i.vFanPowerCtlPinInit)
    vGarbageBoxChecking                      0x080093e5   Thumb Code    30  garbage_boxes_check.o(i.vGarbageBoxChecking)
    vGarbage_box_check_Init                  0x0800940d   Thumb Code    34  garbage_boxes_check.o(i.vGarbage_box_check_Init)
    vGarbage_box_check_task                  0x08009435   Thumb Code    34  garbage_boxes_check.o(i.vGarbage_box_check_task)
    vGetADCChannelAverageNumber              0x0800945d   Thumb Code   396  applicationadc.o(i.vGetADCChannelAverageNumber)
    vGyroscope_VoluePrintf                   0x080095f9   Thumb Code    42  testfun.o(i.vGyroscope_VoluePrintf)
    vGyroscopse_task                         0x08009645   Thumb Code    58  bmi160.o(i.vGyroscopse_task)
    vIIC_Init                                0x08009685   Thumb Code    46  myiic.o(i.vIIC_Init)
    vIIC_Send_Byte                           0x080096b9   Thumb Code   104  myiic.o(i.vIIC_Send_Byte)
    vKey_Init                                0x0800972d   Thumb Code    92  key.o(i.vKey_Init)
    vLEDPWM_Init                             0x08009795   Thumb Code   192  led.o(i.vLEDPWM_Init)
    vLedStateDisplay                         0x08009861   Thumb Code   158  applicationled.o(i.vLedStateDisplay)
    vListInitialise                          0x0800990d   Thumb Code    26  list.o(i.vListInitialise)
    vListInitialiseItem                      0x08009927   Thumb Code     6  list.o(i.vListInitialiseItem)
    vListInsert                              0x0800992d   Thumb Code    52  list.o(i.vListInsert)
    vListInsertEnd                           0x08009961   Thumb Code    24  list.o(i.vListInsertEnd)
    vMotionWheel                             0x08009979   Thumb Code   164  applicationmotor.o(i.vMotionWheel)
    vMotorSpeedUpdateTask                    0x08009a2d   Thumb Code   114  applicationmotor.o(i.vMotorSpeedUpdateTask)
    vPortEnterCritical                       0x08009ab1   Thumb Code    68  port.o(i.vPortEnterCritical)
    vPortExitCritical                        0x08009b39   Thumb Code    48  port.o(i.vPortExitCritical)
    vPortFree                                0x08009ba9   Thumb Code   120  heap_4.o(i.vPortFree)
    vPortSetupTimerInterrupt                 0x08009c61   Thumb Code    26  port.o(i.vPortSetupTimerInterrupt)
    vPortValidateInterruptPriority           0x08009c81   Thumb Code    86  port.o(i.vPortValidateInterruptPriority)
    vPowerChipTask                           0x08009d21   Thumb Code   122  applicationpowerchip.o(i.vPowerChipTask)
    vPrintf_ALL_Register_Bp24773             0x08009da1   Thumb Code   276  testfun.o(i.vPrintf_ALL_Register_Bp24773)
    vPrintf_ALL_RobotSta                     0x08009f85   Thumb Code    60  testfun.o(i.vPrintf_ALL_RobotSta)
    vPrintf_ALL_wheel_Data                   0x0800a001   Thumb Code   122  testfun.o(i.vPrintf_ALL_wheel_Data)
    vQueueAddToRegistry                      0x0800a169   Thumb Code    38  queue.o(i.vQueueAddToRegistry)
    vQueueWaitForMessageRestricted           0x0800a195   Thumb Code    74  queue.o(i.vQueueWaitForMessageRestricted)
    vRechargeStandUpdate                     0x0800a1e1   Thumb Code    26  applicationpowerchip.o(i.vRechargeStandUpdate)
    vRecordOSRunTime                         0x0800a205   Thumb Code    58  systemtime.o(i.vRecordOSRunTime)
    vRedLedBrightness                        0x0800a249   Thumb Code    22  applicationled.o(i.vRedLedBrightness)
    vRollBrushCtlPinInit                     0x0800a261   Thumb Code    40  iooutput.o(i.vRollBrushCtlPinInit)
    vSGM4878CtlPinInit                       0x0800a28d   Thumb Code    40  iooutput.o(i.vSGM4878CtlPinInit)
    vSetDropTime                             0x0800a2b9   Thumb Code    56  testfun.o(i.vSetDropTime)
    vSetFanSpeed                             0x0800a2f9   Thumb Code    30  applicationmotor.o(i.vSetFanSpeed)
    vSideBrushCtlPinInit                     0x0800a321   Thumb Code    40  iooutput.o(i.vSideBrushCtlPinInit)
    vSoftSpeedAdjust                         0x0800a34d   Thumb Code   118  applicationmotor.o(i.vSoftSpeedAdjust)
    vSoftSpeedAdvanceTask                    0x0800a3cd   Thumb Code    14  applicationmotor.o(i.vSoftSpeedAdvanceTask)
    vSystemHardwareDriverInit                0x0800a3db   Thumb Code    60  hardwaremanage.o(i.vSystemHardwareDriverInit)
    vSystemHardwareWorkTask                  0x0800a417   Thumb Code    26  taskmanage.o(i.vSystemHardwareWorkTask)
    vTIM6_Int_Init                           0x0800a431   Thumb Code    90  timer.o(i.vTIM6_Int_Init)
    vTIM7_Configuration                      0x0800a491   Thumb Code    66  timer.o(i.vTIM7_Configuration)
    vTaskCreateFunction                      0x0800a4d9   Thumb Code   256  taskmanage.o(i.vTaskCreateFunction)
    vTaskDelay                               0x0800a709   Thumb Code    72  tasks.o(i.vTaskDelay)
    vTaskDelayUntil                          0x0800a77d   Thumb Code   170  tasks.o(i.vTaskDelayUntil)
    vTaskMissedYield                         0x0800a859   Thumb Code     8  tasks.o(i.vTaskMissedYield)
    vTaskPlaceOnEventList                    0x0800a865   Thumb Code    42  tasks.o(i.vTaskPlaceOnEventList)
    vTaskPlaceOnEventListRestricted          0x0800a8b9   Thumb Code    50  tasks.o(i.vTaskPlaceOnEventListRestricted)
    vTaskPriorityInherit                     0x0800a915   Thumb Code   164  tasks.o(i.vTaskPriorityInherit)
    vTaskSetTimeOutState                     0x0800a9c5   Thumb Code    32  tasks.o(i.vTaskSetTimeOutState)
    vTaskStartScheduler                      0x0800aa11   Thumb Code   108  tasks.o(i.vTaskStartScheduler)
    vTaskSuspendAll                          0x0800aabd   Thumb Code    12  tasks.o(i.vTaskSuspendAll)
    vTaskSwitchContext                       0x0800aacd   Thumb Code   110  tasks.o(i.vTaskSwitchContext)
    vUart1PinFunction_Init                   0x0800ab75   Thumb Code   174  usart1.o(i.vUart1PinFunction_Init)
    vUart1_Init                              0x0800ac2d   Thumb Code    36  usart1.o(i.vUart1_Init)
    vUart2PinFunction_Init                   0x0800ac59   Thumb Code   150  usart.o(i.vUart2PinFunction_Init)
    vUart2_Init                              0x0800acf9   Thumb Code    60  usart.o(i.vUart2_Init)
    vUltransonicCaculate                     0x0800ad45   Thumb Code   168  application_ultrasonic.o(i.vUltransonicCaculate)
    vUltrasonicTask                          0x0800adfd   Thumb Code    54  application_ultrasonic.o(i.vUltrasonicTask)
    vUltrasonic_Emit                         0x0800ae3d   Thumb Code    42  iooutput.o(i.vUltrasonic_Emit)
    vUltrasonic_GPIO_config                  0x0800ae71   Thumb Code    54  iooutput.o(i.vUltrasonic_GPIO_config)
    vUltrasonic_Init                         0x0800aead   Thumb Code     8  iooutput.o(i.vUltrasonic_Init)
    vUsart1Interactive                       0x0800aeb5   Thumb Code   138  usart1.o(i.vUsart1Interactive)
    vUsart2Interactive                       0x0800af59   Thumb Code   270  usart.o(i.vUsart2Interactive)
    vUsmartTimerTask                         0x0800b095   Thumb Code    16  usmart.o(i.vUsmartTimerTask)
    vVAPowerCtlPinInit                       0x0800b0a9   Thumb Code    50  iooutput.o(i.vVAPowerCtlPinInit)
    vVPowerCtlPinInit                        0x0800b0e1   Thumb Code    50  iooutput.o(i.vVPowerCtlPinInit)
    vVccPowerCtlPinInit                      0x0800b119   Thumb Code    50  iooutput.o(i.vVccPowerCtlPinInit)
    vWaveFromOut                             0x0800b151   Thumb Code    48  datascope_dp.o(i.vWaveFromOut)
    vWheelCtlPinInit                         0x0800b189   Thumb Code    38  iooutput.o(i.vWheelCtlPinInit)
    vWhiteLedBrightness                      0x0800b1b5   Thumb Code    22  applicationled.o(i.vWhiteLedBrightness)
    vWrite_Bq24773_Register                  0x0800b1cb   Thumb Code    16  testfun.o(i.vWrite_Bq24773_Register)
    vWrite_Wheel                             0x0800b1dd   Thumb Code    62  testfun.o(i.vWrite_Wheel)
    vYellowLedBrightness                     0x0800b235   Thumb Code    22  applicationled.o(i.vYellowLedBrightness)
    write_addr                               0x0800b24b   Thumb Code     4  usmart.o(i.write_addr)
    xPortStartScheduler                      0x0800b251   Thumb Code   140  port.o(i.xPortStartScheduler)
    xPortSysTickHandler                      0x0800b2f1   Thumb Code    50  port.o(i.xPortSysTickHandler)
    xQueueGenericCreate                      0x0800b329   Thumb Code    78  queue.o(i.xQueueGenericCreate)
    xQueueGenericReceive                     0x0800b39d   Thumb Code   416  queue.o(i.xQueueGenericReceive)
    xQueueGenericReset                       0x0800b565   Thumb Code   136  queue.o(i.xQueueGenericReset)
    xQueueGenericSend                        0x0800b615   Thumb Code   412  queue.o(i.xQueueGenericSend)
    xQueueGenericSendFromISR                 0x0800b7d9   Thumb Code   234  queue.o(i.xQueueGenericSendFromISR)
    xTaskCheckForTimeOut                     0x0800b8e9   Thumb Code   116  tasks.o(i.xTaskCheckForTimeOut)
    xTaskCreate                              0x0800b989   Thumb Code    96  tasks.o(i.xTaskCreate)
    xTaskGenericNotifyFromISR                0x0800b9e9   Thumb Code   278  tasks.o(i.xTaskGenericNotifyFromISR)
    xTaskGetSchedulerState                   0x0800bb3d   Thumb Code    24  tasks.o(i.xTaskGetSchedulerState)
    xTaskGetTickCount                        0x0800bb5d   Thumb Code     6  tasks.o(i.xTaskGetTickCount)
    xTaskIncrementTick                       0x0800bb69   Thumb Code   272  tasks.o(i.xTaskIncrementTick)
    xTaskPriorityDisinherit                  0x0800bcc9   Thumb Code   168  tasks.o(i.xTaskPriorityDisinherit)
    xTaskRemoveFromEventList                 0x0800bda1   Thumb Code   118  tasks.o(i.xTaskRemoveFromEventList)
    xTaskResumeAll                           0x0800be55   Thumb Code   214  tasks.o(i.xTaskResumeAll)
    xTimerCreateTimerTask                    0x0800bf75   Thumb Code    56  timers.o(i.xTimerCreateTimerTask)
    xTimerGenericCommand                     0x0800bfe9   Thumb Code   118  timers.o(i.xTimerGenericCommand)
    _get_lc_numeric                          0x0800c08d   Thumb Code    44  lc_numeric_c.o(locale$$code)
    __aeabi_d2f                              0x0800c0b9   Thumb Code     0  d2f.o(x$fpl$d2f)
    _d2f                                     0x0800c0b9   Thumb Code    98  d2f.o(x$fpl$d2f)
    __aeabi_dadd                             0x0800c11d   Thumb Code     0  daddsub_clz.o(x$fpl$dadd)
    _dadd                                    0x0800c11d   Thumb Code   332  daddsub_clz.o(x$fpl$dadd)
    __fpl_dcheck_NaN1                        0x0800c26d   Thumb Code    10  dcheck1.o(x$fpl$dcheck1)
    __fpl_dcmp_Inf                           0x0800c27d   Thumb Code    24  dcmpi.o(x$fpl$dcmpinf)
    __aeabi_ddiv                             0x0800c295   Thumb Code     0  ddiv.o(x$fpl$ddiv)
    _ddiv                                    0x0800c295   Thumb Code   552  ddiv.o(x$fpl$ddiv)
    __aeabi_d2iz                             0x0800c545   Thumb Code     0  dfix.o(x$fpl$dfix)
    _dfix                                    0x0800c545   Thumb Code    94  dfix.o(x$fpl$dfix)
    __aeabi_i2d                              0x0800c5a3   Thumb Code     0  dflt_clz.o(x$fpl$dflt)
    _dflt                                    0x0800c5a3   Thumb Code    46  dflt_clz.o(x$fpl$dflt)
    __aeabi_ui2d                             0x0800c5d1   Thumb Code     0  dflt_clz.o(x$fpl$dfltu)
    _dfltu                                   0x0800c5d1   Thumb Code    38  dflt_clz.o(x$fpl$dfltu)
    __aeabi_cdcmple                          0x0800c5f9   Thumb Code     0  dleqf.o(x$fpl$dleqf)
    _dcmple                                  0x0800c5f9   Thumb Code   120  dleqf.o(x$fpl$dleqf)
    __fpl_dcmple_InfNaN                      0x0800c65b   Thumb Code     0  dleqf.o(x$fpl$dleqf)
    __aeabi_dmul                             0x0800c671   Thumb Code     0  dmul.o(x$fpl$dmul)
    _dmul                                    0x0800c671   Thumb Code   332  dmul.o(x$fpl$dmul)
    __fpl_dnaninf                            0x0800c7c5   Thumb Code   156  dnaninf.o(x$fpl$dnaninf)
    __fpl_dretinf                            0x0800c861   Thumb Code    12  dretinf.o(x$fpl$dretinf)
    __aeabi_cdrcmple                         0x0800c86d   Thumb Code     0  drleqf.o(x$fpl$drleqf)
    _drcmple                                 0x0800c86d   Thumb Code   108  drleqf.o(x$fpl$drleqf)
    __aeabi_drsub                            0x0800c8d9   Thumb Code     0  daddsub_clz.o(x$fpl$drsb)
    _drsb                                    0x0800c8d9   Thumb Code    22  daddsub_clz.o(x$fpl$drsb)
    __aeabi_dsub                             0x0800c8f1   Thumb Code     0  daddsub_clz.o(x$fpl$dsub)
    _dsub                                    0x0800c8f1   Thumb Code   464  daddsub_clz.o(x$fpl$dsub)
    __aeabi_f2d                              0x0800cac5   Thumb Code     0  f2d.o(x$fpl$f2d)
    _f2d                                     0x0800cac5   Thumb Code    86  f2d.o(x$fpl$f2d)
    __aeabi_fadd                             0x0800cb1d   Thumb Code     0  faddsub_clz.o(x$fpl$fadd)
    _fadd                                    0x0800cb1d   Thumb Code   196  faddsub_clz.o(x$fpl$fadd)
    __fpl_fcmp_Inf                           0x0800cbe1   Thumb Code    24  fcmpi.o(x$fpl$fcmpinf)
    __aeabi_fdiv                             0x0800cbf9   Thumb Code     0  fdiv.o(x$fpl$fdiv)
    _fdiv                                    0x0800cbf9   Thumb Code   384  fdiv.o(x$fpl$fdiv)
    __aeabi_cfcmpeq                          0x0800cd7d   Thumb Code     0  feqf.o(x$fpl$feqf)
    _fcmpeq                                  0x0800cd7d   Thumb Code   104  feqf.o(x$fpl$feqf)
    __aeabi_f2iz                             0x0800cde5   Thumb Code     0  ffix.o(x$fpl$ffix)
    _ffix                                    0x0800cde5   Thumb Code    54  ffix.o(x$fpl$ffix)
    __aeabi_f2uiz                            0x0800ce1d   Thumb Code     0  ffixu.o(x$fpl$ffixu)
    _ffixu                                   0x0800ce1d   Thumb Code    62  ffixu.o(x$fpl$ffixu)
    __aeabi_i2f                              0x0800ce5d   Thumb Code     0  fflt_clz.o(x$fpl$fflt)
    _fflt                                    0x0800ce5d   Thumb Code    48  fflt_clz.o(x$fpl$fflt)
    __aeabi_ui2f                             0x0800ce8d   Thumb Code     0  fflt_clz.o(x$fpl$ffltu)
    _ffltu                                   0x0800ce8d   Thumb Code    38  fflt_clz.o(x$fpl$ffltu)
    __aeabi_cfcmple                          0x0800ceb5   Thumb Code     0  fleqf.o(x$fpl$fleqf)
    _fcmple                                  0x0800ceb5   Thumb Code   104  fleqf.o(x$fpl$fleqf)
    __fpl_fcmple_InfNaN                      0x0800cf07   Thumb Code     0  fleqf.o(x$fpl$fleqf)
    __aeabi_fmul                             0x0800cf1d   Thumb Code     0  fmul.o(x$fpl$fmul)
    _fmul                                    0x0800cf1d   Thumb Code   258  fmul.o(x$fpl$fmul)
    __fpl_fnaninf                            0x0800d01f   Thumb Code   140  fnaninf.o(x$fpl$fnaninf)
    __fpl_fretinf                            0x0800d0ab   Thumb Code    10  fretinf.o(x$fpl$fretinf)
    __aeabi_cfrcmple                         0x0800d0b5   Thumb Code     0  frleqf.o(x$fpl$frleqf)
    _frcmple                                 0x0800d0b5   Thumb Code    98  frleqf.o(x$fpl$frleqf)
    __aeabi_fsub                             0x0800d119   Thumb Code     0  faddsub_clz.o(x$fpl$fsub)
    _fsub                                    0x0800d119   Thumb Code   234  faddsub_clz.o(x$fpl$fsub)
    _printf_fp_dec                           0x0800d203   Thumb Code     4  printf1.o(x$fpl$printf1)
    __fpl_return_NaN                         0x0800d207   Thumb Code   100  retnan.o(x$fpl$retnan)
    __ARM_scalbn                             0x0800d26b   Thumb Code    92  scalbn.o(x$fpl$scalbn)
    __fpl_cmpreturn                          0x0800d2c7   Thumb Code    48  trapv.o(x$fpl$trapveneer)
    __I$use$fp                               0x0800d2f6   Number         0  usenofp.o(x$fpl$usenofp)
    __mathlib_zero                           0x0800d3c8   Data           8  qnan.o(.constdata)
    Region$$Table$$Base                      0x0800d7f4   Number         0  anon$$obj.o(Region$$Table)
    Region$$Table$$Limit                     0x0800d814   Number         0  anon$$obj.o(Region$$Table)
    SystemCoreClock                          0x20000000   Data           4  system_stm32f10x.o(.data)
    AHBPrescTable                            0x20000004   Data          16  system_stm32f10x.o(.data)
    __stdout                                 0x20000018   Data           4  usart1.o(.data)
    ucUSART1TrainsmitLength                  0x2000001c   Data           5  usart1.o(.data)
    ucDMA1_Stream4TransmitGrooveIndex        0x20000021   Data           1  usart1.o(.data)
    ucUSART1_TransmitMessageNumber           0x20000022   Data           1  usart1.o(.data)
    ucWtiteDataToUSART1TransmitGrooveIndex   0x20000023   Data           1  usart1.o(.data)
    ucUSART1_TransmitWritingBytePointer      0x20000024   Data           1  usart1.o(.data)
    ucUSART1ReceiveBufferLength              0x20000025   Data           5  usart1.o(.data)
    ucUSART1ReceiveGrooveIndex               0x2000002a   Data           1  usart1.o(.data)
    ucUSART1ReadBufferIndex                  0x2000002b   Data           1  usart1.o(.data)
    ucUSART1ReceiveWritingBytePointer        0x2000002c   Data           1  usart1.o(.data)
    ucDMA1_Stream5ReceiveGrooveIndex         0x2000002d   Data           1  usart1.o(.data)
    ucUSART1_ReceiveMessageNumber            0x2000002e   Data           1  usart1.o(.data)
    tULTime                                  0x20000032   Data           8  exti.o(.data)
    GyroUpdateCNT                            0x2000003a   Data           1  timer.o(.data)
    ucDMA1_Stream7TransmitGrooveIndex        0x2000003b   Data           1  usart.o(.data)
    ucUSART2_TransmitMessageNumber           0x2000003c   Data           1  usart.o(.data)
    ucWtiteDataToUSART2TransmitGrooveIndex   0x2000003d   Data           1  usart.o(.data)
    ucUSART2_TransmitWritingBytePointer      0x2000003e   Data           1  usart.o(.data)
    ucUSART2ReceiveBufferLength              0x2000003f   Data           5  usart.o(.data)
    ucUSART2ReceiveGrooveIndex               0x20000044   Data           1  usart.o(.data)
    ucUSART2ReadBufferIndex                  0x20000045   Data           1  usart.o(.data)
    ucUSART2ReceiveWritingBytePointer        0x20000046   Data           1  usart.o(.data)
    ucDMA1_Stream6ReceiveGrooveIndex         0x20000047   Data           1  usart.o(.data)
    ucUSART2_ReceiveMessageNumber            0x20000048   Data           1  usart.o(.data)
    g_FanEncodeCount                         0x2000004c   Data           4  timecapture.o(.data)
    ForwardSpeed                             0x20000050   Data           2  behaviormanage.o(.data)
    AlongEdgeSpeed                           0x20000052   Data           2  behaviormanage.o(.data)
    g_FanRotationRate                        0x20000070   Data           4  applicationmotor.o(.data)
    g_sExpect_Angle                          0x20000074   Data           2  applicationmotor.o(.data)
    g_sExpect_speed                          0x20000076   Data           2  applicationmotor.o(.data)
    g_sExpect_range                          0x20000078   Data           2  applicationmotor.o(.data)
    P_V                                      0x2000007c   Data           4  applicationmotor.o(.data)
    I_V                                      0x20000080   Data           4  applicationmotor.o(.data)
    D_V                                      0x20000084   Data           4  applicationmotor.o(.data)
    SpeedLeftUiV                             0x20000088   Data           4  applicationmotor.o(.data)
    SpeedRightUiV                            0x2000008c   Data           4  applicationmotor.o(.data)
    P_AE                                     0x20000090   Data           4  applicationmotor.o(.data)
    I_AE                                     0x20000094   Data           4  applicationmotor.o(.data)
    D_AE                                     0x20000098   Data           4  applicationmotor.o(.data)
    g_tIncPID                                0x2000009c   Data           2  applicationmotor.o(.data)
    HandleADCDataProcessing                  0x200000a4   Data           4  applicationadc.o(.data)
    g_usAnalogSwitch                         0x200000a8   Data           8  applicationadc.o(.data)
    tDropcheck                               0x200000b2   Data           5  applicationdropcheck.o(.data)
    g_usDROP_AD                              0x200000b8   Data           8  applicationdropcheck.o(.data)
    eGyro_State                              0x200000c0   Data           1  bmi160.o(.data)
    ucToleranceFlag                          0x200000c1   Data           1  bmi160.o(.data)
    ucToleranceFailFlag                      0x200000c2   Data           1  bmi160.o(.data)
    AccValue_t                               0x200000d4   Data           3  bmi160_data.o(.data)
    g_usMaxClashDistance                     0x200000d8   Data           2  application_ultrasonic.o(.data)
    g_fSoundDistance                         0x200000da   Data           2  application_ultrasonic.o(.data)
    tClash                                   0x200000dc   Data           4  application_ultrasonic.o(.data)
    ucBattery_Level                          0x200000e4   Data           1  applicationpowerchip.o(.data)
    bInRechargeStand                         0x200000e5   Data           1  applicationpowerchip.o(.data)
    bNeedCharge                              0x200000e6   Data           1  applicationpowerchip.o(.data)
    pxCurrentTCB                             0x200000e8   Data           4  tasks.o(.data)
    sys_cmd_tab                              0x20000170   Data          28  usmart.o(.data)
    usmart_nametab                           0x2000018c   Data         152  usmart_config.o(.data)
    usmart_dev                               0x20000224   Data         244  usmart_config.o(.data)
    BufIndex                                 0x20000318   Data          44  testfun.o(.data)
    g_tRobotState                            0x20000344   Data          14  main.o(.bss)
    ucUSART1TrainsmitBuffer                  0x20000352   Data         450  usart1.o(.bss)
    ucUSART1ReceiveBuffer                    0x20000514   Data         450  usart1.o(.bss)
    OS_RunTime                               0x200006d8   Data          12  systemtime.o(.bss)
    g_AdcOriginalValue                       0x200006e4   Data          78  adc.o(.bss)
    ucUSART2TrainsmitBuffer                  0x20000732   Data        2700  usart.o(.bss)
    ucUSART2TrainsmitLength                  0x200011be   Data          30  usart.o(.bss)
    ucUSART2ReceiveBuffer                    0x200011dc   Data         450  usart.o(.bss)
    g_tLeftWheel                             0x200013a0   Data          28  timecapture.o(.bss)
    g_tRightWheel                            0x200013bc   Data          28  timecapture.o(.bss)
    g_usInChipAdcChannelAverageValue         0x20001420   Data          26  applicationadc.o(.bss)
    tGyro_Offset                             0x2000143c   Data          12  bmi160.o(.bss)
    GyroValue_t                              0x200014ac   Data          12  bmi160_data.o(.bss)
    xQueueRegistry                           0x200017c4   Data          64  queue.o(.bss)
    DataScope_OutPut_Buffer                  0x20006804   Data          42  datascope_dp.o(.bss)
    __libspace_start                         0x20006830   Data          96  libspace.o(.bss)
    __temporary_stack_top$libspace           0x20006890   Data           0  libspace.o(.bss)



==============================================================================

Memory Map of the image

  Image Entry point : 0x080002dd

  Load Region LR_1 (Base: 0x08000000, Size: 0x0000db74, Max: 0xffffffff, ABSOLUTE, COMPRESSED[0x0000d948])

    Execution Region ER_RO (Exec base: 0x08000000, Load base: 0x08000000, Size: 0x0000d830, Max: 0xffffffff, ABSOLUTE)

    Exec Addr    Load Addr    Size         Type   Attr      Idx    E Section Name        Object

    0x08000000   0x08000000   0x00000130   Data   RO         2925    RESET               startup_stm32f10x_hd.o
    0x08000130   0x08000130   0x00000008   Code   RO         5235  * !!!main             c_w.l(__main.o)
    0x08000138   0x08000138   0x00000034   Code   RO         5585    !!!scatter          c_w.l(__scatter.o)
    0x0800016c   0x0800016c   0x0000005a   Code   RO         5583    !!dczerorl2         c_w.l(__dczerorl2.o)
    0x080001c6   0x080001c6   0x00000002   PAD
    0x080001c8   0x080001c8   0x0000001c   Code   RO         5587    !!handler_zi        c_w.l(__scatter_zi.o)
    0x080001e4   0x080001e4   0x00000000   Code   RO         5220    .ARM.Collect$$_printf_percent$$00000000  c_w.l(_printf_percent.o)
    0x080001e4   0x080001e4   0x00000006   Code   RO         5219    .ARM.Collect$$_printf_percent$$00000003  c_w.l(_printf_f.o)
    0x080001ea   0x080001ea   0x00000006   Code   RO         5217    .ARM.Collect$$_printf_percent$$00000009  c_w.l(_printf_d.o)
    0x080001f0   0x080001f0   0x00000006   Code   RO         5218    .ARM.Collect$$_printf_percent$$0000000A  c_w.l(_printf_u.o)
    0x080001f6   0x080001f6   0x00000006   Code   RO         5216    .ARM.Collect$$_printf_percent$$0000000C  c_w.l(_printf_x.o)
    0x080001fc   0x080001fc   0x00000006   Code   RO         5214    .ARM.Collect$$_printf_percent$$00000013  c_w.l(_printf_c.o)
    0x08000202   0x08000202   0x00000006   Code   RO         5215    .ARM.Collect$$_printf_percent$$00000014  c_w.l(_printf_s.o)
    0x08000208   0x08000208   0x00000004   Code   RO         5326    .ARM.Collect$$_printf_percent$$00000017  c_w.l(_printf_percent_end.o)
    0x0800020c   0x0800020c   0x00000002   Code   RO         5454    .ARM.Collect$$libinit$$00000000  c_w.l(libinit.o)
    0x0800020e   0x0800020e   0x00000000   Code   RO         5456    .ARM.Collect$$libinit$$00000002  c_w.l(libinit2.o)
    0x0800020e   0x0800020e   0x00000000   Code   RO         5458    .ARM.Collect$$libinit$$00000004  c_w.l(libinit2.o)
    0x0800020e   0x0800020e   0x00000000   Code   RO         5461    .ARM.Collect$$libinit$$0000000A  c_w.l(libinit2.o)
    0x0800020e   0x0800020e   0x00000000   Code   RO         5463    .ARM.Collect$$libinit$$0000000C  c_w.l(libinit2.o)
    0x0800020e   0x0800020e   0x00000000   Code   RO         5465    .ARM.Collect$$libinit$$0000000E  c_w.l(libinit2.o)
    0x0800020e   0x0800020e   0x00000006   Code   RO         5466    .ARM.Collect$$libinit$$0000000F  c_w.l(libinit2.o)
    0x08000214   0x08000214   0x00000000   Code   RO         5468    .ARM.Collect$$libinit$$00000011  c_w.l(libinit2.o)
    0x08000214   0x08000214   0x00000000   Code   RO         5470    .ARM.Collect$$libinit$$00000013  c_w.l(libinit2.o)
    0x08000214   0x08000214   0x00000000   Code   RO         5472    .ARM.Collect$$libinit$$00000015  c_w.l(libinit2.o)
    0x08000214   0x08000214   0x0000000a   Code   RO         5473    .ARM.Collect$$libinit$$00000016  c_w.l(libinit2.o)
    0x0800021e   0x0800021e   0x00000000   Code   RO         5474    .ARM.Collect$$libinit$$00000017  c_w.l(libinit2.o)
    0x0800021e   0x0800021e   0x00000000   Code   RO         5476    .ARM.Collect$$libinit$$00000019  c_w.l(libinit2.o)
    0x0800021e   0x0800021e   0x00000000   Code   RO         5478    .ARM.Collect$$libinit$$0000001B  c_w.l(libinit2.o)
    0x0800021e   0x0800021e   0x00000000   Code   RO         5480    .ARM.Collect$$libinit$$0000001D  c_w.l(libinit2.o)
    0x0800021e   0x0800021e   0x00000000   Code   RO         5482    .ARM.Collect$$libinit$$0000001F  c_w.l(libinit2.o)
    0x0800021e   0x0800021e   0x00000000   Code   RO         5484    .ARM.Collect$$libinit$$00000021  c_w.l(libinit2.o)
    0x0800021e   0x0800021e   0x00000000   Code   RO         5486    .ARM.Collect$$libinit$$00000023  c_w.l(libinit2.o)
    0x0800021e   0x0800021e   0x00000000   Code   RO         5488    .ARM.Collect$$libinit$$00000025  c_w.l(libinit2.o)
    0x0800021e   0x0800021e   0x00000000   Code   RO         5492    .ARM.Collect$$libinit$$0000002C  c_w.l(libinit2.o)
    0x0800021e   0x0800021e   0x00000000   Code   RO         5494    .ARM.Collect$$libinit$$0000002E  c_w.l(libinit2.o)
    0x0800021e   0x0800021e   0x00000000   Code   RO         5496    .ARM.Collect$$libinit$$00000030  c_w.l(libinit2.o)
    0x0800021e   0x0800021e   0x00000000   Code   RO         5498    .ARM.Collect$$libinit$$00000032  c_w.l(libinit2.o)
    0x0800021e   0x0800021e   0x00000002   Code   RO         5499    .ARM.Collect$$libinit$$00000033  c_w.l(libinit2.o)
    0x08000220   0x08000220   0x00000002   Code   RO         5533    .ARM.Collect$$libshutdown$$00000000  c_w.l(libshutdown.o)
    0x08000222   0x08000222   0x00000000   Code   RO         5542    .ARM.Collect$$libshutdown$$00000002  c_w.l(libshutdown2.o)
    0x08000222   0x08000222   0x00000000   Code   RO         5544    .ARM.Collect$$libshutdown$$00000004  c_w.l(libshutdown2.o)
    0x08000222   0x08000222   0x00000000   Code   RO         5547    .ARM.Collect$$libshutdown$$00000007  c_w.l(libshutdown2.o)
    0x08000222   0x08000222   0x00000000   Code   RO         5550    .ARM.Collect$$libshutdown$$0000000A  c_w.l(libshutdown2.o)
    0x08000222   0x08000222   0x00000000   Code   RO         5552    .ARM.Collect$$libshutdown$$0000000C  c_w.l(libshutdown2.o)
    0x08000222   0x08000222   0x00000000   Code   RO         5555    .ARM.Collect$$libshutdown$$0000000F  c_w.l(libshutdown2.o)
    0x08000222   0x08000222   0x00000002   Code   RO         5556    .ARM.Collect$$libshutdown$$00000010  c_w.l(libshutdown2.o)
    0x08000224   0x08000224   0x00000000   Code   RO         5311    .ARM.Collect$$rtentry$$00000000  c_w.l(__rtentry.o)
    0x08000224   0x08000224   0x00000000   Code   RO         5370    .ARM.Collect$$rtentry$$00000002  c_w.l(__rtentry2.o)
    0x08000224   0x08000224   0x00000006   Code   RO         5382    .ARM.Collect$$rtentry$$00000004  c_w.l(__rtentry4.o)
    0x0800022a   0x0800022a   0x00000000   Code   RO         5372    .ARM.Collect$$rtentry$$00000009  c_w.l(__rtentry2.o)
    0x0800022a   0x0800022a   0x00000004   Code   RO         5373    .ARM.Collect$$rtentry$$0000000A  c_w.l(__rtentry2.o)
    0x0800022e   0x0800022e   0x00000000   Code   RO         5375    .ARM.Collect$$rtentry$$0000000C  c_w.l(__rtentry2.o)
    0x0800022e   0x0800022e   0x00000008   Code   RO         5376    .ARM.Collect$$rtentry$$0000000D  c_w.l(__rtentry2.o)
    0x08000236   0x08000236   0x00000002   Code   RO         5502    .ARM.Collect$$rtexit$$00000000  c_w.l(rtexit.o)
    0x08000238   0x08000238   0x00000000   Code   RO         5511    .ARM.Collect$$rtexit$$00000002  c_w.l(rtexit2.o)
    0x08000238   0x08000238   0x00000004   Code   RO         5512    .ARM.Collect$$rtexit$$00000003  c_w.l(rtexit2.o)
    0x0800023c   0x0800023c   0x00000006   Code   RO         5513    .ARM.Collect$$rtexit$$00000004  c_w.l(rtexit2.o)
    0x08000242   0x08000242   0x00000002   PAD
    0x08000244   0x08000244   0x00000096   Code   RO         2787    .emb_text           port.o
    0x080002da   0x080002da   0x00000002   PAD
    0x080002dc   0x080002dc   0x00000040   Code   RO         2926  * .text               startup_stm32f10x_hd.o
    0x0800031c   0x0800031c   0x00000002   Code   RO         5155    .text               c_w.l(use_no_semi_2.o)
    0x0800031e   0x0800031e   0x00000002   PAD
    0x08000320   0x08000320   0x00000018   Code   RO         5161    .text               c_w.l(noretval__2printf.o)
    0x08000338   0x08000338   0x0000004e   Code   RO         5167    .text               c_w.l(_printf_pad.o)
    0x08000386   0x08000386   0x00000052   Code   RO         5169    .text               c_w.l(_printf_str.o)
    0x080003d8   0x080003d8   0x00000078   Code   RO         5171    .text               c_w.l(_printf_dec.o)
    0x08000450   0x08000450   0x00000058   Code   RO         5176    .text               c_w.l(_printf_hex_int.o)
    0x080004a8   0x080004a8   0x00000188   Code   RO         5211    .text               c_w.l(__printf_flags_ss_wp.o)
    0x08000630   0x08000630   0x0000008a   Code   RO         5227    .text               c_w.l(rt_memcpy_v6.o)
    0x080006ba   0x080006ba   0x00000010   Code   RO         5229    .text               c_w.l(aeabi_memset.o)
    0x080006ca   0x080006ca   0x0000004e   Code   RO         5231    .text               c_w.l(rt_memclr_w.o)
    0x08000718   0x08000718   0x00000006   Code   RO         5233    .text               c_w.l(heapauxi.o)
    0x0800071e   0x0800071e   0x00000002   Code   RO         5309    .text               c_w.l(use_no_semi.o)
    0x08000720   0x08000720   0x000000b2   Code   RO         5314    .text               c_w.l(_printf_intcommon.o)
    0x080007d2   0x080007d2   0x0000041e   Code   RO         5316    .text               c_w.l(_printf_fp_dec.o)
    0x08000bf0   0x08000bf0   0x00000030   Code   RO         5318    .text               c_w.l(_printf_char_common.o)
    0x08000c20   0x08000c20   0x0000002c   Code   RO         5322    .text               c_w.l(_printf_char.o)
    0x08000c4c   0x08000c4c   0x00000024   Code   RO         5324    .text               c_w.l(_printf_char_file.o)
    0x08000c70   0x08000c70   0x00000064   Code   RO         5327    .text               c_w.l(rt_memcpy_w.o)
    0x08000cd4   0x08000cd4   0x00000044   Code   RO         5329    .text               c_w.l(rt_memclr.o)
    0x08000d18   0x08000d18   0x00000008   Code   RO         5387    .text               c_w.l(rt_locale_intlibspace.o)
    0x08000d20   0x08000d20   0x0000008a   Code   RO         5394    .text               c_w.l(lludiv10.o)
    0x08000daa   0x08000daa   0x00000002   PAD
    0x08000dac   0x08000dac   0x00000080   Code   RO         5396    .text               c_w.l(_printf_fp_infnan.o)
    0x08000e2c   0x08000e2c   0x000000e4   Code   RO         5400    .text               c_w.l(bigflt0.o)
    0x08000f10   0x08000f10   0x00000008   Code   RO         5425    .text               c_w.l(ferror.o)
    0x08000f18   0x08000f18   0x00000008   Code   RO         5440    .text               c_w.l(libspace.o)
    0x08000f20   0x08000f20   0x0000004a   Code   RO         5443    .text               c_w.l(sys_stackheap_outer.o)
    0x08000f6a   0x08000f6a   0x00000012   Code   RO         5445    .text               c_w.l(exit.o)
    0x08000f7c   0x08000f7c   0x00000080   Code   RO         5447    .text               c_w.l(strcmpv7m.o)
    0x08000ffc   0x08000ffc   0x0000003e   Code   RO         5403    CL$$btod_d2e        c_w.l(btod.o)
    0x0800103a   0x0800103a   0x00000046   Code   RO         5405    CL$$btod_d2e_denorm_low  c_w.l(btod.o)
    0x08001080   0x08001080   0x00000060   Code   RO         5404    CL$$btod_d2e_norm_op1  c_w.l(btod.o)
    0x080010e0   0x080010e0   0x00000338   Code   RO         5413    CL$$btod_div_common  c_w.l(btod.o)
    0x08001418   0x08001418   0x000000dc   Code   RO         5410    CL$$btod_e2e        c_w.l(btod.o)
    0x080014f4   0x080014f4   0x0000002a   Code   RO         5407    CL$$btod_ediv       c_w.l(btod.o)
    0x0800151e   0x0800151e   0x0000002a   Code   RO         5406    CL$$btod_emul       c_w.l(btod.o)
    0x08001548   0x08001548   0x00000244   Code   RO         5412    CL$$btod_mult_common  c_w.l(btod.o)
    0x0800178c   0x0800178c   0x00000016   Code   RO         3918    i.ADC_Cmd           stm32f10x_adc.o
    0x080017a2   0x080017a2   0x00000016   Code   RO         3919    i.ADC_DMACmd        stm32f10x_adc.o
    0x080017b8   0x080017b8   0x0000005c   Code   RO         3920    i.ADC_DeInit        stm32f10x_adc.o
    0x08001814   0x08001814   0x00000014   Code   RO         3926    i.ADC_GetCalibrationStatus  stm32f10x_adc.o
    0x08001828   0x08001828   0x00000014   Code   RO         3932    i.ADC_GetResetCalibrationStatus  stm32f10x_adc.o
    0x0800183c   0x0800183c   0x00000050   Code   RO         3936    i.ADC_Init          stm32f10x_adc.o
    0x0800188c   0x0800188c   0x000000b8   Code   RO         3940    i.ADC_RegularChannelConfig  stm32f10x_adc.o
    0x08001944   0x08001944   0x0000000a   Code   RO         3941    i.ADC_ResetCalibration  stm32f10x_adc.o
    0x0800194e   0x0800194e   0x00000016   Code   RO         3943    i.ADC_SoftwareStartConvCmd  stm32f10x_adc.o
    0x08001964   0x08001964   0x0000000a   Code   RO         3945    i.ADC_StartCalibration  stm32f10x_adc.o
    0x0800196e   0x0800196e   0x00000002   PAD
    0x08001970   0x08001970   0x00000110   Code   RO         1081    i.AllMotorErrorCheck  behaviormanage.o
    0x08001a80   0x08001a80   0x0000009c   Code   RO         1465    i.BMI160_Init       bmi160.o
    0x08001b1c   0x08001b1c   0x00000030   Code   RO          595    i.BMI160_ReadOneByteFromSlave  spi.o
    0x08001b4c   0x08001b4c   0x00000104   Code   RO         1466    i.BMI160_SPI_GetACC  bmi160.o
    0x08001c50   0x08001c50   0x00000158   Code   RO         1467    i.BMI160_SPI_GetGyro  bmi160.o
    0x08001da8   0x08001da8   0x00000010   Code   RO         1468    i.BMI160_SPI_GetID  bmi160.o
    0x08001db8   0x08001db8   0x00000076   Code   RO         1469    i.BMI160_SPI_GetOffset  bmi160.o
    0x08001e2e   0x08001e2e   0x00000002   PAD
    0x08001e30   0x08001e30   0x00000030   Code   RO          596    i.BMI160_WriteOneByteToSlave  spi.o
    0x08001e60   0x08001e60   0x00000004   Code   RO          271    i.BusFault_Handler  stm32f10x_it.o
    0x08001e64   0x08001e64   0x0000003c   Code   RO          637    i.DMA1_Channel1_IRQHandler  adc.o
    0x08001ea0   0x08001ea0   0x0000001c   Code   RO         4134    i.DMA_ClearFlag     stm32f10x_dma.o
    0x08001ebc   0x08001ebc   0x0000001c   Code   RO         4135    i.DMA_ClearITPendingBit  stm32f10x_dma.o
    0x08001ed8   0x08001ed8   0x00000018   Code   RO         4136    i.DMA_Cmd           stm32f10x_dma.o
    0x08001ef0   0x08001ef0   0x0000014c   Code   RO         4137    i.DMA_DeInit        stm32f10x_dma.o
    0x0800203c   0x0800203c   0x00000008   Code   RO         4138    i.DMA_GetCurrDataCounter  stm32f10x_dma.o
    0x08002044   0x08002044   0x0000002c   Code   RO         4139    i.DMA_GetFlagStatus  stm32f10x_dma.o
    0x08002070   0x08002070   0x0000002c   Code   RO         4140    i.DMA_GetITStatus   stm32f10x_dma.o
    0x0800209c   0x0800209c   0x00000012   Code   RO         4141    i.DMA_ITConfig      stm32f10x_dma.o
    0x080020ae   0x080020ae   0x0000003c   Code   RO         4142    i.DMA_Init          stm32f10x_dma.o
    0x080020ea   0x080020ea   0x00000002   PAD
    0x080020ec   0x080020ec   0x00000208   Code   RO         5022    i.DROP_AD_Printf    testfun.o
    0x080022f4   0x080022f4   0x00000098   Code   RO         5117    i.DataScope_Data_Generate  datascope_dp.o
    0x0800238c   0x0800238c   0x000000a4   Code   RO         5118    i.DataScope_Get_Channel_Data  datascope_dp.o
    0x08002430   0x08002430   0x00000002   Code   RO          272    i.DebugMon_Handler  stm32f10x_it.o
    0x08002432   0x08002432   0x00000002   PAD
    0x08002434   0x08002434   0x0000007c   Code   RO         1082    i.DropCheckUpdate   behaviormanage.o
    0x080024b0   0x080024b0   0x00000084   Code   RO          662    i.EXTI15_10_IRQHandler  exti.o
    0x08002534   0x08002534   0x00000054   Code   RO          663    i.EXTI1_IRQHandler  exti.o
    0x08002588   0x08002588   0x00000054   Code   RO          664    i.EXTI2_IRQHandler  exti.o
    0x080025dc   0x080025dc   0x00000034   Code   RO          665    i.EXTI3_IRQHandler  exti.o
    0x08002610   0x08002610   0x000000b0   Code   RO          666    i.EXTI9_5_IRQHandler  exti.o
    0x080026c0   0x080026c0   0x0000000c   Code   RO         3859    i.EXTI_ClearITPendingBit  stm32f10x_exti.o
    0x080026cc   0x080026cc   0x00000028   Code   RO         3863    i.EXTI_GetITStatus  stm32f10x_exti.o
    0x080026f4   0x080026f4   0x00000094   Code   RO         3864    i.EXTI_Init         stm32f10x_exti.o
    0x08002788   0x08002788   0x0000001c   Code   RO         5119    i.Float2Byte        datascope_dp.o
    0x080027a4   0x080027a4   0x00000040   Code   RO         4209    i.GPIO_EXTILineConfig  stm32f10x_gpio.o
    0x080027e4   0x080027e4   0x00000116   Code   RO         4212    i.GPIO_Init         stm32f10x_gpio.o
    0x080028fa   0x080028fa   0x00000002   PAD
    0x080028fc   0x080028fc   0x00000090   Code   RO         4214    i.GPIO_PinRemapConfig  stm32f10x_gpio.o
    0x0800298c   0x0800298c   0x00000012   Code   RO         4216    i.GPIO_ReadInputDataBit  stm32f10x_gpio.o
    0x0800299e   0x0800299e   0x00000004   Code   RO         4219    i.GPIO_ResetBits    stm32f10x_gpio.o
    0x080029a2   0x080029a2   0x00000004   Code   RO         4220    i.GPIO_SetBits      stm32f10x_gpio.o
    0x080029a6   0x080029a6   0x00000002   PAD
    0x080029a8   0x080029a8   0x00000120   Code   RO         1438    i.GetDropAdValue    applicationdropcheck.o
    0x08002ac8   0x08002ac8   0x0000000c   Code   RO         1550    i.GetGyroValue_Z    bmi160_data.o
    0x08002ad4   0x08002ad4   0x00000010   Code   RO          515    i.GetOSRunTimeNow   systemtime.o
    0x08002ae4   0x08002ae4   0x00000004   Code   RO          273    i.HardFault_Handler  stm32f10x_it.o
    0x08002ae8   0x08002ae8   0x00000050   Code   RO          777    i.IIC_Ack           myiic.o
    0x08002b38   0x08002b38   0x00000050   Code   RO          778    i.IIC_NAck          myiic.o
    0x08002b88   0x08002b88   0x0000004c   Code   RO          779    i.IIC_Start         myiic.o
    0x08002bd4   0x08002bd4   0x0000004c   Code   RO          780    i.IIC_Stop          myiic.o
    0x08002c20   0x08002c20   0x00000004   Code   RO          274    i.MemManage_Handler  stm32f10x_it.o
    0x08002c24   0x08002c24   0x000000c4   Code   RO          517    i.MultipleTimeoutCheck  systemtime.o
    0x08002ce8   0x08002ce8   0x00000002   Code   RO          275    i.NMI_Handler       stm32f10x_it.o
    0x08002cea   0x08002cea   0x00000002   PAD
    0x08002cec   0x08002cec   0x00000070   Code   RO         2930    i.NVIC_Init         misc.o
    0x08002d5c   0x08002d5c   0x00000014   Code   RO         2931    i.NVIC_PriorityGroupConfig  misc.o
    0x08002d70   0x08002d70   0x00000018   Code   RO         3658    i.RCC_ADCCLKConfig  stm32f10x_rcc.o
    0x08002d88   0x08002d88   0x00000020   Code   RO         3659    i.RCC_AHBPeriphClockCmd  stm32f10x_rcc.o
    0x08002da8   0x08002da8   0x00000020   Code   RO         3660    i.RCC_APB1PeriphClockCmd  stm32f10x_rcc.o
    0x08002dc8   0x08002dc8   0x00000020   Code   RO         3661    i.RCC_APB1PeriphResetCmd  stm32f10x_rcc.o
    0x08002de8   0x08002de8   0x00000020   Code   RO         3662    i.RCC_APB2PeriphClockCmd  stm32f10x_rcc.o
    0x08002e08   0x08002e08   0x00000020   Code   RO         3663    i.RCC_APB2PeriphResetCmd  stm32f10x_rcc.o
    0x08002e28   0x08002e28   0x000000d4   Code   RO         3670    i.RCC_GetClocksFreq  stm32f10x_rcc.o
    0x08002efc   0x08002efc   0x00000054   Code   RO          597    i.SPI2_SendByte     spi.o
    0x08002f50   0x08002f50   0x00000018   Code   RO         3519    i.SPI_Cmd           stm32f10x_spi.o
    0x08002f68   0x08002f68   0x00000012   Code   RO         3527    i.SPI_I2S_GetFlagStatus  stm32f10x_spi.o
    0x08002f7a   0x08002f7a   0x00000006   Code   RO         3530    i.SPI_I2S_ReceiveData  stm32f10x_spi.o
    0x08002f80   0x08002f80   0x00000004   Code   RO         3531    i.SPI_I2S_SendData  stm32f10x_spi.o
    0x08002f84   0x08002f84   0x0000003c   Code   RO         3532    i.SPI_Init          stm32f10x_spi.o
    0x08002fc0   0x08002fc0   0x00000018   Code   RO         1551    i.SetAccValue_X     bmi160_data.o
    0x08002fd8   0x08002fd8   0x00000018   Code   RO         1552    i.SetAccValue_Y     bmi160_data.o
    0x08002ff0   0x08002ff0   0x00000018   Code   RO         1553    i.SetAccValue_Z     bmi160_data.o
    0x08003008   0x08003008   0x0000000c   Code   RO         1554    i.SetGyroValue_X    bmi160_data.o
    0x08003014   0x08003014   0x0000000c   Code   RO         1555    i.SetGyroValue_Y    bmi160_data.o
    0x08003020   0x08003020   0x0000000c   Code   RO         1556    i.SetGyroValue_Z    bmi160_data.o
    0x0800302c   0x0800302c   0x0000000c   Code   RO         1788    i.SetNeedCharge     applicationpowerchip.o
    0x08003038   0x08003038   0x00000008   Code   RO          342    i.SetSysClock       system_stm32f10x.o
    0x08003040   0x08003040   0x000000e0   Code   RO          343    i.SetSysClockTo72   system_stm32f10x.o
    0x08003120   0x08003120   0x000000b2   Code   RO          519    i.SingleTimeoutCheck  systemtime.o
    0x080031d2   0x080031d2   0x00000028   Code   RO         2934    i.SysTick_CLKSourceConfig  misc.o
    0x080031fa   0x080031fa   0x00000010   Code   RO          409    i.SysTick_Handler   delay.o
    0x0800320a   0x0800320a   0x00000002   PAD
    0x0800320c   0x0800320c   0x00000060   Code   RO          345    i.SystemInit        system_stm32f10x.o
    0x0800326c   0x0800326c   0x00000080   Code   RO         2966    i.TI1_Config        stm32f10x_tim.o
    0x080032ec   0x080032ec   0x00000098   Code   RO         2967    i.TI2_Config        stm32f10x_tim.o
    0x08003384   0x08003384   0x00000090   Code   RO         2968    i.TI3_Config        stm32f10x_tim.o
    0x08003414   0x08003414   0x00000098   Code   RO         2969    i.TI4_Config        stm32f10x_tim.o
    0x080034ac   0x080034ac   0x0000010c   Code   RO         1002    i.TIM1_CC_IRQHandler  timecapture.o
    0x080035b8   0x080035b8   0x000000e4   Code   RO         1003    i.TIM1_CH12WheelCaptureInit  timecapture.o
    0x0800369c   0x0800369c   0x00000010   Code   RO         1004    i.TIM1_Capture_Init  timecapture.o
    0x080036ac   0x080036ac   0x000000a0   Code   RO          954    i.TIM3_CH34_Init    timepwm.o
    0x0800374c   0x0800374c   0x0000000e   Code   RO          955    i.TIM3_PWM_Init     timepwm.o
    0x0800375a   0x0800375a   0x00000002   PAD
    0x0800375c   0x0800375c   0x000000c0   Code   RO          956    i.TIM4_CH234_Init   timepwm.o
    0x0800381c   0x0800381c   0x0000001c   Code   RO          957    i.TIM4_PWM_Init     timepwm.o
    0x08003838   0x08003838   0x00000090   Code   RO          958    i.TIM5_CH2_FanInit  timepwm.o
    0x080038c8   0x080038c8   0x0000000e   Code   RO          959    i.TIM5_PWM_Init     timepwm.o
    0x080038d6   0x080038d6   0x00000002   PAD
    0x080038d8   0x080038d8   0x0000002c   Code   RO          707    i.TIM6_IRQHandler   timer.o
    0x08003904   0x08003904   0x0000002c   Code   RO         1005    i.TIM8_CC_IRQHandler  timecapture.o
    0x08003930   0x08003930   0x000000c0   Code   RO         1006    i.TIM8_CH4_FanCaptureInit  timecapture.o
    0x080039f0   0x080039f0   0x0000000e   Code   RO         1007    i.TIM8_Capture_Init  timecapture.o
    0x080039fe   0x080039fe   0x00000006   Code   RO         2976    i.TIM_ClearFlag     stm32f10x_tim.o
    0x08003a04   0x08003a04   0x00000006   Code   RO         2977    i.TIM_ClearITPendingBit  stm32f10x_tim.o
    0x08003a0a   0x08003a0a   0x00000018   Code   RO         2982    i.TIM_Cmd           stm32f10x_tim.o
    0x08003a22   0x08003a22   0x00000002   PAD
    0x08003a24   0x08003a24   0x000001e8   Code   RO         2987    i.TIM_DeInit        stm32f10x_tim.o
    0x08003c0c   0x08003c0c   0x00000006   Code   RO         2997    i.TIM_GetCapture1   stm32f10x_tim.o
    0x08003c12   0x08003c12   0x00000006   Code   RO         2998    i.TIM_GetCapture2   stm32f10x_tim.o
    0x08003c18   0x08003c18   0x00000008   Code   RO         3000    i.TIM_GetCapture4   stm32f10x_tim.o
    0x08003c20   0x08003c20   0x00000022   Code   RO         3003    i.TIM_GetITStatus   stm32f10x_tim.o
    0x08003c42   0x08003c42   0x00000002   PAD
    0x08003c44   0x08003c44   0x000000ac   Code   RO         3005    i.TIM_ICInit        stm32f10x_tim.o
    0x08003cf0   0x08003cf0   0x00000012   Code   RO         3007    i.TIM_ITConfig      stm32f10x_tim.o
    0x08003d02   0x08003d02   0x00000002   PAD
    0x08003d04   0x08003d04   0x000000a4   Code   RO         3016    i.TIM_OC2Init       stm32f10x_tim.o
    0x08003da8   0x08003da8   0x0000001a   Code   RO         3019    i.TIM_OC2PreloadConfig  stm32f10x_tim.o
    0x08003dc2   0x08003dc2   0x00000002   PAD
    0x08003dc4   0x08003dc4   0x000000a0   Code   RO         3021    i.TIM_OC3Init       stm32f10x_tim.o
    0x08003e64   0x08003e64   0x00000012   Code   RO         3024    i.TIM_OC3PreloadConfig  stm32f10x_tim.o
    0x08003e76   0x08003e76   0x00000002   PAD
    0x08003e78   0x08003e78   0x0000007c   Code   RO         3026    i.TIM_OC4Init       stm32f10x_tim.o
    0x08003ef4   0x08003ef4   0x0000001a   Code   RO         3028    i.TIM_OC4PreloadConfig  stm32f10x_tim.o
    0x08003f0e   0x08003f0e   0x00000006   Code   RO         3031    i.TIM_PrescalerConfig  stm32f10x_tim.o
    0x08003f14   0x08003f14   0x00000004   Code   RO         3044    i.TIM_SetCompare2   stm32f10x_tim.o
    0x08003f18   0x08003f18   0x00000004   Code   RO         3045    i.TIM_SetCompare3   stm32f10x_tim.o
    0x08003f1c   0x08003f1c   0x00000006   Code   RO         3046    i.TIM_SetCompare4   stm32f10x_tim.o
    0x08003f22   0x08003f22   0x00000004   Code   RO         3047    i.TIM_SetCounter    stm32f10x_tim.o
    0x08003f26   0x08003f26   0x00000012   Code   RO         3048    i.TIM_SetIC1Prescaler  stm32f10x_tim.o
    0x08003f38   0x08003f38   0x0000001a   Code   RO         3049    i.TIM_SetIC2Prescaler  stm32f10x_tim.o
    0x08003f52   0x08003f52   0x00000012   Code   RO         3050    i.TIM_SetIC3Prescaler  stm32f10x_tim.o
    0x08003f64   0x08003f64   0x0000001a   Code   RO         3051    i.TIM_SetIC4Prescaler  stm32f10x_tim.o
    0x08003f7e   0x08003f7e   0x00000002   PAD
    0x08003f80   0x08003f80   0x000000a4   Code   RO         3053    i.TIM_TimeBaseInit  stm32f10x_tim.o
    0x08004024   0x08004024   0x000000a4   Code   RO          453    i.USART1_IRQHandler  usart1.o
    0x080040c8   0x080040c8   0x00000018   Code   RO         4324    i.USART_Cmd         stm32f10x_usart.o
    0x080040e0   0x080040e0   0x00000012   Code   RO         4325    i.USART_DMACmd      stm32f10x_usart.o
    0x080040f2   0x080040f2   0x0000001a   Code   RO         4327    i.USART_GetFlagStatus  stm32f10x_usart.o
    0x0800410c   0x0800410c   0x00000054   Code   RO         4328    i.USART_GetITStatus  stm32f10x_usart.o
    0x08004160   0x08004160   0x0000004a   Code   RO         4330    i.USART_ITConfig    stm32f10x_usart.o
    0x080041aa   0x080041aa   0x00000002   PAD
    0x080041ac   0x080041ac   0x000000d8   Code   RO         4331    i.USART_Init        stm32f10x_usart.o
    0x08004284   0x08004284   0x0000000a   Code   RO         4338    i.USART_ReceiveData  stm32f10x_usart.o
    0x0800428e   0x0800428e   0x00000002   PAD
    0x08004290   0x08004290   0x00000068   Code   RO         1083    i.UltraSonicCheckUpdate  behaviormanage.o
    0x080042f8   0x080042f8   0x00000004   Code   RO          276    i.UsageFault_Handler  stm32f10x_it.o
    0x080042fc   0x080042fc   0x00000028   Code   RO         5436    i.__ARM_fpclassify  m_ws.l(fpclassify.o)
    0x08004324   0x08004324   0x000000aa   Code   RO         5438    i.__kernel_poly     m_ws.l(poly.o)
    0x080043ce   0x080043ce   0x00000006   Code   RO         5355    i.__mathlib_dbl_infnan  m_ws.l(dunder.o)
    0x080043d4   0x080043d4   0x00000004   Code   RO         5356    i.__mathlib_dbl_infnan2  m_ws.l(dunder.o)
    0x080043d8   0x080043d8   0x00000010   Code   RO         5360    i.__mathlib_dbl_underflow  m_ws.l(dunder.o)
    0x080043e8   0x080043e8   0x0000000e   Code   RO         5204    i._is_digit         c_w.l(__printf_wp.o)
    0x080043f6   0x080043f6   0x00000004   Code   RO          454    i._sys_exit         usart1.o
    0x080043fa   0x080043fa   0x00000002   PAD
    0x080043fc   0x080043fc   0x00000220   Code   RO         5345    i.atan              m_ws.l(atan.o)
    0x0800461c   0x0800461c   0x00000180   Code   RO         5302    i.atan2             m_ws.l(atan2.o)
    0x0800479c   0x0800479c   0x0000000c   Code   RO         1737    i.bGetClashFlag     application_ultrasonic.o
    0x080047a8   0x080047a8   0x0000005c   Code   RO          410    i.delay_init        delay.o
    0x08004804   0x08004804   0x00000040   Code   RO          411    i.delay_ms          delay.o
    0x08004844   0x08004844   0x00000048   Code   RO          412    i.delay_us          delay.o
    0x0800488c   0x0800488c   0x000001c8   Code   RO         1355    i.eKey1State        applicationkey.o
    0x08004a54   0x08004a54   0x000001c8   Code   RO         1356    i.eKey2State        applicationkey.o
    0x08004c1c   0x08004c1c   0x0000005c   Code   RO         1185    i.fMath_FindMaxDiff  mymath.o
    0x08004c78   0x08004c78   0x0000006c   Code   RO         1738    i.fUltrasonic_Distance_Caculate  application_ultrasonic.o
    0x08004ce4   0x08004ce4   0x0000001c   Code   RO          455    i.fputc             usart1.o
