:020000040800F2
:10000000F8AF00207D0200084D0C0008F90B000835
:10001000490C0008450700082B13000800000000E9
:10002000000000000000000000000000E5010008E2
:1000300039090008000000002902000851100008DA
:10004000970200089702000897020008970200082C
:10005000970200089702000897020008970200081C
:10006000970200089702000897020008970200080C
:1000700097020008970200089702000897020008FC
:1000800097020008970200089702000897020008EC
:1000900097020008970200089702000897020008DC
:1000A00097020008970200089702000897020008CC
:1000B00097020008970200089702000897020008BC
:1000C00097020008970200089702000897020008AC
:1000D00097020008C1100008970200089702000864
:1000E000970200089702000897020008970200088C
:1000F000970200089702000897020008970200087C
:10010000970200089702000897020008970200086B
:10011000970200089702000897020008970200085B
:10012000970200089702000897020008970200084B
:1001300000F002F800F042F80AA090E8000C8244B7
:100140008344AAF10107DA4501D100F037F8AFF294
:10015000090EBAE80F0013F0010F18BFFB1A43F0A5
:1001600001031847B83E0000D83E0000103A24BFF3
:1001700078C878C1FAD8520724BF30C830C144BF0C
:1001800004680C607047000000230024002500264E
:10019000103A28BF78C1FBD8520728BF30C148BFEA
:1001A0000B607047642900F0F580732900F002822B
:1001B000002070471FB51FBD10B510BD00F08FFAAD
:1001C0001146FFF7F7FF01F0D5F900F0ADFA03B4DF
:1001D000FFF7F2FF03BC01F0AAF8000080F30888E3
:1001E00070470000224B19680868B0E8F00F80F3F0
:1001F0000988BFF36F8F4FF0000080F311884EF035
:100200000D0E70470000000006480068006880F38B
:10021000088862B661B6BFF34F8FBFF36F8F00DF00
:1002200000BF00BF08ED00E0EFF30980BFF36F8F60
:100230000F4B1A6820E9F00F106008B54FF050001E
:1002400080F31188BFF34F8FBFF36F8F02F03EFE34
:100250004FF0000080F31188BDE808401968086875
:10026000B0E8F00F80F30988BFF36F8F704700BFCD
:1002700060000020EFF305807047000009488047C8
:1002800009480047FEE7FEE7FEE7FEE7FEE7FEE778
:10029000FEE7FEE7FEE7FEE704480549054A064B90
:1002A000704700006110000831010008F8A5002027
:1002B000F8AF0020F8A70020F8A700207047000042
:1002C0000FB4044910B503AA029800F077F910BCE6
:1002D0005DF814FB280000202DE9F0410E4604468D
:1002E000002020622046E168884730B3252805D0E9
:1002F000D4E901219047206A401CF2E7E1682046DA
:1003000000278847050018D0A5F14100192802D818
:1003100020354FF400673246294620462760FFF714
:1003200041FF40B1012804D0F61D26F0070608362B
:10033000D8E7361DD6E72846DAE7206ABDE8F0811F
:1003400070B50C460546012A05D02878800600D5F0
:10035000EA69002302E0012305E05B1C934202D21C
:10036000E05C0028F9D1A869E618C01AA861286ADB
:10037000184428622846AFF3008004E0D5E9012143
:1003800014F8010B9047B442F8D32846AFF300802D
:1003900070BD00002DE9F041064600241068752963
:1003A000314616A510D0AFF30080002802DA404293
:1003B00013A507E031688A0701D512A502E04907B5
:1003C00004D511A5012401E0AFF3008000210A2229
:1003D00006F1240709E0B0FBF2FCB0FBF2F302FBEC
:1003E0001C00303078541846491C0028F3D12346AD
:1003F0002A463046BDE8F04100F059B80000000040
:100400002D0000002B00000020000000032A40F215
:10041000308010F0030C00F0158011F8013BBCF1A6
:10042000020F624498BF11F801CB00F8013B38BFBE
:1004300011F8013BA2F1040298BF00F801CB38BFCC
:1004400000F8013B11F0030300F0CA80083AC0F045
:10045000088051F8043B083A51F804CBA0E8081092
:10046000F5E7121D5CBF51F8043B40F8043BAFF3C5
:100470000080D20724BF11F8013B11F801CB48BF1F
:1004800011F8012B24BF00F8013B00F801CB48BF55
:1004900000F8012B704702F0FF0343EA032242EA0F
:1004A000024200F0D1B870477047704770472DE99D
:1004B000F0470D4699469246044600F1240801682B
:1004C000880604D5E06921F01001216000E00120D8
:1004D000A84201DD471B00E00027A1697A1902EB61
:1004E0000900081AA0612078C00602D42046AFF3A4
:1004F0000080002608E0D4E901211AF806009047A0
:10050000206A401C761C20624E45F4DB2078C00631
:100510000AD52046AFF3008006E0D4E9012130205F
:100520009047206A401C2062381EA7F10107F4DCC6
:1005300007E0D4E9012118F805009047206A401C23
:100540002062281EA5F10105F3DC2046AFF30080F0
:100550002078000602D50220BDE8F0870120FBE7E5
:1005600001694A1C02610878704700B58FB0CDE977
:1005700001310021059105497944CDE90310114667
:100580006846FFF7A9FE0FB000BD0000E5FFFFFFC2
:1005900010B5436913B1AFF3008001E0FFF7D0FE5F
:1005A000012010BD127800F124010A7000224A7067
:1005B0000122EDE711684FF0FF32E9E7074B70B514
:1005C0000D467B44FFF7D1FF0446284600F05CF857
:1005D00010B14FF0FF3070BD204670BDFF0E00001F
:1005E00010B5203AC0F00B80B1E81850203AA0E8CE
:1005F0001850B1E81850A0E81850BFF4F5AF5FEA02
:10060000027C24BFB1E81850A0E8185044BF18C9B4
:1006100018C0BDE810405FEA827C24BF51F8043B5B
:1006200040F8043B08BF7047D20728BF31F8023BAF
:1006300048BF11F8012B28BF20F8023B48BF00F843
:10064000012B70474FF000020429C0F0128010F017
:10065000030C00F01F80CCF1040CBCF1020F18BF9A
:1006600000F8012BA8BF20F8022BA1EB0C0100F031
:1006700011B85FEAC17C24BF00F8012B00F8012B00
:1006800048BF00F8012B7047007B00F080007047E6
:100690004FF0000200B5134694469646203922BF1B
:1006A000A0E80C50A0E80C50B1F12001BFF4F7AF66
:1006B000090728BFA0E80C5048BF0CC05DF804EB48
:1006C000890028BF40F8042B08BF704748BF20F8B6
:1006D000022B11F0804F18BF00F8012B70477546B0
:1006E00000F02CF8AE4605006946534620F007009E
:1006F000854618B020B5FFF7CFFDBDE820404FF08C
:1007000000064FF000074FF000084FF0000B21F0FB
:100710000701AC46ACE8C009ACE8C009ACE8C009C8
:10072000ACE8C0098D46704710B50446AFF30080B1
:100730002046BDE81040FFF74ABD00000048704762
:1007400098A5002000BFFEE700F0805111B10349D9
:10075000086001E00249486070470000040402405C
:100760000000024021B1026842F00102026004E090
:1007700002684FF6FE731A400260704701684FF638
:10078000FE72114001600021016041608160C16022
:100790004B49884208D14A490839496841F00F015C
:1007A000474A083A51608AE045491431884208D1E5
:1007B00043490839496841F0F001414A083A51601B
:1007C0007DE03F492831884208D13D4908394968D0
:1007D00041F470613A4A083A516070E038493C315E
:1007E000884208D136490839496841F47041344A91
:1007F000083A516063E032495031884208D13049AB
:100800000839496841F470212D4A083A516056E090
:100810002B496431884208D129490839496841F493
:100820007001274A083A516049E0254978318842E9
:1008300008D123490839496841F07061204A083AD3
:1008400051603CE01F49884206D1011F096841F010
:100850000F01021F116032E01A491431884208D199
:100860001849091F096841F0F001164A121F11606A
:1008700025E014492831884208D11249091F096826
:1008800041F470610F4A121F116018E00D493C31AC
:10089000884208D10B49091F096841F47041094A8F
:1008A000121F11600BE007495031884207D10549FA
:1008B000091F096841F47021024A121F1160704734
:1008C00008000240080402400146486880B27047B0
:1008D00001460020002201F0805313B1054B1A6835
:1008E00001E0054B1A6802EA01030BB1012000E0A8
:1008F00000207047000402400000024010B50022B2
:10090000026847F6F0739A430C6A8B6823430C69BC
:1009100023434C6923438C692343CC6923434C6AAA
:1009200023438C6A23431A430260CB6843600B68FD
:1009300083604B68C36010BD7047000030B504464B
:1009400004254FF4302000F06FF80546042D17D130
:100950000C48006940F002000A49086108464461F9
:10096000006940F0400008614FF4302000F05CF86E
:1009700005460448006941F6FD71084001490861D7
:10098000284630BD0020024004200B49C96801F010
:10099000010109B101200EE00749C96801F0040115
:1009A00009B1022007E00449C96801F0100109B14A
:1009B000032000E004207047002002400348006943
:1009C00040F08000014908617047000000200240AB
:1009D00070B504460D460426F00200F025F80646E0
:1009E000042E11D10948006940F00100074908614F
:1009F0002580F00200F018F806460448006941F628
:100A0000FE71084001490861304670BD0020024077
:100A1000024803494860034848607047230167451E
:100A200000200240AB89EFCD00B502460423FFF75A
:100A3000ABFF034603E0FFF7A7FF0346521E012B5F
:100A400001D1002AF7D102B90523184600BD2DE9CE
:100A5000F041024600250026002000230024002744
:100A600091F803C00CF00F0591F803C00CF0100CC6
:100A7000BCF1000F03D091F802C04CEA050591F8D3
:100A800000C0BCF1000F31D0146800202BE04FF003
:100A9000010C0CFA00F3B1F800C00CEA03069E4208
:100AA00020D183004FF00F0C0CFA03F7BC4305FA7A
:100AB00003FC4CEA040491F803C0BCF1280F06D1F2
:100AC0004FF0010C0CFA00FCC2F814C00AE091F8D7
:100AD00003C0BCF1480F05D14FF0010C0CFA00FC2B
:100AE000C2F810C0401C0828D1D31460B1F800C06F
:100AF000BCF1FF0F34DD546800202EE000F1080C3B
:100B00004FF0010808FA0CF3B1F800C00CEA030634
:100B10009E4221D183004FF00F0C0CFA03F7BC4327
:100B200005FA03FC4CEA040491F803C0BCF1280F59
:100B300005D100F1080C08FA0CF8C2F8148091F8FD
:100B400003C0BCF1480F07D100F1080C4FF00108B9
:100B500008FA0CF8C2F81080401C0828CED3546064
:100B6000BDE8F081F0B50A460023002400210025ED
:100B700000F00046B6F1004F02D11D4EF16901E0D0
:100B80001B4E7168C0F3034583B200F44016B6F5FE
:100B9000401F08D121F07061154E766826F070660E
:100BA000134F7E6012E000F48016B6F5801F06D168
:100BB000032606FA05F4A14341F0706106E0460DF4
:100BC000360103FA06F6B14341F0706122B1460DD9
:100BD000360103FA06F6314300F00046B6F1004F45
:100BE00002D1034EF16101E0014E7160F0BD0000E1
:100BF000000001400161704700BFFEE708B5012118
:100C0000482000F087F82020ADF8000010208DF873
:100C1000030003208DF8020069460948FFF717FF1B
:100C200020210748FFF7E6FF2020ADF800006946C5
:100C30000448FFF70CFF20210248FFF7DBFF08BD47
:100C4000000C01400018014000BFFEE770470000A3
:100C500070B5002100230F22C47804B3154C24681A
:100C600004F4E064C4F5E064210AC1F10403CA405D
:100C7000447804FA03F184781440214309010E4CAE
:100C80000678A155047804F01F050124AC400578CE
:100C90006D11AD0005F1E025C5F8004109E00478CB
:100CA00004F01F050124AC40044D0678761145F888
:100CB000264070BD0CED00E000E400E080E100E0C3
:100CC00002490143024A1160704700000000FA0522
:100CD0000CED00E029B1064A52690243044B5A6107
:100CE00004E0034A52698243014B5A617047000095
:100CF0000010024029B1064AD2690243044BDA616E
:100D000004E0034AD2698243014BDA617047000074
:100D10000010024029B1064A92690243044B9A61CD
:100D200004E0034A92698243014B9A6170470000D4
:100D30000010024030B500210022002400232D4D78
:100D40006D6805F00C0121B1042905D0082923D1D3
:100D500005E0294D056022E0274D05601FE0254D87
:100D60006D6805F47012234D6D6805F4803402251A
:100D700005EB92421CB9214D554305600BE01D4D1A
:100D80006D6805F400351DB11C4D5543056002E04A
:100D9000194D5543056002E0174D056000BF00BFC7
:100DA000144D6D6805F0F0010909154D6B5C05687F
:100DB000DD4045600F4D6D6805F4E061090A104D96
:100DC0006B5C4568DD4085600A4D6D6805F46051D7
:100DD000C90A0B4D6B5C4568DD40C560054D6D680B
:100DE00005F44041890B074D6B5CC568B5FBF3F515
:100DF000056130BD0010024000127A0000093D007C
:100E00004B0000205B00002030B503460C46154621
:100E1000002207E0184600F008F824F812009B1C96
:100E2000501C82B2AA42F5DB30BD014608887047EB
:100E30002DE9F05F80468A461746B8F1006F02D36D
:100E40003348804501D3BDE8F09FFFF7E1FDA8F1ED
:100E5000006B4FEADB25CBF34909C9F58064A74253
:100E600000DC3C464DE04FF0006101EBC5204A1428
:100E70002849FFF7C9FF00260BE009EB06002549CA
:100E800031F810004FF6FF71884200D003E0701C6B
:100E900086B2A642F1DB00BFA6421BDA4FF000612A
:100EA00001EBC520FFF74AFD002608E03AF81600DE
:100EB00006EB0901174A22F81100701C86B2A642FF
:100EC000F4DB4FF0006101EBC5204A14114900F03A
:100ED00023F804E022465146404600F01DF8A742A0
:100EE00000D10FE06D1C4FF000090AEB440AA0444A
:100EF000381B87B2B7F5806F02DD4FF4806400E0E5
:100F00003C46B0E700BFFFF759FD00BF9BE700007C
:100F100000000808F82800202DE9F04105460E469B
:100F20001746002407E036F814102846FFF750FD56
:100F3000AD1C601C84B2BC42F5DBBDE8F08110B58D
:100F400000F002F810BD00000CB5002001900090E8
:100F50003348006840F480303149086000BF3048B1
:100F6000006800F4003000900198401C0190009847
:100F700018B90198B0F5A06FF1D12948006800F4C4
:100F8000003010B10120009001E000200090009896
:100F9000012843D12348006840F01000214908602F
:100FA0000846006820F0030008600846006840F02A
:100FB000020008601A4840681949486008464068BD
:100FC00048600846406840F48060486008464068D1
:100FD00020F47C1048600846406840F4E8104860FF
:100FE0000846006840F08070086000BF0C48006848
:100FF00000F000700028F9D00948406820F0030094
:10100000074948600846406840F00200486000BF59
:101010000348406800F00C000828F9D10CBD00001E
:101020000010024000200240042808D14FF0E021C7
:10103000096941F004014FF0E022116107E04FF02F
:10104000E021096921F004014FF0E02211617047AD
:1010500010B502F03BFD012801D002F0BDF910BD32
:1010600010B51348006840F00100114908600846B7
:101070004068104908400E494860084600680E491B
:1010800008400B4908600846006820F4802008608A
:101090000846406820F4FE0048604FF41F00886056
:1010A000FFF74DFF4FF000600449086010BD0000DD
:1010B000001002400000FFF8FFFFF6FE08ED00E020
:1010C00010B540F22551214800F06EF8C0B120481B
:1010D00000785A2839DA1D4800F022F9C1B21D48BB
:1010E0000078C0EB001000EB40001B4A02EB40020E
:1010F000174803780078401C154C2070D15424E028
:1011000040F22441114800F04FF8F0B10F48008838
:101110000E48001D00880E48007810490D4A1278CC
:1011200088540C480078401C052801D1002002E0BA
:1011300008480078401C0749087009480078401C9E
:101140000749087000200249087010BD00380140AE
:101150004A00002038000020A23B00203000002080
:101160003900002021B1828942F40052828104E0DA
:1011700082894DF6FF731A40828170471AB1838AC3
:101180000B43838202E0838A8B438382704702464B
:101190000020B1F5007F00D100BF13880B400BB1D8
:1011A000012000E00020704770B5024600240023B3
:1011B0000025002040F66A16B14200D100BFC1F3FD
:1011C000421501F01F03012606FA03F3012D02D197
:1011D0009689334006E0022D02D1168A334001E0A1
:1011E000968A33400C12012606FA04F4168834401D
:1011F00013B10CB1012000E0002070BDF0B5034632
:10120000002400260025002040F66A17B94200D1CC
:1012100000BF1846C1F3421401F01F06012707FA68
:1012200006F5012C01D10C3004E0022C01D1103064
:1012300000E014301AB107682F43076002E0076826
:10124000AF430760F0BD00002DE9F04786B00546CA
:101250000E460024A24600BFA1460027B08900B177
:1012600000BF2F462C8A4CF6FF700440F0880443E0
:101270002C82AC894EF6F3100440B08831890843C3
:10128000718908430443AC81AC8A4FF6FF400440A7
:10129000B0890443AC8201A8FFF74CFD1F48874288
:1012A00002D1DDF810A001E0DDF80CA0A88900F45F
:1012B000004040B10AEBCA0000EB0A103168490057
:1012C000B0FBF1F807E00AEBCA0000EB0A10316846
:1012D0008900B0FBF1F86420B8FBF0F004012009AC
:1012E000642101FB1089A88900F4004040B132203C
:1012F00000EBC900B0FBF1F000F00700044308E088
:10130000322000EB09106421B0FBF1F000F00F0077
:1013100004432C8106B0BDE8F0870000003801408E
:1013200001468888C0F30800704700BFFEE700BF91
:10133000704710B502460B46002103E012F8014B3E
:101340006018C1B2181EA3F10104E3B2F6D1084639
:10135000CC1701EB14642412A1EB0424E1B2FF29A1
:1013600001D1012010BD0020FCE7000010B50420D1
:10137000FFF75AFE104800681049B0FBF1F0104921
:1013800008700D4800680D49B0FBF1F44FF47A7015
:10139000444301200B4908804FF0E020006940F0F1
:1013A00002004FF0E021086108464461006940F006
:1013B0000100086110BD00001000002040420F0035
:1013C00024000020260000202DE9F04106460F46AB
:1013D00014464FF00108002569E0705DAA2800D08E
:1013E00063E0681C305CB02803DB681C305CB42808
:1013F00002DB4FF0010858E0E81C305C322802DDC7
:101400004FF0040851E0EA1CB25C521DD1B27019D1
:10141000FFF78FFF10B94FF0020846E094F83D0047
:1014200030B9012084F83D00A81C305C84F83B00F2
:1014300094F83B10A81C305C814206D0681C305CDC
:10144000B02802D04FF003082FE0002004F83C0F32
:101450000520E0700120A0703C3C681C305CB02886
:1014600004D094F83B00401C84F83B0004F10900D0
:101470006060705D2070681C305C6070A81C305C1F
:10148000A070E81C305CE070E81C315C281D08444A
:10149000305C2072E81C325C281D311804F1090010
:1014A000FEF7B4FF0520BDE8F081681C85B2BD429F
:1014B00093DB94F83C00401C84F83C0084F83F80A7
:1014C0004046F0E700BF054A128802F04002002AB9
:1014D000F9D0C2B2014B1B1D1A8070470044004076
:1014E00010B50446206807490840B0F1005F08D1F4
:1014F0006068054908602068FEF770FE02480068D1
:10150000804710BD0000FE2FD40000202DE9F05FC1
:1015100006460F4690460024B3463D46A1461CE0D1
:1015200068784FEA002A287850441FFA80FAAD1CE8
:101530002046611C8CB20E4921F810A0B4F5806FD2
:1015400007D100244FF480625846FFF771FC0BF579
:10155000006B09F102001FFA80F9C145E0D324B104
:10156000224603495846FFF763FCBDE8F09F0000A0
:101570001C9D00201CB5214800682149884202D1E9
:101580002048FFF7ADFF4FF44070FFF799FBFFF7DE
:10159000EDFEFFF733FB01F099FD01F0FFFD1A4866
:1015A00000F01AFF0020012103462822CDE9001097
:1015B00016A1194802F05AFA0020012103462822F8
:1015C000CDE9001015A11B4802F050FA00200121BE
:1015D00003467822CDE9001017A11D4802F046FA13
:1015E0000020012103467822CDE9001019A11E48F0
:1015F00002F03CFA01F00CFC00201CBD0050000879
:10160000ADDEE1FE00000108D8280020764C6564BC
:101610005F5461736B000000712800087655736198
:1016200072744461746148616E646C655461736B7B
:101630000000000025330008764672616D65446144
:10164000746148616E646C65725461736B00000074
:101650004D270008764669726D7761726557726929
:1016600074655461736B0000712600082DE9F04128
:1016700005460E461C4807681C480068001D00F01F
:1016800096FE50B91948006890F82C100120884047
:1016900017490968814316480160681C38B936B19A
:1016A00012480168091D134801F01CF91AE07C1961
:1016B0000E4800684460BC4207D20C480168091D0E
:1016C0000D48006801F0F4F80CE008480168091DB5
:1016D0000A48006801F0ECF809480068844201D229
:1016E00007480460BDE8F08174000020600000201D
:1016F00078000020E04C00206800002064000020FA
:101700009000002010B5044601F0F8F82448006865
:10171000401C234908602348006840B92148046000
:101720000846006801280DD100F0EEF90AE01E48D5
:10173000006838B91B480068C06AE16A884201D86D
:101740001848046019480068401C18490860084699
:101750000068606494F82C100120884014490968DE
:10176000084313490860E16A01EB8101114A02EB69
:101770008100211D01F0B6F801F004F90A48006863
:1017800068B108480068C06AE16A884207D24FF031
:10179000805009490860BFF34F8FBFF36F8F10BDB2
:1017A00070000020600000207C0000208C000020E1
:1017B00078000020104A002004ED00E010B501F090
:1017C0009DF810480068D0B90F4801F061F80F4843
:1017D00001F05EF80C480E4908600C480D4908609D
:1017E00000221021052001F011FE0649086008467C
:1017F000006820B108A10348006801F0B7F901F0C2
:10180000C1F810BDA4000020F44C0020084D0020B9
:101810009C000020A0000020546D725100000000C8
:1018200070B523E001F04AFB1348006808B90120B5
:1018300000E00020054602F0D5FABDB901F05EF8DF
:101840000D48C068C468201D00F0B1FD0B48006859
:10185000401E0A4908600A480068401E084908609E
:1018600001F090F8204600F060F800BF04480068DE
:101870000028D7D170BD0000CC4C002070000020A3
:101880006C00002070B504460D46206C70B1216CD0
:10189000E0680844E0606168E068884201D320683D
:1018A000E0602846226CE168FEF7B0FD70BD2DE9CE
:1018B000F04104460F4615464FF00008A66B206C19
:1018C00040B9206860BB606802F0C6F9804600201D
:1018D000606025E07DB93946226CA068FEF796FD70
:1018E000216CA0680844A060D4E90110884217D395
:1018F0002068A06014E03946226CE068FEF786FD9F
:10190000216CE068401AE0602168E068884203D2F8
:10191000216C6068401AE060022D01D106B1761E8C
:10192000701CA0634046BDE8F08110B50446206BF2
:1019300001F060F8204601F05DF810BD0146084A4C
:10194000126812680AB9012200E000220A600A68DF
:1019500022B9034A1268D268106800E0002070477C
:101960009C00002030B54FF4A043174800F0070456
:101970002CB1C01D20F00700134C041B1B1B02469A
:10198000124C22600024114D6C60D018083820F0F1
:1019900007000F4C206000240D4D2D686C600C4D2D
:1019A0002D682C601146441A4C60094C24680C6068
:1019B000084D4C682C60084D4C682C604FF000447A
:1019C000064D2C6030BD00001C4D0020B0000020F2
:1019D000B8000020C0000020BC000020C40000208F
:1019E00000BFFFF71DFF064800680128F9D94FF036
:1019F000805004490860BFF34F8FBFF36F8FF0E74B
:101A0000104A002004ED00E02DE9F04106460D46A5
:101A100017469846069C0DB9246000E02760E663EF
:101A200025640121204601F00FFE84F8508000203B
:101A3000A064BDE8F08100002DE9F05F82460F460A
:101A400090469B460A9E0C9C4FEA8801A522206B7B
:101A5000FEF721FDA8F10100216B01EB800929F0BF
:101A6000070909F0070008B9012000E0002028B9A3
:101A700040F22B321BA120A0FEF722FC002507E03C
:101A8000795D04F134004155785D00B902E06D1CC8
:101A9000102DF5D300BF002143200155202E00D387
:101AA0001F26E662E66400202065201D00F0FDFE92
:101AB00004F1180000F0F9FE2461C6F12000A061D5
:101AC00064620020606584F858005A4651464846D2
:101AD00000F000FC20600B9808B10B980460BDE892
:101AE000F09F00002E2E5C4672656552544F535C89
:101AF0007461736B732E63004572726F723A257353
:101B00002C25640D0A00000010B5002407E004EB4A
:101B100084010F4A02EB810000F0BAFE641C202C05
:101B2000F5D30C4800F0B4FE0B4800F0B1FE0B48B2
:101B300000F0AEFE0A4800F0ABFE0A4800F0A8FE36
:101B400004480949086004480849086010BD0000BD
:101B5000104A0020904C0020A44C0020B84C0020DB
:101B6000CC4C0020E04C00206400002068000020E5
:101B700010B50146164800E0006803688B42FBD3AD
:101B80000246436813448B4204D143684C682344A3
:101B9000436001460A464B6813440468A34211D1CE
:101BA0000C4C03682468A34208D04B68046864683E
:101BB00023444B6003681B680B6005E0054B1B6802
:101BC0000B6001E003680B60884200D0016010BD2B
:101BD000B0000020B80000202DE9F04104460D4679
:101BE00016461F464FF0000865602461B5420CD8C8
:101BF000F01BA169884202D34FF0010811E0211DBA
:101C00000948006800F054FE0BE0BE4204D2BD4219
:101C100002D34FF0010804E0211D0448006800F0E1
:101C200047FE4046BDE8F081A00000209C00002057
:101C300070B5054600F062FEA86B08B9012400E00B
:101C4000002400F09FFE204670BD70B5054600F0F0
:101C500055FEA86BE96B884201D1012400E0002405
:101C600000F090FE204670BD2DE9F3410D4600982E
:101C7000846C00272CB940F6CE121AA11EA0FEF7E4
:101C80001FFBA06BE16B884201D2012000E0002025
:101C900028B940F6CF1213A117A0FEF711FBA06BD5
:101CA000E16B88421BD294F945602A46694620467A
:101CB000FFF7FDFD0746701C60B9606A08B9012096
:101CC00000E0002050B904F1240002F031F828B1FE
:101CD000012703E0701C40B284F8450000BF38467D
:101CE000BDE8FC812E2E5C4672656552544F535CF4
:101CF00071756575652E63004572726F723A257352
:101D00002C25640D0A000000F8B505460F4613485F
:101D10000068C068C468201D00F049FBE069012824
:101D200018D1A06941192B463A462046FFF754FFC7
:101D300080B1002003462A4601460090204602F06A
:101D40001BF906462EB94FF4027205A10AA0FEF750
:101D5000B7FA00BF2046616A8847F8BD9C000020A2
:101D60002E2E5C4672656552544F535C74696D65E6
:101D700072732E63000000004572726F723A257311
:101D80002C25640D0A000000F0B587B070E00398C0
:101D900000280CDA04AE2EB940F2E7223AA140A0A6
:101DA000FEF78EFAD6E90020B168904700BF03988D
:101DB00000285DDB059C606908B9012000E0002077
:101DC00010B9201D00F0F3FA02A800F0C7F805468C
:101DD00003980A284AD2DFE800F00905072C2E45AF
:101DE00006082D2F00BF00BF00BF00BF0498A269E6
:101DF000811803462A462046FFF7EEFEC0B1204672
:101E0000616A8847E069012812D100200090049897
:101E1000A169421800231946204602F0ADF8074692
:101E20002FB940F2213218A11DA0FEF749FA00BFD8
:101E30001DE000BF1BE000BF0498A061A06908B1CD
:101E4000012000E0002028B94FF44E720EA114A02A
:101E5000FEF736FAA06941192B462A462046FFF7BD
:101E6000BBFE04E0204600F0C5FD00E000BF00BF5F
:101E700000231A4603A90E48006801F001FB002860
:101E800085D107B0F0BD00002E2E5C46726565520C
:101E9000544F535C74696D6572732E6300000000CB
:101EA0004572726F723A25732C25640D0A0000008A
:101EB000A4000020F8B505460C4600F0FFFF684678
:101EC00000F04CF80646009820BB44B9B54206D84D
:101ED00001F088FF31462846FFF716FF1CE03CB1B1
:101EE0000E480068006808B9012000E000200446A0
:101EF000A91B22460A48006800F04EFE01F072FF5E
:101F000050B94FF0805007490860BFF34F8FBFF3BF
:101F10006F8F01E001F066FFF8BD0000A000002017
:101F2000A400002004ED00E00A490968096809B925
:101F3000012100E0002121B14FF0FF31064A11607C
:101F400006E004490968C968C868034A4168116025
:101F500070470000640000209000002070B5044627
:101F600001F0C4FD054607480068854204D200F030
:101F70000BF80120206001E000202060014805608E
:101F8000284670BDAC0000202DE9F8432DE0214823
:101F90000068C06805681F480068C068C468201DE4
:101FA00000F005FA2046616A8847E06901281CD1E3
:101FB000A0694619AE4207D966602461211D154803
:101FC000006800F075FC10E0002003462A46014638
:101FD0000090204601F0D0FF07462FB940F2923220
:101FE0000DA113A0FEF76CF900BF0A480068006855
:101FF00008B9012000E000200028C8D00548D0F82A
:1020000000800F480068034908600D48C0F8008050
:10201000BDE8F8839C0000202E2E5C467265655258
:10202000544F535C74696D6572732E630000000039
:102030004572726F723A25732C25640D0A000000F8
:10204000A00000200B480068401C08B9012000E0F7
:10205000002020B9F42208A112A0FEF731F900BF38
:10206000502080F31188BFF34F8FBFF36F8F00BFF5
:1020700000BFFEE7C80000202E2E5C467265655248
:10208000544F535C706F727461626C655C5256445D
:10209000535C41524D5F434D335C706F72742E63DD
:1020A000000000004572726F723A25732C25640D92
:1020B0000A00000008B500BF6846FFF73FFC044671
:1020C00020460099FFF7F6FEFFF75EFEF4E770B5D5
:1020D000044600F013FC94F945501AE0A06C38B1A6
:1020E00000212046FFF7C0FD88B100F0B5FD0EE0ED
:1020F000606A08B9012000E0002038B904F124002A
:1021000001F016FE18B100F0A7FD00E003E0681E24
:1021100045B2002DE2DC00BFFF2084F8450000F04E
:1021200031FC00F0EBFB94F9445010E0206908B951
:10213000012000E0002048B904F1100001F0F8FD92
:1021400008B100F089FD681E45B200E001E0002DF5
:10215000ECDC00BFFF2084F8440000F013FC70BDED
:102160002DE9F04104464FF0000800F0A7FE3E487C
:10217000006808B9FFF7F6FB3C48006820400028DB
:102180005FD1A4B1083404F0070080B104F0070067
:10219000C0F10800044404F0070008B9012000E081
:1021A000002020B9BF2232A13BA0FEF789F8002C05
:1021B00047D03D480068844243D83C4E30460568CD
:1021C00001E02E462D686868A04202D228680028E7
:1021D000F7D125480068854233D0306800F10808FF
:1021E000286830606868001B102813D92F1907F081
:1021F000070008B9012000E0002020B9EC221CA152
:1022000025A0FEF75DF86868001B78606C603846B2
:10221000FFF7AEFC244968680968081A224908607B
:102220000846006822490968884203D21E480068AF
:102230001F4908600D496868096808436860002004
:10224000286001F0CFFD08F0070008B9012000E088
:10225000002028B94FF4967205A10FA0FEF730F8C0
:102260004046BDE8F0810000B8000020C400002016
:102270002E2E5C4672656552544F535C706F7274BB
:1022800061626C655C4D656D4D616E675C68656132
:10229000705F342E630000004572726F723A2573CE
:1022A0002C25640D0A000000BC000020B0000020B6
:1022B000C00000200648006830B10549096801F1F6
:1022C0005000096D491C016001480068704700001A
:1022D00060000020001F4FF080730360001F21F09A
:1022E00001030360001F034B0360143802602038B1
:1022F000704700004520000810B502460B4600213B
:1023000003E012F8014B6018C1B2181EA3F10104DA
:10231000E3B2F6D10846CC1701EB14642412A1EB0A
:102320000424E1B2C1F1FF0010BD70B504460E46B1
:102330001546AA202070B02060700020A0700120F7
:10234000E07004F10900606096F83F00062818D29A
:10235000DFE800F01703060911140120607210E095
:10236000022060720DE00220E0700320607296F897
:102370003B10A17205E00420607202E0052060724B
:1023800000BF00BF20682860E27804F10901281D21
:10239000FEF73CF8E078001DC1B22846FFF7ACFF1D
:1023A0002072217AE078001D2954002070BD01467A
:1023B0000A69D1E901309860D1E901035860506899
:1023C000884201D188685060002008611068401E72
:1023D0001060106870470000002100BF07E00A4A43
:1023E00002EBC123021D42F821304A1CD1B205295B
:1023F000F5DB002202604FF4006282610022027766
:102400004277827770470000D800002010B504465C
:10241000E078012819D160680078C02802D0C1286E
:1024200012D10DE000200949086002220848FEF799
:10243000FFFCC0200749087000200749086003E03E
:10244000C1200449087000BF00BF10BD000000207B
:102450000050000804000020D828002070B5044671
:10246000002600253F480078C02802D0C12876D138
:1024700074E0E0783C4909680844B0F5006F53D92E
:1024800039480068C0F50065384800682844374975
:1024900008608A7F091D51F82210334A1268881893
:1024A0002A4604F10901FDF7B1FF3048807F401C46
:1024B000C0B22E498877052801DB002001E02B48B7
:1024C000807F2A4988770846807F08B901200877ED
:1024D0002648007F012809D102E00A2000F082FB93
:1024E0002248807F2149497F8842F6D0E078461B08
:1024F00000201D49086004F1090251191B4A937F0D
:10250000121D52F82320184B1B68D0183246FDF7D5
:102510007DFF15480068304413490860134800687F
:1025200030441249086018E0E27810498B7F091D99
:1025300051F823100C4B1B68C81804F10901FDF772
:1025400065FFE078084909680844074908600748BA
:102550000068E17808440549086000E000BF00BF5A
:1025600070BD00000400002008000020D8280020D2
:1025700030B58BB005460C4601210846FEF7AAFB94
:102580000D48FEF7FBF80D480090019510200290D1
:10259000039400200490802005900020069007906E
:1025A00008904FF48050099000200A906946024834
:1025B000FEF7A4F90BB030BD4400024004380140DE
:1025C00030B58BB005460C4601210846FEF782FB6C
:1025D0000F48FEF7D3F80F480090019500200290B5
:1025E00003940490802005900020069007900890A6
:1025F0004FF48050099000200A9069460448FEF785
:102600007DF901210248FEF7ADF80BB030BD0000A6
:102610006C0002400444004030B58BB005460C46C7
:1026200001210846FEF756FB0F48FEF7A7F80F48B2
:1026300000900195102002900394002004908020C7
:10264000059000200690079008904FF48050099064
:1026500000200A9069460448FEF750F94FF00070D8
:10266000FEF772F80BB030BD800002400444004019
:102670005DE02F48007F88BB2AE02E480078C12803
:1026800023D12B4B1B682C4C24681A1B284B5C7FD6
:102690001B1D53F82410284B1B68284C1819FEF7F3
:1026A00035FF2348006824490968401A224909680F
:1026B0000844214908602248224908600222224831
:1026C000FEF7B6FB2046FEF70BFF0F2000F08AFA5C
:1026D0001748407F1649897F8842CED0144A537FDD
:1026E000121D52F82310144A1268144BD0184FF4DC
:1026F0000062FEF70BFF1048006800F500600E490D
:1027000008600B48407F401CC0B209494877052843
:1027100001DB002001E00648407F05494877084674
:10272000407F08B900200877052000F05BFAA0E799
:10273000D8280020040000200C0000200000010820
:10274000ADDEE1FE000000200050000800BF78E090
:102750003C480078002853D03B4890F83E000028C1
:102760004ED13A483A490978445C39490978C1EB75
:10277000011101EB4101374A02EB4100324A214687
:10278000FEF722FE32480078401C052801D10020C7
:1027900002E02F480078401C2D4908702948007835
:1027A000401E2849087028484078B02828D02A4878
:1027B0000078C0EB001000EB4000284901EB40021C
:1027C00021492748FFF7B1FD2548C078401DC1B217
:1027D0002448214A127881540020234908701E4859
:1027E0000078401C1E2801D1002002E01A48007821
:1027F000401C194908701D480078401C1B4908708E
:10280000114890F83E00C8B10F484078B03805280C
:102810000FD2DFE800F00304080C0D0009E00A48BD
:10282000FFF7F4FD05E00848FFF718FE01E000E0BF
:1028300000BF00BF0020044981F83E00052000F0E1
:10284000D1F985E7390000201CA5002030000020C8
:1028500036000020A23B00202E000020F83000208F
:102860005CA50020843B00202F0000202D000020CC
:1028700009E005480068C0430449C1F894014FF4D9
:10288000FA7000F0AFF9F4E7948121420080214210
:1028900000F1080141604FF0FF31816000F1080153
:1028A000C160016100210160704700210161704732
:1028B00010B502460B685C1C0CB9106907E002F108
:1028C000080000E04068446824689C42FAD94468E3
:1028D0004C604C68A160886041600A611468641CA7
:1028E000146010BD42684A6093688B6093685960B9
:1028F0009160086103685B1C0360704710B500BFFE
:10290000502080F31188BFF34F8FBFF36F8F00BF4C
:102910000B480068401C0A49086008460068012806
:102920000DD108480068C0B208B9012000E00020BD
:1029300028B94FF4BD7204A10EA0FDF7C1FC10BD73
:10294000C800002004ED00E02E2E5C467265655242
:10295000544F535C706F727461626C655C52564484
:10296000535C41524D5F434D335C706F72742E6304
:10297000000000004572726F723A25732C25640DB9
:102980000A00000010B50B48006828B940F2811217
:1029900009A114A0FDF794FC06480068401E0549F3
:1029A00008600846006820B9002080F3118800BF45
:1029B00000BF10BDC80000202E2E5C467265655217
:1029C000544F535C706F727461626C655C52564414
:1029D000535C41524D5F434D335C706F72742E6394
:1029E000000000004572726F723A25732C25640D49
:1029F0000A00000070B506463546002E35D0083D69
:102A00002C461A4960680968084008B1012000E0B6
:102A1000002028B94FF4A07215A11FA0FDF750FCAB
:102A2000206808B9012000E0002028B940F24112D6
:102A30000FA119A0FDF744FC0C4960680968084023
:102A400098B1206888B9094960680968884360605E
:102A500000F034FA144960680968084412490860B3
:102A60002046FFF785F801F0BDF970BDC4000020D5
:102A70002E2E5C4672656552544F535C706F7274B3
:102A800061626C655C4D656D4D616E675C6865612A
:102A9000705F342E630000004572726F723A2573C6
:102AA0002C25640D0A000000BC00002006480068C8
:102AB0004FF47A71B0FBF1F0401E4FF0E021486115
:102AC00007200861704700001000002070B5FDF776
:102AD000D1FB0546102D11D305F1E02090F8F0430D
:102AE00010480078844201DB012000E0002028B972
:102AF0004FF42A720CA117A0FDF7E2FB19480068F9
:102B000000F4E06018490968884201D8012000E01B
:102B1000002028B94FF42E7203A10EA0FDF7D0FBC0
:102B200070BD0000CC0000202E2E5C467265655200
:102B3000544F535C706F727461626C655C525644A2
:102B4000535C41524D5F434D335C706F72742E6322
:102B5000000000004572726F723A25732C25640DD7
:102B60000A0000000CED00E0D0000020024600202A
:102B70000BE0084B53F8303033B9064B43F83010B4
:102B800003EBC0035A6002E0401C0828F1D300BFE9
:102B900070470000D04900202DE9F04105460E465F
:102BA00017462C46FFF7AAFE94F94400401C10B9C2
:102BB000002084F8440094F94500401C10B900201E
:102BC00084F84500FFF7DEFEA06B28B93A4631468F
:102BD00004F1240000F070F82046FFF778FABDE811
:102BE000F081000070B504460025ACB10F480068C4
:102BF00008B9012000E0002028B940F2CF420CA122
:102C000010A0FDF75DFB00F059F900212046FEF70A
:102C10002DFD01F0E7F805463DB94FF080500D4914
:102C20000860BFF34F8FBFF36F8F70BD9800002017
:102C30002E2E5C4672656552544F535C7461736B03
:102C4000732E63004572726F723A25732C25640DE2
:102C50000A00000004ED00E001200149086070470F
:102C60008400002070B504460D462CB940F60632AB
:102C700007A10CA0FDF724FB0E480168183120467F
:102C8000FFF716FE01212846FEF7F0FC70BD00009C
:102C90002E2E5C4672656552544F535C7461736BA3
:102CA000732E63004572726F723A25732C25640D82
:102CB0000A0000006000002070B505460E4614466C
:102CC0002DB940F6313209A10DA0FDF7F9FA1048EF
:102CD000016818312846FFF705FE0CB14FF0FF36AA
:102CE00021463046FEF7C2FC70BD00002E2E5C4629
:102CF00072656552544F535C7461736B732E63003D
:102D00004572726F723A25732C25640D0A0000001B
:102D10006000002070B505462C46002D4BD026499A
:102D2000E06A0968C96A884245D2A06900F000409B
:102D300028B921480068C06AC0F12000A061E16A9A
:102D400001EB81011D4A02EB81016069884201D1DA
:102D5000012000E0002050B3201DFFF728FB78B9C8
:102D6000E06A00EB8000154951F8200040B994F862
:102D70002C100120884012490968814310480160E5
:102D80000D480068C06AE06294F82C100120884069
:102D90000B49096808430A490860E16A01EB8101AF
:102DA000064A02EB8100211DFFF79CFD03E002486B
:102DB0000068C06AE06270BD60000020104A002018
:102DC0007800002010B504462CB940F6C13205A1A8
:102DD00009A0FDF775FA0C48006820600B480068F0
:102DE000606010BD2E2E5C4672656552544F535C78
:102DF0007461736B732E63004572726F723A257340
:102E00002C25640D0A0000008800002074000020BA
:102E10001CB51A4800210B468222CDE9001018A1EA
:102E2000194800F023FE0446012C02D101F06AF893
:102E30000446012C15D100BF502080F31188BFF348
:102E40004F8FBFF36F8F00BF4FF0FF300F49086007
:102E500001200F49086000200E49086000F06CFA5C
:102E60000BE0601C08B1012000E0002028B940F20E
:102E7000847209A10DA0FDF723FA1CBD9400002067
:102E800049444C4500000000E11900089000002072
:102E90007C000020740000202E2E5C467265655276
:102EA000544F535C7461736B732E63004572726F81
:102EB000723A25732C25640D0A0000000248006850
:102EC000401C0149086070479800002010B51B485D
:102ED000006818B101201A4908602DE00020184947
:102EE000086018480068B0FA80F0C0F11F0404EBD5
:102EF0008400154951F8200008B1012000E00020AD
:102F000028B940F6F62211A115A0FDF7D9F904EB76
:102F100084010D4A02EB810041684968416000F17B
:102F2000080142688A4202D14168496841604168AB
:102F3000C9680F4A116000BF10BD00009800002052
:102F40008400002078000020104A00202E2E5C46CD
:102F500072656552544F535C7461736B732E6300DA
:102F60004572726F723A25732C25640D0A000000B9
:102F70006000002010B586B00446012144F2040030
:102F8000FDF7C8FE4FF40070ADF8140003208DF873
:102F9000160018208DF8170005A92248FDF757FDE7
:102FA0004FF48060ADF8140004208DF8170005A9D7
:102FB0001C48FDF74CFD25208DF8000003208DF8FE
:102FC00001008DF8020001208DF803006846FDF72E
:102FD0003FFE01940020ADF80800ADF80A00ADF8FE
:102FE0000C00ADF810000C20ADF80E0001A90E4841
:102FF000FEF72AF9012240F225510B48FEF7FEF8B0
:10300000012240F224410848FEF7F8F8012280210D
:103010000548FEF7B3F801210348FEF7A3F806B010
:1030200010BD0000000801400038014010B586B016
:10303000044601212020FDF76DFE01214804FDF723
:1030400059FE01210846FDF765FE01210820FDF724
:1030500089FD2020ADF8140003208DF816001820FB
:103060008DF8170005A91748FDF7F1FC4020ADF8D1
:10307000140004208DF8170005A91248FDF7E7FC9D
:1030800001940020ADF80800ADF80A00ADF80C007E
:10309000ADF810000C20ADF80E0001A90A48FEF7AB
:1030A000D3F8012280210848FEF768F80122402168
:1030B0000548FEF763F801210348FEF753F806B010
:1030C00010BD0000001401400044004010B54FF452
:1030D000E130FFF74FFF06490978C1EB011101EB21
:1030E0004101044A02EB41005A21FFF741FA10BDA9
:1030F0002C000020F830002010B52248007800286D
:103100003ED04FF40050FDF7E3FB012811D14003FE
:10311000FDF71AFB1C480078401C1E2801D1002036
:1031200002E019480078401C17490870012017492F
:10313000087016480078012822D100201349087031
:1031400000211348FDF70EFB0E480078401E0D4984
:1031500008700D480078C0EB001000EB40000D49EE
:1031600001EB40000A49443908650B4806490978D3
:10317000405C07494439886401210548FDF7F2FAAB
:1031800010BD00002D0000202C0000204800002071
:1031900044000240F8300020843B002010B54FF47A
:1031A000E130FFF743FF0C490978C1EB011101EB56
:1031B00041010A4A02EB41005A21FFF72DFA084962
:1031C0000978C1EB011101EB4101064A02EB410014
:1031D0005A21FFF7F5F910BD3A000020643D0020A8
:1031E000430000200E48002010B510214248FDF792
:1031F000CEFF012838D100214048FDF7B3FA4FF443
:103200000010FDF7A1FA3C4800883B48001D0088EB
:103210003A48FDF759FBC0F15A003949394A12784A
:10322000885438480078401C052801D1002002E06D
:1032300034480078401C3349087033480078401CFB
:10324000314908702F480078C0EB001000EB4000B7
:103250002E4901EB400029496C3988675A200867DC
:1032600001212648FDF77EFA29480078002841D040
:103270004FF00070FDF72CFB012811D14006FDF73F
:1032800063FA24480078401C1E2801D1002002E087
:1032900020480078401C1F49087001201E49087012
:1032A0001D480078012825D100201B490870002105
:1032B00012481430FDF756FA15480078401E14499C
:1032C000087014480078C0EB001000EB4000134970
:1032D00001EB400009492031086011480D49097887
:1032E000405C06496C39C1F8840001210348143060
:1032F000FDF738FA10BD0000004400406C000240A9
:103300003E00002046000020470000200E4800201C
:103310003B0000203A00002049000020643D0020CE
:10332000F047002006E0FFF7E7FEFFF75DFF05200E
:10333000FFF758FCF7E700001CB522480146097862
:103340000191FF21024611700146097800919DF814
:10335000001001F050011C4A117007211B4A116036
:1033600009E01A490968491E184A11609DF80010C1
:103370004906090E00919DF8001001F08001802996
:10338000EFD0124909680902104A116011460988F4
:1033900001F4E06111600B4A019911700C4800685A
:1033A00040F470000A4908600846006840F0704028
:1033B0000860FFF77BFB002006490860FCF724FF4C
:1033C00000201CBD00E400E0CC000020D000002064
:1033D00020ED00E0C800002010B500BF502080F3B1
:1033E0001188BFF34F8FBFF36F8F00BF00F084FBD6
:1033F00018B14FF080500449086000BF002080F3EE
:10340000118800BF10BD000004ED00E02DE9F84375
:1034100005460E4690460DB1012000E0002028B977
:103420004FF4C4720DA112A0FCF74AFF0EB9002799
:1034300001E005FB06F707F15400FEF791FE044694
:1034400044B104F1540943464A46314628460094A3
:10345000FEF7DAFA2046BDE8F88300002E2E5C461F
:1034600072656552544F535C71756575652E6300C6
:103470004572726F723A25732C25640D0A000000A4
:103480002DE9FF4782B005460E461F464FF0000A61
:103490002C462CB940F2DC4261A166A0FCF710FF7B
:1034A0000EB9206C08B9012000E0002028B940F2D4
:1034B000DD425BA15FA0FCF703FF00F007FB08B94A
:1034C000049808B9012000E0002028B94FF49C625C
:1034D00053A158A0FCF7F4FE00BFFFF70FFAD4F891
:1034E0003890B9F1000F3DD0D4F80C803146204619
:1034F000FEF7C8F9DFB9A9F10100A063206810B98F
:10350000FEF7D8FE6060206908B9012000E00020C5
:1035100010BB04F1100000F00BFCE8B14FF080503C
:1035200048490860BFF34F8FBFF36F8F14E0C4F8B2
:103530000C80606A08B9012000E0002060B904F145
:10354000240000F0F5FB38B14FF080503D49086091
:10355000BFF34F8FBFF36F8FFFF714FA012006B050
:10356000BDE8F087049818B9FFF70CFA0020F6E7D9
:10357000BAF1000F04D16846FFF724FC4FF0010AAE
:10358000FFF700FAFFF79AFCFFF7B8F994F9440047
:10359000401C10B9002084F8440094F94500401CF8
:1035A00010B9002084F84500FFF7ECF904A968463B
:1035B00000F00CFA40BB2046FEF73AFBF0B1206861
:1035C00030B9FFF79BF96068FFF7A4FBFFF7DAF962
:1035D00004F124000499FFF745FB2046FEF777FD30
:1035E00000F000FC00287FF478AF4FF080501549C0
:1035F0000860BFF34F8FBFF36F8F6EE72046FEF773
:1036000066FD00F0EFFB68E72046FEF760FD00F086
:10361000E9FB2046FEF70CFB0028EED000209EE7D9
:103620002E2E5C4672656552544F535C71756575FC
:10363000652E63004572726F723A25732C25640DF6
:103640000A00000004ED00E070B505460E462C4669
:103650002CB940F21B121EA122A0FCF731FEFFF78D
:103660004DF9D4E90F12206801FB020060600020D0
:10367000A0632068A060E06B401E226C216800FB04
:103680000210E060FF2084F8440084F845009EB9F1
:10369000206908B9012000E00020A8B904F1100059
:1036A00000F046FB80B14FF0805012490860BFF334
:1036B0004F8FBFF36F8F07E004F11000FFF7E8F8BA
:1036C00004F12400FFF7E4F8FFF75CF9012070BD76
:1036D0002E2E5C4672656552544F535C717565754C
:1036E000652E63004572726F723A25732C25640D46
:1036F0000A00000004ED00E02DE9FF4383B0064618
:1037000088461D464FF0000934462CB940F2D922B4
:1037100060A165A0FCF7D4FDB8F1000F01D1206CC9
:1037200008B9012000E0002028B940F2DA2259A1AE
:103730005DA0FCF7C5FD022D02D1E06B012801D18F
:10374000012000E0002028B940F2DB2251A156A060
:10375000FCF7B6FD00F0BAF908B9059808B90120E0
:1037600000E0002028B940F2DE224AA14EA0FCF77A
:10377000A7FD00BFFFF7C2F8A06BE16B884201D341
:10378000022D38D12A4641462046FEF790F80746DA
:10379000A06C68B129462046FEF766FA28B34FF0C0
:1037A000805045490860BFF34F8FBFF36F8F1CE017
:1037B000606A08B9012000E0002068B904F1240023
:1037C00000F0B6FA88B14FF080503B490860BFF373
:1037D0004F8FBFF36F8F08E03FB14FF080503649F5
:1037E0000860BFF34F8FBFF36F8FFFF7CBF8012057
:1037F00007B0BDE8F083059818B9FFF7C3F80020BB
:10380000F6E7B9F1000F04D101A8FFF7DBFA4FF09A
:103810000109FFF7B7F8FFF751FBFFF76FF894F9CD
:103820004400401C10B9002084F8440094F945007D
:10383000401C10B9002084F84500FFF7A3F805A943
:1038400001A800F0C3F8F0B92046FEF7FEF9A0B1D8
:1038500004F110000599FFF705FA2046FEF737FC42
:1038600000F0C0FA002885D14FF08050124908605E
:10387000BFF34F8FBFF36F8F7CE72046FEF727FC27
:1038800000F0B0FA76E72046FEF721FC00F0AAFA35
:103890000020ADE72E2E5C4672656552544F535C96
:1038A00071756575652E63004572726F723A257386
:1038B0002C25640D0A00000004ED00E02DE9F05F06
:1038C00080468A4615461E4644462CB940F29F3231
:1038D00035A13AA0FCF7F4FCBAF1000F01D1206C3D
:1038E00008B9012000E0002028B94FF468722EA129
:1038F00032A0FCF7E5FC022E02D1E06B012801D1D9
:10390000012000E0002028B940F2A13226A12BA01E
:10391000FCF7D6FCFFF7DAF800BF5021EFF3118077
:1039200081F31188BFF34F8FBFF36F8F00BF07463E
:10393000A06BE16B884201D3022E2BD194F945B0E4
:10394000324651462046FDF7B2FF0BF10100C8B9DF
:10395000A06C40B131462046FEF786F9B8B1B5B14A
:103960000120286013E0606A08B9012000E000200F
:1039700068B904F1240000F0DBF940B13DB1012049
:10398000286004E00BF1010040B284F845004FF0DC
:10399000010901E04FF0000900BF87F3118800BF63
:1039A0004846BDE8F09F00002E2E5C4672656552C9
:1039B000544F535C71756575652E63004572726F67
:1039C000723A25732C25640D0A0000002DE9F041A0
:1039D00004460D462CB940F6CB3219A11DA0FCF7C8
:1039E0006FFC2DB940F6CC3215A11AA0FCF768FC8B
:1039F000FEF784FF1B4807682868401C08B90026AA
:103A000019E0194920680968884204D06068B84202
:103A100001D801260FE06068381A2968884209D267
:103A200028686168791A401A28602046FFF7CAF9A9
:103A3000002600E00126FEF7A5FF3046BDE8F08134
:103A40002E2E5C4672656552544F535C7461736BE5
:103A5000732E63004572726F723A25732C25640DC4
:103A60000A00000074000020880000202DE9FF4FAC
:103A700085B0804689461746DDE912ABB800FEF7EF
:103A80006FFB064656B15C20FEF76AFB04460CB19C
:103A9000266304E03046FEF7ADFF00E000247CB171
:103AA0000020CDE900ABCDE902403A464946404608
:103AB000089BFDF7C1FF2046FDF724FE012501E02C
:103AC0004FF0FF35284609B0BDE8F08F0549096879
:103AD00009B9012005E00449096809B9022000E09C
:103AE000002070477C0000209800002001490868F1
:103AF00070470000740000202DE9F0414FF00008ED
:103B000041480068002872D140480068451C3F4881
:103B10000560EDB93E480068006808B9012000E082
:103B2000002028B940F6D9123AA13FA0FCF7C8FB03
:103B30003748076840480068354908603E480760D4
:103B40003E480068401C3D490860FEF7EDF900BFA3
:103B50003B48006885423CD300BF2D4800680068A0
:103B600008B9012000E0002020B14FF0FF303449B7
:103B700008602DE026480068C068C4686668B542E1
:103B800002D22F48066023E0201DFEF710FCA06A39
:103B900018B104F11800FEF70AFC94F82C1001206B
:103BA000884028490968084326490860E16A01EB12
:103BB0008101254A02EB8100211DFEF793FE234976
:103BC000E06A0968C96A8842C7D34FF00108C4E7B0
:103BD00000BF1E480068C06A00EB80001A4951F817
:103BE0002000012801D94FF0010805E0FFE718483F
:103BF0000068401C164908601648006808B14FF07C
:103C000001084046BDE8F0819800002074000020C3
:103C1000640000202E2E5C4672656552544F535C42
:103C20007461736B732E63004572726F723A257301
:103C30002C25640D0A000000680000208800002088
:103C40009000002078000020104A00206000002032
:103C5000800000208400002070B505462C46002618
:103C6000002D4BD026480068844201D1012000E09D
:103C7000002028B940F6C76222A127A0FCF720FB4C
:103C8000206D28B940F6C9621EA123A0FCF718FBDD
:103C9000206D401E2065E16CE06A88422ED0206DC8
:103CA00060BB201DFEF783FB78B9E06A00EB800063
:103CB0001D4951F8200040B994F82C10012088408B
:103CC0001A490968814319480160E06CE062E06AC2
:103CD000C0F12000A06194F82C1001208840134905
:103CE0000968084311490860E16A01EB81010E4A45
:103CF00002EB8100211DFEF7F5FD0126304670BD67
:103D0000600000202E2E5C4672656552544F535C55
:103D10007461736B732E63004572726F723A257310
:103D20002C25640D0A000000104A002078000020B5
:103D300070B50646F068C4682CB940F661321AA125
:103D40001EA0FCF7BDFA04F11800FEF730FB1F4877
:103D50000068A8B9201DFEF72AFB94F82C1001205A
:103D600088401B490968084319490860E16A01EB6A
:103D70008101184A02EB8100211DFEF7B3FD04E02A
:103D800004F118011448FEF7ADFD1449E06A096812
:103D9000C96A884204D9012501201149086000E060
:103DA0000025284670BD00002E2E5C4672656552C7
:103DB000544F535C7461736B732E63004572726F62
:103DC000723A25732C25640D0A000000980000202B
:103DD00078000020104A0020B84C0020600000202D
:103DE0008400002070B5002400263448006828B9FB
:103DF0004FF4FD6232A137A0FCF762FAFEF77EFDB8
:103E00002E480068401E2D490860084600680028BA
:103E10004FD13448006800284BD024E03248C068B5
:103E2000C46804F11800FEF7C2FA201DFEF7BFFABD
:103E300094F82C10012088402C49096808432B492C
:103E40000860E16A01EB8101294A02EB8100211D32
:103E5000FEF748FD2749E06A0968C96A884202D32B
:103E60000120254908602048006808B9012000E0C9
:103E700000200028D2D00CB1FEF756F81F48056884
:103E800065B100BFFFF738FE10B101201A49086084
:103E90006D1E002DF6D100201849086016480068F4
:103EA00038B10126300716490860BFF34F8FBFF3C2
:103EB0006F8FFEF767FD304670BD00009800002050
:103EC0002E2E5C4672656552544F535C7461736B61
:103ED000732E63004572726F723A25732C25640D40
:103EE0000A00000070000020B84C0020780000207C
:103EF000104A002060000020840000208000002084
:103F000004ED00E01CB50024FDF758FC0B480068E8
:103F100058B10B481F2100234FF48272CDE90010E5
:103F200008A10A48FFF7A2FD04462CB940F233125B
:103F300007A10DA0FCF7C4F920461CBDA400002079
:103F4000A8000020546D722053766300B52000084D
:103F50002E2E5C4672656552544F535C74696D65D4
:103F600072732E63000000004572726F723A2573FF
:103F70002C25640D0A0000002DE9FF4704460D467C
:103F800016461F46DDF830804FF000092CB94FF47B
:103F9000D37217A11CA0FCF793F91F48006810B357
:103FA000009501960294062D15DAFFF78FFD022881
:103FB00008D100234246694617480068FFF79CFB7A
:103FC000814610E000231A46694613480068FFF74F
:103FD00093FB814607E000233A4669460E48006895
:103FE000FFF76CFC8146484604B0BDE8F08700004E
:103FF0002E2E5C4672656552544F535C74696D6534
:1040000072732E63000000004572726F723A25735E
:104010002C25640D0A000000A40000203C4000088C
:1040200000000020D80000006C01000814410008C6
:10403000D800002020AF000088010008ADDEE1FEBE
:1040400000000000000000000000000000A24A0480
:104050000000000000000000010203040607080938
:104060000000000000000000000000000000000050
:104070000000000000000000000000000000000040
:104080000000000001010000000000010203040123
:1040900002030406070809020406080000000000E5
:1040A0000000000000000000000000000000000010
:1040B0000000000000000000000000000000000000
:1040C00000000000000000000000000000000000F0
:1040D00000000000000000000000000000000000E0
:1040E00000000000000000000000000000000000D0
:1040F00000000000000000000000000000000000C0
:1041000000000000AAAAAAAA000000000000000007
:0441100000000000AB
:040000050800027D70
:00000001FF
