Component: ARM Compiler 5.06 update 6 (build 750) Tool: armlink [4d35ed]

==============================================================================

Section Cross References

    main.o(i.main) refers to iap.o(i.iap_load_app) for iap_load_app
    main.o(i.main) refers to misc.o(i.NVIC_PriorityGroupConfig) for NVIC_PriorityGroupConfig
    main.o(i.main) refers to delay.o(i.delay_init) for delay_init
    main.o(i.main) refers to led.o(i.LED_Init) for LED_Init
    main.o(i.main) refers to usart.o(i.vUsart1DmaInitForTest) for vUsart1DmaInitForTest
    main.o(i.main) refers to usart.o(i.vUsart2DmaInitForTest) for vUsart2DmaInitForTest
    main.o(i.main) refers to main.o(i.vAppInforInit) for vAppInforInit
    main.o(i.main) refers to tasks.o(i.xTaskCreate) for xTaskCreate
    main.o(i.main) refers to tasks.o(i.vTaskStartScheduler) for vTaskStartScheduler
    main.o(i.main) refers to main.o(.bss) for tAI
    main.o(i.main) refers to main.o(i.vLed_Task) for vLed_Task
    main.o(i.main) refers to main.o(i.vUsartDataHandleTask) for vUsartDataHandleTask
    main.o(i.main) refers to main.o(i.vFrameDataHandlerTask) for vFrameDataHandlerTask
    main.o(i.main) refers to main.o(i.vFirmwareWriteTask) for vFirmwareWriteTask
    main.o(i.vAppInforInit) refers to main.o(.bss) for FirmwareBuf
    main.o(i.vCommandFrameHandle) refers to stmflash.o(i.STMFLASH_Write) for STMFLASH_Write
    main.o(i.vCommandFrameHandle) refers to main.o(.data) for ProductAppPassword
    main.o(i.vCommandFrameHandle) refers to main.o(.bss) for tAI
==============================================================================

Removing Unused input sections from the image.

    Removing system_stm32f10x.o(i.SystemCoreClockUpdate), (164 bytes).
    Removing key.o(i.KEY_Init), (60 bytes).
    Removing key.o(i.KEY_Scan), (200 bytes).
    Removing key.o(.data), (1 bytes).
    Removing stmflash.o(i.Test_Write), (16 bytes).
    Removing delay.o(i.delay_ms), (64 bytes).
    Removing delay.o(i.delay_us), (72 bytes).
    Removing delay.o(i.delay_xms), (24 bytes).
    Removing sys.o(i.INTX_DISABLE), (4 bytes).
    Removing sys.o(i.INTX_ENABLE), (4 bytes).
    Removing sys.o(i.WFI_SET), (4 bytes).
    Removing core_cm3.o(.emb_text), (32 bytes).
    Removing misc.o(i.NVIC_SetVectorTable), (20 bytes).
    Removing misc.o(i.NVIC_SystemLPConfig), (32 bytes).
    Removing stm32f10x_gpio.o(i.GPIO_AFIODeInit), (20 bytes).
    Removing stm32f10x_gpio.o(i.GPIO_DeInit), (200 bytes).
    Removing stm32f10x_gpio.o(i.GPIO_ETH_MediaInterfaceConfig), (12 bytes).
    Removing stm32f10x_gpio.o(i.GPIO_EXTILineConfig), (64 bytes).
==============================================================================

Image Symbol Table

    Local Symbols

    Symbol Name                              Value     Ov Type        Size  Object(Section)

    ../clib/angel/boardlib.s                 0x00000000   Number         0  boardinit1.o ABSOLUTE
    ../clib/angel/boardlib.s                 0x00000000   Number         0  boardinit2.o ABSOLUTE
    ../clib/angel/boardlib.s                 0x00000000   Number         0  boardinit3.o ABSOLUTE
    ../clib/angel/boardlib.s                 0x00000000   Number         0  boardshut.o ABSOLUTE
    ../clib/angel/handlers.s                 0x00000000   Number         0  __scatter_copy.o ABSOLUTE
    ../clib/angel/handlers.s                 0x00000000   Number         0  __scatter_zi.o ABSOLUTE
    ../clib/angel/kernel.s                   0x00000000   Number         0  __rtentry2.o ABSOLUTE
    ../clib/angel/kernel.s                   0x00000000   Number         0  __rtentry.o ABSOLUTE
    ../clib/angel/kernel.s                   0x00000000   Number         0  rtexit.o ABSOLUTE
    ../clib/angel/kernel.s                   0x00000000   Number         0  rtexit2.o ABSOLUTE
    ../clib/angel/kernel.s                   0x00000000   Number         0  __rtentry4.o ABSOLUTE
    ../clib/angel/rt.s                       0x00000000   Number         0  rt_raise.o ABSOLUTE
    ../clib/angel/scatter.s                  0x00000000   Number         0  __scatter.o ABSOLUTE
    ../clib/angel/startup.s                  0x00000000   Number         0  __main.o ABSOLUTE
    ../clib/angel/sys.s                      0x00000000   Number         0  libspace.o ABSOLUTE
    ../clib/angel/sys.s                      0x00000000   Number         0  use_no_semi_2.o ABSOLUTE
    ../clib/angel/sys.s                      0x00000000   Number         0  use_no_semi.o ABSOLUTE
    ../clib/angel/sys.s                      0x00000000   Number         0  indicate_semi.o ABSOLUTE
    ../clib/angel/sys.s                      0x00000000   Number         0  sys_stackheap_outer.o ABSOLUTE
    ../clib/angel/sysapp.c                   0x00000000   Number         0  sys_wrch.o ABSOLUTE
    ../clib/angel/sysapp.c                   0x00000000   Number         0  sys_command.o ABSOLUTE
    ../clib/armsys.c                         0x00000000   Number         0  argv_veneer.o ABSOLUTE
    ../clib/armsys.c                         0x00000000   Number         0  argv_veneer.o ABSOLUTE
    ../clib/armsys.c                         0x00000000   Number         0  _get_argv_nomalloc.o ABSOLUTE
    ../clib/armsys.c                         0x00000000   Number         0  no_argv.o ABSOLUTE
    ../clib/heapalloc.c                      0x00000000   Number         0  hrguard.o ABSOLUTE
    ../clib/heapaux.c                        0x00000000   Number         0  heapauxi.o ABSOLUTE
    ../clib/libinit.s                        0x00000000   Number         0  libinit2.o ABSOLUTE
    ../clib/libinit.s                        0x00000000   Number         0  libinit.o ABSOLUTE
    ../clib/libinit.s                        0x00000000   Number         0  libshutdown2.o ABSOLUTE
    ../clib/libinit.s                        0x00000000   Number         0  libshutdown.o ABSOLUTE
    ../clib/memcpset.s                       0x00000000   Number         0  rt_memcpy_w.o ABSOLUTE
    ../clib/memcpset.s                       0x00000000   Number         0  rt_memclr.o ABSOLUTE
    ../clib/memcpset.s                       0x00000000   Number         0  rt_memclr_w.o ABSOLUTE
    ../clib/memcpset.s                       0x00000000   Number         0  rt_memcpy_v6.o ABSOLUTE
    ../clib/memcpset.s                       0x00000000   Number         0  aeabi_memset.o ABSOLUTE
    ../clib/printf.c                         0x00000000   Number         0  _printf_char.o ABSOLUTE
    ../clib/printf.c                         0x00000000   Number         0  __printf.o ABSOLUTE
    ../clib/printf.c                         0x00000000   Number         0  noretval__2sprintf.o ABSOLUTE
    ../clib/printf.c                         0x00000000   Number         0  _sputc.o ABSOLUTE
    ../clib/printf.c                         0x00000000   Number         0  _printf_char_common.o ABSOLUTE
    ../clib/printf.c                         0x00000000   Number         0  noretval__2printf.o ABSOLUTE
    ../clib/printf.c                         0x00000000   Number         0  __2sprintf.o ABSOLUTE
    ../clib/printf.c                         0x00000000   Number         0  __2printf.o ABSOLUTE
    ../clib/printf.c                         0x00000000   Number         0  _printf_intcommon.o ABSOLUTE
    ../clib/printf.c                         0x00000000   Number         0  __printf_flags_ss_wp.o ABSOLUTE
    ../clib/printf.c                         0x00000000   Number         0  __printf_ss_wp.o ABSOLUTE
    ../clib/printf.c                         0x00000000   Number         0  __printf_flags_wp.o ABSOLUTE
    ../clib/printf.c                         0x00000000   Number         0  __printf_wp.o ABSOLUTE
    ../clib/printf.c                         0x00000000   Number         0  __printf_flags_ss.o ABSOLUTE
    ../clib/printf.c                         0x00000000   Number         0  __printf_ss.o ABSOLUTE
    ../clib/printf.c                         0x00000000   Number         0  __printf_flags.o ABSOLUTE
    ../clib/printf.c                         0x00000000   Number         0  _printf_dec.o ABSOLUTE
    ../clib/printf.c                         0x00000000   Number         0  _printf_str.o ABSOLUTE
    ../clib/printf.c                         0x00000000   Number         0  __printf_nopercent.o ABSOLUTE
    ../clib/printf.c                         0x00000000   Number         0  _printf_char_file.o ABSOLUTE
    ../clib/printf_percent.s                 0x00000000   Number         0  _printf_d.o ABSOLUTE
    ../clib/printf_percent.s                 0x00000000   Number         0  _printf_percent_end.o ABSOLUTE
    ../clib/printf_percent.s                 0x00000000   Number         0  _printf_percent.o ABSOLUTE
    ../clib/printf_percent.s                 0x00000000   Number         0  _printf_c.o ABSOLUTE
    ../clib/printf_percent.s                 0x00000000   Number         0  _printf_s.o ABSOLUTE
    ../clib/printf_percent.s                 0x00000000   Number         0  _printf_u.o ABSOLUTE
    ../clib/signal.c                         0x00000000   Number         0  defsig_abrt_inner.o ABSOLUTE
    ../clib/signal.c                         0x00000000   Number         0  defsig_fpe_inner.o ABSOLUTE
    ../clib/signal.c                         0x00000000   Number         0  defsig_rtred_inner.o ABSOLUTE
    ../clib/signal.c                         0x00000000   Number         0  defsig_stak_inner.o ABSOLUTE
    ../clib/signal.c                         0x00000000   Number         0  defsig_other.o ABSOLUTE
    ../clib/signal.c                         0x00000000   Number         0  defsig_pvfn_inner.o ABSOLUTE
    ../clib/signal.c                         0x00000000   Number         0  defsig_cppl_inner.o ABSOLUTE
    ../clib/signal.c                         0x00000000   Number         0  defsig_segv_inner.o ABSOLUTE
    ../clib/signal.c                         0x00000000   Number         0  defsig_general.o ABSOLUTE
    ../clib/signal.c                         0x00000000   Number         0  defsig_exit.o ABSOLUTE
    ../clib/signal.c                         0x00000000   Number         0  defsig_rtmem_outer.o ABSOLUTE
    ../clib/signal.c                         0x00000000   Number         0  defsig_rtmem_formal.o ABSOLUTE
    ../clib/signal.c                         0x00000000   Number         0  __raise.o ABSOLUTE
    ../clib/signal.c                         0x00000000   Number         0  defsig_rtmem_inner.o ABSOLUTE
    ../clib/signal.s                         0x00000000   Number         0  defsig.o ABSOLUTE
    ../clib/stdio.c                          0x00000000   Number         0  ferror.o ABSOLUTE
    ../clib/stdio.c                          0x00000000   Number         0  ferror_locked.o ABSOLUTE
    ../clib/stdlib.c                         0x00000000   Number         0  exit.o ABSOLUTE
    ../clib/string.c                         0x00000000   Number         0  strlen.o ABSOLUTE
    ../clib/string.c                         0x00000000   Number         0  strcpy.o ABSOLUTE
    ../fplib/fpinit.s                        0x00000000   Number         0  fpinit.o ABSOLUTE
    ..\CORE\core_cm3.c                       0x00000000   Number         0  core_cm3.o ABSOLUTE
    ..\CORE\startup_stm32f10x_hd.s           0x00000000   Number         0  startup_stm32f10x_hd.o ABSOLUTE
    ..\FreeRTOS\croutine.c                   0x00000000   Number         0  croutine.o ABSOLUTE
    ..\FreeRTOS\event_groups.c               0x00000000   Number         0  event_groups.o ABSOLUTE
    ..\FreeRTOS\list.c                       0x00000000   Number         0  list.o ABSOLUTE
    ..\FreeRTOS\portable\MemMang\heap_4.c    0x00000000   Number         0  heap_4.o ABSOLUTE
    ..\FreeRTOS\portable\RVDS\ARM_CM3\port.c 0x00000000   Number         0  port.o ABSOLUTE
    ..\FreeRTOS\queue.c                      0x00000000   Number         0  queue.o ABSOLUTE
    ..\FreeRTOS\tasks.c                      0x00000000   Number         0  tasks.o ABSOLUTE
    ..\FreeRTOS\timers.c                     0x00000000   Number         0  timers.o ABSOLUTE
    ..\HARDWARE\KEY\key.c                    0x00000000   Number         0  key.o ABSOLUTE
    ..\HARDWARE\LED\led.c                    0x00000000   Number         0  led.o ABSOLUTE
    ..\HARDWARE\STMFLASH\stmflash.c          0x00000000   Number         0  stmflash.o ABSOLUTE
    ..\IAP\iap.c                             0x00000000   Number         0  iap.o ABSOLUTE
    ..\Protocol\protocol.c                   0x00000000   Number         0  protocol.o ABSOLUTE
    ..\STM32F10x_FWLib\src\misc.c            0x00000000   Number         0  misc.o ABSOLUTE
    ..\STM32F10x_FWLib\src\stm32f10x_dbgmcu.c 0x00000000   Number         0  stm32f10x_dbgmcu.o ABSOLUTE
    ..\STM32F10x_FWLib\src\stm32f10x_dma.c   0x00000000   Number         0  stm32f10x_dma.o ABSOLUTE
    ..\STM32F10x_FWLib\src\stm32f10x_flash.c 0x00000000   Number         0  stm32f10x_flash.o ABSOLUTE
    ..\STM32F10x_FWLib\src\stm32f10x_gpio.c  0x00000000   Number         0  stm32f10x_gpio.o ABSOLUTE
    ..\STM32F10x_FWLib\src\stm32f10x_rcc.c   0x00000000   Number         0  stm32f10x_rcc.o ABSOLUTE
    ..\STM32F10x_FWLib\src\stm32f10x_usart.c 0x00000000   Number         0  stm32f10x_usart.o ABSOLUTE
    ..\SYSTEM\delay\delay.c                  0x00000000   Number         0  delay.o ABSOLUTE
    ..\SYSTEM\sys\sys.c                      0x00000000   Number         0  sys.o ABSOLUTE
    ..\SYSTEM\usart\usart.c                  0x00000000   Number         0  usart.o ABSOLUTE
    ..\\CORE\\core_cm3.c                     0x00000000   Number         0  core_cm3.o ABSOLUTE
    ..\\FreeRTOS\\portable\\RVDS\\ARM_CM3\\port.c 0x00000000   Number         0  port.o ABSOLUTE
    ..\\SYSTEM\\sys\\sys.c                   0x00000000   Number         0  sys.o ABSOLUTE
    dc.s                                     0x00000000   Number         0  dc.o ABSOLUTE
    main.c                                   0x00000000   Number         0  main.o ABSOLUTE
    stm32f10x_it.c                           0x00000000   Number         0  stm32f10x_it.o ABSOLUTE
    system_stm32f10x.c                       0x00000000   Number         0  system_stm32f10x.o ABSOLUTE
    RESET                                    0x08000000   Section      304  startup_stm32f10x_hd.o(RESET)
    !!!main                                  0x08000130   Section        8  __main.o(!!!main)
    !!!scatter                               0x08000138   Section       52  __scatter.o(!!!scatter)
    !!handler_copy                           0x0800016c   Section       26  __scatter_copy.o(!!handler_copy)
    !!handler_zi                             0x08000188   Section       28  __scatter_zi.o(!!handler_zi)
    .ARM.Collect$$_printf_percent$$00000000  0x080001a4   Section        0  _printf_percent.o(.ARM.Collect$$_printf_percent$$00000000)
    .ARM.Collect$$_printf_percent$$00000009  0x080001a4   Section        6  _printf_d.o(.ARM.Collect$$_printf_percent$$00000009)
    .ARM.Collect$$_printf_percent$$00000014  0x080001aa   Section        6  _printf_s.o(.ARM.Collect$$_printf_percent$$00000014)
    .ARM.Collect$$_printf_percent$$00000017  0x080001b0   Section        4  _printf_percent_end.o(.ARM.Collect$$_printf_percent$$00000017)
    .ARM.Collect$$libinit$$00000000          0x080001b4   Section        2  libinit.o(.ARM.Collect$$libinit$$00000000)
    .ARM.Collect$$libinit$$00000002          0x080001b6   Section        0  libinit2.o(.ARM.Collect$$libinit$$00000002)
    .ARM.Collect$$libinit$$00000004          0x080001b6   Section        0  libinit2.o(.ARM.Collect$$libinit$$00000004)
    .ARM.Collect$$libinit$$0000000A          0x080001b6   Section        0  libinit2.o(.ARM.Collect$$libinit$$0000000A)
    .ARM.Collect$$libinit$$0000000C          0x080001b6   Section        0  libinit2.o(.ARM.Collect$$libinit$$0000000C)
    .ARM.Collect$$libinit$$0000000E          0x080001b6   Section        0  libinit2.o(.ARM.Collect$$libinit$$0000000E)
    .ARM.Collect$$libinit$$00000011          0x080001b6   Section        0  libinit2.o(.ARM.Collect$$libinit$$00000011)
    .ARM.Collect$$libinit$$00000013          0x080001b6   Section        0  libinit2.o(.ARM.Collect$$libinit$$00000013)
    .ARM.Collect$$libinit$$00000015          0x080001b6   Section        0  libinit2.o(.ARM.Collect$$libinit$$00000015)
    .ARM.Collect$$libinit$$00000017          0x080001b6   Section        0  libinit2.o(.ARM.Collect$$libinit$$00000017)
    .ARM.Collect$$libinit$$00000019          0x080001b6   Section        0  libinit2.o(.ARM.Collect$$libinit$$00000019)
    .ARM.Collect$$libinit$$0000001B          0x080001b6   Section        0  libinit2.o(.ARM.Collect$$libinit$$0000001B)
    .ARM.Collect$$libinit$$0000001D          0x080001b6   Section        0  libinit2.o(.ARM.Collect$$libinit$$0000001D)
    .ARM.Collect$$libinit$$0000001F          0x080001b6   Section        0  libinit2.o(.ARM.Collect$$libinit$$0000001F)
    .ARM.Collect$$libinit$$00000021          0x080001b6   Section        0  libinit2.o(.ARM.Collect$$libinit$$00000021)
    .ARM.Collect$$libinit$$00000023          0x080001b6   Section        0  libinit2.o(.ARM.Collect$$libinit$$00000023)
    .ARM.Collect$$libinit$$00000025          0x080001b6   Section        0  libinit2.o(.ARM.Collect$$libinit$$00000025)
    .ARM.Collect$$libinit$$0000002C          0x080001b6   Section        0  libinit2.o(.ARM.Collect$$libinit$$0000002C)
    .ARM.Collect$$libinit$$0000002E          0x080001b6   Section        0  libinit2.o(.ARM.Collect$$libinit$$0000002E)
    .ARM.Collect$$libinit$$00000030          0x080001b6   Section        0  libinit2.o(.ARM.Collect$$libinit$$00000030)
    .ARM.Collect$$libinit$$00000032          0x080001b6   Section        0  libinit2.o(.ARM.Collect$$libinit$$00000032)
    .ARM.Collect$$libinit$$00000033          0x080001b6   Section        2  libinit2.o(.ARM.Collect$$libinit$$00000033)
    .ARM.Collect$$libshutdown$$00000000      0x080001b8   Section        2  libshutdown.o(.ARM.Collect$$libshutdown$$00000000)
    .ARM.Collect$$libshutdown$$00000002      0x080001ba   Section        0  libshutdown2.o(.ARM.Collect$$libshutdown$$00000002)
    .ARM.Collect$$libshutdown$$00000004      0x080001ba   Section        0  libshutdown2.o(.ARM.Collect$$libshutdown$$00000004)
    .ARM.Collect$$libshutdown$$00000007      0x080001ba   Section        0  libshutdown2.o(.ARM.Collect$$libshutdown$$00000007)
    .ARM.Collect$$libshutdown$$0000000A      0x080001ba   Section        0  libshutdown2.o(.ARM.Collect$$libshutdown$$0000000A)
    .ARM.Collect$$libshutdown$$0000000C      0x080001ba   Section        0  libshutdown2.o(.ARM.Collect$$libshutdown$$0000000C)
    .ARM.Collect$$libshutdown$$0000000F      0x080001ba   Section        0  libshutdown2.o(.ARM.Collect$$libshutdown$$0000000F)
    .ARM.Collect$$libshutdown$$00000010      0x080001ba   Section        2  libshutdown2.o(.ARM.Collect$$libshutdown$$00000010)
    .ARM.Collect$$rtentry$$00000000          0x080001bc   Section        0  __rtentry.o(.ARM.Collect$$rtentry$$00000000)
    .ARM.Collect$$rtentry$$00000002          0x080001bc   Section        0  __rtentry2.o(.ARM.Collect$$rtentry$$00000002)
    .ARM.Collect$$rtentry$$00000004          0x080001bc   Section        6  __rtentry4.o(.ARM.Collect$$rtentry$$00000004)
    .ARM.Collect$$rtentry$$00000009          0x080001c2   Section        0  __rtentry2.o(.ARM.Collect$$rtentry$$00000009)
    .ARM.Collect$$rtentry$$0000000A          0x080001c2   Section        4  __rtentry2.o(.ARM.Collect$$rtentry$$0000000A)
    .ARM.Collect$$rtentry$$0000000C          0x080001c6   Section        0  __rtentry2.o(.ARM.Collect$$rtentry$$0000000C)
    .ARM.Collect$$rtentry$$0000000D          0x080001c6   Section        8  __rtentry2.o(.ARM.Collect$$rtentry$$0000000D)
    .ARM.Collect$$rtexit$$00000000           0x080001ce   Section        2  rtexit.o(.ARM.Collect$$rtexit$$00000000)
    .ARM.Collect$$rtexit$$00000002           0x080001d0   Section        0  rtexit2.o(.ARM.Collect$$rtexit$$00000002)
    .ARM.Collect$$rtexit$$00000003           0x080001d0   Section        4  rtexit2.o(.ARM.Collect$$rtexit$$00000003)
    .ARM.Collect$$rtexit$$00000004           0x080001d4   Section        6  rtexit2.o(.ARM.Collect$$rtexit$$00000004)
    .emb_text                                0x080001dc   Section        6  sys.o(.emb_text)
    .emb_text                                0x080001e4   Section      150  port.o(.emb_text)
    .text                                    0x0800027c   Section       64  startup_stm32f10x_hd.o(.text)
    .text                                    0x080002bc   Section        2  use_no_semi_2.o(.text)
    .text                                    0x080002c0   Section        0  noretval__2printf.o(.text)
    .text                                    0x080002d8   Section        0  __printf.o(.text)
    .text                                    0x08000340   Section        0  _printf_str.o(.text)
    .text                                    0x08000394   Section        0  _printf_dec.o(.text)
    .text                                    0x0800040c   Section      138  rt_memcpy_v6.o(.text)
    .text                                    0x08000496   Section       16  aeabi_memset.o(.text)
    .text                                    0x080004a6   Section        0  heapauxi.o(.text)
    .text                                    0x080004ac   Section        2  use_no_semi.o(.text)
    .text                                    0x080004ae   Section        0  _printf_intcommon.o(.text)
    .text                                    0x08000560   Section        0  _printf_char_common.o(.text)
    _printf_input_char                       0x08000561   Thumb Code    10  _printf_char_common.o(.text)
    .text                                    0x08000590   Section        0  _printf_char.o(.text)
    .text                                    0x080005bc   Section        0  _printf_char_file.o(.text)
    .text                                    0x080005e0   Section      100  rt_memcpy_w.o(.text)
    .text                                    0x08000644   Section       68  rt_memclr.o(.text)
    .text                                    0x08000688   Section        0  ferror.o(.text)
    .text                                    0x08000690   Section       78  rt_memclr_w.o(.text)
    .text                                    0x080006de   Section       74  sys_stackheap_outer.o(.text)
    .text                                    0x08000728   Section        0  exit.o(.text)
    .text                                    0x0800073c   Section        8  libspace.o(.text)
    i.BusFault_Handler                       0x08000744   Section        0  stm32f10x_it.o(i.BusFault_Handler)
    i.DMA_ClearFlag                          0x08000748   Section        0  stm32f10x_dma.o(i.DMA_ClearFlag)
    i.DMA_Cmd                                0x08000764   Section        0  stm32f10x_dma.o(i.DMA_Cmd)
    i.DMA_DeInit                             0x0800077c   Section        0  stm32f10x_dma.o(i.DMA_DeInit)
    i.DMA_GetCurrDataCounter                 0x080008c8   Section        0  stm32f10x_dma.o(i.DMA_GetCurrDataCounter)
    i.DMA_GetFlagStatus                      0x080008d0   Section        0  stm32f10x_dma.o(i.DMA_GetFlagStatus)
    i.DMA_Init                               0x080008fc   Section        0  stm32f10x_dma.o(i.DMA_Init)
    i.DebugMon_Handler                       0x08000938   Section        0  stm32f10x_it.o(i.DebugMon_Handler)
    i.FLASH_ErasePage                        0x0800093c   Section        0  stm32f10x_flash.o(i.FLASH_ErasePage)
    i.FLASH_GetBank1Status                   0x08000988   Section        0  stm32f10x_flash.o(i.FLASH_GetBank1Status)
    i.FLASH_Lock                             0x080009bc   Section        0  stm32f10x_flash.o(i.FLASH_Lock)
    i.FLASH_ProgramHalfWord                  0x080009d0   Section        0  stm32f10x_flash.o(i.FLASH_ProgramHalfWord)
    i.FLASH_Unlock                           0x08000a10   Section        0  stm32f10x_flash.o(i.FLASH_Unlock)
    i.FLASH_WaitForLastOperation             0x08000a28   Section        0  stm32f10x_flash.o(i.FLASH_WaitForLastOperation)
    i.GPIO_Init                              0x08000a4e   Section        0  stm32f10x_gpio.o(i.GPIO_Init)
    i.GPIO_PinRemapConfig                    0x08000b64   Section        0  stm32f10x_gpio.o(i.GPIO_PinRemapConfig)
    i.GPIO_SetBits                           0x08000bf4   Section        0  stm32f10x_gpio.o(i.GPIO_SetBits)
    i.HardFault_Handler                      0x08000bf8   Section        0  stm32f10x_it.o(i.HardFault_Handler)
    i.LED_Init                               0x08000bfc   Section        0  led.o(i.LED_Init)
    i.MemManage_Handler                      0x08000c48   Section        0  stm32f10x_it.o(i.MemManage_Handler)
    i.NMI_Handler                            0x08000c4c   Section        0  stm32f10x_it.o(i.NMI_Handler)
    i.NVIC_Init                              0x08000c50   Section        0  misc.o(i.NVIC_Init)
    i.NVIC_PriorityGroupConfig               0x08000cc0   Section        0  misc.o(i.NVIC_PriorityGroupConfig)
    i.RCC_AHBPeriphClockCmd                  0x08000cd4   Section        0  stm32f10x_rcc.o(i.RCC_AHBPeriphClockCmd)
    i.RCC_APB1PeriphClockCmd                 0x08000cf4   Section        0  stm32f10x_rcc.o(i.RCC_APB1PeriphClockCmd)
    i.RCC_APB2PeriphClockCmd                 0x08000d14   Section        0  stm32f10x_rcc.o(i.RCC_APB2PeriphClockCmd)
    i.RCC_GetClocksFreq                      0x08000d34   Section        0  stm32f10x_rcc.o(i.RCC_GetClocksFreq)
    i.STMFLASH_Read                          0x08000e08   Section        0  stmflash.o(i.STMFLASH_Read)
    i.STMFLASH_ReadHalfWord                  0x08000e2a   Section        0  stmflash.o(i.STMFLASH_ReadHalfWord)
    i.STMFLASH_Write                         0x08000e30   Section        0  stmflash.o(i.STMFLASH_Write)
    i.STMFLASH_Write_NoCheck                 0x08000f18   Section        0  stmflash.o(i.STMFLASH_Write_NoCheck)
    i.SetSysClock                            0x08000f3e   Section        0  system_stm32f10x.o(i.SetSysClock)
    SetSysClock                              0x08000f3f   Thumb Code     8  system_stm32f10x.o(i.SetSysClock)
    i.SetSysClockTo72                        0x08000f48   Section        0  system_stm32f10x.o(i.SetSysClockTo72)
    SetSysClockTo72                          0x08000f49   Thumb Code   214  system_stm32f10x.o(i.SetSysClockTo72)
    i.SysTick_CLKSourceConfig                0x08001028   Section        0  misc.o(i.SysTick_CLKSourceConfig)
    i.SysTick_Handler                        0x08001050   Section        0  delay.o(i.SysTick_Handler)
    i.SystemInit                             0x08001060   Section        0  system_stm32f10x.o(i.SystemInit)
    i.USART1_IRQHandler                      0x080010c0   Section        0  usart.o(i.USART1_IRQHandler)
    i.USART_Cmd                              0x08001164   Section        0  stm32f10x_usart.o(i.USART_Cmd)
    i.USART_DMACmd                           0x0800117c   Section        0  stm32f10x_usart.o(i.USART_DMACmd)
    i.USART_GetFlagStatus                    0x0800118e   Section        0  stm32f10x_usart.o(i.USART_GetFlagStatus)
    i.USART_GetITStatus                      0x080011a8   Section        0  stm32f10x_usart.o(i.USART_GetITStatus)
    i.USART_ITConfig                         0x080011fc   Section        0  stm32f10x_usart.o(i.USART_ITConfig)
    i.USART_Init                             0x08001248   Section        0  stm32f10x_usart.o(i.USART_Init)
    i.USART_ReceiveData                      0x08001320   Section        0  stm32f10x_usart.o(i.USART_ReceiveData)
    i.UsageFault_Handler                     0x0800132a   Section        0  stm32f10x_it.o(i.UsageFault_Handler)
    i._sys_exit                              0x0800132e   Section        0  usart.o(i._sys_exit)
    i.bJudgeChecksum                         0x08001332   Section        0  protocol.o(i.bJudgeChecksum)
    i.delay_init                             0x0800136c   Section        0  delay.o(i.delay_init)
    i.eFrame_Analy                           0x080013c8   Section        0  protocol.o(i.eFrame_Analy)
    i.fputc                                  0x080014c4   Section        0  usart.o(i.fputc)
    i.iap_load_app                           0x080014e0   Section        0  iap.o(i.iap_load_app)
    i.iap_write_appbin                       0x0800150c   Section        0  iap.o(i.iap_write_appbin)
    i.main                                   0x08001574   Section        0  main.o(i.main)
    i.prvAddCurrentTaskToDelayedList         0x0800166c   Section        0  tasks.o(i.prvAddCurrentTaskToDelayedList)
    prvAddCurrentTaskToDelayedList           0x0800166d   Thumb Code   124  tasks.o(i.prvAddCurrentTaskToDelayedList)
    i.prvAddNewTaskToReadyList               0x08001704   Section        0  tasks.o(i.prvAddNewTaskToReadyList)
    prvAddNewTaskToReadyList                 0x08001705   Thumb Code   156  tasks.o(i.prvAddNewTaskToReadyList)
    i.prvCheckForValidListAndQueue           0x080017bc   Section        0  timers.o(i.prvCheckForValidListAndQueue)
    prvCheckForValidListAndQueue             0x080017bd   Thumb Code    72  timers.o(i.prvCheckForValidListAndQueue)
    i.prvCheckTasksWaitingTermination        0x08001820   Section        0  tasks.o(i.prvCheckTasksWaitingTermination)
    prvCheckTasksWaitingTermination          0x08001821   Thumb Code    86  tasks.o(i.prvCheckTasksWaitingTermination)
    i.prvCopyDataFromQueue                   0x08001884   Section        0  queue.o(i.prvCopyDataFromQueue)
    prvCopyDataFromQueue                     0x08001885   Thumb Code    42  queue.o(i.prvCopyDataFromQueue)
    i.prvCopyDataToQueue                     0x080018ae   Section        0  queue.o(i.prvCopyDataToQueue)
    prvCopyDataToQueue                       0x080018af   Thumb Code   124  queue.o(i.prvCopyDataToQueue)
    i.prvDeleteTCB                           0x0800192a   Section        0  tasks.o(i.prvDeleteTCB)
    prvDeleteTCB                             0x0800192b   Thumb Code    18  tasks.o(i.prvDeleteTCB)
    i.prvGetNextExpireTime                   0x0800193c   Section        0  timers.o(i.prvGetNextExpireTime)
    prvGetNextExpireTime                     0x0800193d   Thumb Code    36  timers.o(i.prvGetNextExpireTime)
    i.prvHeapInit                            0x08001964   Section        0  heap_4.o(i.prvHeapInit)
    prvHeapInit                              0x08001965   Thumb Code    98  heap_4.o(i.prvHeapInit)
    i.prvIdleTask                            0x080019e0   Section        0  tasks.o(i.prvIdleTask)
    prvIdleTask                              0x080019e1   Thumb Code    32  tasks.o(i.prvIdleTask)
    i.prvInitialiseNewQueue                  0x08001a08   Section        0  queue.o(i.prvInitialiseNewQueue)
    prvInitialiseNewQueue                    0x08001a09   Thumb Code    46  queue.o(i.prvInitialiseNewQueue)
    i.prvInitialiseNewTask                   0x08001a38   Section        0  tasks.o(i.prvInitialiseNewTask)
    prvInitialiseNewTask                     0x08001a39   Thumb Code   170  tasks.o(i.prvInitialiseNewTask)
    i.prvInitialiseTaskLists                 0x08001b08   Section        0  tasks.o(i.prvInitialiseTaskLists)
    prvInitialiseTaskLists                   0x08001b09   Thumb Code    70  tasks.o(i.prvInitialiseTaskLists)
    i.prvInsertBlockIntoFreeList             0x08001b70   Section        0  heap_4.o(i.prvInsertBlockIntoFreeList)
    prvInsertBlockIntoFreeList               0x08001b71   Thumb Code    96  heap_4.o(i.prvInsertBlockIntoFreeList)
    i.prvInsertTimerInActiveList             0x08001bd8   Section        0  timers.o(i.prvInsertTimerInActiveList)
    prvInsertTimerInActiveList               0x08001bd9   Thumb Code    80  timers.o(i.prvInsertTimerInActiveList)
    i.prvIsQueueEmpty                        0x08001c30   Section        0  queue.o(i.prvIsQueueEmpty)
    prvIsQueueEmpty                          0x08001c31   Thumb Code    26  queue.o(i.prvIsQueueEmpty)
    i.prvIsQueueFull                         0x08001c4a   Section        0  queue.o(i.prvIsQueueFull)
    prvIsQueueFull                           0x08001c4b   Thumb Code    30  queue.o(i.prvIsQueueFull)
    i.prvNotifyQueueSetContainer             0x08001c68   Section        0  queue.o(i.prvNotifyQueueSetContainer)
    prvNotifyQueueSetContainer               0x08001c69   Thumb Code   124  queue.o(i.prvNotifyQueueSetContainer)
    i.prvProcessExpiredTimer                 0x08001d08   Section        0  timers.o(i.prvProcessExpiredTimer)
    prvProcessExpiredTimer                   0x08001d09   Thumb Code    84  timers.o(i.prvProcessExpiredTimer)
    i.prvProcessReceivedCommands             0x08001d88   Section        0  timers.o(i.prvProcessReceivedCommands)
    prvProcessReceivedCommands               0x08001d89   Thumb Code   254  timers.o(i.prvProcessReceivedCommands)
    i.prvProcessTimerOrBlockTask             0x08001eb4   Section        0  timers.o(i.prvProcessTimerOrBlockTask)
    prvProcessTimerOrBlockTask               0x08001eb5   Thumb Code   102  timers.o(i.prvProcessTimerOrBlockTask)
    i.prvResetNextTaskUnblockTime            0x08001f28   Section        0  tasks.o(i.prvResetNextTaskUnblockTime)
    prvResetNextTaskUnblockTime              0x08001f29   Thumb Code    42  tasks.o(i.prvResetNextTaskUnblockTime)
    i.prvSampleTimeNow                       0x08001f5c   Section        0  timers.o(i.prvSampleTimeNow)
    prvSampleTimeNow                         0x08001f5d   Thumb Code    40  timers.o(i.prvSampleTimeNow)
    i.prvSwitchTimerLists                    0x08001f88   Section        0  timers.o(i.prvSwitchTimerLists)
    prvSwitchTimerLists                      0x08001f89   Thumb Code   140  timers.o(i.prvSwitchTimerLists)
    i.prvTaskExitError                       0x08002044   Section        0  port.o(i.prvTaskExitError)
    prvTaskExitError                         0x08002045   Thumb Code    48  port.o(i.prvTaskExitError)
    i.prvTimerTask                           0x080020b4   Section        0  timers.o(i.prvTimerTask)
    prvTimerTask                             0x080020b5   Thumb Code    26  timers.o(i.prvTimerTask)
    i.prvUnlockQueue                         0x080020ce   Section        0  queue.o(i.prvUnlockQueue)
    prvUnlockQueue                           0x080020cf   Thumb Code   146  queue.o(i.prvUnlockQueue)
    i.pvPortMalloc                           0x08002160   Section        0  heap_4.o(i.pvPortMalloc)
    i.pvTaskIncrementMutexHeldCount          0x080022b4   Section        0  tasks.o(i.pvTaskIncrementMutexHeldCount)
    i.pxPortInitialiseStack                  0x080022d4   Section        0  port.o(i.pxPortInitialiseStack)
    i.ucCodeChecksum                         0x080022f8   Section        0  protocol.o(i.ucCodeChecksum)
    i.ucCode_RespondFrame                    0x0800232a   Section        0  protocol.o(i.ucCode_RespondFrame)
    i.uxListRemove                           0x080023ae   Section        0  list.o(i.uxListRemove)
    i.vAppInforInit                          0x080023d8   Section        0  main.o(i.vAppInforInit)
    i.vCommandFrameHandle                    0x0800240c   Section        0  main.o(i.vCommandFrameHandle)
    i.vDataFrameHandle                       0x0800245c   Section        0  main.o(i.vDataFrameHandle)
    i.vDma1_4_Usart1_TX_Init                 0x08002570   Section        0  usart.o(i.vDma1_4_Usart1_TX_Init)
    i.vDma1_6_Usart2_RX_Init                 0x080025c0   Section        0  usart.o(i.vDma1_6_Usart2_RX_Init)
    i.vDma1_7_Usart2_TX_Init                 0x08002618   Section        0  usart.o(i.vDma1_7_Usart2_TX_Init)
    i.vFirmwareWriteTask                     0x08002670   Section        0  main.o(i.vFirmwareWriteTask)
    i.vFrameDataHandlerTask                  0x0800274c   Section        0  main.o(i.vFrameDataHandlerTask)
    i.vLed_Task                              0x08002870   Section        0  main.o(i.vLed_Task)
    i.vListInitialise                        0x08002890   Section        0  list.o(i.vListInitialise)
    i.vListInitialiseItem                    0x080028aa   Section        0  list.o(i.vListInitialiseItem)
    i.vListInsert                            0x080028b0   Section        0  list.o(i.vListInsert)
    i.vListInsertEnd                         0x080028e4   Section        0  list.o(i.vListInsertEnd)
    i.vPortEnterCritical                     0x080028fc   Section        0  port.o(i.vPortEnterCritical)
    i.vPortExitCritical                      0x08002984   Section        0  port.o(i.vPortExitCritical)
    i.vPortFree                              0x080029f4   Section        0  heap_4.o(i.vPortFree)
    i.vPortSetupTimerInterrupt               0x08002aac   Section        0  port.o(i.vPortSetupTimerInterrupt)
    i.vPortValidateInterruptPriority         0x08002acc   Section        0  port.o(i.vPortValidateInterruptPriority)
    i.vQueueAddToRegistry                    0x08002b6c   Section        0  queue.o(i.vQueueAddToRegistry)
    i.vQueueWaitForMessageRestricted         0x08002b98   Section        0  queue.o(i.vQueueWaitForMessageRestricted)
    i.vTaskDelay                             0x08002be4   Section        0  tasks.o(i.vTaskDelay)
    i.vTaskMissedYield                       0x08002c58   Section        0  tasks.o(i.vTaskMissedYield)
    i.vTaskPlaceOnEventList                  0x08002c64   Section        0  tasks.o(i.vTaskPlaceOnEventList)
    i.vTaskPlaceOnEventListRestricted        0x08002cb8   Section        0  tasks.o(i.vTaskPlaceOnEventListRestricted)
    i.vTaskPriorityInherit                   0x08002d14   Section        0  tasks.o(i.vTaskPriorityInherit)
    i.vTaskSetTimeOutState                   0x08002dc4   Section        0  tasks.o(i.vTaskSetTimeOutState)
    i.vTaskStartScheduler                    0x08002e10   Section        0  tasks.o(i.vTaskStartScheduler)
    i.vTaskSuspendAll                        0x08002ebc   Section        0  tasks.o(i.vTaskSuspendAll)
    i.vTaskSwitchContext                     0x08002ecc   Section        0  tasks.o(i.vTaskSwitchContext)
    i.vUart1_Init                            0x08002f74   Section        0  usart.o(i.vUart1_Init)
    i.vUart2_Init                            0x0800302c   Section        0  usart.o(i.vUart2_Init)
    i.vUsart1DmaInitForTest                  0x080030cc   Section        0  usart.o(i.vUsart1DmaInitForTest)
    i.vUsart1Interactive                     0x080030f8   Section        0  usart.o(i.vUsart1Interactive)
    i.vUsart2DmaInitForTest                  0x0800319c   Section        0  usart.o(i.vUsart2DmaInitForTest)
    i.vUsart2Interactive                     0x080031e8   Section        0  usart.o(i.vUsart2Interactive)
    i.vUsartDataHandleTask                   0x08003324   Section        0  main.o(i.vUsartDataHandleTask)
    i.xPortStartScheduler                    0x08003338   Section        0  port.o(i.xPortStartScheduler)
    i.xPortSysTickHandler                    0x080033d8   Section        0  port.o(i.xPortSysTickHandler)
    i.xQueueGenericCreate                    0x0800340c   Section        0  queue.o(i.xQueueGenericCreate)
    i.xQueueGenericReceive                   0x08003480   Section        0  queue.o(i.xQueueGenericReceive)
    i.xQueueGenericReset                     0x08003648   Section        0  queue.o(i.xQueueGenericReset)
    i.xQueueGenericSend                      0x080036f8   Section        0  queue.o(i.xQueueGenericSend)
    i.xQueueGenericSendFromISR               0x080038bc   Section        0  queue.o(i.xQueueGenericSendFromISR)
    i.xTaskCheckForTimeOut                   0x080039cc   Section        0  tasks.o(i.xTaskCheckForTimeOut)
    i.xTaskCreate                            0x08003a6c   Section        0  tasks.o(i.xTaskCreate)
    i.xTaskGetSchedulerState                 0x08003acc   Section        0  tasks.o(i.xTaskGetSchedulerState)
    i.xTaskGetTickCount                      0x08003aec   Section        0  tasks.o(i.xTaskGetTickCount)
    i.xTaskIncrementTick                     0x08003af8   Section        0  tasks.o(i.xTaskIncrementTick)
    i.xTaskPriorityDisinherit                0x08003c58   Section        0  tasks.o(i.xTaskPriorityDisinherit)
    i.xTaskRemoveFromEventList               0x08003d30   Section        0  tasks.o(i.xTaskRemoveFromEventList)
    i.xTaskResumeAll                         0x08003de4   Section        0  tasks.o(i.xTaskResumeAll)
    i.xTimerCreateTimerTask                  0x08003f04   Section        0  timers.o(i.xTimerCreateTimerTask)
    i.xTimerGenericCommand                   0x08003f78   Section        0  timers.o(i.xTimerGenericCommand)
    .data                                    0x20000000   Section       16  main.o(.data)
    Count                                    0x20000008   Data           4  main.o(.data)
    WriteFirmwareCount                       0x2000000c   Data           4  main.o(.data)
    .data                                    0x20000010   Section       20  system_stm32f10x.o(.data)
    .data                                    0x20000024   Section        4  delay.o(.data)
    fac_us                                   0x20000024   Data           1  delay.o(.data)
    fac_ms                                   0x20000026   Data           2  delay.o(.data)
    .data                                    0x20000028   Section       35  usart.o(.data)
    DMA1_Stream4Flag                         0x20000048   Data           1  usart.o(.data)
    DMA1_Stream7Flag                         0x20000049   Data           1  usart.o(.data)
    index                                    0x2000004a   Data           1  usart.o(.data)
    .data                                    0x2000004b   Section       20  stm32f10x_rcc.o(.data)
    APBAHBPrescTable                         0x2000004b   Data          16  stm32f10x_rcc.o(.data)
    ADCPrescTable                            0x2000005b   Data           4  stm32f10x_rcc.o(.data)
    .data                                    0x20000060   Section       60  tasks.o(.data)
    pxDelayedTaskList                        0x20000064   Data           4  tasks.o(.data)
    pxOverflowDelayedTaskList                0x20000068   Data           4  tasks.o(.data)
    uxDeletedTasksWaitingCleanUp             0x2000006c   Data           4  tasks.o(.data)
    uxCurrentNumberOfTasks                   0x20000070   Data           4  tasks.o(.data)
    xTickCount                               0x20000074   Data           4  tasks.o(.data)
    uxTopReadyPriority                       0x20000078   Data           4  tasks.o(.data)
    xSchedulerRunning                        0x2000007c   Data           4  tasks.o(.data)
    uxPendedTicks                            0x20000080   Data           4  tasks.o(.data)
    xYieldPending                            0x20000084   Data           4  tasks.o(.data)
    xNumOfOverflows                          0x20000088   Data           4  tasks.o(.data)
    uxTaskNumber                             0x2000008c   Data           4  tasks.o(.data)
    xNextTaskUnblockTime                     0x20000090   Data           4  tasks.o(.data)
    xIdleTaskHandle                          0x20000094   Data           4  tasks.o(.data)
    uxSchedulerSuspended                     0x20000098   Data           4  tasks.o(.data)
    .data                                    0x2000009c   Section       20  timers.o(.data)
    pxCurrentTimerList                       0x2000009c   Data           4  timers.o(.data)
    pxOverflowTimerList                      0x200000a0   Data           4  timers.o(.data)
    xTimerQueue                              0x200000a4   Data           4  timers.o(.data)
    xTimerTaskHandle                         0x200000a8   Data           4  timers.o(.data)
    xLastTime                                0x200000ac   Data           4  timers.o(.data)
    .data                                    0x200000b0   Section       24  heap_4.o(.data)
    xStart                                   0x200000b0   Data           8  heap_4.o(.data)
    pxEnd                                    0x200000b8   Data           4  heap_4.o(.data)
    xFreeBytesRemaining                      0x200000bc   Data           4  heap_4.o(.data)
    xMinimumEverFreeBytesRemaining           0x200000c0   Data           4  heap_4.o(.data)
    xBlockAllocatedBit                       0x200000c4   Data           4  heap_4.o(.data)
    .data                                    0x200000c8   Section       12  port.o(.data)
    uxCriticalNesting                        0x200000c8   Data           4  port.o(.data)
    ucMaxSysCallPriority                     0x200000cc   Data           1  port.o(.data)
    ulMaxPRIGROUPValue                       0x200000d0   Data           4  port.o(.data)
    .data                                    0x200000d4   Section        4  iap.o(.data)
    .bss                                     0x200000d8   Section    10272  main.o(.bss)
    .bss                                     0x200028f8   Section     2048  stmflash.o(.bss)
    .bss                                     0x200030f8   Section     6360  usart.o(.bss)
    .bss                                     0x200049d0   Section       64  queue.o(.bss)
    .bss                                     0x20004a10   Section      740  tasks.o(.bss)
    pxReadyTasksLists                        0x20004a10   Data         640  tasks.o(.bss)
    xDelayedTaskList1                        0x20004c90   Data          20  tasks.o(.bss)
    xDelayedTaskList2                        0x20004ca4   Data          20  tasks.o(.bss)
    xPendingReadyList                        0x20004cb8   Data          20  tasks.o(.bss)
    xTasksWaitingTermination                 0x20004ccc   Data          20  tasks.o(.bss)
    xSuspendedTaskList                       0x20004ce0   Data          20  tasks.o(.bss)
    .bss                                     0x20004cf4   Section       40  timers.o(.bss)
    xActiveTimerList1                        0x20004cf4   Data          20  timers.o(.bss)
    xActiveTimerList2                        0x20004d08   Data          20  timers.o(.bss)
    .bss                                     0x20004d1c   Section    20480  heap_4.o(.bss)
    ucHeap                                   0x20004d1c   Data       20480  heap_4.o(.bss)
    .bss                                     0x20009d1c   Section     2048  iap.o(.bss)
    .bss                                     0x2000a51c   Section      124  protocol.o(.bss)
    .bss                                     0x2000a598   Section       96  libspace.o(.bss)
    HEAP                                     0x2000a5f8   Section      512  startup_stm32f10x_hd.o(HEAP)
    Heap_Mem                                 0x2000a5f8   Data         512  startup_stm32f10x_hd.o(HEAP)
    STACK                                    0x2000a7f8   Section     2048  startup_stm32f10x_hd.o(STACK)
    Stack_Mem                                0x2000a7f8   Data        2048  startup_stm32f10x_hd.o(STACK)
    __initial_sp                             0x2000aff8   Data           0  startup_stm32f10x_hd.o(STACK)

    Global Symbols

    Symbol Name                              Value     Ov Type        Size  Object(Section)

    BuildAttributes$$THM_ISAv4$P$D$K$B$S$PE$A:L22UL41UL21$X:L11$S22US41US21$IEEE1$IW$USESV6$~STKCKD$USESV7$~SHL$OSPACE$ROPI$EBA8$UX$STANDARDLIB$REQ8$PRES8$EABIv2 0x00000000   Number         0  anon$$obj.o ABSOLUTE
    __ARM_use_no_argv                        0x00000000   Number         0  main.o ABSOLUTE
    __ARM_exceptions_init                     - Undefined Weak Reference
    __alloca_initialize                       - Undefined Weak Reference
    __arm_preinit_                            - Undefined Weak Reference
    __cpp_initialize__aeabi_                  - Undefined Weak Reference
    __cxa_finalize                            - Undefined Weak Reference
    __rt_locale                               - Undefined Weak Reference
    __sigvec_lookup                           - Undefined Weak Reference
    _atexit_init                              - Undefined Weak Reference
    _call_atexit_fns                          - Undefined Weak Reference
    _clock_init                               - Undefined Weak Reference
    _fp_trap_init                             - Undefined Weak Reference
    _fp_trap_shutdown                         - Undefined Weak Reference
    _get_lc_collate                           - Undefined Weak Reference
    _get_lc_ctype                             - Undefined Weak Reference
    _get_lc_monetary                          - Undefined Weak Reference
    _get_lc_numeric                           - Undefined Weak Reference
    _get_lc_time                              - Undefined Weak Reference
    _getenv_init                              - Undefined Weak Reference
    _handle_redirection                       - Undefined Weak Reference
    _init_alloc                               - Undefined Weak Reference
    _init_user_alloc                          - Undefined Weak Reference
    _initio                                   - Undefined Weak Reference
    _mutex_acquire                            - Undefined Weak Reference
    _mutex_release                            - Undefined Weak Reference
    _printf_mbtowc                            - Undefined Weak Reference
    _printf_post_padding                      - Undefined Weak Reference
    _printf_pre_padding                       - Undefined Weak Reference
    _printf_truncate_signed                   - Undefined Weak Reference
    _printf_truncate_unsigned                 - Undefined Weak Reference
    _rand_init                                - Undefined Weak Reference
    _signal_finish                            - Undefined Weak Reference
    _signal_init                              - Undefined Weak Reference
    _terminate_alloc                          - Undefined Weak Reference
    _terminate_user_alloc                     - Undefined Weak Reference
    _terminateio                              - Undefined Weak Reference
    __Vectors_Size                           0x00000130   Number         0  startup_stm32f10x_hd.o ABSOLUTE
    __Vectors                                0x08000000   Data           4  startup_stm32f10x_hd.o(RESET)
    __Vectors_End                            0x08000130   Data           0  startup_stm32f10x_hd.o(RESET)
    __main                                   0x08000131   Thumb Code     8  __main.o(!!!main)
    __scatterload                            0x08000139   Thumb Code     0  __scatter.o(!!!scatter)
    __scatterload_rt2                        0x08000139   Thumb Code    44  __scatter.o(!!!scatter)
    __scatterload_rt2_thumb_only             0x08000139   Thumb Code     0  __scatter.o(!!!scatter)
    __scatterload_null                       0x08000147   Thumb Code     0  __scatter.o(!!!scatter)
    __scatterload_copy                       0x0800016d   Thumb Code    26  __scatter_copy.o(!!handler_copy)
    __scatterload_zeroinit                   0x08000189   Thumb Code    28  __scatter_zi.o(!!handler_zi)
    _printf_d                                0x080001a5   Thumb Code     0  _printf_d.o(.ARM.Collect$$_printf_percent$$00000009)
    _printf_percent                          0x080001a5   Thumb Code     0  _printf_percent.o(.ARM.Collect$$_printf_percent$$00000000)
    _printf_s                                0x080001ab   Thumb Code     0  _printf_s.o(.ARM.Collect$$_printf_percent$$00000014)
    _printf_percent_end                      0x080001b1   Thumb Code     0  _printf_percent_end.o(.ARM.Collect$$_printf_percent$$00000017)
    __rt_lib_init                            0x080001b5   Thumb Code     0  libinit.o(.ARM.Collect$$libinit$$00000000)
    __rt_lib_init_alloca_1                   0x080001b7   Thumb Code     0  libinit2.o(.ARM.Collect$$libinit$$0000002E)
    __rt_lib_init_argv_1                     0x080001b7   Thumb Code     0  libinit2.o(.ARM.Collect$$libinit$$0000002C)
    __rt_lib_init_atexit_1                   0x080001b7   Thumb Code     0  libinit2.o(.ARM.Collect$$libinit$$0000001B)
    __rt_lib_init_clock_1                    0x080001b7   Thumb Code     0  libinit2.o(.ARM.Collect$$libinit$$00000021)
    __rt_lib_init_cpp_1                      0x080001b7   Thumb Code     0  libinit2.o(.ARM.Collect$$libinit$$00000032)
    __rt_lib_init_exceptions_1               0x080001b7   Thumb Code     0  libinit2.o(.ARM.Collect$$libinit$$00000030)
    __rt_lib_init_fp_1                       0x080001b7   Thumb Code     0  libinit2.o(.ARM.Collect$$libinit$$00000002)
    __rt_lib_init_fp_trap_1                  0x080001b7   Thumb Code     0  libinit2.o(.ARM.Collect$$libinit$$0000001F)
    __rt_lib_init_getenv_1                   0x080001b7   Thumb Code     0  libinit2.o(.ARM.Collect$$libinit$$00000023)
    __rt_lib_init_heap_1                     0x080001b7   Thumb Code     0  libinit2.o(.ARM.Collect$$libinit$$0000000A)
    __rt_lib_init_lc_collate_1               0x080001b7   Thumb Code     0  libinit2.o(.ARM.Collect$$libinit$$00000011)
    __rt_lib_init_lc_ctype_1                 0x080001b7   Thumb Code     0  libinit2.o(.ARM.Collect$$libinit$$00000013)
    __rt_lib_init_lc_monetary_1              0x080001b7   Thumb Code     0  libinit2.o(.ARM.Collect$$libinit$$00000015)
    __rt_lib_init_lc_numeric_1               0x080001b7   Thumb Code     0  libinit2.o(.ARM.Collect$$libinit$$00000017)
    __rt_lib_init_lc_time_1                  0x080001b7   Thumb Code     0  libinit2.o(.ARM.Collect$$libinit$$00000019)
    __rt_lib_init_preinit_1                  0x080001b7   Thumb Code     0  libinit2.o(.ARM.Collect$$libinit$$00000004)
    __rt_lib_init_rand_1                     0x080001b7   Thumb Code     0  libinit2.o(.ARM.Collect$$libinit$$0000000E)
    __rt_lib_init_return                     0x080001b7   Thumb Code     0  libinit2.o(.ARM.Collect$$libinit$$00000033)
    __rt_lib_init_signal_1                   0x080001b7   Thumb Code     0  libinit2.o(.ARM.Collect$$libinit$$0000001D)
    __rt_lib_init_stdio_1                    0x080001b7   Thumb Code     0  libinit2.o(.ARM.Collect$$libinit$$00000025)
    __rt_lib_init_user_alloc_1               0x080001b7   Thumb Code     0  libinit2.o(.ARM.Collect$$libinit$$0000000C)
    __rt_lib_shutdown                        0x080001b9   Thumb Code     0  libshutdown.o(.ARM.Collect$$libshutdown$$00000000)
    __rt_lib_shutdown_cpp_1                  0x080001bb   Thumb Code     0  libshutdown2.o(.ARM.Collect$$libshutdown$$00000002)
    __rt_lib_shutdown_fp_trap_1              0x080001bb   Thumb Code     0  libshutdown2.o(.ARM.Collect$$libshutdown$$00000007)
    __rt_lib_shutdown_heap_1                 0x080001bb   Thumb Code     0  libshutdown2.o(.ARM.Collect$$libshutdown$$0000000F)
    __rt_lib_shutdown_return                 0x080001bb   Thumb Code     0  libshutdown2.o(.ARM.Collect$$libshutdown$$00000010)
    __rt_lib_shutdown_signal_1               0x080001bb   Thumb Code     0  libshutdown2.o(.ARM.Collect$$libshutdown$$0000000A)
    __rt_lib_shutdown_stdio_1                0x080001bb   Thumb Code     0  libshutdown2.o(.ARM.Collect$$libshutdown$$00000004)
    __rt_lib_shutdown_user_alloc_1           0x080001bb   Thumb Code     0  libshutdown2.o(.ARM.Collect$$libshutdown$$0000000C)
    __rt_entry                               0x080001bd   Thumb Code     0  __rtentry.o(.ARM.Collect$$rtentry$$00000000)
    __rt_entry_presh_1                       0x080001bd   Thumb Code     0  __rtentry2.o(.ARM.Collect$$rtentry$$00000002)
    __rt_entry_sh                            0x080001bd   Thumb Code     0  __rtentry4.o(.ARM.Collect$$rtentry$$00000004)
    __rt_entry_li                            0x080001c3   Thumb Code     0  __rtentry2.o(.ARM.Collect$$rtentry$$0000000A)
    __rt_entry_postsh_1                      0x080001c3   Thumb Code     0  __rtentry2.o(.ARM.Collect$$rtentry$$00000009)
    __rt_entry_main                          0x080001c7   Thumb Code     0  __rtentry2.o(.ARM.Collect$$rtentry$$0000000D)
    __rt_entry_postli_1                      0x080001c7   Thumb Code     0  __rtentry2.o(.ARM.Collect$$rtentry$$0000000C)
    __rt_exit                                0x080001cf   Thumb Code     0  rtexit.o(.ARM.Collect$$rtexit$$00000000)
    __rt_exit_ls                             0x080001d1   Thumb Code     0  rtexit2.o(.ARM.Collect$$rtexit$$00000003)
    __rt_exit_prels_1                        0x080001d1   Thumb Code     0  rtexit2.o(.ARM.Collect$$rtexit$$00000002)
    __rt_exit_exit                           0x080001d5   Thumb Code     0  rtexit2.o(.ARM.Collect$$rtexit$$00000004)
    MSR_MSP                                  0x080001dd   Thumb Code     6  sys.o(.emb_text)
    SVC_Handler                              0x080001e5   Thumb Code    32  port.o(.emb_text)
    __asm___6_port_c_39a90d8d__prvStartFirstTask 0x08000209   Thumb Code    28  port.o(.emb_text)
    PendSV_Handler                           0x08000229   Thumb Code    72  port.o(.emb_text)
    vPortGetIPSR                             0x08000275   Thumb Code     6  port.o(.emb_text)
    Reset_Handler                            0x0800027d   Thumb Code     8  startup_stm32f10x_hd.o(.text)
    ADC1_2_IRQHandler                        0x08000297   Thumb Code     0  startup_stm32f10x_hd.o(.text)
    ADC3_IRQHandler                          0x08000297   Thumb Code     0  startup_stm32f10x_hd.o(.text)
    CAN1_RX1_IRQHandler                      0x08000297   Thumb Code     0  startup_stm32f10x_hd.o(.text)
    CAN1_SCE_IRQHandler                      0x08000297   Thumb Code     0  startup_stm32f10x_hd.o(.text)
    DMA1_Channel1_IRQHandler                 0x08000297   Thumb Code     0  startup_stm32f10x_hd.o(.text)
    DMA1_Channel2_IRQHandler                 0x08000297   Thumb Code     0  startup_stm32f10x_hd.o(.text)
    DMA1_Channel3_IRQHandler                 0x08000297   Thumb Code     0  startup_stm32f10x_hd.o(.text)
    DMA1_Channel4_IRQHandler                 0x08000297   Thumb Code     0  startup_stm32f10x_hd.o(.text)
    DMA1_Channel5_IRQHandler                 0x08000297   Thumb Code     0  startup_stm32f10x_hd.o(.text)
    DMA1_Channel6_IRQHandler                 0x08000297   Thumb Code     0  startup_stm32f10x_hd.o(.text)
    DMA1_Channel7_IRQHandler                 0x08000297   Thumb Code     0  startup_stm32f10x_hd.o(.text)
    DMA2_Channel1_IRQHandler                 0x08000297   Thumb Code     0  startup_stm32f10x_hd.o(.text)
    DMA2_Channel2_IRQHandler                 0x08000297   Thumb Code     0  startup_stm32f10x_hd.o(.text)
    DMA2_Channel3_IRQHandler                 0x08000297   Thumb Code     0  startup_stm32f10x_hd.o(.text)
    DMA2_Channel4_5_IRQHandler               0x08000297   Thumb Code     0  startup_stm32f10x_hd.o(.text)
    EXTI0_IRQHandler                         0x08000297   Thumb Code     0  startup_stm32f10x_hd.o(.text)
    EXTI15_10_IRQHandler                     0x08000297   Thumb Code     0  startup_stm32f10x_hd.o(.text)
    EXTI1_IRQHandler                         0x08000297   Thumb Code     0  startup_stm32f10x_hd.o(.text)
    EXTI2_IRQHandler                         0x08000297   Thumb Code     0  startup_stm32f10x_hd.o(.text)
    EXTI3_IRQHandler                         0x08000297   Thumb Code     0  startup_stm32f10x_hd.o(.text)
    EXTI4_IRQHandler                         0x08000297   Thumb Code     0  startup_stm32f10x_hd.o(.text)
    EXTI9_5_IRQHandler                       0x08000297   Thumb Code     0  startup_stm32f10x_hd.o(.text)
    FLASH_IRQHandler                         0x08000297   Thumb Code     0  startup_stm32f10x_hd.o(.text)
    FSMC_IRQHandler                          0x08000297   Thumb Code     0  startup_stm32f10x_hd.o(.text)
    I2C1_ER_IRQHandler                       0x08000297   Thumb Code     0  startup_stm32f10x_hd.o(.text)
    I2C1_EV_IRQHandler                       0x08000297   Thumb Code     0  startup_stm32f10x_hd.o(.text)
    I2C2_ER_IRQHandler                       0x08000297   Thumb Code     0  startup_stm32f10x_hd.o(.text)
    I2C2_EV_IRQHandler                       0x08000297   Thumb Code     0  startup_stm32f10x_hd.o(.text)
    PVD_IRQHandler                           0x08000297   Thumb Code     0  startup_stm32f10x_hd.o(.text)
    RCC_IRQHandler                           0x08000297   Thumb Code     0  startup_stm32f10x_hd.o(.text)
    RTCAlarm_IRQHandler                      0x08000297   Thumb Code     0  startup_stm32f10x_hd.o(.text)
    RTC_IRQHandler                           0x08000297   Thumb Code     0  startup_stm32f10x_hd.o(.text)
    SDIO_IRQHandler                          0x08000297   Thumb Code     0  startup_stm32f10x_hd.o(.text)
    SPI1_IRQHandler                          0x08000297   Thumb Code     0  startup_stm32f10x_hd.o(.text)
    SPI2_IRQHandler                          0x08000297   Thumb Code     0  startup_stm32f10x_hd.o(.text)
    SPI3_IRQHandler                          0x08000297   Thumb Code     0  startup_stm32f10x_hd.o(.text)
    TAMPER_IRQHandler                        0x08000297   Thumb Code     0  startup_stm32f10x_hd.o(.text)
    TIM1_BRK_IRQHandler                      0x08000297   Thumb Code     0  startup_stm32f10x_hd.o(.text)
    TIM1_CC_IRQHandler                       0x08000297   Thumb Code     0  startup_stm32f10x_hd.o(.text)
    TIM1_TRG_COM_IRQHandler                  0x08000297   Thumb Code     0  startup_stm32f10x_hd.o(.text)
    TIM1_UP_IRQHandler                       0x08000297   Thumb Code     0  startup_stm32f10x_hd.o(.text)
    TIM2_IRQHandler                          0x08000297   Thumb Code     0  startup_stm32f10x_hd.o(.text)
    TIM3_IRQHandler                          0x08000297   Thumb Code     0  startup_stm32f10x_hd.o(.text)
    TIM4_IRQHandler                          0x08000297   Thumb Code     0  startup_stm32f10x_hd.o(.text)
    TIM5_IRQHandler                          0x08000297   Thumb Code     0  startup_stm32f10x_hd.o(.text)
    TIM6_IRQHandler                          0x08000297   Thumb Code     0  startup_stm32f10x_hd.o(.text)
    TIM7_IRQHandler                          0x08000297   Thumb Code     0  startup_stm32f10x_hd.o(.text)
    TIM8_BRK_IRQHandler                      0x08000297   Thumb Code     0  startup_stm32f10x_hd.o(.text)
    TIM8_CC_IRQHandler                       0x08000297   Thumb Code     0  startup_stm32f10x_hd.o(.text)
    TIM8_TRG_COM_IRQHandler                  0x08000297   Thumb Code     0  startup_stm32f10x_hd.o(.text)
    TIM8_UP_IRQHandler                       0x08000297   Thumb Code     0  startup_stm32f10x_hd.o(.text)
    UART4_IRQHandler                         0x08000297   Thumb Code     0  startup_stm32f10x_hd.o(.text)
    UART5_IRQHandler                         0x08000297   Thumb Code     0  startup_stm32f10x_hd.o(.text)
    USART2_IRQHandler                        0x08000297   Thumb Code     0  startup_stm32f10x_hd.o(.text)
    USART3_IRQHandler                        0x08000297   Thumb Code     0  startup_stm32f10x_hd.o(.text)
    USBWakeUp_IRQHandler                     0x08000297   Thumb Code     0  startup_stm32f10x_hd.o(.text)
    USB_HP_CAN1_TX_IRQHandler                0x08000297   Thumb Code     0  startup_stm32f10x_hd.o(.text)
    USB_LP_CAN1_RX0_IRQHandler               0x08000297   Thumb Code     0  startup_stm32f10x_hd.o(.text)
    WWDG_IRQHandler                          0x08000297   Thumb Code     0  startup_stm32f10x_hd.o(.text)
    __user_initial_stackheap                 0x08000299   Thumb Code     0  startup_stm32f10x_hd.o(.text)
    __use_no_semihosting                     0x080002bd   Thumb Code     2  use_no_semi_2.o(.text)
    __2printf                                0x080002c1   Thumb Code    20  noretval__2printf.o(.text)
    __printf                                 0x080002d9   Thumb Code   104  __printf.o(.text)
    _printf_str                              0x08000341   Thumb Code    82  _printf_str.o(.text)
    _printf_int_dec                          0x08000395   Thumb Code   104  _printf_dec.o(.text)
    __aeabi_memcpy                           0x0800040d   Thumb Code     0  rt_memcpy_v6.o(.text)
    __rt_memcpy                              0x0800040d   Thumb Code   138  rt_memcpy_v6.o(.text)
    _memcpy_lastbytes                        0x08000473   Thumb Code     0  rt_memcpy_v6.o(.text)
    __aeabi_memset                           0x08000497   Thumb Code    16  aeabi_memset.o(.text)
    __use_two_region_memory                  0x080004a7   Thumb Code     2  heapauxi.o(.text)
    __rt_heap_escrow$2region                 0x080004a9   Thumb Code     2  heapauxi.o(.text)
    __rt_heap_expand$2region                 0x080004ab   Thumb Code     2  heapauxi.o(.text)
    __I$use$semihosting                      0x080004ad   Thumb Code     0  use_no_semi.o(.text)
    __use_no_semihosting_swi                 0x080004ad   Thumb Code     2  use_no_semi.o(.text)
    _printf_int_common                       0x080004af   Thumb Code   178  _printf_intcommon.o(.text)
    _printf_char_common                      0x0800056b   Thumb Code    32  _printf_char_common.o(.text)
    _printf_cs_common                        0x08000591   Thumb Code    20  _printf_char.o(.text)
    _printf_char                             0x080005a5   Thumb Code    16  _printf_char.o(.text)
    _printf_string                           0x080005b5   Thumb Code     8  _printf_char.o(.text)
    _printf_char_file                        0x080005bd   Thumb Code    32  _printf_char_file.o(.text)
    __aeabi_memcpy4                          0x080005e1   Thumb Code     0  rt_memcpy_w.o(.text)
    __aeabi_memcpy8                          0x080005e1   Thumb Code     0  rt_memcpy_w.o(.text)
    __rt_memcpy_w                            0x080005e1   Thumb Code   100  rt_memcpy_w.o(.text)
    _memcpy_lastbytes_aligned                0x08000629   Thumb Code     0  rt_memcpy_w.o(.text)
    __aeabi_memclr                           0x08000645   Thumb Code     0  rt_memclr.o(.text)
    __rt_memclr                              0x08000645   Thumb Code    68  rt_memclr.o(.text)
    _memset                                  0x08000649   Thumb Code     0  rt_memclr.o(.text)
    ferror                                   0x08000689   Thumb Code     8  ferror.o(.text)
    __aeabi_memclr4                          0x08000691   Thumb Code     0  rt_memclr_w.o(.text)
    __aeabi_memclr8                          0x08000691   Thumb Code     0  rt_memclr_w.o(.text)
    __rt_memclr_w                            0x08000691   Thumb Code    78  rt_memclr_w.o(.text)
    _memset_w                                0x08000695   Thumb Code     0  rt_memclr_w.o(.text)
    __user_setup_stackheap                   0x080006df   Thumb Code    74  sys_stackheap_outer.o(.text)
    exit                                     0x08000729   Thumb Code    18  exit.o(.text)
    __user_libspace                          0x0800073d   Thumb Code     8  libspace.o(.text)
    __user_perproc_libspace                  0x0800073d   Thumb Code     0  libspace.o(.text)
    __user_perthread_libspace                0x0800073d   Thumb Code     0  libspace.o(.text)
    BusFault_Handler                         0x08000745   Thumb Code     4  stm32f10x_it.o(i.BusFault_Handler)
    DMA_ClearFlag                            0x08000749   Thumb Code    18  stm32f10x_dma.o(i.DMA_ClearFlag)
    DMA_Cmd                                  0x08000765   Thumb Code    24  stm32f10x_dma.o(i.DMA_Cmd)
    DMA_DeInit                               0x0800077d   Thumb Code   324  stm32f10x_dma.o(i.DMA_DeInit)
    DMA_GetCurrDataCounter                   0x080008c9   Thumb Code     8  stm32f10x_dma.o(i.DMA_GetCurrDataCounter)
    DMA_GetFlagStatus                        0x080008d1   Thumb Code    36  stm32f10x_dma.o(i.DMA_GetFlagStatus)
    DMA_Init                                 0x080008fd   Thumb Code    60  stm32f10x_dma.o(i.DMA_Init)
    DebugMon_Handler                         0x08000939   Thumb Code     2  stm32f10x_it.o(i.DebugMon_Handler)
    FLASH_ErasePage                          0x0800093d   Thumb Code    72  stm32f10x_flash.o(i.FLASH_ErasePage)
    FLASH_GetBank1Status                     0x08000989   Thumb Code    48  stm32f10x_flash.o(i.FLASH_GetBank1Status)
    FLASH_Lock                               0x080009bd   Thumb Code    14  stm32f10x_flash.o(i.FLASH_Lock)
    FLASH_ProgramHalfWord                    0x080009d1   Thumb Code    60  stm32f10x_flash.o(i.FLASH_ProgramHalfWord)
    FLASH_Unlock                             0x08000a11   Thumb Code    12  stm32f10x_flash.o(i.FLASH_Unlock)
    FLASH_WaitForLastOperation               0x08000a29   Thumb Code    38  stm32f10x_flash.o(i.FLASH_WaitForLastOperation)
    GPIO_Init                                0x08000a4f   Thumb Code   278  stm32f10x_gpio.o(i.GPIO_Init)
    GPIO_PinRemapConfig                      0x08000b65   Thumb Code   138  stm32f10x_gpio.o(i.GPIO_PinRemapConfig)
    GPIO_SetBits                             0x08000bf5   Thumb Code     4  stm32f10x_gpio.o(i.GPIO_SetBits)
    HardFault_Handler                        0x08000bf9   Thumb Code     4  stm32f10x_it.o(i.HardFault_Handler)
    LED_Init                                 0x08000bfd   Thumb Code    68  led.o(i.LED_Init)
    MemManage_Handler                        0x08000c49   Thumb Code     4  stm32f10x_it.o(i.MemManage_Handler)
    NMI_Handler                              0x08000c4d   Thumb Code     2  stm32f10x_it.o(i.NMI_Handler)
    NVIC_Init                                0x08000c51   Thumb Code   100  misc.o(i.NVIC_Init)
    NVIC_PriorityGroupConfig                 0x08000cc1   Thumb Code    10  misc.o(i.NVIC_PriorityGroupConfig)
    RCC_AHBPeriphClockCmd                    0x08000cd5   Thumb Code    26  stm32f10x_rcc.o(i.RCC_AHBPeriphClockCmd)
    RCC_APB1PeriphClockCmd                   0x08000cf5   Thumb Code    26  stm32f10x_rcc.o(i.RCC_APB1PeriphClockCmd)
    RCC_APB2PeriphClockCmd                   0x08000d15   Thumb Code    26  stm32f10x_rcc.o(i.RCC_APB2PeriphClockCmd)
    RCC_GetClocksFreq                        0x08000d35   Thumb Code   192  stm32f10x_rcc.o(i.RCC_GetClocksFreq)
    STMFLASH_Read                            0x08000e09   Thumb Code    34  stmflash.o(i.STMFLASH_Read)
    STMFLASH_ReadHalfWord                    0x08000e2b   Thumb Code     6  stmflash.o(i.STMFLASH_ReadHalfWord)
    STMFLASH_Write                           0x08000e31   Thumb Code   222  stmflash.o(i.STMFLASH_Write)
    STMFLASH_Write_NoCheck                   0x08000f19   Thumb Code    38  stmflash.o(i.STMFLASH_Write_NoCheck)
    SysTick_CLKSourceConfig                  0x08001029   Thumb Code    40  misc.o(i.SysTick_CLKSourceConfig)
    SysTick_Handler                          0x08001051   Thumb Code    16  delay.o(i.SysTick_Handler)
    SystemInit                               0x08001061   Thumb Code    78  system_stm32f10x.o(i.SystemInit)
    USART1_IRQHandler                        0x080010c1   Thumb Code   140  usart.o(i.USART1_IRQHandler)
    USART_Cmd                                0x08001165   Thumb Code    24  stm32f10x_usart.o(i.USART_Cmd)
    USART_DMACmd                             0x0800117d   Thumb Code    18  stm32f10x_usart.o(i.USART_DMACmd)
    USART_GetFlagStatus                      0x0800118f   Thumb Code    26  stm32f10x_usart.o(i.USART_GetFlagStatus)
    USART_GetITStatus                        0x080011a9   Thumb Code    84  stm32f10x_usart.o(i.USART_GetITStatus)
    USART_ITConfig                           0x080011fd   Thumb Code    74  stm32f10x_usart.o(i.USART_ITConfig)
    USART_Init                               0x08001249   Thumb Code   210  stm32f10x_usart.o(i.USART_Init)
    USART_ReceiveData                        0x08001321   Thumb Code    10  stm32f10x_usart.o(i.USART_ReceiveData)
    UsageFault_Handler                       0x0800132b   Thumb Code     4  stm32f10x_it.o(i.UsageFault_Handler)
    _sys_exit                                0x0800132f   Thumb Code     4  usart.o(i._sys_exit)
    bJudgeChecksum                           0x08001333   Thumb Code    56  protocol.o(i.bJudgeChecksum)
    delay_init                               0x0800136d   Thumb Code    74  delay.o(i.delay_init)
    eFrame_Analy                             0x080013c9   Thumb Code   252  protocol.o(i.eFrame_Analy)
    fputc                                    0x080014c5   Thumb Code    24  usart.o(i.fputc)
    iap_load_app                             0x080014e1   Thumb Code    36  iap.o(i.iap_load_app)
    iap_write_appbin                         0x0800150d   Thumb Code    98  iap.o(i.iap_write_appbin)
    main                                     0x08001575   Thumb Code   136  main.o(i.main)
    pvPortMalloc                             0x08002161   Thumb Code   262  heap_4.o(i.pvPortMalloc)
    pvTaskIncrementMutexHeldCount            0x080022b5   Thumb Code    26  tasks.o(i.pvTaskIncrementMutexHeldCount)
    pxPortInitialiseStack                    0x080022d5   Thumb Code    30  port.o(i.pxPortInitialiseStack)
    ucCodeChecksum                           0x080022f9   Thumb Code    50  protocol.o(i.ucCodeChecksum)
    ucCode_RespondFrame                      0x0800232b   Thumb Code   132  protocol.o(i.ucCode_RespondFrame)
    uxListRemove                             0x080023af   Thumb Code    40  list.o(i.uxListRemove)
    vAppInforInit                            0x080023d9   Thumb Code    46  main.o(i.vAppInforInit)
    vCommandFrameHandle                      0x0800240d   Thumb Code    64  main.o(i.vCommandFrameHandle)
    vDataFrameHandle                         0x0800245d   Thumb Code   262  main.o(i.vDataFrameHandle)
    vDma1_4_Usart1_TX_Init                   0x08002571   Thumb Code    72  usart.o(i.vDma1_4_Usart1_TX_Init)
    vDma1_6_Usart2_RX_Init                   0x080025c1   Thumb Code    78  usart.o(i.vDma1_6_Usart2_RX_Init)
    vDma1_7_Usart2_TX_Init                   0x08002619   Thumb Code    80  usart.o(i.vDma1_7_Usart2_TX_Init)
    vFirmwareWriteTask                       0x08002671   Thumb Code   192  main.o(i.vFirmwareWriteTask)
    vFrameDataHandlerTask                    0x0800274d   Thumb Code   248  main.o(i.vFrameDataHandlerTask)
    vLed_Task                                0x08002871   Thumb Code    24  main.o(i.vLed_Task)
    vListInitialise                          0x08002891   Thumb Code    26  list.o(i.vListInitialise)
    vListInitialiseItem                      0x080028ab   Thumb Code     6  list.o(i.vListInitialiseItem)
    vListInsert                              0x080028b1   Thumb Code    52  list.o(i.vListInsert)
    vListInsertEnd                           0x080028e5   Thumb Code    24  list.o(i.vListInsertEnd)
    vPortEnterCritical                       0x080028fd   Thumb Code    68  port.o(i.vPortEnterCritical)
    vPortExitCritical                        0x08002985   Thumb Code    48  port.o(i.vPortExitCritical)
    vPortFree                                0x080029f5   Thumb Code   120  heap_4.o(i.vPortFree)
    vPortSetupTimerInterrupt                 0x08002aad   Thumb Code    26  port.o(i.vPortSetupTimerInterrupt)
    vPortValidateInterruptPriority           0x08002acd   Thumb Code    86  port.o(i.vPortValidateInterruptPriority)
    vQueueAddToRegistry                      0x08002b6d   Thumb Code    38  queue.o(i.vQueueAddToRegistry)
    vQueueWaitForMessageRestricted           0x08002b99   Thumb Code    74  queue.o(i.vQueueWaitForMessageRestricted)
    vTaskDelay                               0x08002be5   Thumb Code    72  tasks.o(i.vTaskDelay)
    vTaskMissedYield                         0x08002c59   Thumb Code     8  tasks.o(i.vTaskMissedYield)
    vTaskPlaceOnEventList                    0x08002c65   Thumb Code    42  tasks.o(i.vTaskPlaceOnEventList)
    vTaskPlaceOnEventListRestricted          0x08002cb9   Thumb Code    50  tasks.o(i.vTaskPlaceOnEventListRestricted)
    vTaskPriorityInherit                     0x08002d15   Thumb Code   164  tasks.o(i.vTaskPriorityInherit)
    vTaskSetTimeOutState                     0x08002dc5   Thumb Code    32  tasks.o(i.vTaskSetTimeOutState)
    vTaskStartScheduler                      0x08002e11   Thumb Code   108  tasks.o(i.vTaskStartScheduler)
    vTaskSuspendAll                          0x08002ebd   Thumb Code    12  tasks.o(i.vTaskSuspendAll)
    vTaskSwitchContext                       0x08002ecd   Thumb Code   110  tasks.o(i.vTaskSwitchContext)
    vUart1_Init                              0x08002f75   Thumb Code   174  usart.o(i.vUart1_Init)
    vUart2_Init                              0x0800302d   Thumb Code   150  usart.o(i.vUart2_Init)
    vUsart1DmaInitForTest                    0x080030cd   Thumb Code    36  usart.o(i.vUsart1DmaInitForTest)
    vUsart1Interactive                       0x080030f9   Thumb Code   138  usart.o(i.vUsart1Interactive)
    vUsart2DmaInitForTest                    0x0800319d   Thumb Code    60  usart.o(i.vUsart2DmaInitForTest)
    vUsart2Interactive                       0x080031e9   Thumb Code   270  usart.o(i.vUsart2Interactive)
    vUsartDataHandleTask                     0x08003325   Thumb Code    18  main.o(i.vUsartDataHandleTask)
    xPortStartScheduler                      0x08003339   Thumb Code   140  port.o(i.xPortStartScheduler)
    xPortSysTickHandler                      0x080033d9   Thumb Code    46  port.o(i.xPortSysTickHandler)
    xQueueGenericCreate                      0x0800340d   Thumb Code    78  queue.o(i.xQueueGenericCreate)
    xQueueGenericReceive                     0x08003481   Thumb Code   416  queue.o(i.xQueueGenericReceive)
    xQueueGenericReset                       0x08003649   Thumb Code   136  queue.o(i.xQueueGenericReset)
    xQueueGenericSend                        0x080036f9   Thumb Code   412  queue.o(i.xQueueGenericSend)
    xQueueGenericSendFromISR                 0x080038bd   Thumb Code   234  queue.o(i.xQueueGenericSendFromISR)
    xTaskCheckForTimeOut                     0x080039cd   Thumb Code   116  tasks.o(i.xTaskCheckForTimeOut)
    xTaskCreate                              0x08003a6d   Thumb Code    96  tasks.o(i.xTaskCreate)
    xTaskGetSchedulerState                   0x08003acd   Thumb Code    24  tasks.o(i.xTaskGetSchedulerState)
    xTaskGetTickCount                        0x08003aed   Thumb Code     6  tasks.o(i.xTaskGetTickCount)
    xTaskIncrementTick                       0x08003af9   Thumb Code   272  tasks.o(i.xTaskIncrementTick)
    xTaskPriorityDisinherit                  0x08003c59   Thumb Code   168  tasks.o(i.xTaskPriorityDisinherit)
    xTaskRemoveFromEventList                 0x08003d31   Thumb Code   118  tasks.o(i.xTaskRemoveFromEventList)
    xTaskResumeAll                           0x08003de5   Thumb Code   214  tasks.o(i.xTaskResumeAll)
    xTimerCreateTimerTask                    0x08003f05   Thumb Code    56  timers.o(i.xTimerCreateTimerTask)
    xTimerGenericCommand                     0x08003f79   Thumb Code   118  timers.o(i.xTimerGenericCommand)
    Region$$Table$$Base                      0x0800401c   Number         0  anon$$obj.o(Region$$Table)
    Region$$Table$$Limit                     0x0800403c   Number         0  anon$$obj.o(Region$$Table)
    ProductAppPassword                       0x20000000   Data           4  main.o(.data)
    LastCommand                              0x20000004   Data           1  main.o(.data)
    SystemCoreClock                          0x20000010   Data           4  system_stm32f10x.o(.data)
    AHBPrescTable                            0x20000014   Data          16  system_stm32f10x.o(.data)
    __stdout                                 0x20000028   Data           4  usart.o(.data)
    ucDMA1_Stream4TransmitGrooveIndex        0x2000002c   Data           1  usart.o(.data)
    ucUSART1_TransmitMessageNumber           0x2000002d   Data           1  usart.o(.data)
    ucWtiteDataToUSART1TransmitGrooveIndex   0x2000002e   Data           1  usart.o(.data)
    ucUSART1_TransmitWritingBytePointer      0x2000002f   Data           1  usart.o(.data)
    ucUSART1ReceiveBufferLength              0x20000030   Data           5  usart.o(.data)
    ucUSART1ReceiveGrooveIndex               0x20000035   Data           1  usart.o(.data)
    ucUSART1ReadBufferIndex                  0x20000036   Data           1  usart.o(.data)
    ucUSART1ReceiveWritingBytePointer        0x20000037   Data           1  usart.o(.data)
    ucDMA1_Stream5ReceiveGrooveIndex         0x20000038   Data           1  usart.o(.data)
    ucUSART1_ReceiveMessageNumber            0x20000039   Data           1  usart.o(.data)
    ucDMA1_Stream7TransmitGrooveIndex        0x2000003a   Data           1  usart.o(.data)
    ucUSART2_TransmitMessageNumber           0x2000003b   Data           1  usart.o(.data)
    ucWtiteDataToUSART2TransmitGrooveIndex   0x2000003c   Data           1  usart.o(.data)
    ucUSART2_TransmitWritingBytePointer      0x2000003d   Data           1  usart.o(.data)
    ucUSART2ReceiveBufferLength              0x2000003e   Data           5  usart.o(.data)
    ucUSART2ReceiveGrooveIndex               0x20000043   Data           1  usart.o(.data)
    ucUSART2ReadBufferIndex                  0x20000044   Data           1  usart.o(.data)
    ucUSART2ReceiveWritingBytePointer        0x20000045   Data           1  usart.o(.data)
    ucDMA1_Stream6ReceiveGrooveIndex         0x20000046   Data           1  usart.o(.data)
    ucUSART2_ReceiveMessageNumber            0x20000047   Data           1  usart.o(.data)
    pxCurrentTCB                             0x20000060   Data           4  tasks.o(.data)
    jump2app                                 0x200000d4   Data           4  iap.o(.data)
    FirmwareBuf                              0x200000d8   Data       10240  main.o(.bss)
    tAI                                      0x200028d8   Data          32  main.o(.bss)
    STMFLASH_BUF                             0x200028f8   Data        2048  stmflash.o(.bss)
    ucUSART1TrainsmitBuffer                  0x200030f8   Data        2700  usart.o(.bss)
    ucUSART1TrainsmitLength                  0x20003b84   Data          30  usart.o(.bss)
    ucUSART1ReceiveBuffer                    0x20003ba2   Data         450  usart.o(.bss)
    ucUSART2TrainsmitBuffer                  0x20003d64   Data        2700  usart.o(.bss)
    ucUSART2TrainsmitLength                  0x200047f0   Data          30  usart.o(.bss)
    ucUSART2ReceiveBuffer                    0x2000480e   Data         450  usart.o(.bss)
    xQueueRegistry                           0x200049d0   Data          64  queue.o(.bss)
    iapbuf                                   0x20009d1c   Data        2048  iap.o(.bss)
    FR_Rx                                    0x2000a51c   Data          64  protocol.o(.bss)
    FR_Tx                                    0x2000a55c   Data          60  protocol.o(.bss)
    __libspace_start                         0x2000a598   Data          96  libspace.o(.bss)
    __temporary_stack_top$libspace           0x2000a5f8   Data           0  libspace.o(.bss)



==============================================================================

Memory Map of the image

  Image Entry point : 0x0800027d

  Load Region LR_1 (Base: 0x08000000, Size: 0x00004114, Max: 0xffffffff, ABSOLUTE)

    Execution Region ER_RO (Exec base: 0x08000000, Load base: 0x08000000, Size: 0x0000403c, Max: 0xffffffff, ABSOLUTE)

    Exec Addr    Load Addr    Size         Type   Attr      Idx    E Section Name        Object

    0x08000000   0x08000000   0x00000130   Data   RO          686    RESET               startup_stm32f10x_hd.o
    0x08000130   0x08000130   0x00000008   Code   RO         2635  * !!!main             c_w.l(__main.o)
    0x08000138   0x08000138   0x00000034   Code   RO         2813    !!!scatter          c_w.l(__scatter.o)
    0x0800016c   0x0800016c   0x0000001a   Code   RO         2815    !!handler_copy      c_w.l(__scatter_copy.o)
    0x08000186   0x08000186   0x00000002   PAD
    0x08000188   0x08000188   0x0000001c   Code   RO         2817    !!handler_zi        c_w.l(__scatter_zi.o)
    0x080001a4   0x080001a4   0x00000000   Code   RO         2624    .ARM.Collect$$_printf_percent$$00000000  c_w.l(_printf_percent.o)
    0x080001a4   0x080001a4   0x00000006   Code   RO         2622    .ARM.Collect$$_printf_percent$$00000009  c_w.l(_printf_d.o)
    0x080001aa   0x080001aa   0x00000006   Code   RO         2621    .ARM.Collect$$_printf_percent$$00000014  c_w.l(_printf_s.o)
    0x080001b0   0x080001b0   0x00000004   Code   RO         2650    .ARM.Collect$$_printf_percent$$00000017  c_w.l(_printf_percent_end.o)
    0x080001b4   0x080001b4   0x00000002   Code   RO         2687    .ARM.Collect$$libinit$$00000000  c_w.l(libinit.o)
    0x080001b6   0x080001b6   0x00000000   Code   RO         2694    .ARM.Collect$$libinit$$00000002  c_w.l(libinit2.o)
    0x080001b6   0x080001b6   0x00000000   Code   RO         2696    .ARM.Collect$$libinit$$00000004  c_w.l(libinit2.o)
    0x080001b6   0x080001b6   0x00000000   Code   RO         2699    .ARM.Collect$$libinit$$0000000A  c_w.l(libinit2.o)
    0x080001b6   0x080001b6   0x00000000   Code   RO         2701    .ARM.Collect$$libinit$$0000000C  c_w.l(libinit2.o)
    0x080001b6   0x080001b6   0x00000000   Code   RO         2703    .ARM.Collect$$libinit$$0000000E  c_w.l(libinit2.o)
    0x080001b6   0x080001b6   0x00000000   Code   RO         2706    .ARM.Collect$$libinit$$00000011  c_w.l(libinit2.o)
    0x080001b6   0x080001b6   0x00000000   Code   RO         2708    .ARM.Collect$$libinit$$00000013  c_w.l(libinit2.o)
    0x080001b6   0x080001b6   0x00000000   Code   RO         2710    .ARM.Collect$$libinit$$00000015  c_w.l(libinit2.o)
    0x080001b6   0x080001b6   0x00000000   Code   RO         2712    .ARM.Collect$$libinit$$00000017  c_w.l(libinit2.o)
    0x080001b6   0x080001b6   0x00000000   Code   RO         2714    .ARM.Collect$$libinit$$00000019  c_w.l(libinit2.o)
    0x080001b6   0x080001b6   0x00000000   Code   RO         2716    .ARM.Collect$$libinit$$0000001B  c_w.l(libinit2.o)
    0x080001b6   0x080001b6   0x00000000   Code   RO         2718    .ARM.Collect$$libinit$$0000001D  c_w.l(libinit2.o)
    0x080001b6   0x080001b6   0x00000000   Code   RO         2720    .ARM.Collect$$libinit$$0000001F  c_w.l(libinit2.o)
    0x080001b6   0x080001b6   0x00000000   Code   RO         2722    .ARM.Collect$$libinit$$00000021  c_w.l(libinit2.o)
    0x080001b6   0x080001b6   0x00000000   Code   RO         2724    .ARM.Collect$$libinit$$00000023  c_w.l(libinit2.o)
    0x080001b6   0x080001b6   0x00000000   Code   RO         2726    .ARM.Collect$$libinit$$00000025  c_w.l(libinit2.o)
    0x080001b6   0x080001b6   0x00000000   Code   RO         2730    .ARM.Collect$$libinit$$0000002C  c_w.l(libinit2.o)
    0x080001b6   0x080001b6   0x00000000   Code   RO         2732    .ARM.Collect$$libinit$$0000002E  c_w.l(libinit2.o)
    0x080001b6   0x080001b6   0x00000000   Code   RO         2734    .ARM.Collect$$libinit$$00000030  c_w.l(libinit2.o)
    0x080001b6   0x080001b6   0x00000000   Code   RO         2736    .ARM.Collect$$libinit$$00000032  c_w.l(libinit2.o)
    0x080001b6   0x080001b6   0x00000002   Code   RO         2737    .ARM.Collect$$libinit$$00000033  c_w.l(libinit2.o)
    0x080001b8   0x080001b8   0x00000002   Code   RO         2755    .ARM.Collect$$libshutdown$$00000000  c_w.l(libshutdown.o)
    0x080001ba   0x080001ba   0x00000000   Code   RO         2765    .ARM.Collect$$libshutdown$$00000002  c_w.l(libshutdown2.o)
    0x080001ba   0x080001ba   0x00000000   Code   RO         2767    .ARM.Collect$$libshutdown$$00000004  c_w.l(libshutdown2.o)
    0x080001ba   0x080001ba   0x00000000   Code   RO         2770    .ARM.Collect$$libshutdown$$00000007  c_w.l(libshutdown2.o)
    0x080001ba   0x080001ba   0x00000000   Code   RO         2773    .ARM.Collect$$libshutdown$$0000000A  c_w.l(libshutdown2.o)
    0x080001ba   0x080001ba   0x00000000   Code   RO         2775    .ARM.Collect$$libshutdown$$0000000C  c_w.l(libshutdown2.o)
    0x080001ba   0x080001ba   0x00000000   Code   RO         2778    .ARM.Collect$$libshutdown$$0000000F  c_w.l(libshutdown2.o)
    0x080001ba   0x080001ba   0x00000002   Code   RO         2779    .ARM.Collect$$libshutdown$$00000010  c_w.l(libshutdown2.o)
    0x080001bc   0x080001bc   0x00000000   Code   RO         2639    .ARM.Collect$$rtentry$$00000000  c_w.l(__rtentry.o)
    0x080001bc   0x080001bc   0x00000000   Code   RO         2656    .ARM.Collect$$rtentry$$00000002  c_w.l(__rtentry2.o)
    0x080001bc   0x080001bc   0x00000006   Code   RO         2668    .ARM.Collect$$rtentry$$00000004  c_w.l(__rtentry4.o)
    0x080001c2   0x080001c2   0x00000000   Code   RO         2658    .ARM.Collect$$rtentry$$00000009  c_w.l(__rtentry2.o)
    0x080001c2   0x080001c2   0x00000004   Code   RO         2659    .ARM.Collect$$rtentry$$0000000A  c_w.l(__rtentry2.o)
    0x080001c6   0x080001c6   0x00000000   Code   RO         2661    .ARM.Collect$$rtentry$$0000000C  c_w.l(__rtentry2.o)
    0x080001c6   0x080001c6   0x00000008   Code   RO         2662    .ARM.Collect$$rtentry$$0000000D  c_w.l(__rtentry2.o)
    0x080001ce   0x080001ce   0x00000002   Code   RO         2691    .ARM.Collect$$rtexit$$00000000  c_w.l(rtexit.o)
    0x080001d0   0x080001d0   0x00000000   Code   RO         2739    .ARM.Collect$$rtexit$$00000002  c_w.l(rtexit2.o)
    0x080001d0   0x080001d0   0x00000004   Code   RO         2740    .ARM.Collect$$rtexit$$00000003  c_w.l(rtexit2.o)
    0x080001d4   0x080001d4   0x00000006   Code   RO         2741    .ARM.Collect$$rtexit$$00000004  c_w.l(rtexit2.o)
    0x080001da   0x080001da   0x00000002   PAD
    0x080001dc   0x080001dc   0x00000006   Code   RO          553    .emb_text           sys.o
    0x080001e2   0x080001e2   0x00000002   PAD
    0x080001e4   0x080001e4   0x00000096   Code   RO         2426    .emb_text           port.o
    0x0800027a   0x0800027a   0x00000002   PAD
    0x0800027c   0x0800027c   0x00000040   Code   RO          687  * .text               startup_stm32f10x_hd.o
    0x080002bc   0x080002bc   0x00000002   Code   RO         2584    .text               c_w.l(use_no_semi_2.o)
    0x080002be   0x080002be   0x00000002   PAD
    0x080002c0   0x080002c0   0x00000018   Code   RO         2590    .text               c_w.l(noretval__2printf.o)
    0x080002d8   0x080002d8   0x00000068   Code   RO         2594    .text               c_w.l(__printf.o)
    0x08000340   0x08000340   0x00000052   Code   RO         2596    .text               c_w.l(_printf_str.o)
    0x08000392   0x08000392   0x00000002   PAD
    0x08000394   0x08000394   0x00000078   Code   RO         2598    .text               c_w.l(_printf_dec.o)
    0x0800040c   0x0800040c   0x0000008a   Code   RO         2629    .text               c_w.l(rt_memcpy_v6.o)
    0x08000496   0x08000496   0x00000010   Code   RO         2631    .text               c_w.l(aeabi_memset.o)
    0x080004a6   0x080004a6   0x00000006   Code   RO         2633    .text               c_w.l(heapauxi.o)
    0x080004ac   0x080004ac   0x00000002   Code   RO         2637    .text               c_w.l(use_no_semi.o)
    0x080004ae   0x080004ae   0x000000b2   Code   RO         2640    .text               c_w.l(_printf_intcommon.o)
    0x08000560   0x08000560   0x00000030   Code   RO         2642    .text               c_w.l(_printf_char_common.o)
    0x08000590   0x08000590   0x0000002c   Code   RO         2646    .text               c_w.l(_printf_char.o)
    0x080005bc   0x080005bc   0x00000024   Code   RO         2648    .text               c_w.l(_printf_char_file.o)
    0x080005e0   0x080005e0   0x00000064   Code   RO         2651    .text               c_w.l(rt_memcpy_w.o)
    0x08000644   0x08000644   0x00000044   Code   RO         2653    .text               c_w.l(rt_memclr.o)
    0x08000688   0x08000688   0x00000008   Code   RO         2672    .text               c_w.l(ferror.o)
    0x08000690   0x08000690   0x0000004e   Code   RO         2676    .text               c_w.l(rt_memclr_w.o)
    0x080006de   0x080006de   0x0000004a   Code   RO         2678    .text               c_w.l(sys_stackheap_outer.o)
    0x08000728   0x08000728   0x00000012   Code   RO         2680    .text               c_w.l(exit.o)
    0x0800073a   0x0800073a   0x00000002   PAD
    0x0800073c   0x0800073c   0x00000008   Code   RO         2688    .text               c_w.l(libspace.o)
    0x08000744   0x08000744   0x00000004   Code   RO          210    i.BusFault_Handler  stm32f10x_it.o
    0x08000748   0x08000748   0x0000001c   Code   RO         1245    i.DMA_ClearFlag     stm32f10x_dma.o
    0x08000764   0x08000764   0x00000018   Code   RO         1247    i.DMA_Cmd           stm32f10x_dma.o
    0x0800077c   0x0800077c   0x0000014c   Code   RO         1248    i.DMA_DeInit        stm32f10x_dma.o
    0x080008c8   0x080008c8   0x00000008   Code   RO         1249    i.DMA_GetCurrDataCounter  stm32f10x_dma.o
    0x080008d0   0x080008d0   0x0000002c   Code   RO         1250    i.DMA_GetFlagStatus  stm32f10x_dma.o
    0x080008fc   0x080008fc   0x0000003c   Code   RO         1253    i.DMA_Init          stm32f10x_dma.o
    0x08000938   0x08000938   0x00000002   Code   RO          211    i.DebugMon_Handler  stm32f10x_it.o
    0x0800093a   0x0800093a   0x00000002   PAD
    0x0800093c   0x0800093c   0x0000004c   Code   RO         1322    i.FLASH_ErasePage   stm32f10x_flash.o
    0x08000988   0x08000988   0x00000034   Code   RO         1323    i.FLASH_GetBank1Status  stm32f10x_flash.o
    0x080009bc   0x080009bc   0x00000014   Code   RO         1332    i.FLASH_Lock        stm32f10x_flash.o
    0x080009d0   0x080009d0   0x00000040   Code   RO         1335    i.FLASH_ProgramHalfWord  stm32f10x_flash.o
    0x08000a10   0x08000a10   0x00000018   Code   RO         1340    i.FLASH_Unlock      stm32f10x_flash.o
    0x08000a28   0x08000a28   0x00000026   Code   RO         1344    i.FLASH_WaitForLastOperation  stm32f10x_flash.o
    0x08000a4e   0x08000a4e   0x00000116   Code   RO          733    i.GPIO_Init         stm32f10x_gpio.o
    0x08000b64   0x08000b64   0x00000090   Code   RO          735    i.GPIO_PinRemapConfig  stm32f10x_gpio.o
    0x08000bf4   0x08000bf4   0x00000004   Code   RO          741    i.GPIO_SetBits      stm32f10x_gpio.o
    0x08000bf8   0x08000bf8   0x00000004   Code   RO          212    i.HardFault_Handler  stm32f10x_it.o
    0x08000bfc   0x08000bfc   0x0000004c   Code   RO          372    i.LED_Init          led.o
    0x08000c48   0x08000c48   0x00000004   Code   RO          213    i.MemManage_Handler  stm32f10x_it.o
    0x08000c4c   0x08000c4c   0x00000002   Code   RO          214    i.NMI_Handler       stm32f10x_it.o
    0x08000c4e   0x08000c4e   0x00000002   PAD
    0x08000c50   0x08000c50   0x00000070   Code   RO          691    i.NVIC_Init         misc.o
    0x08000cc0   0x08000cc0   0x00000014   Code   RO          692    i.NVIC_PriorityGroupConfig  misc.o
    0x08000cd4   0x08000cd4   0x00000020   Code   RO          866    i.RCC_AHBPeriphClockCmd  stm32f10x_rcc.o
    0x08000cf4   0x08000cf4   0x00000020   Code   RO          867    i.RCC_APB1PeriphClockCmd  stm32f10x_rcc.o
    0x08000d14   0x08000d14   0x00000020   Code   RO          869    i.RCC_APB2PeriphClockCmd  stm32f10x_rcc.o
    0x08000d34   0x08000d34   0x000000d4   Code   RO          877    i.RCC_GetClocksFreq  stm32f10x_rcc.o
    0x08000e08   0x08000e08   0x00000022   Code   RO          438    i.STMFLASH_Read     stmflash.o
    0x08000e2a   0x08000e2a   0x00000006   Code   RO          439    i.STMFLASH_ReadHalfWord  stmflash.o
    0x08000e30   0x08000e30   0x000000e8   Code   RO          440    i.STMFLASH_Write    stmflash.o
    0x08000f18   0x08000f18   0x00000026   Code   RO          441    i.STMFLASH_Write_NoCheck  stmflash.o
    0x08000f3e   0x08000f3e   0x00000008   Code   RO          338    i.SetSysClock       system_stm32f10x.o
    0x08000f46   0x08000f46   0x00000002   PAD
    0x08000f48   0x08000f48   0x000000e0   Code   RO          339    i.SetSysClockTo72   system_stm32f10x.o
    0x08001028   0x08001028   0x00000028   Code   RO          695    i.SysTick_CLKSourceConfig  misc.o
    0x08001050   0x08001050   0x00000010   Code   RO          477    i.SysTick_Handler   delay.o
    0x08001060   0x08001060   0x00000060   Code   RO          341    i.SystemInit        system_stm32f10x.o
    0x080010c0   0x080010c0   0x000000a4   Code   RO          582    i.USART1_IRQHandler  usart.o
    0x08001164   0x08001164   0x00000018   Code   RO         1069    i.USART_Cmd         stm32f10x_usart.o
    0x0800117c   0x0800117c   0x00000012   Code   RO         1070    i.USART_DMACmd      stm32f10x_usart.o
    0x0800118e   0x0800118e   0x0000001a   Code   RO         1072    i.USART_GetFlagStatus  stm32f10x_usart.o
    0x080011a8   0x080011a8   0x00000054   Code   RO         1073    i.USART_GetITStatus  stm32f10x_usart.o
    0x080011fc   0x080011fc   0x0000004a   Code   RO         1075    i.USART_ITConfig    stm32f10x_usart.o
    0x08001246   0x08001246   0x00000002   PAD
    0x08001248   0x08001248   0x000000d8   Code   RO         1076    i.USART_Init        stm32f10x_usart.o
    0x08001320   0x08001320   0x0000000a   Code   RO         1083    i.USART_ReceiveData  stm32f10x_usart.o
    0x0800132a   0x0800132a   0x00000004   Code   RO          215    i.UsageFault_Handler  stm32f10x_it.o
    0x0800132e   0x0800132e   0x00000004   Code   RO          583    i._sys_exit         usart.o
    0x08001332   0x08001332   0x00000038   Code   RO         2525    i.bJudgeChecksum    protocol.o
    0x0800136a   0x0800136a   0x00000002   PAD
    0x0800136c   0x0800136c   0x0000005c   Code   RO          478    i.delay_init        delay.o
    0x080013c8   0x080013c8   0x000000fc   Code   RO         2526    i.eFrame_Analy      protocol.o
    0x080014c4   0x080014c4   0x0000001c   Code   RO          584    i.fputc             usart.o
    0x080014e0   0x080014e0   0x0000002c   Code   RO         2503    i.iap_load_app      iap.o
    0x0800150c   0x0800150c   0x00000068   Code   RO         2504    i.iap_write_appbin  iap.o
    0x08001574   0x08001574   0x000000f8   Code   RO            1    i.main              main.o
    0x0800166c   0x0800166c   0x00000098   Code   RO         1887    i.prvAddCurrentTaskToDelayedList  tasks.o
    0x08001704   0x08001704   0x000000b8   Code   RO         1888    i.prvAddNewTaskToReadyList  tasks.o
    0x080017bc   0x080017bc   0x00000064   Code   RO         2247    i.prvCheckForValidListAndQueue  timers.o
    0x08001820   0x08001820   0x00000064   Code   RO         1889    i.prvCheckTasksWaitingTermination  tasks.o
    0x08001884   0x08001884   0x0000002a   Code   RO         1651    i.prvCopyDataFromQueue  queue.o
    0x080018ae   0x080018ae   0x0000007c   Code   RO         1652    i.prvCopyDataToQueue  queue.o
    0x0800192a   0x0800192a   0x00000012   Code   RO         1890    i.prvDeleteTCB      tasks.o
    0x0800193c   0x0800193c   0x00000028   Code   RO         2248    i.prvGetNextExpireTime  timers.o
    0x08001964   0x08001964   0x0000007c   Code   RO         2377    i.prvHeapInit       heap_4.o
    0x080019e0   0x080019e0   0x00000028   Code   RO         1891    i.prvIdleTask       tasks.o
    0x08001a08   0x08001a08   0x0000002e   Code   RO         1654    i.prvInitialiseNewQueue  queue.o
    0x08001a36   0x08001a36   0x00000002   PAD
    0x08001a38   0x08001a38   0x000000d0   Code   RO         1892    i.prvInitialiseNewTask  tasks.o
    0x08001b08   0x08001b08   0x00000068   Code   RO         1893    i.prvInitialiseTaskLists  tasks.o
    0x08001b70   0x08001b70   0x00000068   Code   RO         2378    i.prvInsertBlockIntoFreeList  heap_4.o
    0x08001bd8   0x08001bd8   0x00000058   Code   RO         2250    i.prvInsertTimerInActiveList  timers.o
    0x08001c30   0x08001c30   0x0000001a   Code   RO         1655    i.prvIsQueueEmpty   queue.o
    0x08001c4a   0x08001c4a   0x0000001e   Code   RO         1656    i.prvIsQueueFull    queue.o
    0x08001c68   0x08001c68   0x000000a0   Code   RO         1657    i.prvNotifyQueueSetContainer  queue.o
    0x08001d08   0x08001d08   0x00000080   Code   RO         2251    i.prvProcessExpiredTimer  timers.o
    0x08001d88   0x08001d88   0x0000012c   Code   RO         2252    i.prvProcessReceivedCommands  timers.o
    0x08001eb4   0x08001eb4   0x00000074   Code   RO         2253    i.prvProcessTimerOrBlockTask  timers.o
    0x08001f28   0x08001f28   0x00000034   Code   RO         1895    i.prvResetNextTaskUnblockTime  tasks.o
    0x08001f5c   0x08001f5c   0x0000002c   Code   RO         2254    i.prvSampleTimeNow  timers.o
    0x08001f88   0x08001f88   0x000000bc   Code   RO         2255    i.prvSwitchTimerLists  timers.o
    0x08002044   0x08002044   0x00000070   Code   RO         2427    i.prvTaskExitError  port.o
    0x080020b4   0x080020b4   0x0000001a   Code   RO         2256    i.prvTimerTask      timers.o
    0x080020ce   0x080020ce   0x00000092   Code   RO         1658    i.prvUnlockQueue    queue.o
    0x08002160   0x08002160   0x00000154   Code   RO         2379    i.pvPortMalloc      heap_4.o
    0x080022b4   0x080022b4   0x00000020   Code   RO         1899    i.pvTaskIncrementMutexHeldCount  tasks.o
    0x080022d4   0x080022d4   0x00000024   Code   RO         2428    i.pxPortInitialiseStack  port.o
    0x080022f8   0x080022f8   0x00000032   Code   RO         2527    i.ucCodeChecksum    protocol.o
    0x0800232a   0x0800232a   0x00000084   Code   RO         2531    i.ucCode_RespondFrame  protocol.o
    0x080023ae   0x080023ae   0x00000028   Code   RO         1614    i.uxListRemove      list.o
    0x080023d6   0x080023d6   0x00000002   PAD
    0x080023d8   0x080023d8   0x00000034   Code   RO            2    i.vAppInforInit     main.o
    0x0800240c   0x0800240c   0x00000050   Code   RO            3    i.vCommandFrameHandle  main.o
    0x0800245c   0x0800245c   0x00000114   Code   RO            4    i.vDataFrameHandle  main.o
    0x08002570   0x08002570   0x00000050   Code   RO          585    i.vDma1_4_Usart1_TX_Init  usart.o
    0x080025c0   0x080025c0   0x00000058   Code   RO          586    i.vDma1_6_Usart2_RX_Init  usart.o
    0x08002618   0x08002618   0x00000058   Code   RO          587    i.vDma1_7_Usart2_TX_Init  usart.o
    0x08002670   0x08002670   0x000000dc   Code   RO            5    i.vFirmwareWriteTask  main.o
    0x0800274c   0x0800274c   0x00000124   Code   RO            6    i.vFrameDataHandlerTask  main.o
    0x08002870   0x08002870   0x00000020   Code   RO            7    i.vLed_Task         main.o
    0x08002890   0x08002890   0x0000001a   Code   RO         1615    i.vListInitialise   list.o
    0x080028aa   0x080028aa   0x00000006   Code   RO         1616    i.vListInitialiseItem  list.o
    0x080028b0   0x080028b0   0x00000034   Code   RO         1617    i.vListInsert       list.o
    0x080028e4   0x080028e4   0x00000018   Code   RO         1618    i.vListInsertEnd    list.o
    0x080028fc   0x080028fc   0x00000088   Code   RO         2430    i.vPortEnterCritical  port.o
    0x08002984   0x08002984   0x00000070   Code   RO         2431    i.vPortExitCritical  port.o
    0x080029f4   0x080029f4   0x000000b8   Code   RO         2380    i.vPortFree         heap_4.o
    0x08002aac   0x08002aac   0x00000020   Code   RO         2432    i.vPortSetupTimerInterrupt  port.o
    0x08002acc   0x08002acc   0x000000a0   Code   RO         2433    i.vPortValidateInterruptPriority  port.o
    0x08002b6c   0x08002b6c   0x0000002c   Code   RO         1664    i.vQueueAddToRegistry  queue.o
    0x08002b98   0x08002b98   0x0000004a   Code   RO         1668    i.vQueueWaitForMessageRestricted  queue.o
    0x08002be2   0x08002be2   0x00000002   PAD
    0x08002be4   0x08002be4   0x00000074   Code   RO         1907    i.vTaskDelay        tasks.o
    0x08002c58   0x08002c58   0x0000000c   Code   RO         1913    i.vTaskMissedYield  tasks.o
    0x08002c64   0x08002c64   0x00000054   Code   RO         1915    i.vTaskPlaceOnEventList  tasks.o
    0x08002cb8   0x08002cb8   0x0000005c   Code   RO         1916    i.vTaskPlaceOnEventListRestricted  tasks.o
    0x08002d14   0x08002d14   0x000000b0   Code   RO         1918    i.vTaskPriorityInherit  tasks.o
    0x08002dc4   0x08002dc4   0x0000004c   Code   RO         1922    i.vTaskSetTimeOutState  tasks.o
    0x08002e10   0x08002e10   0x000000ac   Code   RO         1923    i.vTaskStartScheduler  tasks.o
    0x08002ebc   0x08002ebc   0x00000010   Code   RO         1925    i.vTaskSuspendAll   tasks.o
    0x08002ecc   0x08002ecc   0x000000a8   Code   RO         1926    i.vTaskSwitchContext  tasks.o
    0x08002f74   0x08002f74   0x000000b8   Code   RO          588    i.vUart1_Init       usart.o
    0x0800302c   0x0800302c   0x000000a0   Code   RO          589    i.vUart2_Init       usart.o
    0x080030cc   0x080030cc   0x0000002c   Code   RO          590    i.vUsart1DmaInitForTest  usart.o
    0x080030f8   0x080030f8   0x000000a4   Code   RO          591    i.vUsart1Interactive  usart.o
    0x0800319c   0x0800319c   0x0000004c   Code   RO          592    i.vUsart2DmaInitForTest  usart.o
    0x080031e8   0x080031e8   0x0000013c   Code   RO          593    i.vUsart2Interactive  usart.o
    0x08003324   0x08003324   0x00000012   Code   RO            8    i.vUsartDataHandleTask  main.o
    0x08003336   0x08003336   0x00000002   PAD
    0x08003338   0x08003338   0x000000a0   Code   RO         2434    i.xPortStartScheduler  port.o
    0x080033d8   0x080033d8   0x00000034   Code   RO         2435    i.xPortSysTickHandler  port.o
    0x0800340c   0x0800340c   0x00000074   Code   RO         1673    i.xQueueGenericCreate  queue.o
    0x08003480   0x08003480   0x000001c8   Code   RO         1674    i.xQueueGenericReceive  queue.o
    0x08003648   0x08003648   0x000000b0   Code   RO         1675    i.xQueueGenericReset  queue.o
    0x080036f8   0x080036f8   0x000001c4   Code   RO         1676    i.xQueueGenericSend  queue.o
    0x080038bc   0x080038bc   0x00000110   Code   RO         1677    i.xQueueGenericSendFromISR  queue.o
    0x080039cc   0x080039cc   0x000000a0   Code   RO         1927    i.xTaskCheckForTimeOut  tasks.o
    0x08003a6c   0x08003a6c   0x00000060   Code   RO         1928    i.xTaskCreate       tasks.o
    0x08003acc   0x08003acc   0x00000020   Code   RO         1932    i.xTaskGetSchedulerState  tasks.o
    0x08003aec   0x08003aec   0x0000000c   Code   RO         1933    i.xTaskGetTickCount  tasks.o
    0x08003af8   0x08003af8   0x00000160   Code   RO         1935    i.xTaskIncrementTick  tasks.o
    0x08003c58   0x08003c58   0x000000d8   Code   RO         1938    i.xTaskPriorityDisinherit  tasks.o
    0x08003d30   0x08003d30   0x000000b4   Code   RO         1939    i.xTaskRemoveFromEventList  tasks.o
    0x08003de4   0x08003de4   0x00000120   Code   RO         1941    i.xTaskResumeAll    tasks.o
    0x08003f04   0x08003f04   0x00000074   Code   RO         2260    i.xTimerCreateTimerTask  timers.o
    0x08003f78   0x08003f78   0x000000a4   Code   RO         2261    i.xTimerGenericCommand  timers.o
    0x0800401c   0x0800401c   0x00000020   Data   RO         2811    Region$$Table       anon$$obj.o


    Execution Region ER_RW (Exec base: 0x20000000, Load base: 0x0800403c, Size: 0x000000d8, Max: 0xffffffff, ABSOLUTE)

    Exec Addr    Load Addr    Size         Type   Attr      Idx    E Section Name        Object

    0x20000000   0x0800403c   0x00000010   Data   RW           10    .data               main.o
    0x20000010   0x0800404c   0x00000014   Data   RW          342    .data               system_stm32f10x.o
    0x20000024   0x08004060   0x00000004   Data   RW          482    .data               delay.o
    0x20000028   0x08004064   0x00000023   Data   RW          595    .data               usart.o
    0x2000004b   0x08004087   0x00000014   Data   RW          897    .data               stm32f10x_rcc.o
    0x2000005f   0x0800409b   0x00000001   PAD
    0x20000060   0x0800409c   0x0000003c   Data   RW         1944    .data               tasks.o
    0x2000009c   0x080040d8   0x00000014   Data   RW         2269    .data               timers.o
    0x200000b0   0x080040ec   0x00000018   Data   RW         2385    .data               heap_4.o
    0x200000c8   0x08004104   0x0000000c   Data   RW         2436    .data               port.o
    0x200000d4   0x08004110   0x00000004   Data   RW         2506    .data               iap.o


    Execution Region ER_ZI (Exec base: 0x200000d8, Load base: 0x08004114, Size: 0x0000af20, Max: 0xffffffff, ABSOLUTE)

    Exec Addr    Load Addr    Size         Type   Attr      Idx    E Section Name        Object

    0x200000d8        -       0x00002820   Zero   RW            9    .bss                main.o
    0x200028f8        -       0x00000800   Zero   RW          443    .bss                stmflash.o
    0x200030f8        -       0x000018d8   Zero   RW          594    .bss                usart.o
    0x200049d0        -       0x00000040   Zero   RW         1688    .bss                queue.o
    0x20004a10        -       0x000002e4   Zero   RW         1943    .bss                tasks.o
    0x20004cf4        -       0x00000028   Zero   RW         2268    .bss                timers.o
    0x20004d1c        -       0x00005000   Zero   RW         2384    .bss                heap_4.o
    0x20009d1c        -       0x00000800   Zero   RW         2505    .bss                iap.o
    0x2000a51c        -       0x0000007c   Zero   RW         2532    .bss                protocol.o
    0x2000a598        -       0x00000060   Zero   RW         2689    .bss                c_w.l(libspace.o)
    0x2000a5f8        -       0x00000200   Zero   RW          685    HEAP                startup_stm32f10x_hd.o
    0x2000a7f8        -       0x00000800   Zero   RW          684    STACK               startup_stm32f10x_hd.o


==============================================================================

Image component sizes


      Code (inc. data)   RO Data    RW Data    ZI Data      Debug   Object Name

       108         18          0          4          0      11195   delay.o
         0          0          0          0          0      11780   event_groups.o
       752        176          0         24      20480       3831   heap_4.o
       148         14          0          4       2048       1952   iap.o
         0          0          0          0          0     204776   key.o
        76          8          0          0          0        491   led.o
       148          0          0          0          0       3022   list.o
      1218        234          0         16      10272     223195   main.o
       172         22          0          0          0       2045   misc.o
       950        320          0         12          0      10109   port.o
       490          6          0          0        124       4597   protocol.o
      2164        238          0          0         64      15281   queue.o
        64         26        304          0       2560        792   startup_stm32f10x_hd.o
       496         26          0          0          0       5087   stm32f10x_dma.o
       274         30          0          0          0       3414   stm32f10x_flash.o
       426          6          0          0          0       3321   stm32f10x_gpio.o
        20          0          0          0          0      41805   stm32f10x_it.o
       308         38          0         20          0       4990   stm32f10x_rcc.o
       452          6          0          0          0       6199   stm32f10x_usart.o
       310         10          0          0       2048       3513   stmflash.o
         6          0          0          0          0        364   sys.o
       328         28          0         20          0       2077   system_stm32f10x.o
      3138        802          0         60        740      27801   tasks.o
      1310        312          0         20         40       8407   timers.o
      1396        170          0         35       6360      13447   usart.o

    ----------------------------------------------------------------------
     14776       2490        336        216      44736     613491   Object Totals
         0          0         32          0          0          0   (incl. Generated)
        22          0          0          1          0          0   (incl. Padding)

    ----------------------------------------------------------------------

      Code (inc. data)   RO Data    RW Data    ZI Data      Debug   Library Member Name

         8          0          0          0          0         68   __main.o
       104          0          0          0          0         84   __printf.o
         0          0          0          0          0          0   __rtentry.o
        12          0          0          0          0          0   __rtentry2.o
         6          0          0          0          0          0   __rtentry4.o
        52          8          0          0          0          0   __scatter.o
        26          0          0          0          0          0   __scatter_copy.o
        28          0          0          0          0          0   __scatter_zi.o
        44          0          0          0          0        108   _printf_char.o
        48          6          0          0          0         96   _printf_char_common.o
        36          4          0          0          0         80   _printf_char_file.o
         6          0          0          0          0          0   _printf_d.o
       120         16          0          0          0         92   _printf_dec.o
       178          0          0          0          0         88   _printf_intcommon.o
         0          0          0          0          0          0   _printf_percent.o
         4          0          0          0          0          0   _printf_percent_end.o
         6          0          0          0          0          0   _printf_s.o
        82          0          0          0          0         80   _printf_str.o
        16          0          0          0          0         68   aeabi_memset.o
        18          0          0          0          0         80   exit.o
         8          0          0          0          0         68   ferror.o
         6          0          0          0          0        152   heapauxi.o
         2          0          0          0          0          0   libinit.o
         2          0          0          0          0          0   libinit2.o
         2          0          0          0          0          0   libshutdown.o
         2          0          0          0          0          0   libshutdown2.o
         8          4          0          0         96         68   libspace.o
        24          4          0          0          0         84   noretval__2printf.o
        68          0          0          0          0         68   rt_memclr.o
        78          0          0          0          0         80   rt_memclr_w.o
       138          0          0          0          0         68   rt_memcpy_v6.o
       100          0          0          0          0         80   rt_memcpy_w.o
         2          0          0          0          0          0   rtexit.o
        10          0          0          0          0          0   rtexit2.o
        74          0          0          0          0         80   sys_stackheap_outer.o
         2          0          0          0          0         68   use_no_semi.o
         2          0          0          0          0         68   use_no_semi_2.o

    ----------------------------------------------------------------------
      1332         42          0          0         96       1728   Library Totals
        10          0          0          0          0          0   (incl. Padding)

    ----------------------------------------------------------------------

      Code (inc. data)   RO Data    RW Data    ZI Data      Debug   Library Name

      1322         42          0          0         96       1728   c_w.l

    ----------------------------------------------------------------------
      1332         42          0          0         96       1728   Library Totals

    ----------------------------------------------------------------------

==============================================================================


      Code (inc. data)   RO Data    RW Data    ZI Data      Debug   

     16108       2532        336        216      44832     607259   Grand Totals
     16108       2532        336        216      44832     607259   ELF Image Totals
     16108       2532        336        216          0          0   ROM Totals

==============================================================================

    Total RO  Size (Code + RO Data)                16444 (  16.06kB)
    Total RW  Size (RW Data + ZI Data)             45048 (  43.99kB)
    Total ROM Size (Code + RO Data + RW Data)      16660 (  16.27kB)

==============================================================================

